:100000000C944B010C943D0B0C9468010C9468010A
:100010000C9468010C94610B0C9468010C9464229C
:100020000C94DC220C944A230C9468010C94DE0B93
:100030000C9468010C9468010C9468010C9468019C
:100040000C9468010C9468010C9468010C94B4063B
:100050000C9468013C2D852DC12D0C2E5E335E3332
:100060005E335E335E335E335E335E335E335E3308
:100070005E335E335E335E335E335E335E335E33F8
:100080005E335E33612E5E335E335E335E337A2ED3
:100090005E33922E5E335E335E335E335E33BB2E51
:1000A000CE2E5E33E02EEE2EF72E002F092F122FCC
:1000B0005E335E33202F2D2F3B2F532FA82FD72FAA
:1000C000EA2F5E335E335E335E335E335E335E3320
:1000D0005E335E331F305E335E335E3349305E33F2
:1000E0005E335E33C531DA31F23108325E335E336E
:1000F0005E335E331B323C325B3281325E335E33C1
:100100005E335E339732FE3249335E335E335E33A5
:100110005E33922E652F722F7F2F8C2F9B2FBB2E3D
:10012000CE2E5E33E02EEE2EF72E002F092F122F4B
:100130005E335E33202F2D2F3B2F532F5E335E33E4
:100140005E335E3376308B30A430C630E130FB3026
:100150005E335E335E335E335E335E332D316C313E
:100160005E335E33C531DA31F23108325E335E33ED
:100170005E335E335E335E335E335E335E335E33F7
:100180005E335E335E335E335E335E335E335E33E7
:100190005E335E33652F722F7F2F8C2F9B2F5E3344
:1001A0005E335E335E335E335E335E335E335E33C7
:1001B0005E335E33202F2D2F3B2F532F5E335E3364
:1001C0005E335E3376308B30A430C630E130FB30A6
:1001D0005E335E335E335E335E335E335E335E3397
:1001E0005E335E33C531DA31F2310832072C7AA53D
:1001F000BA6CC590DA3B9365FC8BBC53F810FD3CA0
:100200005692834DBD879D3AB63DCBC9BF5BBE7349
:10021000DA0FC93F07634236B79BD8A71A39685629
:1002200018AEBAAB558C1D3CB7CC5763BD6DEDFD18
:10023000753EF6177231BF000000803F08000000D5
:10024000BE922449123EABAAAA2ABECDCCCC4C3ECB
:1002500000000080BEABAAAAAA3E00000000BF00BA
:100260000000803F0000000000084178D3BB4387B6
:10027000D1133D190E3CC3BD4282AD2B3E68EC82CA
:1002800076BED98FE1A93E4C80EFFFBE01C4FF7F4F
:100290003F000000000011241FBECFE5D8E0DEBF04
:1002A000CDBF10E0A0E6B0E0EEEBF2E702C00590B3
:1002B0000D92A836B107D9F713E0A8E6B0E001C067
:1002C0001D92A634B107E1F70E946A010C945D39D2
:1002D0000C9400000E94800A0E94FD0F81E060E003
:1002E0000E942A150E943E100E94EA150E94CE1616
:1002F0000E9461190E94571C0E9492240E94732937
:100300000E94A72CEFCF562F40E0282F30E0242B5F
:10031000352BC90108950197F1F70895E09169001F
:10032000F0916A00208181E090E00090680002C0B6
:10033000880F991F0A94E2F7282B20830895E091F3
:100340006900F0916A00208181E090E000906800EF
:1003500002C0880F991F0A94E2F780958223808358
:1003600008951FB8779BFECF8FB108958FB9779B03
:10037000FECF08950F931F93DF93CF930F92CDB7C6
:10038000DEB788E06FEF0E9489098E010F5F1F4F73
:10039000C80160E070E040E050E020E030E00E9402
:1003A0009F09898161E00E945B0990936A008093B4
:1003B00069008981982F97709093680061E00E948E
:1003C000510889E06FEF0E948909C80160E070E080
:1003D00040E050E020E030E00E949F09898161E028
:1003E0000E9451088AE06FEF0E948909C80160E00D
:1003F00070E040E050E020E030E00E949F098981F9
:1004000060E00E9451088BE06FEF0E948909C801EB
:1004100060E070E040E050E020E030E00E949F09A2
:10042000898161E00E945108E0916900F0916A00C1
:10043000208181E090E00090680002C0880F991F41
:100440000A94E2F7282B208381E58DB90F90CF9194
:10045000DF911F910F9108950F931F93CF93DF9317
:10046000EC010E949F0180EA0E94B6010E94B10146
:10047000182F0E94B1010E948E01212F30E0C90186
:1004800084759070892B11F404E00CC0C90184714B
:100490009070892B11F402E005C012FF02C080E0C9
:1004A00037C000E00E949F01802F80640E94B60147
:1004B00088810E94B60189810E94B6018A810E94CA
:1004C000B6018B810E94B6018C81893010F088E0E2
:1004D0008C838C810E94B60110E007C0FE01E10F01
:1004E000F11D85810E94B6011F5F8C811817B0F342
:1004F0000E948E0100000E949F01002311F481E8F8
:1005000002C0802F80680E94B6010E948E0181E0A7
:10051000DF91CF911F910F9108951F93CF93DF9398
:10052000EC010E949F0180EB0E94B6010E94B10184
:10053000182F0E94B1010E948E0116FF0FC08091FA
:100540006B00882311F017FD09C00E949F0180E90C
:100550000E94B60181E080936B000BC017FD02C0C2
:1005600080E026C00E949F0184E90E94B60110929B
:100570006B000E94B10188830E94B10189830E94AF
:10058000B1018A830E94B1018B830E94B1018F70F7
:100590008C8310E007C00E94B101FE01E10FF11D44
:1005A00085831F5F8C811817B0F30E948E0181E054
:1005B000DF91CF911F910895DF92EF92FF920F93F9
:1005C0001F93182FF62EE42ED22E0E949F0182E058
:1005D0000E94B601812F90E0133008F00196880F39
:1005E000880F0E94B6018F2D0E94B6018E2D0E94A9
:1005F000B6018D2D0E94B601802F0E94B6010E9487
:100600008E011F910F91FF90EF90DF900895DF9280
:10061000EF92FF920F931F93182FF62EE42ED22EF7
:100620000E949F0182E00E94B601112311F480E232
:1006300001C084E20E94B6018F2D0E94B6018E2D6A
:100640000E94B6018D2D0E94B601802F0E94B60136
:100650000E948E011F910F91FF90EF90DF900895FF
:10066000FF920F931F93182F062FF42E0E949F01C5
:1006700085E00E94B601812F0E94B601802F0E9462
:10068000B6018F2D0E94B6010E948E011F910F911D
:10069000FF9008958FE060EE40E00E9430030895DF
:1006A0000F931F93182F062F0E949F0182E00E9434
:1006B000B601812F0E94B601802F0E94B6010E94D0
:1006C0008E011F910F9108951F93182F0E949F0173
:1006D00083E00E94B601812F0E94B6010E94B10101
:1006E000182F0E948E01812F1F9108950E949F0153
:1006F00080EC0E94B6010E948E01089510926B005A
:100700000E94BA010E9476038AE261E30E945003CC
:1007100089E261EB0E94500388E265E00E94500389
:1007200080E664E40E94500380E760E40E94500386
:100730000895E0917600F0917700408181E090E0AB
:100740009C0100906C0002C0220F331F0A94E2F754
:10075000422B40830000E0917600F09177002081E9
:1007600000906C0002C0880F991F0A94E2F78095F0
:10077000822380830895EF92FF921F93CF93DF939C
:10078000E0917400F091750040812FE030E0C901E4
:100790000090790002C0880F991F0A94E2F78095B3
:1007A00084238083E0917200F09173008081009037
:1007B000790002C0220F331F0A94E2F72095282304
:1007C0002083E0917000F0917100208183E090E03F
:1007D0000090780002C0880F991F0A94E2F7809574
:1007E00082238083E0917000F0917100208181E08C
:1007F00090E00090780002C0880F991F0A94E2F7F9
:10080000282B2083C1E0D0E088E0E82EF12CE09195
:100810007600F09177002081CE0100906C0002C03C
:10082000880F991F0A94E2F7282B20830000E0919B
:100830006E00F0916F001081C7010090790002C036
:10084000880F991F0A94E2F71823E0917600F0913F
:1008500077002081CE0100906C0002C0880F991FA4
:100860000A94E2F78095822380830E9499031123E2
:1008700071F6E0917400F091750020818FE090E0B6
:100880000090790002C0880F991F0A94E2F7282B84
:100890002083DF91CF911F91FF90EF900895EF9209
:1008A000FF920F931F93E0917200F091730090817B
:1008B0000FE010E098010090790002C0220F331F72
:1008C0000A94E2F7209529232083E0917200F091A9
:1008D00073004081E82EFF249701207F30705091F3
:1008E000790084E090E0851B910902C03595279539
:1008F0008A95E2F7422B40830E949903E0917200AF
:10090000F091730080810090790002C0000F111FE8
:100910000A94E2F7009508230083E0917200F091B9
:10092000730080819FE0E922FF240090790002C0DB
:10093000EE0CFF1C0A94E2F78E2980830E94990333
:100940001F910F91FF90EF9008951F93182F882308
:10095000B1F00E94BB03E0917000F0917100208122
:1009600083E090E00090780002C0880F991F0A94FD
:10097000E2F7809582238083812F0E944F041F918C
:1009800008951F93182F803A31F10E94BB03E09124
:100990007000F0917100208183E090E00090780079
:1009A00002C0880F991F0A94E2F780958223808302
:1009B000E0917000F0917100208182E090E0009061
:1009C000780002C0880F991F0A94E2F7282B208331
:1009D000812F0E944F041F910895E0917A00F091B9
:1009E0007B0030916D00882359F0208181E090E0F8
:1009F00002C0880F991F3A95E2F7282B20830895AB
:100A0000208181E090E002C0880F991F3A95E2F7BB
:100A100080958223808308951F93CF93DF93EC0109
:100A200011E007C0FE01E10FF11D80810E94C104A9
:100A30001F5F88818117B0F7DF91CF911F910895D3
:100A4000CF92DF92EF92FF920F931F93DF93CF939A
:100A500000D0CDB7DEB780E360EF0E948909082F90
:100A600010E092E0C92ED12CCC0EDD1E7E01089440
:100A7000E11CF11C5DC0C701B60140E050E020E080
:100A800030E00E949F098A81882359F0883029F13B
:100A9000883008F448C08A3069F18B3009F043C0CF
:100AA00036C0898161E00E945B0990937300809356
:100AB0007200898160E00E945B0990936F008093CF
:100AC0006E0089810E9443099093750080937400A1
:100AD000898187708093790026C0898161E00E94B6
:100AE0005B09909371008093700089818770809377
:100AF000780019C0898161E00E945B0990937700BA
:100B0000809376008981877080936C000CC0898106
:100B100061E00E945B0990937B0080937A00898159
:100B2000877080936D00898161E00E9451081F5F8A
:100B3000101708F4A0CF002309F473C010E080EE72
:100B40009EE20E948B011F5F1A30C9F7E09170008E
:100B5000F0917100408123E030E0C90100907800FD
:100B600002C0880F991F0A94E2F78095842380833E
:100B7000E0917200F091730040818FE090E000906E
:100B8000790002C0880F991F0A94E2F780958423A8
:100B90008083E0917200F091730080810090790071
:100BA00002C0220F331F0A94E2F7822B80830E9437
:100BB000990380E797E10E948B010E9499038AE5DF
:100BC00090E00E948B010E9499038AE590E00E94C8
:100BD0008B01E0917200F0917300208181E090E040
:100BE0000090790002C0880F991F0A94E2F780955F
:100BF000822380830E94990389E20E94A50480E5F4
:100C00000E94A5048CE60E94A5048CE70E94A5041E
:100C10008CE00E94A50481E00E94A50486E00E9469
:100C2000A5040F900F90CF91DF911F910F91FF902E
:100C3000EF90DF90CF90089586B7817008958091EE
:100C40008100089506B600FCFDCF80917C000895D8
:100C500080937F000895E0918300F0918400E80F75
:100C6000F11D60830895462FDC0120E014C08091BF
:100C70007F00E0918300F0918400E80FF11D8D91D9
:100C8000808380917F00609182008F5F0E94FE3799
:100C900090937F002F5F241750F3089581E0809395
:100CA0007E00089506B600FCFDCF882311F08093E6
:100CB00080001092810088EF80937C0085EA86BFD7
:100CC0000895CF93DF93EC0106B600FCFDCF60934F
:100CD0008000E0918300F091840088818083E0911E
:100CE0008300F0918400808180FD13C091E00DC0ED
:100CF000E92FF0E0A0918300B0918400AE0FBF1FF8
:100D0000EC0FFD1F80818C939F5F8091800098176E
:100D100078F31092810088EF80937C0085EA86BF8B
:100D2000DF91CF910895E0918300F0918400E80F66
:100D3000F11D808108959C0106B600FCFDCF8091D5
:100D40008100882371F0D90190E009C0E09183000F
:100D5000F0918400E90FF11D80818D939F5F9617BC
:100D6000A8F38091810008951F920F920FB60F9201
:100D700011242F933F938F939F93EF93FF9381B110
:100D80008832D1F0893240F48031A1F08831A1F06D
:100D9000883009F059C00EC08034B9F1813420F494
:100DA000883309F051C04EC0803511F1883509F003
:100DB0004BC039C010927D0090917D0080918000E1
:100DC000981760F4E0918300F0918400E90FF11D21
:100DD000808183B99F5F90937D0023C081E08093E1
:100DE000810080917E00882359F110927E0031C0ED
:100DF00080917D0093B1E0918300F0918400E80F31
:100E0000F11D90838F5F80937D0020917D0030E005
:100E10008091800090E001972817390714F485EC41
:100E200017C085E815C093B180917D00E0918300E3
:100E3000F0918400E80FF11D908381E080938100A0
:100E400084E906C085EA04C081B180937C0084E017
:100E500086BFFF91EF919F918F913F912F910F90BE
:100E60000FBE0F901F901895809183009091840081
:100E70000E94DE3808958093820090E00E9431380D
:100E8000809383009093840010927F0010928000E2
:100E900010927D0010927E001092810088EF809366
:100EA0007C008CE080B98FEF83B984E086BF089521
:100EB0000F931F93082FF8948AB3802B8ABB8BB3B0
:100EC000102F109581238BBB83E995E00E948B0145
:100ED0008AB381238ABB8BB318231BBB85EC90E0BC
:100EE0000E948B0119B381EC94E00E948B017894ED
:100EF0001095802F81231F910F9108950F931F93B9
:100F0000082FF8948AB3802B8ABB8BB3102F1095CF
:100F100081238BBB85E090E00E948B018AB3812303
:100F20008ABB8BB318231BBB8EE090E00E948B0121
:100F300019B388E990E00E948B017894802F812377
:100F40001F910F910895FF920F931F93F82E10E0B9
:100F500000E016958F2D0E947E07811110680F5FAB
:100F60000830B9F7812F1F910F91FF9008951F93BB
:100F7000182FF8948AB3812B8ABB8BB310958123E9
:100F80008BBB87EA90E00E948B018AB381238ABBE6
:100F90008BB318231BBB81E190E00E948B017894F6
:100FA0001F9108951F93182FF8948AB3812B8ABB41
:100FB0008BB3109581238BBB85E090E00E948B0161
:100FC0008AB381238ABB8BB318231BBB83EB90E0CE
:100FD0000E948B0178941F910895FF920F931F93A5
:100FE000082FF62E10E000FF04C08F2D0E94D207BC
:100FF00003C08F2D0E94B7071F5F183011F00695B0
:10100000F2CF1F910F91FF900895682F8CEC0E94F2
:10101000ED0708959AB3809598239ABB9BB39823C4
:101020009BBB83E995E00E948B0108958091860027
:101030000895809386000895909388008093870098
:10104000089580938900089590E09C012F7130707D
:1010500085FF09C0F901EE0FFF1FE20FF31FEA57EA
:10106000FF4F66830895F901EE0FFF1FE20FF31F94
:10107000EA57FF4F64834583089590E0FC01EE0F2B
:10108000FF1FE80FF91FEA57FF4F8481089590E092
:10109000FC01EE0FFF1FE80FF91FEA57FF4F858194
:1010A0000895482F60FD3DC0883068F43AB3282F7A
:1010B000277081E090E002C0880F991F2A95E2F71F
:1010C000809583233BC0803168F437B3282F277085
:1010D00081E090E002C0880F991F2A95E2F7809581
:1010E00083233BC0883168F434B3282F277081E014
:1010F00090E002C0880F991F2A95E2F7809583231C
:101100003BC0803208F048C031B3282F277081E0FF
:1011100090E002C0880F991F2A95E2F780958323FB
:101120003AC0883068F48AB3942F977021E030E099
:1011300002C0220F331F9A95E2F7822B8ABB2CC084
:10114000803168F487B3942F977021E030E002C0BB
:10115000220F331F9A95E2F7822B87BB1DC088317F
:1011600068F484B3942F977021E030E002C0220F1E
:10117000331F9A95E2F7822B84BB0EC0803260F455
:1011800081B3942F977021E030E002C0220F331F0B
:101190009A95E2F7822B81BB61FF39C0483060F439
:1011A0002BB3477081E090E002C0880F991F4A95E9
:1011B000E2F7282B2BBB0895403160F428B3477029
:1011C00081E090E002C0880F991F4A95E2F7282B32
:1011D00028BB0895483160F425B3477081E090E062
:1011E00002C0880F991F4A95E2F7282B25BB089566
:1011F000403208F047C022B3477081E090E002C05F
:10120000880F991F4A95E2F7282B22BB0895483092
:1012100068F42BB3477081E090E002C0880F991FFB
:101220004A95E2F7809582238BBB0895403168F49C
:1012300028B3477081E090E002C0880F991F4A955B
:10124000E2F78095822388BB0895483168F425B37E
:10125000477081E090E002C0880F991F4A95E2F73D
:101260008095822385BB0895403260F422B3477095
:1012700081E090E002C0880F991F4A95E2F78095BF
:10128000822382BB0895883018F42AE330E011C02D
:10129000803118F427E330E00CC0883118F424E3DF
:1012A00030E007C0803218F421E330E002C020E0D3
:1012B00030E0C90108956623A1F4883018F429E3C9
:1012C00030E025C0803118F426E330E020C08831BA
:1012D00018F423E330E01BC08032B8F420E330E0A0
:1012E00016C0883018F42BE330E011C0803118F4B8
:1012F00028E330E00CC0883118F425E330E007C063
:10130000803218F422E330E002C020E030E0C9016E
:101310000895282F1092EA008093EB0060938500D7
:10132000EAE8F0E090E080818623821709F49F5F6D
:10133000339680E0EA3EF807B1F7892F08950F93BE
:101340001F93CF93DF93DC01EB01BA018901509128
:1013500085004091EB002091EA00322F3F5F822F01
:1013600090E0FC01EE0FFF1FE80FF91FEA57FF4F57
:1013700084818523841711F0232FEFCF2093EA0077
:101380002C93209781F02091850020958091EA0090
:1013900090E0FC01EE0FFF1FE80FF91FEA57FF4F27
:1013A0008481282328836115710569F08091EA0002
:1013B00090E0FC01EE0FFF1FE80FF91FEA57FF4F07
:1013C0008581FB0180830115110569F08091EA0098
:1013D00090E0FC01EE0FFF1FE80FF91FEA57FF4FE7
:1013E0008681F80180838091EA008F5F8093EA0014
:1013F000DF91CF911F910F910895982F87FD1EC007
:10140000AAE8B0E040E083E0989F900111242A0F01
:101410003B1F892F90E0FC01EE0FFF1FE80FF91F23
:10142000EA0FFB1F07C080819C918927862309F45E
:101430004F5F1396A217B307B1F703C00E94332979
:10144000482F842F0895282FEBE8F0E090E001C0AA
:101450009F5F8081821721F033969032C9F702C0D6
:10146000892F0895822F0E942229982FF9CF86E88C
:1014700090E060E070E044E650E00E9436390E945F
:10148000490C64E670E047E050E00E9436390E9463
:101490001B156BE670E042E050E00E9436390E9476
:1014A000AD156DE670E041E050E00E9436390E94D3
:1014B00064166EE670E048E050E00E9436390E9403
:1014C0006B1866E770E040E550E00E9436390E94F4
:1014D0006B1B66EC70E048E550E00E9436390E94D4
:1014E000C6276EE171E049E250E00E9436390E9461
:1014F000142C67E471E040E051E00E943639089511
:10150000F8940E94370A80918900893D09F446C009
:10151000EAE8F0E080E01082818312828F5F3396E8
:101520008032C9F780E16CE040E10E94240881E14B
:101530006DE041E10E9424088AE166E04AE10E94F0
:10154000240888E062E048E00E9424088CE068E01B
:101550004CE00E9424088DE069E04DE00E942408E0
:101560008EE06AE04EE00E9424088FE06BE04FE0DE
:101570000E94240880918900833B31F00E944C0C2A
:101580000E941E150E94B0150E9467160E946E18D8
:101590000E946E1B0E94C9270E94172C089586E89E
:1015A00090E060E070E044E650E00E9446390E941E
:1015B000490C64E670E047E050E00E9446390E9422
:1015C0001B156BE670E042E050E00E9446390E9435
:1015D000AD156DE670E041E050E00E9446390E9492
:1015E00064166EE670E048E050E00E9446390E94C2
:1015F0006B1866E770E040E550E00E9446390E94B3
:101600006B1B66EC70E048E550E00E9446390E9492
:10161000C6276EE171E049E250E00E9446390E941F
:10162000142C67E471E040E051E00E9446390895CF
:1016300086E890E063E070E041E050E00E944639C7
:1016400008950F938093ED006093EE004093EF00B8
:101650002093F0000093F1000F9108958091ED0028
:1016600008958091EE0008958091EF000895809193
:10167000F00008958091F10008951F920F920FB627
:101680000F9211242F933F934F935F936F937F9308
:101690008F939F93AF93BF93EF93FF930E94892300
:1016A000FF91EF91BF91AF919F918F917F916F913A
:1016B0005F914F913F912F910F900FBE0F901F9010
:1016C00018951F920F920FB60F9211242F933F93EC
:1016D0004F935F936F937F938F939F93AF93BF933A
:1016E000EF93FF9383E884BD8091EC008F5F80933C
:1016F000EC008F3009F051C01092EC008091F100A5
:101700008F5F8093F1008436D1F51092F1008091C3
:10171000F0008F5F8093F0000E94081C0E94402C14
:101720008091F0008C3359F51092F0008091EF0019
:101730008F5F8093EF000E94402C8091EF008C33EC
:10174000F1F41092EF008091EE008F5F8093EE0035
:101750000E94402C8091EE00883189F41092EE00B6
:101760008091ED008F5F8093ED000E94402C80916E
:10177000ED00873021F41092ED000E94402C0E9471
:10178000650C0E946D0C0E9453150E9487160E94E2
:1017900012190E9466290E943A2CFF91EF91BF9185
:1017A000AF919F918F917F916F915F914F913F91F9
:1017B0002F910F900FBE0F901F9018951F920F92B0
:1017C0000FB60F9211242F933F934F935F936F9314
:1017D0007F938F939F93AF93BF93EF93FF938EEF7E
:1017E00082BF0E94D023FF91EF91BF91AF919F9153
:1017F0008F917F916F915F914F913F912F910F90BA
:101800000FBE0F901F901895EF92FF920F931F93AA
:10181000DF93CF930F92CDB7DEB786E06FEF0E94D4
:101820008909082F10E07E010894E11CF11C0EC00C
:10183000C70160E070E040E050E020E030E00E944E
:101840009F09898162E00E9451081F5F101780F391
:101850001092ED001092EE001092EF001092F00046
:101860001092F10094E093BF89B7816089BF95BD64
:1018700089B7806489BF1092EC0083E085BF80E463
:101880008BBF0F90CF91DF911F910F91FF90EF9041
:1018900008958BE091E0089510920B0180E090E8AC
:1018A00090930D0180930C018FEF80930E0184E0E3
:1018B00080930F01109210011092110108958091F0
:1018C0000B0108958091100108958091FC008823F8
:1018D00019F081508093FC0008958091F4008823D2
:1018E00019F081508093F4000895282F30E0C90149
:1018F000807F9070803F910519F080E090E008951E
:1019000040E02F7081E090E002C0880F991F2A9577
:10191000E2F720910C0130910D0182239323892B52
:1019200009F441E081E04827842F0895282F409151
:101930000A0150910901451701F1842F90E033E02D
:10194000880F991F3A95E1F7E091F700F091F800C0
:10195000E80FF91F2193DB0187E00D900192815080
:10196000E1F75F3F11F44093090160910F01842F6B
:101970008F5F0E94FE3790930A0108958091F700CF
:101980009091F8000E94DE38089587FD07C0282F47
:1019900030E0207730702037310519F40E94B615F9
:1019A00008952032310511F40E94B6150895BF92B2
:1019B000CF92DF92EF92FF920F931F93DF93CF931B
:1019C000CDB7DEB727970FB6F894DEBF0FBECDBFF9
:1019D000B82EE22E680180910B016817D1F089833F
:1019E0006A8398E09B834C831D821E822F8381E053
:1019F0008093F200B092F3009093F4006093F500AE
:101A00004093F6008FE7BE016F5F7F4F0E94C50CC9
:101A100085C0842F0E94230AF82E8FEFF81609F450
:101A20006EC0F7FC5DC08F2D0E943D0887FD03C08E
:101A300000E010E008C08F2D60E80E94FD090E94C0
:101A40008B16082F10E08F2D0E943D08887F803272
:101A500099F48F2D68EF0E94FD096E2D0E941819D0
:101A60008C01C114D10441F4EFEFBE1629F054E00B
:101A7000169507955A95E1F78F2D0E943D08887FAE
:101A8000883299F48F2D68EF0E94FD096E2D0E9417
:101A90000E1C8C01C114D10441F4FFEFBF1629F0D4
:101AA00044E0169507954A95E1F78F2D0E943D0871
:101AB000807F803141F48F2D60EF0E94FD090E94EC
:101AC000031F082F10E08F2D0E943D08807C80347A
:101AD000C1F48F2D60EC0E94FD090E9438220CC0D9
:101AE0008F2D8F770E94DA28803C49F48F2D6FEF7D
:101AF0000E94FD090E945829082F10E002C000E052
:101B000010E0C114D10429F48B2D602F0E942F2CDA
:101B100005C089E0F60182830483158327960FB6FA
:101B2000F894DEBF0FBECDBFCF91DF911F910F9113
:101B3000FF90EF90DF90CF90BF900895DF93CF9309
:101B4000CDB7DEB727970FB6F894DEBF0FBECDBF77
:101B500090910B01998390910E019A839FE79B834B
:101B60008C836D834E832F838FE7BE016F5F7F4F22
:101B70000E94C50C27960FB6F894DEBF0FBECDBFEE
:101B8000CF91DF910895DF93CF93CDB7DEB727973D
:101B90000FB6F894DEBF0FBECDBF90910B019983B5
:101BA0009A8392E09B838C836D834E835F838FE760
:101BB000BE016F5F7F4F0E94C50C27960FB6F89449
:101BC000DEBF0FBECDBFCF91DF910895BF92CF9200
:101BD000DF92EF92FF920F931F93DF93CF93CDB7D6
:101BE000DEB727970FB6F894DEBF0FBECDBF982F94
:101BF000B62EF42E6901882319F4662321F4EDC072
:101C00008F3F09F4EAC020910B01921729F1298333
:101C10009A831B82BC82FD82CE82DF8281E0809328
:101C2000FA000093FB00ADEFB0E0FE01319687E0D3
:101C300001900D928150E1F79093FD002093FE00FA
:101C40001092FF0088E08093FC008FE7BE016F5F79
:101C50007F4F0E94C50C0CC18B2D0E94230AE82ED9
:101C60000E943D08887F803281F48E2D68EF0E94AB
:101C7000FD09982F0330110518F081E0F8018283E7
:101C8000892F6F2DA6010E94E9188E2D0E943D0814
:101C9000887F883281F48E2D68EF0E94FD09982F8D
:101CA0000330110518F081E0F8018283892F6F2D30
:101CB000A6010E94E01B8F2D85568B3140F0FEE877
:101CC000FF1528F085E6C81689E1D80640F00330F4
:101CD000110508F482C082E0F8018283C9C0FFEFD9
:101CE000EF1609F47AC0E7FC7EC08E2D0E943D08F5
:101CF000807F803111F58E2D60EF0E94FD09E82E66
:101D00000330110518F081E0F8018283F0E8FF1636
:101D100069F48E2D0E94031F882319F08E2D60E038
:101D200002C08E2D64E60E941A1FA2C084E68F15A1
:101D300008F49EC08E2D6F2DF6CF8E2D0E943D088B
:101D4000807C803409F049C08E2D60EC0E94FD0932
:101D5000982F0330110518F081E0F8018283F5E82F
:101D6000FF1609F1FF1550F081E8F816A1F0E2E83E
:101D7000FE16A9F0F0E8FF1631F509C087E8F8165D
:101D8000D1F0F816A0F0E8E8FE16E9F418C0892FA3
:101D90000E9471266DC0892F0E94BA2669C0892FC2
:101DA0000E949E2665C0892F0E94302661C0892F1F
:101DB0000E941C265DC0892F0E94E72359C0892FED
:101DC0000E944E2655C0F4E6FF1508F451C0892F35
:101DD0006F2DA6010E9470254BC08B2D6F2DA60183
:101DE0000E94C30D45C06FE7D62EDE208D2D0E94C8
:101DF000DA28803CD1F58E2D6FEF0E94FD09982FD7
:101E00000330110518F081E0F8018283F6E8FF162F
:101E1000C1F0FF1538F080E8F81659F0E5E8FE1635
:101E2000E1F40BC0F7E8FF1681F088E8F816A9F492
:101E300010C0892F0E94A42B1BC0892F0E94622BE7
:101E400017C0892F0E94462B13C0892F0E945B2A3E
:101E50000FC0892F0E947E2B0BC0E4E6EF1540F0E7
:101E6000892F6F2D0E94742A03C08D2D0E94DA28BD
:101E700027960FB6F894DEBF0FBECDBFCF91DF918E
:101E80001F910F91FF90EF90DF90CF90BF9008953A
:101E9000DF93CF93CDB7DEB727970FB6F894DEBFA9
:101EA0000FBECDBF482F80910B0189832FEF2A836E
:101EB00028E12B831C824D839E831F82692F50E073
:101EC00020E00E94462C8FE7BE016F5F7F4F0E948B
:101ED000C50C27960FB6F894DEBF0FBECDBFCF91CD
:101EE000DF910895DF93CF93CDB7DEB727970FB675
:101EF000F894DEBF0FBECDBF80910B0189838FEFB9
:101F00008A838BE78B831C821D821E821F828FE750
:101F1000BE016F5F7F4F0E94C50C27960FB6F894E5
:101F2000DEBF0FBECDBFCF91DF9108951F93DF932A
:101F3000CF93CDB7DEB727970FB6F894DEBF0FBEAD
:101F4000CDBF182F90910B018823F9F099838A83D4
:101F500080E18B836C834D835E832F83191731F06F
:101F60008FE7BE016F5F7F4F0E94C50C80910B0110
:101F7000181729F0812F0E94750C882331F080E01A
:101F8000BE016F5F7F4F0E94960C27960FB6F894A4
:101F9000DEBF0FBECDBFCF91DF911F91089583E4C7
:101FA0000E943B0780910F0190E073E0880F991F1A
:101FB0007A95E1F70E9431388093F7009093F8000A
:101FC0008FEF8093090110920A011092080110927C
:101FD000FA001092FC00EDEFF0E0119281E0E430A5
:101FE000F807D9F71092F2001092F3001092F40063
:101FF0001092F5001092F6000895F8940E943407AC
:102000008091F7009091F8000E94DE380E949F16A0
:102010000E945A190E94501C0E94131F0E94DA232A
:102020000E946C290E94A02C19BE83E40E943B07E9
:102030000E94040C0E94CF0F0E9471150E940C1682
:102040000E94D8170E94F41A0E942E1E0E94A11E00
:102050000E945D1F0E94D6260E94C62B0E947933E3
:1020600078940E94720F089580E00E9421080E94D7
:10207000180B0E94800A0E94FD0F0895CF92DF92F4
:10208000EF92FF920F931F93DF93CF93CDB7DEB7FD
:102090002E970FB6F894DEBF0FBECDBF8091090119
:1020A0008F3F09F48CC490E023E0880F991F2A9594
:1020B000E1F7E090F700F090F800E80EF91E80914B
:1020C0001001882369F0D70112969C9180910B0131
:1020D000981731F0F70181918068BF010E94C50C0B
:1020E000F701928180910B01981731F0892F0E949E
:1020F000750C882309F453C4D70113968C91282FAB
:1021000030E0837809F090C3DE011196F701319633
:1021100087E001900D928150E1F7F70183818C33C4
:1021200009F437C18D33A8F4803109F44BC08131F3
:1021300030F4882321F1883009F018C337C08C317E
:1021400009F462C0883309F4D4C0883109F00EC3A1
:102150004DC0803609F4BBC2813638F4803409F4AE
:102160006DC18C3409F002C371C1883709F4C8C24B
:102170008C3709F4DAC2843609F0F8C2B1C2D7014B
:1021800017963C91179720E016968C911697280F7A
:10219000311D80910B0114966C91149715964C91FA
:1021A0008E010F5F1F4F0E94E60DE0C280E060913C
:1021B0000B01F701448127818E010F5F1F4F0E94A1
:1021C000D70CD4C2D70111961C91119714960C917B
:1021D000149715968C91159716966C910E94830111
:1021E000AC01812F602FF70127810BC0D701159615
:1021F0004C91159711968C91119716966C9150E011
:1022000020E00E94462CB2C2F7016481262F30E004
:10221000C9018E7F9070803A910521F0883A91052E
:1022200009F065C020FF63C06E7F80E00E942B062E
:1022300081E0D70116966C910E942B0682E0F7018F
:1022400065810E942B060E944E0683E00E94520682
:102250000E941C068823E1F7D70114966C910E9416
:102260002B06F70187818F5F0E9452060E941C0691
:102270008823E1F780910B018887D70111968C9113
:1022800089878DE18A8701E088E0C82ED12CCC0EA9
:10229000DD1E27C0802F0E9493068B87802F8F5FC3
:1022A0000E9493068C87102F1D5F802F8E5F0E94E7
:1022B00093068D870C5F812F0E9493068E878091F5
:1022C000090190E013E0880F991F1A95E1F7E0915A
:1022D000F700F091F800E80FF91F8081B6010E9425
:1022E000C50CF70187818017A8F68DE13EC28EE10B
:1022F0003CC2D70114968C91813081F0813020F05E
:10230000803109F033C21AC0809108018823A1F4FA
:10231000F70185818093080189E327C29091080124
:10232000992351F089E38B83903119F480E00E9466
:102330001908109208011AC28AE317C28091080195
:10234000803119F0803209F011C280E0D701159672
:102350006C910E942B0681E0F70167810E942B0699
:1023600082E0D70116966C910E942B0683E00E94B2
:1023700028061092F900F701848180930401858179
:1023800080930501868180930601878180930701F0
:10239000EDC180910801803119F0803209F0E6C169
:1023A000D70114968C91149790910401890F809312
:1023B000040115968C91159790910501890F8093D2
:1023C000050116968C91169790910601890F8093BE
:1023D000060117962C9180910701280F2093070181
:1023E0009091F900903198F480910801803121F0AA
:1023F000983068F4803259F4C701049664E00E9472
:1024000033068091F9008F5F8093F900AFC180910E
:10241000050190910401892B90910601892B822B53
:1024200011F08EE3A2C180910801803111F483E4A0
:1024300001C083E20E9452068DE397C1F7018481B7
:10244000658146810E94240881E48FC1D7011496DA
:102450008C91883109F45BC08931A8F48830E1F1AE
:10246000893040F4863069F1873088F5843009F08E
:102470009AC022C08D30B1F1803109F440C089305A
:1024800009F091C02CC0803209F469C0813250F447
:102490008C3109F44BC08E3109F44FC08B3109F0F7
:1024A00082C039C0853209F46FC0803609F477C024
:1024B000843209F078C063C0F70185810E94210849
:1024C00072C0D70115968C9180930E016CC0F701F4
:1024D00085818093110167C00E94CF0A64C00E9469
:1024E000370A61C0D70115968C91159716966C9195
:1024F0000E94830190930D0180930C0154C0F70159
:10250000858166810E9483010E9425154CC00E942E
:1025100016088D8348C0D70115968C91159716968D
:102520006C910E9483010E941C083DC082E08D8353
:1025300085E08E838BE08F8336C0F7012581220FE3
:10254000220F220F85E19FE3A2E0B0E004C0B59521
:10255000A795979587952A95D2F78E8324C0D701A2
:1025600015961C91159716968C91169717966C9147
:102570000E948301BC01812F0E947E1614C0F701C6
:1025800085810E94C21F0FC0D70115968C911597A7
:1025900016966C910E9483010E94C51F04C0F7012A
:1025A000858180930F01D70114968C91807E8034B1
:1025B00009F040C010E0812F0E944708F701958183
:1025C000891719F01F5F1032B1F7012F0770D7017B
:1025D00014969C911497892F807F8034D1F4892F91
:1025E0008F70182F169580FD0DC016968C9116973A
:1025F00017966C910E948301AC01802F612F0E947D
:10260000931807C0802F612FF701468127810E9410
:10261000AC18D70114968C911497803559F41696FE
:102620008C91169717966C910E948301BC01802FA4
:102630000E948218F7018481807E803809F045C0AD
:1026400010E0812F0E944708D70115969C918917A9
:1026500019F01F5F1032A9F7012F0770F70194815D
:10266000892F807F8038D1F4892F8F70182F16958D
:1026700080FD0AC0868167810E948301AC01802FA2
:10268000612F0E94A01B0AC0802F612FD7011696D0
:102690004C91169717962C910E94B81BF7018481D4
:1026A000803941F4868167810E948301BC01802FBB
:1026B0000E94831BD70114968C911497813929F4B9
:1026C000802F16966C910E94921B8DE44EC0F701EC
:1026D00084816581468127810E94E42781E645C087
:1026E000D70117968C918F3F19F40E94172C06C0C2
:1026F000F7018481658146810E94232C85E635C0DF
:10270000D70117966C911797862F877066956695F7
:10271000669516964C91169715962C9115971496CA
:102720000C910E94210B89E720C0EDEFFFE7E491B7
:10273000D70115968C9115978E17C1F4EEEFFFE730
:10274000E49116968C9116978E1781F4EFEFFFE7C0
:10275000E49117968C9117978E1741F414968C91EB
:1027600080930B010E940C168DE78B8380910B01E7
:102770008983F70181818A838B8190E083709070D7
:10278000892BA1F08091090190E0B3E0880F991F97
:10279000BA95E1F7E091F700F091F800E80FF91F22
:1027A0008081BE016F5F7F4F0E94C50CD7011396D9
:1027B0008C9113978C3409F0F2C014968C9183306D
:1027C000F1F0843030F4813061F0823009F0E7C0FC
:1027D0000BC08A30E1F0823101F1853009F0DFC0B1
:1027E00011C00E94FD0FDBC0F89428E088E190E062
:1027F0000FB6F894A89581BD0FBE21BDFFCF0E94F2
:102800003410CDC0F701858180930B010AC0D70138
:1028100015968C9180931001C2C0F70185810E94AA
:10282000B3150E940C16BBC08091F200813059F59F
:10283000D70111969C9111978091F500981719F581
:102840002C7F307028303105F1F414969C91149748
:102850008091F6009817B9F41092F2001092F400EB
:1028600013968C911397893071F416966C91169784
:102870006295607F15968C9182958F70682B809100
:10288000F3000E942F2C8091FA008130A1F58091F5
:10289000090190E0A3E0880F991FAA95E1F7E09164
:1028A000F700F091F800E80FF91F83818C7F838394
:1028B0008091090190E0F3E0880F991FFA95E1F704
:1028C000A091F700B091F800A80FB91FEDEFF0E06C
:1028D00021E011969C9111978081981320E0119628
:1028E000319681E0E430F807A1F7213021F410920D
:1028F000FA001092FC00D70113968C9113978B3736
:1029000009F04DC000911101013009F048C08091DB
:102910000B01898311968C918A8388E78B830E94AF
:102920003A0B8C830E94370B8D830E94340B8E836D
:102930000E94310B182F0E942E0B110F110F110F37
:10294000182B1F830093FA00ADEFB0E0FE01319623
:1029500087E001900D928150E1F7F701818180932A
:10296000FD0080910B018093FE0089E78093FF00BA
:1029700088E08093FC008091090190E0E3E0880FFB
:10298000991FEA95E1F7E091F700F091F800E80F60
:10299000F91F8081BE016F5F7F4F0E94C50C80913F
:1029A000090160910F018F5F0E94FE37909309012A
:1029B00080910A01981719F48FEF80930901809193
:1029C000F200813071F48091F400882351F4109268
:1029D000F20081E06091F50048E02091F6000E944D
:1029E0009E0D8091FA008130B9F48091FC0088231B
:1029F00099F41092FA008091FB00813021F48AE072
:102A00006AE00E942A1581E06091FD004091FF007C
:102A1000209100010E949E0D2E960FB6F894DEBF05
:102A20000FBECDBFCF91DF911F910F91FF90EF901F
:102A3000DF90CF90089585E191E008958FEF9FEFAB
:102A40009093160180931501089590931601809339
:102A500015010895482F21E030E0C90102C0880F18
:102A6000991F6A95E2F7BC018091150190911601BA
:102A700068237923672BB1F08AE0489FC0011124B5
:102A80009093140180931301E0911701F0911801C4
:102A900080810090120102C0220F331F0A94E2F7D6
:102AA000822B8083089580911301909114010097E7
:102AB00091F4E0911701F0911801208181E090E0FC
:102AC0000090120102C0880F991F0A94E2F78095C6
:102AD00082238083089501979093140180931301BA
:102AE0000895EF92FF920F931F93DF93CF930F926E
:102AF000CDB7DEB782E06FEF0E948909082F10E0A2
:102B00007E010894E11CF11C1AC0C70160E070E06E
:102B100040E050E020E030E00E949F09898161E0C0
:102B20000E945B0990931801809317018981982F67
:102B300097709093120161E00E9451081F5F101777
:102B400020F310921401109213010F90CF91DF9196
:102B50001F910F91FF90EF90089586E291E0089504
:102B6000109226010895809326010895482FFB01B5
:102B7000803269F0282F30E0C9018F77809711F0FB
:102B800047FD05C02F7030702F30310511F5809151
:102B900026018093190188E080931A018081809337
:102BA0001B01818180931C0185E080931D01DF0161
:102BB000EEE1F1E012968C9112978193119681E0EB
:102BC000E332F807B9F789E191E00E942C028823EB
:102BD000D1F3089587E291E00E948D028823D9F015
:102BE00080912701809334018091290180933501E0
:102BF00080912A0180933601ECE2F1E0A7E3B1E095
:102C000081918D9381E0E133F807D1F780E265E3AC
:102C100071E00E94960C08950F931F93DF93CF935A
:102C20000F92CDB7DEB70E94620C882311F41FEF1C
:102C300001C010E00E947E0380E06FEF48E020E0DA
:102C4000012F0E9407038091260189830E945F0C57
:102C5000082F80E0698148E020E00E94DC0281E0EA
:102C60006091260148E020E00FEF0E94DC02107F17
:102C700081E06FEF48E020E0012F0E94070382E02F
:102C80006091260148E020E000EF0E94DC0283E032
:102C90006091260148E020E00E94DC0284E060911F
:102CA000260148E020E00E94DC0285E060912601D8
:102CB00048E020E00E94DC020E944A030F90CF917E
:102CC000DF911F910F9108958CE391E00895109288
:102CD0003D0110923C018AE090E090933F01809387
:102CE0003E0182E390E0909341018093400186E9A8
:102CF00090E090934301809342010895E82FF0E023
:102D0000EE0FFF1FE45CFE4F71836083089581E046
:102D1000809347010895282F30E0C90153E0880FC0
:102D2000991F5A95E1F7220F331F820F931FE091ED
:102D30004501F0914601E80FF91F808108958091C7
:102D40004501909146010E94DE3808959AE0899FDE
:102D5000C0011124E0914501F0914601E80FF91FEF
:102D6000218120952795222727952083E0914501F1
:102D7000F0914601E80FF91F2081237F262B208345
:102D8000E0914501F0914601E80FF91F40818185EE
:102D9000608550E020E00E94960F0895FF920F9307
:102DA0001F93CF93DF9380914701813009F0FAC0E0
:102DB00010E07AE0F72E01E0EEC01F9DE001112443
:102DC000E0914501F0914601EC0FFD1F8281938156
:102DD000009719F0019793838283A0914501B091E8
:102DE0004601AC0FBD1F11962C911197422F50E058
:102DF0001496ED91FC911597808190E016960C90B9
:102E0000169702C0959587950A94E2F7842795272F
:102E100080FF8DC027FF39C02F7711962C93E0914A
:102E20004501F0914601EC0FFD1F8781482F50E0CE
:102E30004C7050704C30510591F48091420190914A
:102E4000430122813381821B930B209140013091F9
:102E500041018217930718F0812F68E014C04830B1
:102E600051059CF080914001909141012281338174
:102E7000821B930B20913E0130913F0182179307F3
:102E800020F0812F64E00E94A616E0914501F091A8
:102E90004601EC0FFD1F878185FF09C080913E012F
:102EA00090913F0193838283818180688183A09187
:102EB0004501B0914601AC0FBD1F11968C91119741
:102EC00090E09C012170307080FD06C017968C91B7
:102ED000179780FD08C022C0222301F117968C911C
:102EE000179781FF1BC01796EC911797E695E6950B
:102EF000F0E0E370F070EE0FFF1FE45CFE4F8081A6
:102F0000918113969C938E931297E0914501F091D5
:102F10004601EC0FFD1F818180688183E0914501AE
:102F2000F0914601EC0FFD1F818180278183A091E4
:102F30004501B0914601AC0FBD1F11964C91119700
:102F4000242F30E01496ED91FC911597808190E04C
:102F500016960C90169702C0959587950A94E2F7FD
:102F60008227932780FD16C047FF14C012968D91CB
:102F70009C911397892B71F44F7711964C93E091A4
:102F80004501F0914601EC0FFD1F67816C70812FA8
:102F90000E94A6161F5F80914401181708F40DCFF8
:102FA00010924701DF91CF911F910F91FF900895EB
:102FB000AF92BF92CF92DF92EF92FF920F931F9347
:102FC000DF93CF930F92CDB7DEB71092470180E821
:102FD00060E80E948909982F809344018AE0989FB5
:102FE000C00111240E94313880934501909346011D
:102FF000DD24EAE0CE2E5E010894A11CB11C5AC06B
:10300000DC9C7001112460914501709146016E0DA8
:103010007F1DAB01485F5F4F9B01275F3F4FC5019D
:10302000695F7F4F0E949F09009145011091460101
:103030000E0D1F1D898160E00E945B09F8019583D8
:103040008483A0914501B0914601AE0DBF1D398129
:10305000232F277016962C9316971496ED91FC91BA
:103060001597808190E002C0959587952A95E2F7A3
:10307000817011968C93E0914501F0914601EE0D1F
:10308000FF1D818180958795882787958083E091B2
:103090004501F0914601EE0DFF1D138212828781DA
:1030A00084FD03C0832F60E002C0832F62E00E9492
:1030B0005108D39480914401D81608F4A1CF0F9001
:1030C000CF91DF911F910F91FF90EF90DF90CF9004
:1030D000BF90AF90089589E491E00895E9E4F1E0AC
:1030E00088E592E091838083138212821482158294
:1030F00017821682108611863A9621E0E939F20786
:1031000089F70895282F30E0F90193E0EE0FFF1FB3
:103110009A95E1F7220F331FE20FF31FE75BFE4F93
:10312000718360830895E62FF0E0EE0FFF1FEE0F2E
:10313000FF1F282F30E0C90173E0880F991F7A958F
:10314000E1F7220F331F820F931FE80FF91FE75B90
:10315000FE4F538342830895EF92FF920F931F9384
:1031600070E08B010F5F1F4FE9E4EE2EE1E0FE2ED1
:10317000000F111F000F111FE82FF0E0DF0133E0F7
:10318000AA0FBB1F3A95E1F7EE0FFF1FAE0FBF1F4F
:103190000A0F1B1F0E0D1F1DF8014083660F771FBE
:1031A000660F771F482F50E0CA0113E0880F991F60
:1031B0001A95E1F7440F551F840F951F680F791F6B
:1031C000E60EF71EF70125831F910F91FF90EF90F8
:1031D0000895282F862F82958F708A3011F5862FBB
:1031E00090E083709070892BE1F466956695E62FE8
:1031F000F0E0E370F070EE0FFF1FEE0FFF1F822F65
:1032000090E09C01B3E0220F331FBA95E1F7880FDD
:10321000991F280F391FE20FF31FE75BFE4F5383FF
:1032200042830895809199018F5F80939901089559
:10323000582F462F662319F06FEF7FEF12C0282F0B
:1032400030E0C90173E0880F991F7A95E1F7820F8A
:10325000931FE0919B01F0919C01E80FF91F6081A1
:103260007181842F82958F708A3011F5842F90E0C0
:1032700083709070892BE1F446954695E42FF0E039
:10328000E370F070EE0FFF1FEE0FFF1F852F90E031
:103290009C0153E0220F331F5A95E1F7880F991FC5
:1032A000280F391FE20FF31FE75BFE4F6281738126
:1032B000CB01089580919B0190919C010E94DE3882
:1032C0000895AF92BF92CF92DF92EF92FF920F9349
:1032D0001F93CF93DF93809199018A30D0F01092A1
:1032E000990150919A0140E020E030E010C0E09157
:1032F0009B01F0919C01E20FF31F82819381009763
:1033000019F00197938382834F5F275F3F4F4517E3
:1033100070F3909148019F3F09F408C1369906C1A6
:1033200089E0989FC0011124E0919B01F0919C01DC
:10333000E80FF91F1182108224B130E0220F331FF1
:10334000220F331F3183208345B1942F990F990F9A
:1033500080E0282B392B31832083EE24FF2499E051
:10336000A92E0E2D809148018A9DC0011124C09183
:103370009B01D0919C01C80FD91F4E81D701AA0F84
:10338000BB1FAA0FBB1F842F90E0FC0113E0EE0FC0
:10339000FF1F1A95E1F7880F991FE80FF91FEA0F31
:1033A000FB1FE75BFE4FC280D380F7013196EE0F23
:1033B000FF1FEE0FFF1F842F90E09C0153E0220FB0
:1033C000331F5A95E1F7880F991F280F391FE20F15
:1033D000F31FE75BFE4FB080842F90E09C01F3E089
:1033E000220F331FFA95E1F7880F991F280F391F15
:1033F000A20FB31FA75BBE4F15961C9112FF2CC0E6
:10340000888199818C159D0558F410FD09C01160C3
:103410004E2D406488856F8150E020E00E94960F19
:10342000809148018A9DC0011124E0919B01F09197
:103430009C01E80FF91F96012B0D311D80819181B0
:103440008217930748F010FF07C01E7F80856781B1
:10345000A70120E00E94960F13FF38C08091480119
:103460008A9DC0011124E0919B01F0919C01E80F1D
:10347000F91F80819181C816D90658F411FD09C041
:103480001260402F406C8085678150E020E00E94F0
:10349000960F809148018A9DC0011124E0919B0103
:1034A000F0919C01E80FF91FCB18D1088081918120
:1034B000C816D90658F011FF09C01D7F0068808525
:1034C0006781402F50E020E00E94960F80914801D4
:1034D00090E09C0173E0220F331F7A95E1F7280FEB
:1034E000391FE0919B01F0919C01E20FF31FD7017E
:1034F000AA0FBB1FAA0FBB1F868190E09C0153E05F
:10350000220F331F5A95E1F7880F991F280F391F93
:10351000A20FB31FA75BBE4F15961C930894E11C26
:10352000F11C82E0E816F10409F01BCF80914801FC
:103530008F3F11F036994DC0482F4F5F20919A016F
:10354000A0919B01B0919C0111C0842F90E0FC01DF
:1035500033E0EE0FFF1F3A95E1F7E80FF91FEA0F8E
:10356000FB1F82819381892B21F04F5F421768F303
:103570002DC029E0429F90011124A20FB31F16967F
:103580008C91169790E0FC0103E0EE0FFF1F0A9567
:10359000E1F7880F991FE80FF91FE75BFE4F808165
:1035A000918113969C938E93129787B1887F87B9E8
:1035B00097B1E0919B01F0919C01E20FF31F86818E
:1035C000982B97B9369A4093480103C08FEF8093A8
:1035D0004801DF91CF911F910F91FF90EF90DF9005
:1035E000CF90BF90AF900895AF92BF92CF92DF92ED
:1035F000EF92FF920F931F93DF93CF930F92CDB76C
:10360000DEB780E268EF0E948909982F80939A01C3
:1036100089E0989FC00111240E94313880939B015A
:1036200090939C01DD2459E0C52E5E010894A11CF5
:10363000B11C36C0DC9C7001112440919B0150915B
:103640009C014E0D5F1D9A01285F3F4FC50160E050
:1036500070E0495F5F4F0E949F0900919B011091AC
:103660009C010E0D1F1D898160E00E945B09F8011D
:1036700095838483E0919B01F0919C01EE0DFF1DE9
:103680008981868311821082E0919B01F0919C01D7
:10369000EE0DFF1D1382128260E00E945108D39448
:1036A00090919A01D91630F2109299018FEF809380
:1036B000480180EC87B9992311F087E886B90F900B
:1036C000CF91DF911F910F91FF90EF90DF90CF90FE
:1036D000BF90AF90089582EA91E00895E2EAF1E0A8
:1036E0008CE390E09183808312821482138215828E
:1036F000168210861782118612863B9621E0EA3FD9
:10370000F20781F7089590E02BE030E0829FF0010E
:10371000839FF00D929FF00D1124EE55FE4F7183A3
:103720006083089590E02BE030E0829FF001839F5A
:10373000F00D929FF00D1124EE55FE4F6283089517
:10374000E62FF0E090E0EE0FFF1FEE0FFF1F2BE0E3
:1037500030E0BC01629FC001639F900D729F900D8D
:103760001124E80FF91FEE55FE4F5483438308954B
:103770000F931F93CF93DF9390E070E0660F771F56
:10378000660F771F02EA11E0FB013296ABE0B0E072
:10379000EC01CA9FC001CB9F900DDA9F900D1124C0
:1037A000E80FF91FE00FF11F4383680F791F060F21
:1037B000171FF8012683DF91CF911F910F91089574
:1037C000282F862F82958F708A3009F5862F90E0FA
:1037D00083709070892BD9F466956695E62FF0E09A
:1037E000E370F07030E0EE0FFF1FEE0FFF1F8BE075
:1037F00090E0BC01269FC001279F900D369F900D41
:103800001124E80FF91FEE55FE4F548343830895AA
:103810008091A1018F5F8093A1010895582F462FB9
:10382000662319F06FEF7FEF12C0282F30E0C90137
:10383000E3E0880F991FEA95E1F7821B930BE09173
:103840009E01F0919F01E80FF91F60817181842F23
:1038500082958F708A3011F5842F90E0837090707C
:10386000892BE1F446954695E42FF0E0E370F07083
:10387000252F30E0EE0FFF1FEE0FFF1F8BE090E0D3
:10388000AC01249FC001259F900D349F900D112401
:10389000E80FF91FEE55FE4F63817481CB01089547
:1038A00080919E0190919F010E94DE3808952F9291
:1038B0003F924F925F926F927F928F929F92AF92C0
:1038C000BF92CF92DF92EF92FF920F931F93CF930D
:1038D000DF938091A101882309F4ADC11092A10169
:1038E00044247BE0272E312CA1C127E0429E5001C9
:1038F0001124E0919E01F0919F01EA0DFB1D81E0F2
:1039000090E0048002C0880F991F0A94E2F7D82E35
:1039100082819381009719F0019793838283E091CC
:103920009E01F0919F01EA0DFB1D82819381019719
:1039300009F58D2D0E9458078823E1F08D2D0E94F6
:103940000508E0919E01F0919F01EA0DFB1D848125
:1039500090E0829DF001839DF00D929DF00D112469
:10396000EE55FE4F82818150823020F484E46D2D2B
:103970000E94ED07E0919E01F0919F01EA0DFB1D71
:1039800082819381892B09F050C18D2D0E945807A7
:10399000882309F48AC08D2D0E940508E0919E01BC
:1039A000F0919F01EA0DFB1D848190E0829DF00162
:1039B000839DF00D929DF00D1124EE55FE4F8281F6
:1039C000813021F0823009F070C022C08EEB6D2D65
:1039D0000E94ED0700919E0110919F010A0D1B1D91
:1039E0008D2D0E94A307F80180831182E0909E0133
:1039F000F0909F01EA0CFB1CF701008111818D2DD5
:103A00000E94A307982E882408291929F7014BC082
:103A10008EEB6D2D0E94ED0700919E0110919F018C
:103A20000A0D1B1D8D2D0E94A307F80180831182B2
:103A3000E0909E01F0909F01EA0CFB1CF7010081D1
:103A400011818D2D0E94A307782E6624062917293F
:103A5000F701118300838D2D0E94A3078D2D0E94F5
:103A6000A3078D2D0E94A3078D2D0E94A307E0912F
:103A70009E01F0919F01EA0DFB1D008111811595BA
:103A800007958D2D0E94A30754E0000F111F5A9532
:103A9000E1F7045F1F4FE0919E01F0919F01EA0D55
:103AA000FB1D081B11091183008300E010E0F02EBC
:103AB000C0919E01D0919F01CA0DDB1D8C8190E0C9
:103AC000D801AA0FBB1FAA0FBB1F829DF001839DC7
:103AD000F00D929DF00D1124AE0FBF1FAE55BE4FDD
:103AE0001396CD90DC901497C801880F991F880F0A
:103AF000991FE80FF91FEC55FE4F53801696EC9076
:103B0000E2FE29C0888199818C159D0564F4E0FC52
:103B10000AC0F1E0EF2A402F40648E816D8150E0B1
:103B200020E00E94960FE0919E01F0919F01EA0D26
:103B3000FB1D9601250D311D808191818217930710
:103B400054F0E0FE08C02EEFE22286816581A801D4
:103B500020E00E94960FE3FE31C0E0919E01F091BB
:103B60009F01EA0DFB1D80819181C816D90664F47E
:103B7000E1FC0AC032E0E32A4F2D406C868165816A
:103B800050E020E00E94960FE0919E01F0919F018D
:103B9000EA0DFB1DC518D10880819181C816D90690
:103BA0006CF0E1FE0BC08DEFE82220E8F22A86815E
:103BB00065814F2D50E020E00E94960FA0919E015C
:103BC000B0919F01AA0DBB1D14968C91149790E0A3
:103BD000F801EE0FFF1FEE0FFF1F9C01229DC00199
:103BE000239D900D329D900D1124E80FF91FEE5585
:103BF000FE4FE6820F5F1F4F0230110509F057CFCD
:103C000014968C91149790E02BE030E0829FF001A5
:103C1000839FF00D929FF00D1124EE55FE4F808191
:103C2000918113969C938E931297439480919D015A
:103C3000481608F45ACEDF91CF911F910F91FF9053
:103C4000EF90DF90CF90BF90AF909F908F907F903C
:103C50006F905F904F903F902F900895AF92BF92DA
:103C6000CF92DF92EF92FF920F931F93DF93CF9348
:103C70000F92CDB7DEB788E268EF0E948909982FCE
:103C800080939D0187E0989FC00111240E943138E4
:103C900080939E0190939F011092A001FF24F7E072
:103CA000EF2E5E010894A11CB11CE1E0CE2ED12CB8
:103CB00032C0FE9C8001112440919E0150919F01D1
:103CC000400F511F9A012A5F3F4FC50160E070E02D
:103CD0004B5F5F4F0E949F09E0919E01F0919F0111
:103CE000E00FF11F2981248311821082E0919E014F
:103CF000F0919F01E00FF11F13821282C60102C0F2
:103D0000880F991F2A95E2F79C018091A001822BD0
:103D10008093A001F39480919D01F81650F21092C7
:103D2000A1018091A0010E940A080F90CF91DF911C
:103D30001F910F91FF90EF90DF90CF90BF90AF90C9
:103D400008957F928F929F92AF92BF92CF92DF920F
:103D5000EF92FF920F931F93DF93CF9300D0CDB7D5
:103D6000DEB780E06EEF0E948909782EEE2432E003
:103D7000832E912C8C0E9D1E5E010894A11CB11CFB
:103D800021E0C22ED12C2DC0C501B40140E050E08D
:103D900020E030E00E949F09898161E00E945B0978
:103DA0008C01898197E0F92EF82261E00E94510888
:103DB0008A81813051F4F8012081C60102C0880F48
:103DC000991FFA94E2F7282B0AC0F8012081C60156
:103DD00002C0880F991FFA94E2F780952823208368
:103DE000E394E71488F20F900F90CF91DF911F9129
:103DF0000F91FF90EF90DF90CF90BF90AF909F908A
:103E00008F907F90089590E09C01220F331F280F20
:103E1000391F220F331FE091FB01F091FC01E20FEB
:103E2000F31F808108958091FB019091FC010E9415
:103E3000DE380895462F96E0899FB0011124E09165
:103E4000FB01F091FC01E60FF71F40834423A1F032
:103E5000E091FB01F091FC01E60FF71FA181B28117
:103E60002C9181E090E0038002C0880F991F0A9492
:103E7000E2F7282B2C9314C0E091FB01F091FC0198
:103E8000E60FF71FA181B2812C9181E090E00380C1
:103E900002C0880F991F0A94E2F7809582238C93C1
:103EA000E091FB01F091FC01E60FF71F8581648131
:103EB00050E020E00E94960F0895AF92BF92CF92FB
:103EC000DF92EF92FF920F931F93DF93CF930F92A6
:103ED000CDB7DEB780E160EF0E948909982F80930B
:103EE000FA0186E0989FC00111240E943138809326
:103EF000FB019093FC01DD2456E0C52E5E01089481
:103F0000A11CB11C2FC0DC9C700111244091FB014D
:103F10005091FC014E0D5F1D9A012B5F3F4FC50173
:103F200060E070E04C5F5F4F0E949F090091FB01D1
:103F30001091FC010E0D1F1D898161E00E945B093B
:103F4000F80192838183E091FB01F091FC01EE0D79
:103F5000FF1D8981982F97709383108261E00E94E2
:103F60005108D3948091FA01D81668F20F90CF913E
:103F7000DF911F910F91FF90EF90DF90CF90BF9056
:103F8000AF90089580930402089590930602809361
:103F900005020895CF92DF92EF92FF920F931F9345
:103FA000CF93DF938C01C42E81E0809308027B01C4
:103FB000601771070CF47801C801845D9E4F1816D4
:103FC000190614F408591A43C701845D9E4F181648
:103FD000190624F488E695ECE80EF91E8091FF019D
:103FE000882381F550E04AE026C0E0910C02549FFE
:103FF000C00111242091FD013091FE01280F391FCD
:10400000EE2319F465E070E002C060E070E08E2FEE
:1040100090E0FC01EE0FFF1FEE0FFF1FE80FF91FEE
:10402000D901A60FB71FE20FF31F85E001900D9293
:104030008150E1F75F5F809101025817B0F281E093
:104040008093FF01A091FD01B091FE0120E030E0DE
:1040500080910C02882311F421E030E050E0B90196
:10406000660F771F660F771F620F731F01C05F5FB8
:10407000852F90E0FC0143E0EE0FFF1F4A95E1F72A
:10408000880F991FE80FF91FEA0FFB1FE60FF71FB4
:104090008481C81661F740E0B901660F771F660F8B
:1040A000771F620F731F01C04F5F842F90E0FC01E8
:1040B00033E0EE0FFF1F3A95E1F7880F991FE80FE5
:1040C000F91FEA0FFB1FE60FF71F80819181801710
:1040D000910754F3541718F06AE0D62E65C041508A
:1040E0003AC0C091FD01D091FE01E52FF0E060E003
:1040F00070E080910C02882311F461E070E0DF0130
:10410000AA0FBB1FCF0123E0880F991F2A95E1F763
:10411000A80FB91FAC0FBD1F9B01220F331F220F29
:10412000331F260F371FCF010196FC0173E0EE0FFE
:10413000FF1F7A95E1F7880F991FE80FF91FEC0F21
:10414000FD1FA20FB31FE20FF31F85E001900D9238
:104150008150E1F75F5F541720F228C0E091FD0124
:10416000F091FE015D9D9001112460E070E080916E
:104170000C02882311F461E070E02E0F3F1FCB0189
:10418000880F991F880F991F860F971FD901A80FB5
:10419000B91F2A503040F901E80FF91F85E001905E
:1041A0000D928150E1F751504517C0F28AE0489FC7
:1041B000C00111246091FD017091FE01680F791F0B
:1041C00020E030E080910C02882311F421E030E0FF
:1041D000F901EE0FFF1FEE0FFF1FE20FF31FE60FB7
:1041E000F71F11830083F382E282C48210920802D7
:1041F000DF91CF911F910F91FF90EF90DF90CF90C3
:104200000895CF92DF92EF92FF920F931F93CF9377
:10421000DF937C01C42E81E0809308028B016E1530
:104220007F050CF48701C701845D9E4F181619069F
:1042300024F488E695ECE80EF91EC801845D9E4FD3
:104240001816190614F408591A438091FF0188239F
:1042500081F550E04AE026C0E0910C02549FC00175
:1042600011242091FD013091FE01280F391FEE230A
:1042700019F465E070E002C060E070E08E2F90E01D
:10428000FC01EE0FFF1FEE0FFF1FE80FF91FD90112
:10429000A60FB71FE20FF31F85E001900D9281502A
:1042A000E1F75F5F809101025817B0F281E08093DF
:1042B000FF01A091FD01B091FE0120E030E080916E
:1042C0000C02882311F421E030E050E0B901660FC0
:1042D000771F660F771F620F731F01C05F5F852F07
:1042E00090E0FC0143E0EE0FFF1F4A95E1F7880FD5
:1042F000991FE80FF91FEA0FFB1FE60FF71F8481D4
:10430000C81661F740E0B901660F771F660F771F87
:10431000620F731F01C04F5F842F90E0FC0133E0F8
:10432000EE0FFF1F3A95E1F7880F991FE80FF91F6D
:10433000EA0FFB1FE60FF71F828193818017910719
:1043400054F3541718F06AE0D62E65C041503AC0B5
:10435000C091FD01D091FE01E52FF0E060E070E03A
:1043600080910C02882311F461E070E0DF01AA0F54
:10437000BB1FCF0123E0880F991F2A95E1F7A80FF3
:10438000B91FAC0FBD1F9B01220F331F220F331F1C
:10439000260F371FCF010196FC0173E0EE0FFF1FC0
:1043A0007A95E1F7880F991FE80FF91FEC0FFD1FB1
:1043B000A20FB31FE20FF31F85E001900D92815011
:1043C000E1F75F5F541720F228C0E091FD01F09102
:1043D000FE015D9D9001112460E070E080910C026F
:1043E000882311F461E070E02E0F3F1FCB01880F8E
:1043F000991F880F991F860F971FD901A80FB91F02
:104400002A503040F901E80FF91F85E001900D9224
:104410008150E1F751504517C0F28AE0489FC00132
:1044200011246091FD017091FE01680F791F20E059
:1044300030E080910C02882311F421E030E0F90192
:10444000EE0FFF1FEE0FFF1FE20FF31FE60FF71F28
:10445000F182E08213830283C48210920802DF910A
:10446000CF911F910F91FF90EF90DF90CF90089523
:1044700090E09C01B4E0220F331FBA95E1F7280FBA
:10448000391FE0910202F0910302E20FF31F6081F5
:10449000718180E090E00E94123520E030E048EC2D
:1044A00052E40E94203620E030E04FE753E40E94BF
:1044B000793420E030E040E05FE30E9402340E9463
:1044C000E634DC01CB0108951F920F920FB60F92D4
:1044D00011241F932F933F934F935F936F937F9379
:1044E0008F939F93AF93BF93CF93DF93EF93FF93FC
:1044F0001AE071E1C1E0D0E024C08481879FC0014F
:104500001124A0910202B0910302A80FB91F8D914E
:104510009C911197892B81F01B96ED91FC911C9732
:104520002081CE011D960C9002C0880F991F0A941D
:10453000E2F7809582238083809107028F5F8093CA
:1045400007024AB55BB560910702619FC001112463
:10455000E091FD01F091FE01E80FF91F20910C029E
:1045600030E0C901880F991F880F991F820F931F90
:10457000E80FF91F20813181C901CC9748175907ED
:1045800028F080910102681708F4B7CF3BBD2ABD1F
:10459000FF91EF91DF91CF91BF91AF919F918F915B
:1045A0007F916F915F914F913F912F911F910F904C
:1045B0000FBE0F901F9018951F920F920FB60F927B
:1045C00011241F932F933F934F935F936F937F9388
:1045D0008F939F93AF93BF93CF93DF93EF93FF930B
:1045E0001AE071E1C1E0D0E01BC08481879FC00167
:1045F0001124E0910202F0910302E80FF91FA38554
:10460000B4852C91CE01058402C0880F991F0A94AD
:10461000E2F7282B2C93809100028F5F8093000299
:1046200048B559B560910002619FC0011124E09125
:10463000FD01F091FE01E80FF91F20910C0230E01E
:10464000C901880F991F880F991F820F931FE80FC8
:10465000F91F22813381C901CC974817590720F0EF
:1046600080910102681708F239BD28BDFF91EF91D2
:10467000DF91CF91BF91AF919F918F917F916F917A
:104680005F914F913F912F911F910F900FBE0F900F
:104690001F9018951F920F920FB60F9211242F930F
:1046A0003F934F935F936F938F939F93AF93BF937A
:1046B000EF93FF9330E061E141E050E016C0369F98
:1046C000C0011124E0910202F0910302E80FF91FEA
:1046D000A385B4852C91CA01058402C0880F991F57
:1046E0000A94E2F7282B2C933F5F80910102381740
:1046F00030F3FF91EF91BF91AF919F918F916F91A7
:104700005F914F913F912F910F900FBE0F901F908F
:1047100018952091090230910A02C9010A9645971D
:1047200018F029523940DCF186E19FEF90930A029C
:10473000809309028CE394EC9DBD8CBD109207021E
:10474000109200028091FF01813061F48091080293
:10475000882341F490E080910C02882309F491E0D1
:1047600090930C02E091FD01F091FE0120910C026A
:1047700030E0C901880F991F880F991F820F931F7E
:10478000E80FF91F808191819BBD8ABD8281938151
:1047900099BD88BD81E080930B021092FF010895BE
:1047A0008091090290910A02019690930A028093E7
:1047B0000902089580910202909103020E94DE385E
:1047C0008091FD019091FE010E94DE3808950F93C3
:1047D0001F9321E1829F9001112400910202109108
:1047E0000302020F131FF8012081318133832283DA
:1047F0000E943822482FF8018089678550E020E028
:104800000E94960F1F910F91089520E030E040E73D
:1048100053E40E94203620E030E04FE753E40E944A
:10482000793420E030E04FE753E40E94793423E309
:1048300033E343E35FE30E9483369B01AC01CA018B
:10484000B9010E94023420E030E040E85FE30E94BA
:1048500001340E94F3332BED3FE049E450E40E9421
:10486000793426E636E646E65FE30E9483369B010E
:10487000AC01CA01B90120E030E64AE656E40E94E4
:1048800020360E9466340E94E1349B01AC013095D1
:1048900021953F4FC901089520E030E040E753E4FF
:1048A0000E94203620E030E04FE753E40E94793444
:1048B00020E030E04FE753E40E94793423E333E310
:1048C00043E35FE30E9483369B01AC01CA01B90157
:1048D0000E94023420E030E040E85FE30E940134AF
:1048E0000E94F3332BED3FE049E450E40E94793419
:1048F00026E636E646E65FE30E9483369B01AC017E
:10490000CA01B90120E030E64AE656E40E942036AA
:104910000E9466340E94E1349B01AC0128593A435D
:10492000C90108950F931F93CF93DF9380910B02DA
:10493000813009F0D0C010E001E1C6C0109FE00155
:104940001124E0910202F0910302EC0FFD1F878118
:104950009085009709F0B4C0208131814281538154
:104960002417350708F04FC081859285820F931F69
:104970008417950718F49183808302C05183408384
:10498000E0910202F0910302EC0FFD1F868583FF88
:104990000FC06081718180E090E00E9412350E941A
:1049A0000524BC0186E494EC412F0E9401211CC027
:1049B0006081718181FD0DC080E090E00E94123520
:1049C0000E944C246091050270910602680F791FC5
:1049D00008C080E090E00E9412350E944C2460E004
:1049E00070E0412F0E94CA1FE0910202F091030281
:1049F000EC0FFD1F808191818F3F910509F057C019
:104A00008685806853C04217530708F050C06185FF
:104A10007285CB01840F951F8217930728F4261BFC
:104A2000370B3183208302C051834083E09102021F
:104A3000F0910302EC0FFD1F868583FF0FC060819C
:104A4000718180E090E00E9412350E940524BC0133
:104A500086E494EC412F0E9401211CC06081718189
:104A600081FD0DC080E090E00E9412350E944C2430
:104A70006091050270910602680F791F08C080E0FE
:104A800090E00E9412350E944C2460E070E0412FBB
:104A90000E94CA1FE0910202F0910302EC0FFD1F79
:104AA00080819181892B19F486858F778687E091A3
:104AB0000202F0910302EC0FFD1F8581968101C077
:104AC0000197908787831F5F80910102181708F470
:104AD00035CF10920B02DF91CF911F910F91089566
:104AE000CF92DF92EF92FF920F931F93CF93DF93BA
:104AF000D82EC62E81E1D89E70011124E0910202C9
:104B0000F0910302EE0DFF1D868580FF06C0433045
:104B1000510518F403E010E006C082FD02C08A01CE
:104B200002C000E010E082FF05C0CC2019F0CFEFFA
:104B3000D0E009C08FEFC89EC001112464E670E088
:104B40000E941E38EB010115110599F5D183C08330
:104B5000E0910202F0910302EE0DFF1D8685282FE1
:104B600083FF0EC0BE0180E090E00E9412350E94DB
:104B70000524BC0188E695EC4D2D0E94012119C049
:104B8000BE0180E090E021FD0BC00E9412350E9422
:104B90004C246091050270910602680F791F06C0CF
:104BA0000E9412350E944C2460E070E04D2D0E945E
:104BB000CA1FE0910202F0910302EE0DFF1DD383A4
:104BC000C28360817181C617D70728F4CB018C1B83
:104BD0009D0BEC0102C0C61BD70BC801880F991FA3
:104BE000980153E0220F331F5A95E1F7820F931F6C
:104BF000BE010E940A386583768367837087CE0181
:104C0000B8010E940A38CB016AE070E00E940A38BD
:104C10006F5F7F4F72876187808967854C2D50E079
:104C200020E00E94960FDF91CF911F910F91FF908E
:104C3000EF90DF90CF9008951F93182F0E94382295
:104C400090910402899FC001112464E670E00E94E3
:104C50000A38AB01812F60E00E9470251F910895F2
:104C60001F93182F0E94382224E630E0281B3109B8
:104C70008091040290E0AC01249FC001259F900D1B
:104C8000349F900D112464E670E00E940A38AB0155
:104C9000812F64E60E9470251F910895CF93DF93C2
:104CA000982F81E1989FE0011124E0910202F09198
:104CB0000302EC0FFD1F868587FF04C0892F0E9429
:104CC0001C2603C0892F0E943026E0910202F09139
:104CD0000302EC0FFD1F868580588687DF91CF91F8
:104CE00008951F93182F0E943822482F212F30E05B
:104CF000E0910202F0910302882371F0C901A4E05F
:104D0000880F991FAA95E1F7820F931FE80FF91FEB
:104D10004483812F60E00CC0C90174E0880F991FA3
:104D20007A95E1F7820F931FE80FF91F812F6481B5
:104D300040E050E00E9470251F9108951F93CF938B
:104D4000DF93182F0E943822C82FD0E0209769F0F7
:104D500022978FEFCF3FD80711F4C0E0D0E0812F2A
:104D60006C2F40E050E00E9470258C2FDF91CF9196
:104D70001F9108951F93CF93DF93182F0E9438221D
:104D8000C82FD0E0C436D10561F02296C536D105D2
:104D900014F0C4E6D0E0812F6C2F40E050E00E9478
:104DA00070258C2FDF91CF911F9108957F928F9264
:104DB0009F92AF92BF92CF92DF92EF92FF920F93AA
:104DC0001F93DF93CF930F92CDB7DEB710920B02F4
:104DD00080E460EC0E948909982F8093010281E1B0
:104DE000989FC00111240E94313880930202909351
:104DF0000302DD2471E1772E4E010894811C911C81
:104E000064E6C62E51E0A52EB12C40C0D79C70019F
:104E1000112460910202709103026E0D7F1DAB019F
:104E2000415F5F4F9B01205F3F4FC401625F7F4F37
:104E30000E949F0900910202109103020E0D1F1D96
:104E4000898161E00E945B09F80194878387E09182
:104E50000202F0910302EE0DFF1D8981982F9770D9
:104E6000958711821082E0910202F0910302EE0D0B
:104E7000FF1D13821282C482168215821086178249
:104E8000B286A18661E00E945108D394209101026C
:104E9000D21608F4BBCF8CE3809304028CE390E03D
:104EA0009093060280930502822F90E001969C0168
:104EB00043E0220F331F4A95E1F7880F991F820FB5
:104EC000931F0E943138AC019093FE018093FD0145
:104ED00030E06AE016C0369FF0011124E40FF51FA0
:104EE0001182108280910502909106029383828341
:104EF0003483DF01159685E001900D928150E1F732
:104F00003F5F20910102321730F3822F90E0FC01C5
:104F100013E0EE0FFF1F1A95E1F7880F991FE80FB6
:104F2000F91FE40FF51F2FEF3FE731832083E09156
:104F300001028AE0E89FF0011124E40FF51F33839A
:104F40002283DF01159685E001900D928150E1F7F3
:104F500010920C021092FF0182E08EBD89B7806131
:104F600089BF89B7886089BF89B7846089BF0F907E
:104F7000CF91DF911F910F91FF90EF90DF90CF9035
:104F8000BF90AF909F908F907F9008958FE092E0B8
:104F9000089510920F0210921002109211021092B6
:104FA000120210921A0210921B0210921C0210920E
:104FB0002402109225021092260210922E021092C4
:104FC0002F02109230020895982F542F722F8823A9
:104FD00021F0A0E1B2E0E0E028C040910F02242FD0
:104FE00030E0F901EE0FFF1FC901B3E0880F991FF0
:104FF000BA95E1F7E80FF91FE15FFD4F6183F90111
:10500000EE0FFF1FEE0FFF1FE20FF31FEE0FFF1F4C
:10501000EF5EFD4F508371834F5F40930F02089501
:10502000EF5F1A96E43009F4C4C08C918917C1F778
:10503000ACC06130B9F0613030F0603811F16138E6
:1050400009F0B7C02CC0FC0133E0EE0FFF1F3A950A
:10505000E1F7880F991FE80FF91FE15FFD4F5483B7
:1050600075830895FC01B3E0EE0FFF1FBA95E1F7D9
:10507000880F991FE80FF91FE15FFD4F5683778373
:105080000895FC0173E0EE0FFF1F7A95E1F7880F9A
:10509000991FE80FF91FE15FFD4F50870895FC014C
:1050A00043E0EE0FFF1F4A95E1F7880F991FE80FC5
:1050B000F91FE15FFD4F51870895623061F1633060
:1050C00030F4662361F0613009F073C016C06430BB
:1050D000F1F1643070F1653009F06BC047C0FC013C
:1050E00023E0EE0FFF1F2A95E1F7880F991FE80FC5
:1050F000F91FE15FFD4F54830895FC01A3E0EE0F1B
:10510000FF1FAA95E1F7880F991FE80FF91FE15FCC
:10511000FD4F55830895FC0163E0EE0FFF1F6A9574
:10512000E1F7880F991FE80FF91FE15FFD4F5683E4
:105130000895FC0133E0EE0FFF1F3A95E1F7880F69
:10514000991FE80FF91FE15FFD4F57830895FC0198
:10515000B3E0EE0FFF1FBA95E1F7880F991FE80F34
:10516000F91FE15FFD4F5087718708950196FC019B
:1051700063E0EE0FFF1F6A95E1F7880F991FE80FB4
:10518000F91FE15FFD4F508308958E2F90E0FC01E1
:10519000EE0FFF1FEE0FFF1FE80FF91FEE0FFF1FAF
:1051A000EF5EFD4FE081E03C09F443CFE03E09F4BF
:1051B00084CF089590E0FC01EE0FFF1FEE0FFF1F5C
:1051C000E80FF91FEE0FFF1FEF5EFD4F808108957E
:1051D000282F1092380280930D0260930E02E1E1B5
:1051E000F2E090E080818623821709F49F5F3A966F
:1051F00082E0E933F807B1F7892F089540910E0254
:1052000020910D0280913802382F3F5F90E0FC0121
:10521000EE0FFF1FEE0FFF1FE80FF91FEE0FFF1F2E
:10522000EF5EFD4F80818423821711F0832FECCF36
:10523000309338022AE0329F900111242A5F3D4FBB
:10524000C9010895282FE0E1F2E090E001C09F5FDE
:105250008081821729F03A969430C9F78FEF08952C
:10526000892F806808958F77A1E1B2E040E025E0C2
:10527000829F90011124220F331F2A0F3B1F90E0C1
:10528000FC01EE0FFF1FEE0FFF1FE80FF91FEE0FDF
:10529000FF1FEA0FFB1F07C080819C91892786238F
:1052A00009F44F5F1A96A217B307B1F7842F089538
:1052B00090E023E0880F991F2A95E1F7E0913B02E7
:1052C000F0913C02E80FF91F828108958091390224
:1052D0008F5F80933902089580913B0290913C0248
:1052E0000E94DE380895AF92BF92CF92DF92EF9284
:1052F000FF920F931F93CF93DF93809139028431F4
:1053000008F4CEC010923902DD2453E0C52E4CE9DA
:10531000A42E4FEFB42EBFC0ED2CFF2433E0EE0CD3
:10532000FF1C3A95E1F7E0913B02F0913C02EE0D53
:10533000FF1D868187FD02C0815086838681882378
:1053400061F40190F081E02D8381648140E020E0F0
:1053500030E000E010E00E94E60DE0913B02F091A9
:105360003C02EE0DFF1D878187FD02C081508783BF
:105370008781882361F40190F081E02D8581668129
:1053800040E020E030E000E010E00E94E60DC09137
:105390003B02D0913C02CE0DDF1D8C819D81882384
:1053A00091F1282F21502C839370913069F4E8817A
:1053B000F981678184E6289FC001112470E00E9472
:1053C0001E388B81860F8A83C0913B02D0913C02AC
:1053D000CE0DDF1D8D818370823009F05BC08C8122
:1053E00090E0E881F98167819C012A9DC0012B9D95
:1053F000900D3A9D900D112470E00E941E388B8113
:10540000860F8A8347C0892F83708130A9F49C7FDF
:105410009D83E881F981808580FF05C0CE828381EC
:10542000648144E603C08381648140E020E030E091
:1054300000E010E00E94E60DA0913B02B0913C021A
:10544000AE0DBF1D15969C911597892F83708230E4
:10545000C9F49C7F15969C931597ED91FC9111973B
:10546000808580FF06C01796CC928581668144E6D0
:1054700003C08581668140E020E030E000E010E07C
:105480000E94E60DE0913B02F0913C02EE0DFF1D03
:1054900083818283D39480913A02D81608F43CCF5A
:1054A000DF91CF911F910F91FF90EF90DF90CF9000
:1054B000BF90AF90089590E063E0880F991F6A95C0
:1054C000E1F7E0913B02F0913C02E80FF91F1482F2
:1054D000428143830190F081E02D8281608150E020
:1054E00020E00E94960F0895CF92DF92FF920F93D3
:1054F0001F93CF93DF93F62EC82EDD2473E0CC0CE0
:10550000DD1C7A95E1F7C0913B02D0913C02CC0DB5
:10551000DD1D8D8190E083709070892B09F0A6C00D
:105520002A81621718F0662319F03FC0662399F4A8
:10553000E881F981678170E0882777FD8095982F51
:105540000E9414352DEC3CEC4CE85FE30E942036C1
:105550000E94E63413C030E0261B3109E881F9814E
:10556000878190E0AC01249FC001259F900D349F5E
:10557000900D112464E670E00E941E386C838D81CA
:105580008C7F81608D83E881F981808580FF02C0F6
:1055900083E08E83E881F9818381648144E620E0A1
:1055A00030E000E010E00E94E60DC0913B02D09197
:1055B0003C02CC0DDD1D8A818F1528F054E6F516CE
:1055C00009F042C003C094E6F91699F4E881F98124
:1055D000678170E0882777FD8095982F0E941435A9
:1055E0002DEC3CEC4CE85FE30E9420360E94E63450
:1055F00014C02F2D30E0281B3109E881F981878103
:1056000090E0AC01249FC001259F900D349F900D28
:10561000112464E670E00E941E386C838D818C7FBB
:1056200082608D83E881F981808580FF02C083E0FC
:105630008F83E881F9818581668144E620E030E04E
:1056400000E010E00E94E60DE0913B02F0913C0288
:10565000EC0DFD1DF3820190F081E02D82816081CF
:105660004F2D50E020E00E94960F08C0E881F9819C
:1056700082E0608140E020E00E949E0DDF91CF91AA
:105680001F910F91FF90DF90CF900895282F90E009
:10569000E3E0880F991FEA95E1F7E0913B02F09172
:1056A0003C02E80FF91F858190E083709070892B90
:1056B00021F0822F0E945B2A0895822F64E60E94C7
:1056C000742A0895282F90E0F3E0880F991FFA9527
:1056D000E1F7E0913B02F0913C02E80FF91F858170
:1056E00090E083709070892B21F0822F0E945B2ABA
:1056F0000895822F60E00E94742A0895CF93DF936B
:10570000982FC82FD0E0A3E0CC0FDD1FAA95E1F7BA
:10571000E0913B02F0913C02EC0FFD1F858187FF79
:1057200004C0892F0E94462B03C0892F0E94622B40
:10573000E0913B02F0913C02EC0FFD1F8581805807
:105740008583DF91CF910895282F90E0B3E0880FF3
:10575000991FBA95E1F7E0913B02F0913C02E80F06
:10576000F91F858190E083709070892B21F0822F42
:105770000E945B2A08958281882319F0822F60E0BD
:1057800002C0822F64E60E94742A0895CF92DF92AD
:10579000EF92FF920F931F9380EC6FEF0E94E82827
:1057A00080933A0290E003E0880F991F0A95E1F791
:1057B0000E94313880933B0290933C02DD24CC243C
:1057C000CA9425C0ED2CFF2413E0EE0CFF1C1A95A3
:1057D000E1F700913B0210913C020E0D1F1D0E944B
:1057E000FE28F80191838083E0913B02F0913C0216
:1057F000EE0DFF1D1282E0913B02F0913C02EE0D96
:10580000FF1D138214821582C682C782D3948091B1
:105810003A02D816B8F2109239021F910F91FF90F8
:10582000EF90DF90CF90089581E492E00895E1E455
:10583000F2E01082118212821382349683E0E13406
:10584000F807B9F70895E82FF0E0EE0FFF1FEE0F0D
:10585000FF1FE60FF11DEF5BFD4F4083089590E0C1
:10586000880F991FE0913E02F0913F02E80FF91F67
:1058700060830895809140028F5F80934002089575
:10588000809141038F5F809341030895FF920F93AE
:105890001F93F82E062F122FCA0134E09695879594
:1058A0003A95E1F7682F70E03DC0A72FB0E0FD0109
:1058B000EE0FFF1FEE0FFF1FEF5BFD4F80818E7F0E
:1058C0008C33D9F481818F15C1F49D01220F331FD0
:1058D000F901EE0FFF1FED5BFD4F8081801769F42A
:1058E000E0913E02F0913F0217FF04C0E20FF31F68
:1058F000608303C0E20FF31F4083AA0FBB1FAA0FF0
:10590000BB1FAF5BBD4F8C918D3359F4872F90E057
:10591000880F991FE0913E02F0913F02E80FF91FB6
:1059200011827F5F80913D02781708F4BECF1F91EE
:105930000F91FF900895811181E0611182600895B7
:1059400080913E0290913F020E94DE3808952F928E
:105950003F924F925F926F927F928F929F92AF92FF
:10596000BF92CF92DF92EF92FF920F931F93CF934C
:10597000DF93809140028A3008F4A8C6109240025A
:10598000882427E8522E90EA292E95E0392E8CE3C0
:10599000482E0CE3602E712C92C6C82DD0E0FE017B
:1059A000EE0FFF1FEE0FFF1FEF5BFD4F5081B18029
:1059B000503458F08B2D90E0880F991FE0913E02F3
:1059C000F0913F02E80FF91FB080FE01EE0FFF1FBC
:1059D000EE0FFF1FED5BFD4FA08057FF0BC08A2D20
:1059E00090E0880F991FE0913E02F0913F02E80F8E
:1059F000F91FA080FE01EE0FFF1FEE0FFF1FEF5BF0
:105A0000FD4F9380503C58F0892D90E0880F991FEE
:105A1000E0913E02F0913F02E80FF91F9080852F40
:105A2000887F8037C9F4882D90E0880F991FE09116
:105A30003E02F0913F02E80FF91F4181442361F0DB
:105A40002A2D30E0277030708091410390E082175A
:105A5000930714F041504183852F90E0FC01B097EB
:105A6000EC3CF10508F02AC6E65DFF4FEE0FFF1F84
:105A70000590F491E02D09940E94370B182F0E9495
:105A80003A0B24E6129FF0011124E80FF11D4B2D73
:105A900050E08A2D90E08F709070BC0133E0660F6B
:105AA000771F3A95E1F7880F991F680F791FCA0190
:105AB0008F739070DC0124E630E0A29FC001A39FA9
:105AC000900DB29F900D1124680F791FE617F7070C
:105AD00008F41CC3292D30E0407C5070440F551F42
