:100000000C944B010C94300B0C9468010C94680117
:100010000C9468010C94540B0C9468010C94C62247
:100020000C943E230C94AC230C9468010C94D10BDB
:100030000C9468010C9441160C9468010C946801AE
:100040000C9468010C9468010C9468010C94B2063D
:100050000C9468019E2DE72D232E6E2EC033C033E5
:10006000C033C033C033C033C033C033C033C033F8
:10007000C033C033C033C033C033C033C033C033E8
:10008000C033C033C32EC033C033C033C033DC2EC3
:10009000C033F42EC033C033C033C033C0331D2F40
:1000A000302FC033422F502F592F622F6B2F742FB8
:1000B000C033C033822F8F2F9D2FB52F0A30393098
:1000C0004C30C033C033C033C033C033C033C0330F
:1000D000C033C0338130C033C033C033AB30C033E2
:1000E000C033C03327323C3254326A32C033C0335B
:1000F000C033C0337D329E32BD32E332C033C033B1
:10010000C033C033F9326033AB33C033C033C03394
:10011000C033F42EC72FD42FE12FEE2FFD2F1D2F2C
:10012000302FC033422F502F592F622F6B2F742F37
:10013000C033C033822F8F2F9D2FB52FC033C033D4
:10014000C033C033D830ED300631283143315D3112
:10015000C033C033C033C033C033C0338F31CE312E
:10016000C033C03327323C3254326A32C033C033DA
:10017000C033C033C033C033C033C033C033C033E7
:10018000C033C033C033C033C033C033C033C033D7
:10019000C033C033C72FD42FE12FEE2FFD2FC03334
:1001A000C033C033C033C033C033C033C033C033B7
:1001B000C033C033822F8F2F9D2FB52FC033C03354
:1001C000C033C033D830ED300631283143315D3192
:1001D000C033C033C033C033C033C033C033C03387
:1001E000C033C03327323C3254326A32072C7AA5EE
:1001F000BA6CC590DA3B9365FC8BBC53F810FD3CA0
:100200005692834DBD879D3AB63DCBC9BF5BBE7349
:10021000DA0FC93F07634236B79BD8A71A39685629
:1002200018AEBAAB558C1D3CB7CC5763BD6DEDFD18
:10023000753EF6177231BF000000803F08000000D5
:10024000BE922449123EABAAAA2ABECDCCCC4C3ECB
:1002500000000080BEABAAAAAA3E00000000BF00BA
:100260000000803F0000000000084178D3BB4387B6
:10027000D1133D190E3CC3BD4282AD2B3E68EC82CA
:1002800076BED98FE1A93E4C80EFFFBE01C4FF7F4F
:100290003F000000000011241FBECFE5D8E0DEBF04
:1002A000CDBF10E0A0E6B0E0E2E8F3E702C00590C1
:1002B0000D92A836B107D9F713E0A8E6B0E001C067
:1002C0001D92AC33B107E1F70E946A010C94BF396B
:1002D0000C9400000E947E0A0E94F20F81E060E010
:1002E0000E9437150E9433100E9430170E94C319D4
:1002F0000E94B91C0E94F4240E94D5290E94092D55
:10030000F1CF562F40E0282F30E0242B352BC901A8
:1003100008950197F1F70895E0916900F0916A005E
:10032000208181E090E00090680002C0880F991F52
:100330000A94E2F7282B20830895E0916900F09158
:100340006A00208181E090E00090680002C0880F80
:10035000991F0A94E2F780958223808308951FB83D
:10036000779BFECF8FB108958FB9779BFECF08950D
:100370000F931F93DF93CF930F92CDB7DEB788E033
:100380006FEF0E9487098E010F5F1F4FC80160E069
:1003900070E040E050E020E030E00E949D0989815B
:1003A00061E00E94590990936A00809369008981F5
:1003B000982F97709093680061E00E944F0889E041
:1003C0006FEF0E948709C80160E070E040E050E0F4
:1003D00020E030E00E949D09898161E00E944F0881
:1003E0008AE06FEF0E948709C80160E070E040E09A
:1003F00050E020E030E00E949D09898160E00E9489
:100400004F088BE06FEF0E948709C80160E070E041
:1004100040E050E020E030E00E949D09898161E0E9
:100420000E944F08E0916900F0916A00208181E00C
:1004300090E00090680002C0880F991F0A94E2F7CC
:10044000282B208381E58DB90F90CF91DF911F91EB
:100450000F9108950F931F93CF93DF93EC010E94A8
:100460009D0180EA0E94B4010E94AF01182F0E94F2
:10047000AF010E948C01212F30E0C901847590707A
:10048000892B11F404E00CC0C90184719070892B90
:1004900011F402E005C012FF02C080E037C000E0A6
:1004A0000E949D01802F80640E94B40188810E9477
:1004B000B40189810E94B4018A810E94B4018B81B8
:1004C0000E94B4018C81893010F088E08C838C818B
:1004D0000E94B40110E007C0FE01E10FF11D85810B
:1004E0000E94B4011F5F8C811817B0F30E948C0129
:1004F00000000E949D01002311F481E802C0802FBA
:1005000080680E94B4010E948C0181E0DF91CF914C
:100510001F910F9108951F93CF93DF93EC010E94D9
:100520009D0180EB0E94B4010E94AF01182F0E9430
:10053000AF010E948C0116FF0FC080916B008823D1
:1005400011F017FD09C00E949D0180E90E94B401CD
:1005500081E080936B000BC017FD02C080E026C0D5
:100560000E949D0184E90E94B40110926B000E94D8
:10057000AF0188830E94AF0189830E94AF018A8303
:100580000E94AF018B830E94AF018F708C8310E0BB
:1005900007C00E94AF01FE01E10FF11D85831F5FBF
:1005A0008C811817B0F30E948C0181E0DF91CF910C
:1005B0001F910895DF92EF92FF920F931F93182FD0
:1005C000F62EE42ED22E0E949D0182E00E94B401FC
:1005D000812F90E0133008F00196880F880F0E9459
:1005E000B4018F2D0E94B4018E2D0E94B4018D2D77
:1005F0000E94B401802F0E94B4010E948C011F91BF
:100600000F91FF90EF90DF900895DF92EF92FF92AD
:100610000F931F93182FF62EE42ED22E0E949D01C9
:1006200082E00E94B401112311F480E201C084E24F
:100630000E94B4018F2D0E94B4018E2D0E94B4013E
:100640008D2D0E94B401802F0E94B4010E948C0164
:100650001F910F91FF90EF90DF900895FF920F93FD
:100660001F93182F062FF42E0E949D0185E00E94F3
:10067000B401812F0E94B401802F0E94B4018F2DFC
:100680000E94B4010E948C011F910F91FF90089568
:100690008FE060EE40E00E942E0308950F931F93B9
:1006A000182F062F0E949D0182E00E94B401812F25
:1006B0000E94B401802F0E94B4010E948C011F91FE
:1006C0000F9108951F93182F0E949D0183E00E94AF
:1006D000B401812F0E94B4010E94AF01182F0E9423
:1006E0008C01812F1F9108950E949D0180EC0E9432
:1006F000B4010E948C01089510926B000E94B80111
:100700000E9474038AE261E30E944E0389E261EB76
:100710000E944E0388E265E00E944E0380E664E496
:100720000E944E0380E760E40E944E030895E0912A
:100730007600F0917700408181E090E09C0100908C
:100740006C0002C0220F331F0A94E2F7422B408351
:100750000000E0917600F0917700208100906C001D
:1007600002C0880F991F0A94E2F780958223808344
:100770000895EF92FF921F93CF93DF93E09174005F
:10078000F091750040812FE030E0C90100907900C0
:1007900002C0880F991F0A94E2F780958423808312
:1007A000E0917200F091730080810090790002C0A6
:1007B000220F331F0A94E2F7209528232083E0912B
:1007C0007000F0917100208183E090E0009078004B
:1007D00002C0880F991F0A94E2F7809582238083D4
:1007E000E0917000F0917100208181E090E0009034
:1007F000780002C0880F991F0A94E2F7282B208303
:10080000C1E0D0E088E0E82EF12CE0917600F09194
:1008100077002081CE0100906C0002C0880F991FE4
:100820000A94E2F7282B20830000E0916E00F091FB
:100830006F001081C7010090790002C0880F991FD6
:100840000A94E2F71823E0917600F0917700208176
:10085000CE0100906C0002C0880F991F0A94E2F745
:100860008095822380830E949703112371F6E09183
:100870007400F091750020818FE090E00090790085
:1008800002C0880F991F0A94E2F7282B2083DF917A
:10089000CF911F91FF90EF900895EF92FF920F93E9
:1008A0001F93E0917200F091730090810FE010E0CF
:1008B00098010090790002C0220F331F0A94E2F7DA
:1008C000209529232083E0917200F09173004081EC
:1008D000E82EFF249701207F30705091790084E04A
:1008E00090E0851B910902C0359527958A95E2F71E
:1008F000422B40830E949703E0917200F0917300B5
:1009000080810090790002C0000F111F0A94E2F765
:10091000009508230083E0917200F09173008081BC
:100920009FE0E922FF240090790002C0EE0CFF1C3A
:100930000A94E2F78E2980830E9497031F910F91FA
:10094000FF90EF9008951F93182F8823B1F00E9415
:10095000B903E0917000F0917100208183E090E094
:100960000090780002C0880F991F0A94E2F78095E2
:1009700082238083812F0E944D041F9108951F932D
:10098000182F803A31F10E94B903E0917000F09184
:100990007100208183E090E00090780002C0880F11
:1009A000991F0A94E2F7809582238083E09170007A
:1009B000F0917100208182E090E00090780002C008
:1009C000880F991F0A94E2F7282B2083812F0E9419
:1009D0004D041F910895E0917A00F0917B003091D1
:1009E0006D00882359F0208181E090E002C0880FDB
:1009F000991F3A95E2F7282B20830895208181E002
:100A000090E002C0880F991F3A95E2F78095822303
:100A1000808308951F93CF93DF93EC0111E007C00B
:100A2000FE01E10FF11D80810E94BF041F5F8881DC
:100A30008117B0F7DF91CF911F910895CF92DF9288
:100A4000EF92FF920F931F93DF93CF9300D0CDB718
:100A5000DEB780E360EF0E948709082F10E092E084
:100A6000C92ED12CCC0EDD1E7E010894E11CF11C98
:100A70005DC0C701B60140E050E020E030E00E94D8
:100A80009D098A81882359F0883029F1883008F43B
:100A900048C08A3069F18B3009F043C036C0898183
:100AA00061E00E94590990937300809372008981DC
:100AB00060E00E94590990936F0080936E008981D5
:100AC0000E9441099093750080937400898187701A
:100AD0008093790026C0898161E00E945909909332
:100AE000710080937000898187708093780019C0AD
:100AF000898161E00E945909909377008093760084
:100B00008981877080936C000CC0898161E00E94AC
:100B1000590990937B0080937A0089818770809334
:100B20006D00898161E00E944F081F5F101708F473
:100B3000A0CF002309F473C010E080EE9EE20E9473
:100B400089011F5F1A30C9F7E0917000F0917100C0
:100B5000408123E030E0C9010090780002C0880F96
:100B6000991F0A94E2F7809584238083E0917200B4
:100B7000F091730040818FE090E00090790002C016
:100B8000880F991F0A94E2F7809584238083E0916F
:100B90007200F091730080810090790002C0220FF2
:100BA000331F0A94E2F7822B80830E94970380E729
:100BB00097E10E9489010E9497038AE590E00E94D4
:100BC00089010E9497038AE590E00E948901E091E3
:100BD0007200F0917300208181E090E00090790034
:100BE00002C0880F991F0A94E2F7809582238083C0
:100BF0000E94970389E20E94A30480E50E94A30457
:100C00008CE60E94A3048CE70E94A3048CE00E945F
:100C1000A30481E00E94A30486E00E94A3040F9035
:100C20000F90CF91DF911F910F91FF90EF90DF9088
:100C3000CF90089586B781700895809181000895BE
:100C400006B600FCFDCF80917C00089580937F0064
:100C50000895E0918300F0918400E80FF11D608316
:100C60000895462FDC0120E014C080917F00E091C0
:100C70008300F0918400E80FF11D8D9180838091B5
:100C80007F00609182008F5F0E94603890937F00A8
:100C90002F5F241750F3089581E080937E0008951C
:100CA00006B600FCFDCF882311F0809380001092DF
:100CB000810088EF80937C0085EA86BF0895CF93FA
:100CC000DF93EC0106B600FCFDCF60938000E0915D
:100CD0008300F091840088818083E0918300F0910B
:100CE0008400808180FD13C091E00DC0E92FF0E009
:100CF000A0918300B0918400AE0FBF1FEC0FFD1FC9
:100D000080818C939F5F80918000981778F3109278
:100D1000810088EF80937C0085EA86BFDF91CF91C8
:100D20000895E0918300F0918400E80FF11D808127
:100D300008959C0106B600FCFDCF809181008823B8
:100D400071F0D90190E009C0E0918300F091840036
:100D5000E90FF11D80818D939F5F9617A8F3809115
:100D6000810008951F920F920FB60F9211242F93B6
:100D70003F938F939F93EF93FF9381B18832D1F08C
:100D8000893240F48031A1F08831A1F0883009F037
:100D900059C00EC08034B9F1813420F4883309F091
:100DA00051C04EC0803511F1883509F04BC039C0B3
:100DB00010927D0090917D0080918000981760F4E2
:100DC000E0918300F0918400E90FF11D808183B9E7
:100DD0009F5F90937D0023C081E08093810080918C
:100DE0007E00882359F110927E0031C080917D00F1
:100DF00093B1E0918300F0918400E80FF11D90839E
:100E00008F5F80937D0020917D0030E08091800095
:100E100090E001972817390714F485EC17C085E88E
:100E200015C093B180917D00E0918300F091840022
:100E3000E80FF11D908381E08093810084E906C072
:100E400085EA04C081B180937C0084E086BFFF9175
:100E5000EF919F918F913F912F910F900FBE0F9027
:100E60001F90189580918300909184000E944039D2
:100E700008958093820090E00E94933880938300CD
:100E80009093840010927F001092800010927D0059
:100E900010927E001092810088EF80937C008CE09D
:100EA00080B98FEF83B984E086BF08950F931F93B5
:100EB000082FF8948AB3802B8ABB8BB3102F109520
:100EC00081238BBB83E995E00E9489018AB381234A
:100ED0008ABB8BB318231BBB85EC90E00E94890171
:100EE00019B381EC94E00E94890178941095802FC9
:100EF00081231F910F9108950F931F93082FF8944A
:100F00008AB3802B8ABB8BB3102F109581238BBBA8
:100F100085E090E00E9489018AB381238ABB8BB36C
:100F200018231BBB8EE090E00E94890119B388E969
:100F300090E00E9489017894802F81231F910F9166
:100F40000895FF920F931F93F82E10E000E016957E
:100F50008F2D0E947C07811110680F5F0830B9F750
:100F6000812F1F910F91FF9008951F93182FF894D0
:100F70008AB3812B8ABB8BB3109581238BBB87EA05
:100F800090E00E9489018AB381238ABB8BB3182326
:100F90001BBB81E190E00E94890178941F91089524
:100FA0001F93182FF8948AB3812B8ABB8BB31095AB
:100FB00081238BBB85E090E00E9489018AB3812365
:100FC0008ABB8BB318231BBB83EB90E00E94890183
:100FD00078941F910895FF920F931F93082FF62E78
:100FE00010E000FF04C08F2D0E94D00703C08F2D9A
:100FF0000E94B5071F5F183011F00695F2CF1F91C0
:101000000F91FF900895682F8CEC0E94EB070895D4
:101010009AB3809598239ABB9BB398239BBB83E993
:1010200095E00E948901089580918600089580933B
:101030008600089590938800809387000895809398
:101040008900089590E09C012F71307085FF09C0E0
:10105000F901EE0FFF1FE20FF31FEA57FF4F668300
:101060000895F901EE0FFF1FE20FF31FEA57FF4F3C
:1010700064834583089590E0FC01EE0FFF1FE80FA5
:10108000F91FEA57FF4F8481089590E0FC01EE0FAD
:10109000FF1FE80FF91FEA57FF4F85810895482F7A
:1010A00060FD3DC0883068F43AB3282F277081E096
:1010B00090E002C0880F991F2A95E2F7809583235C
:1010C0003BC0803168F437B3282F277081E090E06F
:1010D00002C0880F991F2A95E2F7809583233BC0B1
:1010E000883168F434B3282F277081E090E002C083
:1010F000880F991F2A95E2F7809583233BC08032A1
:1011000008F048C031B3282F277081E090E002C07A
:10111000880F991F2A95E2F7809583233AC088307B
:1011200068F48AB3942F977021E030E002C0220F58
:10113000331F9A95E2F7822B8ABB2CC0803168F46A
:1011400087B3942F977021E030E002C0220F331F45
:101150009A95E2F7822B87BB1DC0883168F484B36F
:10116000942F977021E030E002C0220F331F9A9530
:10117000E2F7822B84BB0EC0803260F481B3942FDF
:10118000977021E030E002C0220F331F9A95E2F7FA
:10119000822B81BB61FF39C0483060F42BB34770AC
:1011A00081E090E002C0880F991F4A95E2F7282B52
:1011B0002BBB0895403160F428B3477081E090E084
:1011C00002C0880F991F4A95E2F7282B28BB089583
:1011D000483160F425B3477081E090E002C0880F89
:1011E000991F4A95E2F7282B25BB0895403208F055
:1011F00047C022B3477081E090E002C0880F991F7A
:101200004A95E2F7282B22BB0895483068F42BB3A7
:10121000477081E090E002C0880F991F4A95E2F77D
:10122000809582238BBB0895403168F428B34770C2
:1012300081E090E002C0880F991F4A95E2F78095FF
:10124000822388BB0895483168F425B3477081E054
:1012500090E002C0880F991F4A95E2F7809582239B
:1012600085BB0895403260F422B3477081E090E07E
:1012700002C0880F991F4A95E2F78095822382BBAE
:101280000895883018F42AE330E011C0803118F452
:1012900027E330E00CC0883118F424E330E007C0C5
:1012A000803218F421E330E002C020E030E0C901D0
:1012B00008956623A1F4883018F429E330E025C0AE
:1012C000803118F426E330E020C0883118F423E39D
:1012D00030E01BC08032B8F420E330E016C0883024
:1012E00018F42BE330E011C0803118F428E330E02B
:1012F0000CC0883118F425E330E007C0803218F4C0
:1013000022E330E002C020E030E0C9010895282F38
:101310001092EA008093EB0060938500EAE8F0E029
:1013200090E080818623821709F49F5F339680E0E6
:10133000EA3EF807B1F7892F08950F931F93CF93D3
:10134000DF93DC01EB01BA018901509185004091E6
:10135000EB002091EA00322F3F5F822F90E0FC01EA
:10136000EE0FFF1FE80FF91FEA57FF4F8481852317
:10137000841711F0232FEFCF2093EA002C932097AE
:1013800081F02091850020958091EA0090E0FC0199
:10139000EE0FFF1FE80FF91FEA57FF4F8481282344
:1013A00028836115710569F08091EA0090E0FC01E5
:1013B000EE0FFF1FE80FF91FEA57FF4F8581FB0172
:1013C00080830115110569F08091EA0090E0FC012D
:1013D000EE0FFF1FE80FF91FEA57FF4F8681F80154
:1013E00080838091EA008F5F8093EA00DF91CF9144
:1013F0001F910F910895982F87FD1EC0AAE8B0E0B5
:1014000040E083E0989F900111242A0F3B1F892F11
:1014100090E0FC01EE0FFF1FE80FF91FEA0FFB1F22
:1014200007C080819C918927862309F44F5F13961A
:10143000A217B307B1F703C00E949529482F842F44
:101440000895282FEBE8F0E090E001C09F5F8081D5
:10145000821721F033969032C9F702C0892F089580
:10146000822F0E948429982FF9CF86E890E060E0CF
:1014700070E044E650E00E9498390E943E0C64E619
:1014800070E047E050E00E9498390E9428156BE612
:1014900070E042E050E00E9498390E94BA156DE673
:1014A00070E04EE050E00E9498390E94C6166BE74B
:1014B00070E048E050E00E9498390E94CD1863E83F
:1014C00070E040E550E00E9498390E94CD1B63ED2A
:1014D00070E048E550E00E9498390E9428286BE2AD
:1014E00071E049E250E00E9498390E94762C64E550
:1014F00071E040E051E00E9498390895F8940E940C
:10150000350A80918900893DE1F1EAE8F0E080E068
:101510001082818312828F5F33968032C9F780E117
:101520006CE040E10E94220881E16DE041E10E940F
:1015300022088AE166E04AE10E94220888E062E02F
:1015400048E00E94220888E164E048E10E94220805
:1015500089E165E049E10E94220880918900833B8E
:1015600031F00E94410C0E942B150E94BD150E9473
:10157000C9160E94D0180E94D01B0E942B280E94DE
:10158000792C089586E890E060E070E044E650E051
:101590000E94A8390E943E0C64E670E047E050E0EB
:1015A0000E94A8390E9428156BE670E042E050E0E6
:1015B0000E94A8390E94BA156DE670E04EE050E036
:1015C0000E94A8390E94C6166BE770E048E050E020
:1015D0000E94A8390E94CD1863E870E040E550E011
:1015E0000E94A8390E94CD1B63ED70E048E550E0F1
:1015F0000E94A8390E9428286BE271E049E250E07D
:101600000E94A8390E94762C64E571E040E051E028
:101610000E94A839089586E890E063E070E041E018
:1016200050E00E94A83908950F938093ED006093D5
:10163000EE004093EF002093F0000093F1000F9133
:1016400008958091ED0008958091EE0008958091B5
:10165000EF0008958091F00008958091F1000895C1
:101660001F920F920FB60F9211242F933F934F9317
:101670005F936F937F938F939F93AF93BF93EF93FA
:10168000FF930E94EB23FF91EF91BF91AF919F9148
:101690008F917F916F915F914F913F912F910F901B
:1016A0000FBE0F901F9018951F920F920FB60F92BA
:1016B00011242F933F934F935F936F937F938F9357
:1016C0009F93AF93BF93EF93FF9383E884BD809183
:1016D000EC008F5F8093EC008F3009F051C01092C6
:1016E000EC008091F1008F5F8093F1008436D1F59A
:1016F0001092F1008091F0008F5F8093F0000E94C3
:101700006A1C0E94A22C8091F0008C3359F5109233
:10171000F0008091EF008F5F8093EF000E94A22C79
:101720008091EF008C33F1F41092EF008091EE0085
:101730008F5F8093EE000E94A22C8091EE00883192
:1017400089F41092EE008091ED008F5F8093ED00A0
:101750000E94A22C8091ED00873021F41092ED00C0
:101760000E94A22C0E945A0C0E94620C0E946015DA
:101770000E94E9160E9474190E94C8290E949C2C9C
:10178000FF91EF91BF91AF919F918F917F916F9159
:101790005F914F913F912F910F900FBE0F901F902F
:1017A00018951F920F920FB60F9211242F933F930B
:1017B0004F935F936F937F938F939F93AF93BF9359
:1017C000EF93FF938EEF82BF0E94EC150E943224AC
:1017D000FF91EF91BF91AF919F918F917F916F9109
:1017E0005F914F913F912F910F900FBE0F901F90DF
:1017F0001895EF92FF920F931F93DF93CF930F9261
:10180000CDB7DEB786E06FEF0E948709082F10E0A2
:101810007E010894E11CF11C0EC0C70160E070E07D
:1018200040E050E020E030E00E949D09898162E0C4
:101830000E944F081F5F101780F31092ED00109266
:10184000EE001092EF001092F0001092F10094E080
:1018500093BF89B7816089BF95BD89B7806489BF0F
:101860001092EC0083E085BF80E48BBF0F90CF9196
:10187000DF911F910F91FF90EF9008958BE091E021
:10188000089510920B0180E090E890930D018093F1
:101890000C018FEF80930E0184E080930F01109272
:1018A000100110921101089580910B01089580910B
:1018B000100108958091FC00882319F081508093D5
:1018C000FC0008958091F400882319F081508093E2
:1018D000F4000895282F30E0C901807F9070803F88
:1018E000910519F080E090E0089540E02F7081E0CC
:1018F00090E002C0880F991F2A95E2F720910C0111
:1019000030910D0182239323892B09F441E081E07A
:101910004827842F0895282F40910A0150910901EA
:10192000451701F1842F90E033E0880F991F3A9515
:10193000E1F7E091F700F091F800E80FF91F21932B
:10194000DB0187E00D9001928150E1F75F3F11F4D8
:101950004093090160910F01842F8F5F0E946038CE
:1019600090930A0108958091F7009091F8000E94E9
:101970004039089587FD07C0282F30E02077307068
:101980002037310519F40E94FF15089520313105E3
:1019900011F40E94FF150895BF92CF92DF92EF924B
:1019A000FF920F931F93DF93CF93CDB7DEB72797A7
:1019B0000FB6F894DEBF0FBECDBFB82EE22E680181
:1019C00080910B016817D1F089836A8398E09B832B
:1019D0004C831D821E822F8381E08093F200B0929F
:1019E000F3009093F4006093F5004093F6008FE7C6
:1019F000BE016F5F7F4F0E94BA0C85C0842F0E948A
:101A0000210AF82E8FEFF81609F46EC0F7FC5DC0BE
:101A10008F2D0E943B0887FD03C000E010E008C046
:101A20008F2D60E80E94FB090E94ED16082F10E040
:101A30008F2D0E943B08887F803299F48F2D68EFAC
:101A40000E94FB096E2D0E947A198C01C114D104E9
:101A500041F4EFEFBE1629F054E0169507955A951C
:101A6000E1F78F2D0E943B08887F883299F48F2DF3
:101A700068EF0E94FB096E2D0E94701C8C01C1143E
:101A8000D10441F4FFEFBF1629F044E01695079505
:101A90004A95E1F78F2D0E943B08807F803141F409
:101AA0008F2D60EF0E94FB090E94651F082F10E038
:101AB0008F2D0E943B08807C8034C1F48F2D60EC18
:101AC0000E94FB090E949A220CC08F2D8F770E94E2
:101AD0003C29803C49F48F2D6FEF0E94FB090E9446
:101AE000BA29082F10E002C000E010E0C114D104B0
:101AF00029F48B2D602F0E94912C05C089E0F601FE
:101B000082830483158327960FB6F894DEBF0FBE39
:101B1000CDBFCF91DF911F910F91FF90EF90DF909C
:101B2000CF90BF900895DF93CF93CDB7DEB72797BF
:101B30000FB6F894DEBF0FBECDBF90910B01998315
:101B400090910E019A839FE79B838C836D834E83D4
:101B50002F838FE7BE016F5F7F4F0E94BA0C2796DD
:101B60000FB6F894DEBF0FBECDBFCF91DF910895C1
:101B7000DF93CF93CDB7DEB727970FB6F894DEBFCC
:101B80000FBECDBF90910B0199839A8392E09B8306
:101B90008C836D834E835F838FE7BE016F5F7F4FC2
:101BA0000E94BA0C27960FB6F894DEBF0FBECDBFC9
:101BB000CF91DF910895BF92CF92DF92EF92FF9283
:101BC0000F931F93DF93CF93CDB7DEB727970FB651
:101BD000F894DEBF0FBECDBF982FB62EF42E69014C
:101BE000882319F4662321F4EDC08F3F09F4EAC07D
:101BF00020910B01921729F129839A831B82BC82C1
:101C0000FD82CE82DF8281E08093FA000093FB00A8
:101C1000ADEFB0E0FE01319687E001900D9281506A
:101C2000E1F79093FD002093FE001092FF0088E002
:101C30008093FC008FE7BE016F5F7F4F0E94BA0C5C
:101C40000CC18B2D0E94210AE82E0E943B08887F40
:101C5000803281F48E2D68EF0E94FB09982F0330AB
:101C6000110518F081E0F8018283892F6F2DA601FC
:101C70000E944B198E2D0E943B08887F883281F488
:101C80008E2D68EF0E94FB09982F0330110518F084
:101C900081E0F8018283892F6F2DA6010E94421CEA
:101CA0008F2D85568B3140F0FEE8FF1528F085E634
:101CB000C81689E1D80640F00330110508F482C047
:101CC00082E0F8018283C9C0FFEFEF1609F47AC001
:101CD000E7FC7EC08E2D0E943B08807F803111F58D
:101CE0008E2D60EF0E94FB09E82E0330110518F0DD
:101CF00081E0F8018283F0E8FF1669F48E2D0E94DE
:101D0000651F882319F08E2D60E002C08E2D64E6D9
:101D10000E947C1FA2C084E68F1508F49EC08E2D01
:101D20006F2DF6CF8E2D0E943B08807C803409F009
:101D300049C08E2D60EC0E94FB09982F03301105DD
:101D400018F081E0F8018283F5E8FF1609F1FF152C
:101D500050F081E8F816A1F0E2E8FE16A9F0F0E8EC
:101D6000FF1631F509C087E8F816D1F0F816A0F093
:101D7000E8E8FE16E9F418C0892F0E94D3266DC04A
:101D8000892F0E941C2769C0892F0E94002765C0E7
:101D9000892F0E94922661C0892F0E947E265DC0F5
:101DA000892F0E94492459C0892F0E94B02655C00E
:101DB000F4E6FF1508F451C0892F6F2DA6010E948B
:101DC000D2254BC08B2D6F2DA6010E94B80D45C0AA
:101DD0006FE7D62EDE208D2D0E943C29803CD1F568
:101DE0008E2D6FEF0E94FB09982F0330110518F01C
:101DF00081E0F8018283F6E8FF16C1F0FF1538F0A4
:101E000080E8F81659F0E5E8FE16E1F40BC0F7E8B3
:101E1000FF1681F088E8F816A9F410C0892F0E94F7
:101E2000062C1BC0892F0E94C42B17C0892F0E942B
:101E3000A82B13C0892F0E94BD2A0FC0892F0E9492
:101E4000E02B0BC0E4E6EF1540F0892F6F2D0E94C8
:101E5000D62A03C08D2D0E943C2927960FB6F894F0
:101E6000DEBF0FBECDBFCF91DF911F910F91FF90CD
:101E7000EF90DF90CF90BF900895DF93CF93CDB7D1
:101E8000DEB727970FB6F894DEBF0FBECDBF482F41
:101E900080910B0189832FEF2A8328E12B831C82F9
:101EA0004D839E831F82692F50E020E00E94A82C62
:101EB0008FE7BE016F5F7F4F0E94BA0C27960FB667
:101EC000F894DEBF0FBECDBFCF91DF910895DF93B1
:101ED000CF93CDB7DEB727970FB6F894DEBF0FBE0E
:101EE000CDBF80910B0189838FEF8A838BE78B8332
:101EF0001C821D821E821F828FE7BE016F5F7F4F93
:101F00000E94BA0C27960FB6F894DEBF0FBECDBF65
:101F1000CF91DF9108951F93DF93CF93CDB7DEB7B5
:101F200027970FB6F894DEBF0FBECDBF182F909144
:101F30000B018823F9F099838A8380E18B836C837A
:101F40004D835E832F83191731F08FE7BE016F5FDA
:101F50007F4F0E94BA0C80910B01181729F0812F36
:101F60000E946A0C882331F080E0BE016F5F7F4FD2
:101F70000E948B0C27960FB6F894DEBF0FBECDBF24
:101F8000CF91DF911F91089583E40E9439078091DA
:101F90000F0190E073E0880F991F7A95E1F70E9496
:101FA00093388093F7009093F8008FEF80930901A6
:101FB00010920A01109208011092FA001092FC008F
:101FC000EDEFF0E0119281E0E430F807D9F71092DC
:101FD000F2001092F3001092F4001092F5001092AB
:101FE000F6000895F8940E9432078091F7009091CE
:101FF000F8000E9440390E9401170E94BC190E94FB
:10200000B21C0E94751F0E943C240E94CE290E948F
:10201000022D19BE83E40E9439070E94F90B0E9429
:10202000C40F0E947E150E94DF150E943A180E947C
:10203000561B0E94901E0E94031F0E94BF1F0E94F9
:1020400038270E94282C0E94DB3378940E94670F67
:10205000089580E00E941F080E940B0B0E947E0AD8
:102060000E94F20F0895CF92DF92EF92FF920F93AA
:102070001F93DF93CF93CDB7DEB72E970FB6F894AB
:10208000DEBF0FBECDBF809109018F3F09F4A4C40C
:1020900090E023E0880F991F2A95E1F7E090F70080
:1020A000F090F800E80EF91E80911001882369F085
:1020B000D70112969C9180910B01981731F0F7018E
:1020C00081918068BF010E94BA0CF70192818091D2
:1020D0000B01981731F0892F0E946A0C882309F4AC
:1020E0006BC4D70113968C91282F30E0837809F0C8
:1020F000B1C3DE011196F701319687E001900D9290
:102100008150E1F7F70183818C3309F437C18D33B6
:10211000A8F4803109F44BC0813130F4882321F1D7
:10212000883009F033C337C08C3109F462C088337A
:1021300009F4D4C0883109F029C34DC0803609F4B0
:10214000D8C2813638F4803409F46DC18C3409F07A
:102150001DC371C1883709F4E5C28C3709F4F7C291
:10216000843609F013C3CEC2D70117963C91179756
:1021700020E016968C911697280F311D80910B0147
:1021800014966C91149715964C918E010F5F1F4F0A
:102190000E94DB0DFBC280E060910B01F7014481DE
:1021A00027818E010F5F1F4F0E94CC0CEFC2D70119
:1021B00011961C91119714960C91149715968C9169
:1021C000159716966C910E948101AC01812F602FAA
:1021D000F70127810BC0D70115964C9115971196E1
:1021E0008C91119716966C9150E020E00E94A82CDB
:1021F000CDC2F7016481262F30E0C9018E7F907037
:10220000803A910521F0883A910509F065C020FFD8
:1022100063C06E7F80E00E94290681E0D701169698
:102220006C910E94290682E0F70165810E942906CF
:102230000E944C0683E00E9450060E941A068823E2
:10224000E1F7D70114966C910E942906F701878166
:102250008F5F0E9450060E941A068823E1F7809142
:102260000B018887D70111968C9189878DE18A8728
:1022700001E088E0C82ED12CCC0EDD1E27C0802FB7
:102280000E9491068B87802F8F5F0E9491068C871A
:10229000102F1D5F802F8E5F0E9491068D870C5F2F
:1022A000812F0E9491068E878091090190E013E0B2
:1022B000880F991F1A95E1F7E091F700F091F80067
:1022C000E80FF91F8081B6010E94BA0CF7018781DF
:1022D0008017A8F68DE159C28EE157C2D701149636
:1022E0008C91813081F0813020F0803109F04EC234
:1022F0001AC0809108018823A1F4F7018581809399
:10230000080189E342C290910801992351F089E3C1
:102310008B83903119F480E00E9417081092080115
:1023200035C28AE332C280910801803119F08032CF
:1023300009F02CC280E0D70115966C910E94290605
:1023400081E0F70167810E94290682E0D701169695
:102350006C910E94290683E00E9426061092F900E3
:10236000F701848180930401858180930501868132
:102370008093060187818093070108C2809108013C
:10238000803119F0803209F001C2D70114968C9186
:10239000149790910401890F8093040115968C91F4
:1023A000159790910501890F8093050116968C91E0
:1023B000169790910601890F8093060117962C912C
:1023C00080910701280F209307019091F900903127
:1023D00098F480910801803121F0983068F48032BF
:1023E00059F4C701049664E00E9431068091F90017
:1023F0008F5F8093F900CAC180910501909104011B
:10240000892B90910601892B822B11F08EE3BDC19F
:1024100080910801803111F483E401C083E20E94BD
:1024200050068DE3B2C1F7018481658146810E9427
:10243000220881E4AAC1D70114968C91803109F455
:1024400070C08131E8F4883009F449C0893040F423
:102450008630D1F18730F0F5843009F0B6C02FC056
:102460008B3009F442C08C3020F4893009F0ADC0C3
:1024700039C08D3009F442C08F3009F0A6C048C081
:102480008E3109F46CC08F3150F48B3109F455C092
:102490008C3109F45DC0883109F097C04AC084329C
:1024A00009F47FC0853220F4803209F08EC069C003
:1024B000853209F47BC0803609F087C082C0F701FD
:1024C00085810E941F0881C0D70115968C91809349
:1024D0000E017BC0F70185818093110176C00E94B7
:1024E000C20A73C00E94350A70C0D70115968C913C
:1024F000159716966C910E94D91567C0F7018581D2
:1025000066810E94810190930D0180930C015DC052
:10251000D70115968C91159716966C910E94D3153C
:1025200054C0F701858166810E9481010E943215A5
:102530004CC00E9414088D8348C0D70115968C9119
:10254000159716966C910E9481010E941A083DC051
:1025500082E08D8385E08E838BE08F8336C0F70128
:102560002581220F220F220F8DE09FE3A2E0B0E031
:1025700004C0B595A795979587952A95D2F78E8330
:1025800024C0D70115961C91159716968C91169715
:1025900017966C910E948101BC01812F0E94E01668
:1025A00014C0F70185810E9424200FC0D701159621
:1025B0008C91159716966C910E9481010E9427209C
:1025C00004C0F701858180930F01D70114968C9187
:1025D000807E803409F040C010E0812F0E944508C1
:1025E000F7019581891719F01F5F1032B1F7012F9C
:1025F0000770D70114969C911497892F807F80349F
:10260000D1F4892F8F70182F169580FD0DC0169666
:102610008C91169717966C910E948101AC01802FC6
:10262000612F0E94F51807C0802F612FF7014681A6
:1026300027810E940E19D70114968C91149780352A
:1026400059F416968C91169717966C910E948101F9
:10265000BC01802F0E94E418F7018481807E8038BD
:1026600009F045C010E0812F0E944508D70115965A
:102670009C91891719F01F5F1032A9F7012F07707D
:10268000F7019481892F807F8038D1F4892F8F7052
:10269000182F169580FD0AC0868167810E948101EE
:1026A000AC01802F612F0E94021C0AC0802F612F75
:1026B000D70116964C91169717962C910E941A1CCA
:1026C000F7018481803941F4868167810E9481010C
:1026D000BC01802F0E94E51BD70114968C911497A2
:1026E000813929F4802F16966C910E94F41B8DE499
:1026F0004CC0F70184816581468127810E9446286C
:1027000081E643C0D70117968C918F3F19F40E9440
:10271000792C06C0F7018481658146810E94852C51
:1027200085E633C0D70117966C911797862F87706F
:1027300066956695669516964C91169715962C910A
:10274000159714960C910E94140B89E71EC0EDEFAB
:10275000FFE7E491D70115968C9115978E17B1F488
:10276000EEEFFFE7E49116968C9116978E1771F4B1
:10277000EFEFFFE7E49117968C9117978E1731F4DE
:1027800014968C9180930B018DE78B8380910B01C4
:102790008983F70181818A838B8190E083709070B7
:1027A000892BA1F08091090190E0B3E0880F991F77
:1027B000BA95E1F7E091F700F091F800E80FF91F02
:1027C0008081BE016F5F7F4F0E94BA0CD7011396C4
:1027D0008C9113978C3409F0EFC014968C9185304E
:1027E00019F1863040F4823089F08330D1F08130A5
:1027F00009F0E2C008C08C3011F18E3029F18A3026
:1028000009F0DAC016C00E94F20FD6C0F89428E092
:1028100088E190E00FB6F894A89581BD0FBE21BD68
:10282000FFCF0E942910C8C0F701858180930B015A
:10283000C3C0D70115968C9180931001BDC0F701DC
:1028400085810E94CD15B8C0D70115968C910E9444
:10285000D015B2C08091F200813011F5F70191815D
:102860008091F5009817E1F42C7F30702830310505
:10287000B9F494818091F600981791F41092F200C7
:102880001092F4008381893059F466816295607FEB
:10289000858182958F70682B8091F3000E94912C26
:1028A0008091FA008130A1F58091090190E0A3E0C8
:1028B000880F991FAA95E1F7E091F700F091F800D1
:1028C000E80FF91F83818C7F83838091090190E059
:1028D000F3E0880F991FFA95E1F7A091F700B09106
:1028E000F800A80FB91FEDEFF0E021E011969C91E0
:1028F00011978081981320E01196319681E0E430A1
:10290000F807A1F7213021F41092FA001092FC0090
:10291000D70113968C9113978B3709F04DC0009116
:102920001101013009F048C080910B018983119693
:102930008C918A8388E78B830E942D0B8C830E9465
:102940002A0B8D830E94270B8E830E94240B182F45
:102950000E94210B110F110F110F182B1F830093D1
:10296000FA00ADEFB0E0FE01319687E001900D92E4
:102970008150E1F7F70181818093FD0080910B0187
:102980008093FE0089E78093FF0088E08093FC003D
:102990008091090190E0E3E0880F991FEA95E1F743
:1029A000E091F700F091F800E80FF91F8081BE0177
:1029B0006F5F7F4F0E94BA0C8091090160910F01F7
:1029C0008F5F0E9460389093090180910A019817E7
:1029D00019F48FEF809309018091F200813071F436
:1029E0008091F400882351F41092F20081E060910C
:1029F000F50048E02091F6000E94930D8091FA00C6
:102A00008130B9F48091FC00882399F41092FA0087
:102A10008091FB00813021F48AE06AE00E94371542
:102A200081E06091FD004091FF00209100010E9433
:102A3000930D2E960FB6F894DEBF0FBECDBFCF918B
:102A4000DF911F910F91FF90EF90DF90CF9008954D
:102A500085E191E008958FEF9FEF909316018093A9
:102A60001501089590931601809315010895482F3C
:102A700021E030E0C90102C0880F991F6A95E2F792
:102A8000BC01809115019091160168237923672B71
:102A9000B1F08AE0489FC001112490931401809303
:102AA0001301E0911701F09118018081009012014B
:102AB00002C0220F331F0A94E2F7822B808308950D
:102AC0008091130190911401009791F4E091170106
:102AD000F0911801208181E090E00090120102C085
:102AE000880F991F0A94E2F78095822380830895C6
:102AF000019790931401809313010895EF92FF9230
:102B00000F931F93DF93CF930F92CDB7DEB782E081
:102B10006FEF0E948709082F10E07E010894E11CE6
:102B2000F11C1AC0C70160E070E040E050E020E016
:102B300030E00E949D09898161E00E9459099093CB
:102B40001801809317018981982F97709093120133
:102B500061E00E944F081F5F101720F310921401CC
:102B6000109213010F90CF91DF911F910F91FF9061
:102B7000EF90089589E191E0089510921901109263
:102B80001A01EBE1F1E0119281E0E332F807D9F7A5
:102B90001082118212821382089580931901089580
:102BA00080931A010895E9E1F1E0E80FF11D6283D5
:102BB0000895E9E1F1E0E80FF11D628708951092B0
:102BC0002F0188E98AB986E289B986E880BD10922A
:102BD00031011092300108958091300190913101BE
:102BE000009719F410922F010895019790933101E5
:102BF0008093300108955D9BFECF8CB90895482FD6
:102C0000803169F0282F30E0C9018F77409711F0AB
:102C100047FD05C02F7030702F30310589F5909138
:102C20001A01933049F49091190180911B015D9B29
:102C3000FECF89278CB907C0809119015D9BFECF1B
:102C40008CB9992381F0FB01ACE1B1E090818C91CA
:102C50005D9BFECF89278CB93196119681E0A33216
:102C6000B807A1F7089580E090E0FB01E80FF91F95
:102C7000E0815D9BFECFECB9019687309105A9F705
:102C800008951F920F920FB60F9211242F933F9326
:102C90004F935F936F937F938F939F93AF93BF9364
:102CA000CF93DF93EF93FF935F9BFECF20912F0194
:102CB000E22FF0E09CB1DF01A95DBE4F9C9322237F
:102CC00061F480911A01833089F480911B01909105
:102CD000270189278093270109C080911A01882341
:102CE00029F0E75EFE4F828189278C93822F8F5FC8
:102CF00080932F01883079F59091270180911901F7
:102D0000981731F580E168E271E00E948B0CC3E214
:102D1000D1E098819923B9F020912801291731F049
:102D200080912901891711F08F3F69F48091290161
:102D30008F3F21F4291711F09093290180E168E277
:102D400071E00E94FF15219681E0C732D80709F78C
:102D500010922F0108C0813031F485E890E0909303
:102D6000310180933001FF91EF91DF91CF91BF91BD
:102D7000AF919F918F917F916F915F914F913F9113
:102D80002F910F900FBE0F901F90189582E391E046
:102D9000089510923301109232018AE090E09093EE
:102DA00035018093340182E390E090933701809362
:102DB000360186E990E090933901809338010895B7
:102DC000E82FF0E0EE0FFF1FEE5CFE4F7183608393
:102DD000089581E080933D010895282F30E0C901D6
:102DE00053E0880F991F5A95E1F7220F331F820F86
:102DF000931FE0913B01F0913C01E80FF91F8081A6
:102E0000089580913B0190913C010E9440390895C2
:102E10009AE0899FC0011124E0913B01F0913C01AF
:102E2000E80FF91F218120952795222727952083D8
:102E3000E0913B01F0913C01E80FF91F2081237FD5
:102E4000262B2083E0913B01F0913C01E80FF91F14
:102E500040818185608550E020E00E948B0F0895BD
:102E6000FF920F931F93CF93DF9380913D018130A9
:102E700009F0FAC010E07AE0F72E01E0EEC01F9DE5
:102E8000E0011124E0913B01F0913C01EC0FFD1FAA
:102E900082819381009719F0019793838283A09197
:102EA0003B01B0913C01AC0FBD1F11962C911197C5
:102EB000422F50E01496ED91FC911597808190E09F
:102EC00016960C90169702C0959587950A94E2F78E
:102ED0008427952780FF8DC027FF39C02F77119653
:102EE0002C93E0913B01F0913C01EC0FFD1F878199
:102EF000482F50E04C7050704C30510591F4809147
:102F000038019091390122813381821B930B2091EA
:102F10003601309137018217930718F0812F68E04E
:102F200014C0483051059CF08091360190913701D2
:102F300022813381821B930B209134013091350122
:102F40008217930720F0812F64E00E940817E09118
:102F50003B01F0913C01EC0FFD1F878185FF09C00B
:102F600080913401909135019383828381818068BF
:102F70008183A0913B01B0913C01AC0FBD1F119624
:102F80008C91119790E09C012170307080FD06C0FB
:102F900017968C91179780FD08C022C0222301F15B
:102FA00017968C91179781FF1BC01796EC91179776
:102FB000E695E695F0E0E370F070EE0FFF1FEE5C33
:102FC000FE4F8081918113969C938E931297E0918E
:102FD0003B01F0913C01EC0FFD1F818180688183F2
:102FE000E0913B01F0913C01EC0FFD1F81818027B6
:102FF0008183A0913B01B0913C01AC0FBD1F1196A4
:103000004C911197242F30E01496ED91FC91159777
:10301000808190E016960C90169702C09595879542
:103020000A94E2F78227932780FD16C047FF14C059
:1030300012968D919C911397892B71F44F7711966D
:103040004C93E0913B01F0913C01EC0FFD1F678137
:103050006C70812F0E9408171F5F80913A0118172A
:1030600008F40DCF10923D01DF91CF911F910F9188
:10307000FF900895AF92BF92CF92DF92EF92FF92AE
:103080000F931F93DF93CF930F92CDB7DEB71092BC
:103090003D0180E860E80E948709982F80933A01FB
:1030A0008AE0989FC00111240E94933880933B01CD
:1030B00090933C01DD24EAE0CE2E5E010894A11C31
:1030C000B11C5AC0DC9C7001112460913B017091CD
:1030D0003C016E0D7F1DAB01485F5F4F9B01275F79
:1030E0003F4FC501695F7F4F0E949D0900913B01E1
:1030F00010913C010E0D1F1D898160E00E9459094D
:10310000F80195838483A0913B01B0913C01AE0D01
:10311000BF1D3981232F277016962C93169714966E
:10312000ED91FC911597808190E002C0959587956F
:103130002A95E2F7817011968C93E0913B01F09112
:103140003C01EE0DFF1D818180958795882787952D
:103150008083E0913B01F0913C01EE0DFF1D138255
:103160001282878184FD03C0832F60E002C0832F19
:1031700062E00E944F08D39480913A01D81608F477
:10318000A1CF0F90CF91DF911F910F91FF90EF9002
:10319000DF90CF90BF90AF9008958FE391E00895B6
:1031A000EFE3F1E088E592E091838083138212825D
:1031B0001482158217821682108611863A9621E0B3
:1031C000EF38F20789F70895282F30E0F90193E0EE
:1031D000EE0FFF1F9A95E1F7220F331FE20FF31F47
:1031E000E15CFE4F718360830895E62FF0E0EE0FFF
:1031F000FF1FEE0FFF1F282F30E0C90173E0880F7B
:10320000991F7A95E1F7220F331F820F931FE80F62
:10321000F91FE15CFE4F538342830895EF92FF92C2
:103220000F931F9370E08B010F5F1F4FEFE3EE2EA4
:10323000E1E0FE2E000F111F000F111FE82FF0E03C
:10324000DF0133E0AA0FBB1F3A95E1F7EE0FFF1F36
:10325000AE0FBF1F0A0F1B1F0E0D1F1DF80140836D
:10326000660F771F660F771F482F50E0CA0113E0E3
:10327000880F991F1A95E1F7440F551F840F951F6A
:10328000680F791FE60EF71EF70125831F910F9136
:10329000FF90EF900895282F862F82958F708A30A7
:1032A00011F5862F90E083709070892BE1F466957C
:1032B0006695E62FF0E0E370F070EE0FFF1FEE0F63
:1032C000FF1F822F90E09C01B3E0220F331FBA95BD
:1032D000E1F7880F991F280F391FE20FF31FE15CF8
:1032E000FE4F53834283089580918F018F5F8093B7
:1032F0008F010895582F462F662319F06FEF7FEF47
:1033000012C0282F30E0C90173E0880F991F7A9509
:10331000E1F7820F931FE0919101F0919201E80F84
:10332000F91F60817181842F82958F708A3011F529
:10333000842F90E083709070892BE1F44695469538
:10334000E42FF0E0E370F070EE0FFF1FEE0FFF1FB1
:10335000852F90E09C0153E0220F331F5A95E1F72F
:10336000880F991F280F391FE20FF31FE15CFE4FF2
:1033700062817381CB0108958091910190919201B6
:103380000E9440390895AF92BF92CF92DF92EF92A0
:10339000FF920F931F93CF93DF9380918F018A3019
:1033A000D0F010928F015091900140E020E030E089
:1033B00010C0E0919101F0919201E20FF31F828120
:1033C0009381009719F00197938382834F5F275F62
:1033D0003F4F451770F390913E019F3F09F408C19C
:1033E000369906C189E0989FC0011124E0919101AE
:1033F000F0919201E80FF91F1182108224B130E0A0
:10340000220F331F220F331F3183208345B1942FA6
:10341000990F990F80E0282B392B31832083EE24DC
:10342000FF2499E0A92E0E2D80913E018A9DC001B6
:103430001124C0919101D0919201C80FD91F4E81E2
:10344000D701AA0FBB1FAA0FBB1F842F90E0FC015E
:1034500013E0EE0FFF1F1A95E1F7880F991FE80F91
:10346000F91FEA0FFB1FE15CFE4FC280D380F7011A
:103470003196EE0FFF1FEE0FFF1F842F90E09C018F
:1034800053E0220F331F5A95E1F7880F991F280F39
:10349000391FE20FF31FE15CFE4FB080842F90E0F4
:1034A0009C01F3E0220F331FFA95E1F7880F991F73
:1034B000280F391FA20FB31FA15CBE4F15961C9198
:1034C00012FF2CC0888199818C159D0558F410FD40
:1034D00009C011604E2D406488856F8150E020E066
:1034E0000E948B0F80913E018A9DC0011124E091C2
:1034F0009101F0919201E80FF91F96012B0D311DFA
:10350000808191818217930748F010FF07C01E7FCA
:1035100080856781A70120E00E948B0F13FF38C0D0
:1035200080913E018A9DC0011124E0919101F091AA
:103530009201E80FF91F80819181C816D90658F4CD
:1035400011FD09C01260402F406C8085678150E0FA
:1035500020E00E948B0F80913E018A9DC0011124C2
:10356000E0919101F0919201E80FF91FCB18D10879
:1035700080819181C816D90658F011FF09C01D7FBE
:10358000006880856781402F50E020E00E948B0F0B
:1035900080913E0190E09C0173E0220F331F7A95E9
:1035A000E1F7280F391FE0919101F0919201E20FAC
:1035B000F31FD701AA0FBB1FAA0FBB1F868190E084
:1035C0009C0153E0220F331F5A95E1F7880F991F92
:1035D000280F391FA20FB31FA15CBE4F15961C9375
:1035E0000894E11CF11C82E0E816F10409F01BCFFD
:1035F00080913E018F3F11F036994DC0482F4F5FAB
:1036000020919001A0919101B091920111C0842F5D
:1036100090E0FC0133E0EE0FFF1F3A95E1F7E80F71
:10362000F91FEA0FFB1F82819381892B21F04F5FE5
:10363000421768F32DC029E0429F90011124A20F88
:10364000B31F16968C91169790E0FC0103E0EE0FE5
:10365000FF1F0A95E1F7880F991FE80FF91FE15C3A
:10366000FE4F8081918113969C938E93129787B120
:10367000887F87B997B1E0919101F0919201E20FB3
:10368000F31F8681982B97B9369A40933E0103C069
:103690008FEF80933E01DF91CF911F910F91FF90AB
:1036A000EF90DF90CF90BF90AF900895AF92BF9210
:1036B000CF92DF92EF92FF920F931F93DF93CF93FE
:1036C0000F92CDB7DEB780E268EF0E948709982F8E
:1036D0008093900189E0989FC00111240E94933843
:1036E0008093910190939201DD2459E0C52E5E01F3
:1036F0000894A11CB11C36C0DC9C700111244091BF
:103700009101509192014E0D5F1D9A01285F3F4F2C
:10371000C50160E070E0495F5F4F0E949D09009124
:103720009101109192010E0D1F1D898160E00E9490
:103730005909F80195838483E0919101F0919201F8
:10374000EE0DFF1D8981868311821082E091910127
:10375000F0919201EE0DFF1D1382128260E00E9433
:103760004F08D39490919001D91630F210928F01A6
:103770008FEF80933E0180EC87B9992311F087E8A1
:1037800086B90F90CF91DF911F910F91FF90EF902D
:10379000DF90CF90BF90AF90089588E991E00895B1
:1037A000E8E9F1E08CE390E0918380831282148257
:1037B00013821582168210861782118612863B9616
:1037C00021E0E03FF20781F7089590E02BE030E040
:1037D000829FF001839FF00D929FF00D1124E85617
:1037E000FE4F71836083089590E02BE030E0829F6C
:1037F000F001839FF00D929FF00D1124E856FE4FCB
:1038000062830895E62FF0E090E0EE0FFF1FEE0FC9
:10381000FF1F2BE030E0BC01629FC001639F900D51
:10382000729F900D1124E80FF91FE856FE4F548344
:10383000438308950F931F93CF93DF9390E070E03D
:10384000660F771F660F771F08E911E0FB013296BC
:10385000ABE0B0E0EC01CA9FC001CB9F900DDA9FB6
:10386000900D1124E80FF91FE00FF11F4383680F3B
:10387000791F060F171FF8012683DF91CF911F9143
:103880000F910895282F862F82958F708A3009F521
:10389000862F90E083709070892BD9F46695669599
:1038A000E62FF0E0E370F07030E0EE0FFF1FEE0F58
:1038B000FF1F8BE090E0BC01269FC001279F900D69
:1038C000369F900D1124E80FF91FE856FE4F5483E0
:1038D00043830895809197018F5F809397010895A6
:1038E000582F462F662319F06FEF7FEF12C0282F55
:1038F00030E0C901E3E0880F991FEA95E1F7821BE8
:10390000930BE0919401F0919501E80FF91F60810C
:103910007181842F82958F708A3011F5842F90E009
:1039200083709070892BE1F446954695E42FF0E082
:10393000E370F070252F30E0EE0FFF1FEE0FFF1F3A
:103940008BE090E0AC01249FC001259F900D349F37
:10395000900D1124E80FF91FE856FE4F6381748122
:10396000CB01089580919401909195010E94403976
:1039700008952F923F924F925F926F927F928F9213
:103980009F92AF92BF92CF92DF92EF92FF920F93EE
:103990001F93CF93DF9380919701882309F4ADC1E2
:1039A0001092970144247BE0272E312CA1C127E0FF
:1039B000429E50011124E0919401F0919501EA0D8D
:1039C000FB1D81E090E0048002C0880F991F0A94DB
:1039D000E2F7D82E82819381009719F001979383A3
:1039E0008283E0919401F0919501EA0DFB1D8281A3
:1039F0009381019709F58D2D0E9456078823E1F0E8
:103A00008D2D0E940308E0919401F0919501EA0D3B
:103A1000FB1D848190E0829DF001839DF00D929DBD
:103A2000F00D1124E856FE4F82818150823020F43F
:103A300084E46D2D0E94EB07E0919401F0919501D3
:103A4000EA0DFB1D82819381892B09F050C18D2DD8
:103A50000E945607882309F48AC08D2D0E9403080E
:103A6000E0919401F0919501EA0DFB1D848190E0B5
:103A7000829DF001839DF00D929DF00D1124E8567A
:103A8000FE4F8281813021F0823009F070C022C067
:103A90008EEB6D2D0E94EB07009194011091950122
:103AA0000A0D1B1D8D2D0E94A107F8018083118234
:103AB000E0909401F0909501EA0CFB1CF701008165
:103AC00011818D2D0E94A107982E8824082919297B
:103AD000F7014BC08EEB6D2D0E94EB070091940116
:103AE000109195010A0D1B1D8D2D0E94A107F80153
:103AF00080831182E0909401F0909501EA0CFB1C08
:103B0000F701008111818D2D0E94A107782E662476
:103B100006291729F701118300838D2D0E94A10723
:103B20008D2D0E94A1078D2D0E94A1078D2D0E9431
:103B3000A107E0919401F0919501EA0DFB1D008130
:103B40001181159507958D2D0E94A10754E0000F56
:103B5000111F5A95E1F7045F1F4FE0919401F09116
:103B60009501EA0DFB1D081B11091183008300E07C
:103B700010E0F02EC0919401D0919501CA0DDB1D8B
:103B80008C8190E0D801AA0FBB1FAA0FBB1F829D9A
:103B9000F001839DF00D929DF00D1124AE0FBF1F1B
:103BA000A856BE4F1396CD90DC901497C801880F8D
:103BB000991F880F991FE80FF91FE656FE4F538093
:103BC0001696EC90E2FE29C0888199818C159D059E
:103BD00064F4E0FC0AC0F1E0EF2A402F40648E81DB
:103BE0006D8150E020E00E948B0FE0919401F091F4
:103BF0009501EA0DFB1D9601250D311D80819181F6
:103C00008217930754F0E0FE08C02EEFE22286816F
:103C10006581A80120E00E948B0FE3FE31C0E09196
:103C20009401F0919501EA0DFB1D80819181C816E8
:103C3000D90664F4E1FC0AC032E0E32A4F2D406C5F
:103C40008681658150E020E00E948B0FE091940115
:103C5000F0919501EA0DFB1DC518D1088081918175
:103C6000C816D9066CF0E1FE0BC08DEFE82220E803
:103C7000F22A868165814F2D50E020E00E948B0F53
:103C8000A0919401B0919501AA0DBB1D14968C9141
:103C9000149790E0F801EE0FFF1FEE0FFF1F9C013D
:103CA000229DC001239D900D329D900D1124E80F9F
:103CB000F91FE856FE4FE6820F5F1F4F02301105D5
:103CC00009F057CF14968C91149790E02BE030E0D8
:103CD000829FF001839FF00D929FF00D1124E85612
:103CE000FE4F8081918113969C938E9312974394FB
:103CF00080919301481608F45ACEDF91CF911F911D
:103D00000F91FF90EF90DF90CF90BF90AF909F907A
:103D10008F907F906F905F904F903F902F9008957D
:103D2000AF92BF92CF92DF92EF92FF920F931F93C9
:103D3000DF93CF930F92CDB7DEB788E268EF0E9492
:103D40008709982F8093930187E0989FC0011124E1
:103D50000E9493388093940190939501109296015C
:103D6000FF24F7E0EF2E5E010894A11CB11CE1E0F6
:103D7000CE2ED12C32C0FE9C8001112440919401A2
:103D800050919501400F511F9A012A5F3F4FC50185
:103D900060E070E04B5F5F4F0E949D09E0919401ED
:103DA000F0919501E00FF11F298124831182108287
:103DB000E0919401F0919501E00FF11F13821282BE
:103DC000C60102C0880F991F2A95E2F79C018091D5
:103DD0009601822B80939601F39480919301F816BB
:103DE00050F210929701809196010E9408080F905E
:103DF000CF91DF911F910F91FF90EF90DF90CF90C7
:103E0000BF90AF9008957F928F929F92AF92BF9292
:103E1000CF92DF92EF92FF920F931F93DF93CF9396
:103E200000D0CDB7DEB780E06EEF0E948709782E14
:103E3000EE2432E0832E912C8C0E9D1E5E010894A0
:103E4000A11CB11C21E0C22ED12C2DC0C501B40192
:103E500040E050E020E030E00E949D09898161E06F
:103E60000E9459098C01898197E0F92EF82261E0BE
:103E70000E944F088A81813051F4F8012081C601E7
:103E800002C0880F991FFA94E2F7282B0AC0F801A4
:103E90002081C60102C0880F991FFA94E2F780952D
:103EA00028232083E394E71488F20F900F90CF919A
:103EB000DF911F910F91FF90EF90DF90CF90BF9017
:103EC000AF909F908F907F90089590E09C01220F7B
:103ED000331F280F391F220F331FE091F101F0919A
:103EE000F201E20FF31F808108958091F10190911A
:103EF000F2010E9440390895462F96E0899FB00153
:103F00001124E091F101F091F201E60FF71F4083D7
:103F10004423A1F0E091F101F091F201E60FF71FC7
:103F2000A181B2812C9181E090E0038002C0880FD2
:103F3000991F0A94E2F7282B2C9314C0E091F10109
:103F4000F091F201E60FF71FA181B2812C9181E07F
:103F500090E0038002C0880F991F0A94E2F78095D1
:103F600082238C93E091F101F091F201E60FF71FAB
:103F70008581648150E020E00E948B0F0895AF920C
:103F8000BF92CF92DF92EF92FF920F931F93DF9336
:103F9000CF930F92CDB7DEB780E160EF0E94870923
:103FA000982F8093F00186E0989FC00111240E9411
:103FB00093388093F1019093F201DD2456E0C52EF1
:103FC0005E010894A11CB11C2FC0DC9C700111245F
:103FD0004091F1015091F2014E0D5F1D9A012B5F4E
:103FE0003F4FC50160E070E04C5F5F4F0E949D094C
:103FF0000091F1011091F2010E0D1F1D898161E008
:104000000E945909F80192838183E091F101F091B6
:10401000F201EE0DFF1D8981982F97709383108216
:1040200061E00E944F08D3948091F001D81668F2A5
:104030000F90CF91DF911F910F91FF90EF90DF9044
:10404000CF90BF90AF9008958093FA010895909318
:10405000FC018093FB010895CF92DF92EF92FF92D3
:104060000F931F93CF93DF938C01C42E81E0809335
:10407000FE017B01601771070CF47801C801845DB3
:104080009E4F1816190614F408591A43C701845D87
:104090009E4F1816190624F488E695ECE80EF91ED2
:1040A0008091F501882381F550E04AE026C0E09137
:1040B0000202549FC00111242091F3013091F401B8
:1040C000280F391FEE2319F465E070E002C060E0AC
:1040D00070E08E2F90E0FC01EE0FFF1FEE0FFF1F30
:1040E000E80FF91FD901A60FB71FE20FF31F85E0F4
:1040F00001900D928150E1F75F5F8091F7015817B1
:10410000B0F281E08093F501A091F301B091F40148
:1041100020E030E080910202882311F421E030E0B9
:1041200050E0B901660F771F660F771F620F731F8C
:1041300001C05F5F852F90E0FC0143E0EE0FFF1FA1
:104140004A95E1F7880F991FE80FF91FEA0FFB1F47
:10415000E60FF71F8481C81661F740E0B901660FCA
:10416000771F660F771F620F731F01C04F5F842F89
:1041700090E0FC0133E0EE0FFF1F3A95E1F7880F66
:10418000991FE80FF91FEA0FFB1FE60FF71F808149
:1041900091818017910754F3541718F06AE0D62ED6
:1041A00065C041503AC0C091F301D091F401E52FB0
:1041B000F0E060E070E080910202882311F461E099
:1041C00070E0DF01AA0FBB1FCF0123E0880F991F0A
:1041D0002A95E1F7A80FB91FAC0FBD1F9B01220F55
:1041E000331F220F331F260F371FCF010196FC010B
:1041F00073E0EE0FFF1F7A95E1F7880F991FE80F24
:10420000F91FEC0FFD1FA20FB31FE20FF31F85E094
:1042100001900D928150E1F75F5F541720F228C0A2
:10422000E091F301F091F4015D9D9001112460E0B3
:1042300070E080910202882311F461E070E02E0F9B
:104240003F1FCB01880F991F880F991F860F971F5B
:10425000D901A80FB91F2A503040F901E80FF91F02
:1042600085E001900D928150E1F751504517C0F261
:104270008AE0489FC00111246091F3017091F4011C
:10428000680F791F20E030E080910202882311F44A
:1042900021E030E0F901EE0FFF1FEE0FFF1FE20FEC
:1042A000F31FE60FF71F11830083F382E282C482BB
:1042B0001092FE01DF91CF911F910F91FF90EF902F
:1042C000DF90CF900895CF92DF92EF92FF920F93FD
:1042D0001F93CF93DF937C01C42E81E08093FE0176
:1042E0008B016E157F050CF48701C701845D9E4F1D
:1042F0001816190624F488E695ECE80EF91EC80194
:10430000845D9E4F1816190614F408591A438091BB
:10431000F501882381F550E04AE026C0E0910202D1
:10432000549FC00111242091F3013091F401280F12
:10433000391FEE2319F465E070E002C060E070E020
:104340008E2F90E0FC01EE0FFF1FEE0FFF1FE80F16
:10435000F91FD901A60FB71FE20FF31F85E00190E7
:104360000D928150E1F75F5F8091F7015817B0F22D
:1043700081E08093F501A091F301B091F40120E078
:1043800030E080910202882311F421E030E050E017
:10439000B901660F771F660F771F620F731F01C089
:1043A0005F5F852F90E0FC0143E0EE0FFF1F4A9511
:1043B000E1F7880F991FE80FF91FEA0FFB1FE60FBF
:1043C000F71F8481C81661F740E0B901660F771FB7
:1043D000660F771F620F731F01C04F5F842F90E03D
:1043E000FC0133E0EE0FFF1F3A95E1F7880F991FAC
:1043F000E80FF91FEA0FFB1FE60FF71F8281938179
:104400008017910754F3541718F06AE0D62E65C050
:1044100041503AC0C091F301D091F401E52FF0E092
:1044200060E070E080910202882311F461E070E0A6
:10443000DF01AA0FBB1FCF0123E0880F991F2A9528
:10444000E1F7A80FB91FAC0FBD1F9B01220F331F4F
:10445000220F331F260F371FCF010196FC0173E097
:10446000EE0FFF1F7A95E1F7880F991FE80FF91FEC
:10447000EC0FFD1FA20FB31FE20FF31F85E00190A9
:104480000D928150E1F75F5F541720F228C0E09150
:10449000F301F091F4015D9D9001112460E070E062
:1044A00080910202882311F461E070E02E0F3F1F1B
:1044B000CB01880F991F880F991F860F971FD9016D
:1044C000A80FB91F2A503040F901E80FF91F85E005
:1044D00001900D928150E1F751504517C0F28AE0EA
:1044E000489FC00111246091F3017091F401680F9D
:1044F000791F20E030E080910202882311F421E04E
:1045000030E0F901EE0FFF1FEE0FFF1FE20FF31F68
:10451000E60FF71FF182E08213830283C4821092B8
:10452000FE01DF91CF911F910F91FF90EF90DF90EF
:10453000CF90089590E09C01B4E0220F331FBA950C
:10454000E1F7280F391FE091F801F091F901E20F2E
:10455000F31F6081718180E090E00E94743520E05B
:1045600030E048EC52E40E94823620E030E04FE731
:1045700053E40E94DB3420E030E040E05FE30E943F
:1045800064340E944835DC01CB0108951F920F92DC
:104590000FB60F9211241F932F933F934F935F9366
:1045A0006F937F938F939F93AF93BF93CF93DF933B
:1045B000EF93FF931AE071E1C1E0D0E024C0848161
:1045C000879FC0011124A091F801B091F901A80FB3
:1045D000B91F8D919C911197892B81F01B96ED91BC
:1045E000FC911C972081CE011D960C9002C0880F73
:1045F000991F0A94E2F78095822380838091FD01C0
:104600008F5F8093FD014AB55BB56091FD01619FAD
:10461000C0011124E091F301F091F401E80FF91FBA
:104620002091020230E0C901880F991F880F991F5D
:10463000820F931FE80FF91F20813181C901CC97A8
:104640004817590728F08091F701681708F4B7CF89
:104650003BBD2ABDFF91EF91DF91CF91BF91AF910B
:104660009F918F917F916F915F914F913F912F918A
:104670001F910F900FBE0F901F9018951F920F92D1
:104680000FB60F9211241F932F933F934F935F9375
:104690006F937F938F939F93AF93BF93CF93DF934A
:1046A000EF93FF931AE071E1C1E0D0E01BC0848179
:1046B000879FC0011124E091F801F091F901E80F02
:1046C000F91FA385B4852C91CE01058402C0880F03
:1046D000991F0A94E2F7282B2C938091F6018F5FA3
:1046E0008093F60148B559B56091F601619FC0010C
:1046F0001124E091F301F091F401E80FF91F2091EA
:10470000020230E0C901880F991F880F991F820F9C
:10471000931FE80FF91F22813381C901CC974817F5
:10472000590720F08091F701681708F239BD28BDBC
:10473000FF91EF91DF91CF91BF91AF919F918F91B9
:104740007F916F915F914F913F912F911F910F90AA
:104750000FBE0F901F9018951F920F920FB60F92D9
:1047600011242F933F934F935F936F938F939F9356
:10477000AF93BF93EF93FF9330E061E141E050E0EE
:1047800016C0369FC0011124E091F801F091F901A3
:10479000E80FF91FA385B4852C91CA01058402C0D6
:1047A000880F991F0A94E2F7282B2C933F5F809182
:1047B000F701381730F3FF91EF91BF91AF919F91BF
:1047C0008F916F915F914F913F912F910F900FBEFD
:1047D0000F901F9018952091FF0130910002C901A0
:1047E0000A96459718F029523940DCF186E19FEF8F
:1047F000909300028093FF018CE394EC9DBD8CBDEF
:104800001092FD011092F6018091F501813061F462
:104810008091FE01882341F490E080910202882378
:1048200009F491E090930202E091F301F091F40118
:104830002091020230E0C901880F991F880F991F4B
:10484000820F931FE80FF91F808191819BBD8ABD64
:104850008281938199BD88BD81E08093010210928D
:10486000F50108958091FF019091000201969093C7
:1048700000028093FF0108958091F8019091F90161
:104880000E9440398091F3019091F4010E944039D7
:1048900008950F931F9321E1829F900111240091AD
:1048A000F8011091F901020F131FF80120813181E5
:1048B000338322830E949A22482FF80180896785DA
:1048C00050E020E00E948B0F1F910F91089520E08F
:1048D00030E040E753E40E94823620E030E04FE7CA
:1048E00053E40E94DB3420E030E04FE753E40E94C1
:1048F000DB3423E333E343E35FE30E94E5369B01CC
:10490000AC01CA01B9010E94643420E030E040E803
:104910005FE30E9463340E9455342BED3FE049E48D
:1049200050E40E94DB3426E636E646E65FE30E946A
:10493000E5369B01AC01CA01B90120E030E64AE648
:1049400056E40E9482360E94C8340E9443359B017F
:10495000AC01309521953F4FC901089520E030E02A
:1049600040E753E40E94823620E030E04FE753E412
:104970000E94DB3420E030E04FE753E40E94DB3458
:1049800023E333E343E35FE30E94E5369B01AC019D
:10499000CA01B9010E94643420E030E040E85FE3DE
:1049A0000E9463340E9455342BED3FE049E450E40B
:1049B0000E94DB3426E636E646E65FE30E94E536F3
:1049C0009B01AC01CA01B90120E030E64AE656E499
:1049D0000E9482360E94C8340E9443359B01AC017C
:1049E00028593A43C90108950F931F93CF93DF933A
:1049F00080910102813009F0D0C010E001E1C6C011
:104A0000109FE0011124E091F801F091F901EC0F01
:104A1000FD1F87819085009709F0B4C02081318106
:104A2000428153812417350708F04FC08185928554
:104A3000820F931F8417950718F49183808302C017
:104A400051834083E091F801F091F901EC0FFD1FD3
:104A5000868583FF0FC06081718180E090E00E94B5
:104A600074350E946724BC0186E494EC412F0E94B7
:104A700063211CC06081718181FD0DC080E090E0E8
:104A80000E9474350E94AE246091FB017091FC017C
:104A9000680F791F08C080E090E00E9474350E9482
:104AA000AE2460E070E0412F0E942C20E091F801DC
:104AB000F091F901EC0FFD1F808191818F3F9105ED
:104AC00009F057C08685806853C04217530708F025
:104AD00050C061857285CB01840F951F82179307A3
:104AE00028F4261B370B3183208302C05183408377
:104AF000E091F801F091F901EC0FFD1F868583FF2D
:104B00000FC06081718180E090E00E9474350E9446
:104B10006724BC0186E494EC412F0E9463211CC0F1
:104B20006081718181FD0DC080E090E00E9474354C
:104B30000E94AE246091FB017091FC01680F791F07
:104B400008C080E090E00E9474350E94AE2460E0CE
:104B500070E0412F0E942C20E091F801F091F901C2
:104B6000EC0FFD1F80819181892B19F486858F7749
:104B70008687E091F801F091F901EC0FFD1F858126
:104B8000968101C00197908787831F5F8091F7010D
:104B9000181708F435CF10920102DF91CF911F91C1
:104BA0000F910895CF92DF92EF92FF920F931F9390
:104BB000CF93DF93D82EC62E81E1D89E70011124A9
:104BC000E091F801F091F901EE0DFF1D868580FF5F
:104BD00006C04330510518F403E010E006C082FD22
:104BE00002C08A0102C000E010E082FF05C0CC20B4
:104BF00019F0CFEFD0E009C08FEFC89EC00111249B
:104C000064E670E00E948038EB010115110599F50A
:104C1000D183C083E091F801F091F901EE0DFF1D01
:104C20008685282F83FF0EC0BE0180E090E00E94A1
:104C300074350E946724BC0188E695EC4D2D0E94D6
:104C4000632119C0BE0180E090E021FD0BC00E94ED
:104C500074350E94AE246091FB017091FC01680FD5
:104C6000791F06C00E9474350E94AE2460E070E097
:104C70004D2D0E942C20E091F801F091F901EE0DEC
:104C8000FF1DD383C28360817181C617D70728F4C3
:104C9000CB018C1B9D0BEC0102C0C61BD70BC801BE
:104CA000880F991F980153E0220F331F5A95E1F79F
:104CB000820F931FBE010E946C38658376836783E1
:104CC0007087CE01B8010E946C38CB016AE070E0B9
:104CD0000E946C386F5F7F4F72876187808967851C
:104CE0004C2D50E020E00E948B0FDF91CF911F915F
:104CF0000F91FF90EF90DF90CF9008951F93182FA2
:104D00000E949A229091FA01899FC001112464E6C1
:104D100070E00E946C38AB01812F60E00E94D225C8
:104D20001F9108951F93182F0E949A2224E630E0C5
:104D3000281B31098091FA0190E0AC01249FC00149
:104D4000259F900D349F900D112464E670E00E9421
:104D50006C38AB01812F64E60E94D2251F91089523
:104D6000CF93DF93982F81E1989FE0011124E09188
:104D7000F801F091F901EC0FFD1F868587FF04C053
:104D8000892F0E947E2603C0892F0E949226E091DF
:104D9000F801F091F901EC0FFD1F86858058868798
:104DA000DF91CF9108951F93182F0E949A22482FC8
:104DB000212F30E0E091F801F091F901882371F0A2
:104DC000C901A4E0880F991FAA95E1F7820F931FEC
:104DD000E80FF91F4483812F60E00CC0C90174E023
:104DE000880F991F7A95E1F7820F931FE80FF91F3B
:104DF000812F648140E050E00E94D2251F910895E8
:104E00001F93CF93DF93182F0E949A22C82FD0E0D0
:104E1000209769F022978FEFCF3FD80711F4C0E0B9
:104E2000D0E0812F6C2F40E050E00E94D2258C2FE3
:104E3000DF91CF911F9108951F93CF93DF93182F88
:104E40000E949A22C82FD0E0C436D10561F0229684
:104E5000C536D10514F0C4E6D0E0812F6C2F40E0B8
:104E600050E00E94D2258C2FDF91CF911F910895A1
:104E70007F928F929F92AF92BF92CF92DF92EF92EA
:104E8000FF920F931F93DF93CF930F92CDB7DEB7AF
:104E90001092010280E460EC0E948709982F8093B1
:104EA000F70181E1989FC00111240E9493388093FB
:104EB000F8019093F901DD2471E1772E4E010894F9
:104EC000811C911C64E6C62E51E0A52EB12C40C079
:104ED000D79C700111246091F8017091F9016E0D59
:104EE0007F1DAB01415F5F4F9B01205F3F4FC401BE
:104EF000625F7F4F0E949D090091F8011091F901B6
:104F00000E0D1F1D898161E00E945909F8019487E7
:104F10008387E091F801F091F901EE0DFF1D898181
:104F2000982F9770958711821082E091F801F09187
:104F3000F901EE0DFF1D13821282C48216821582C2
:104F400010861782B286A18661E00E944F08D39432
:104F50002091F701D21608F4BBCF8CE38093FA01BD
:104F60008CE390E09093FC018093FB01822F90E012
:104F700001969C0143E0220F331F4A95E1F7880F09
:104F8000991F820F931F0E949338AC019093F401F4
:104F90008093F30130E06AE016C0369FF0011124DF
:104FA000E40FF51F118210828091FB019091FC01AA
:104FB000938382833483DF01159685E001900D92FF
:104FC0008150E1F73F5F2091F701321730F3822FD4
:104FD00090E0FC0113E0EE0FFF1F1A95E1F7880F38
:104FE000991FE80FF91FE40FF51F2FEF3FE73183FB
:104FF0002083E091F7018AE0E89FF0011124E40F9B
:10500000F51F33832283DF01159685E001900D9211
:105010008150E1F7109202021092F50182E08EBDFC
:1050200089B7806189BF89B7886089BF89B7846083
:1050300089BF0F90CF91DF911F910F91FF90EF905B
:10504000DF90CF90BF90AF909F908F907F9008950A
:1050500085E092E0089510920502109206021092E7
:105060000702109208021092100210921102109280
:10507000120210921A0210921B0210921C0210923D
:10508000240210922502109226020895982F542F80
:10509000722F882321F0A6E0B2E0E0E028C0409122
:1050A0000502242F30E0F901EE0FFF1FC901B3E024
:1050B000880F991FBA95E1F7E80FF91FEB5FFD4FD5
:1050C0006183F901EE0FFF1FEE0FFF1FE20FF31FC9
:1050D000EE0FFF1FE95FFD4F508371834F5F4093D9
:1050E00005020895EF5F1A96E43009F4C4C08C916C
:1050F0008917C1F7ACC06130B9F0613030F0603869
:1051000011F1613809F0B7C02CC0FC0133E0EE0F9B
:10511000FF1F3A95E1F7880F991FE80FF91FEB5F22
:10512000FD4F548375830895FC01B3E0EE0FFF1F1C
:10513000BA95E1F7880F991FE80FF91FEB5FFD4F54
:10514000568377830895FC0173E0EE0FFF1F7A9575
:10515000E1F7880F991FE80FF91FEB5FFD4F5087AC
:105160000895FC0143E0EE0FFF1F4A95E1F7880F19
:10517000991FE80FF91FEB5FFD4F518708956230CB
:1051800061F1633030F4662361F0613009F073C07F
:1051900016C06430F1F1643070F1653009F06BC015
:1051A00047C0FC0123E0EE0FFF1F2A95E1F7880FAF
:1051B000991FE80FF91FEB5FFD4F54830895FC0121
:1051C000A3E0EE0FFF1FAA95E1F7880F991FE80FE4
:1051D000F91FEB5FFD4F55830895FC0163E0EE0F6F
:1051E000FF1F6A95E1F7880F991FE80FF91FEB5F22
:1051F000FD4F56830895FC0133E0EE0FFF1F3A95F3
:10520000E1F7880F991FE80FF91FEB5FFD4F5783F8
:105210000895FC01B3E0EE0FFF1FBA95E1F7880F88
:10522000991FE80FF91FEB5FFD4F508771870895B5
:105230000196FC0163E0EE0FFF1F6A95E1F7880F0E
:10524000991FE80FF91FEB5FFD4F508308958E2FD4
:1052500090E0FC01EE0FFF1FEE0FFF1FE80FF91F9C
:10526000EE0FFF1FE95FFD4FE081E03C09F443CF03
:10527000E03E09F484CF089590E0FC01EE0FFF1F9B
:10528000EE0FFF1FE80FF91FEE0FFF1FE95FFD4F45
:1052900080810895282F10922E028093030260933C
:1052A0000402E7E0F2E090E080818623821709F4AF
:1052B0009F5F3A9682E0EF32F807B1F7892F0895A1
:1052C000409104022091030280912E02382F3F5F0B
:1052D00090E0FC01EE0FFF1FEE0FFF1FE80FF91F1C
:1052E000EE0FFF1FE95FFD4F80818423821711F0CD
:1052F000832FECCF30932E022AE0329F90011124AD
:1053000024503E4FC9010895282FE6E0F2E090E0D6
:1053100001C09F5F8081821729F03A969430C9F7C7
:105320008FEF0895892F806808958F77A7E0B2E006
:1053300040E025E0829F90011124220F331F2A0FA5
:105340003B1F90E0FC01EE0FFF1FEE0FFF1FE80F69
:10535000F91FEE0FFF1FEA0FFB1F07C080819C9112
:105360008927862309F44F5F1A96A217B307B1F76E
:10537000842F089590E023E0880F991F2A95E1F784
:10538000E0913102F0913202E80FF91F8281089515
:1053900080912F028F5F80932F02089580913102B8
:1053A000909132020E9440390895AF92BF92CF92FD
:1053B000DF92EF92FF920F931F93CF93DF93809131
:1053C0002F02843108F4CEC010922F02DD2453E066
:1053D000C52E4CE9A42E4FEFB42EBFC0ED2CFF24F8
:1053E00033E0EE0CFF1C3A95E1F7E0913102F091C9
:1053F0003202EE0DFF1D868187FD02C0815086833B
:105400008681882361F40190F081E02D838164819D
:1054100040E020E030E000E010E00E94DB0DE09191
:105420003102F0913202EE0DFF1D878187FD02C02F
:10543000815087838781882361F40190F081E02D7A
:105440008581668140E020E030E000E010E00E94CD
:10545000DB0DC0913102D0913202CE0DDF1D8C8167
:105460009D81882391F1282F21502C8393709130B6
:1054700069F4E881F981678184E6289FC0011124DD
:1054800070E00E9480388B81860F8A83C091310240
:10549000D0913202CE0DDF1D8D818370823009F0F4
:1054A0005BC08C8190E0E881F98167819C012A9D35
:1054B000C0012B9D900D3A9D900D112470E00E942B
:1054C00080388B81860F8A8347C0892F8370813013
:1054D000A9F49C7F9D83E881F981808580FF05C0C8
:1054E000CE828381648144E603C08381648140E08D
:1054F00020E030E000E010E00E94DB0DA0913102DE
:10550000B0913202AE0DBF1D15969C911597892F53
:1055100083708230C9F49C7F15969C931597ED910A
:10552000FC911197808580FF06C01796CC928581EB
:10553000668144E603C08581668140E020E030E07A
:1055400000E010E00E94DB0DE0913102F0913202A8
:10555000EE0DFF1D83818283D39480913002D81693
:1055600008F43CCFDF91CF911F910F91FF90EF9006
:10557000DF90CF90BF90AF90089590E063E0880FE8
:10558000991F6A95E1F7E0913102F0913202E80F3C
:10559000F91F1482428143830190F081E02D8281C2
:1055A000608150E020E00E948B0F0895CF92DF923F
:1055B000FF920F931F93CF93DF93F62EC82EDD2417
:1055C00073E0CC0CDD1C7A95E1F7C0913102D091EB
:1055D0003202CC0DDD1D8D8190E083709070892B9F
:1055E00009F0A6C02A81621718F0662319F03FC09F
:1055F000662399F4E881F981678170E0882777FD57
:105600008095982F0E9476352DEC3CEC4CE85FE3BA
:105610000E9482360E94483513C030E0261B3109B3
:10562000E881F981878190E0AC01249FC001259F2A
:10563000900D349F900D112464E670E00E94803834
:105640006C838D818C7F81608D83E881F981808579
:1056500080FF02C083E08E83E881F98183816481C9
:1056600044E620E030E000E010E00E94DB0DC09155
:105670003102D0913202CC0DDD1D8A818F1528F0C8
:1056800054E6F51609F042C003C094E6F91699F401
:10569000E881F981678170E0882777FD8095982FF0
:1056A0000E9476352DEC3CEC4CE85FE30E9482369C
:1056B0000E94483514C02F2D30E0281B3109E881A5
:1056C000F981878190E0AC01249FC001259F900D56
:1056D000349F900D112464E670E00E9480386C8342
:1056E0008D818C7F82608D83E881F981808580FF48
:1056F00002C083E08F83E881F9818581668144E679
:1057000020E030E000E010E00E94DB0DE09131028B
:10571000F0913202EC0DFD1DF3820190F081E02D3D
:10572000828160814F2D50E020E00E948B0F08C0E5
:10573000E881F98182E0608140E020E00E94930DE1
:10574000DF91CF911F910F91FF90DF90CF9008953F
:10575000282F90E0E3E0880F991FEA95E1F7E091A8
:105760003102F0913202E80FF91F858190E08370D9
:105770009070892B21F0822F0E94BD2A0895822FDC
:1057800064E60E94D62A0895282F90E0F3E0880F5F
:10579000991FFA95E1F7E0913102F0913202E80F9A
:1057A000F91F858190E083709070892B21F0822F02
:1057B0000E94BD2A0895822F60E00E94D62A089593
:1057C000CF93DF93982FC82FD0E0A3E0CC0FDD1F3D
:1057D000AA95E1F7E0913102F0913202EC0FFD1F42
:1057E000858187FF04C0892F0E94A82B03C0892FC1
:1057F0000E94C42BE0913102F0913202EC0FFD1FA8
:10580000858180588583DF91CF910895282F90E07E
:10581000B3E0880F991FBA95E1F7E0913102F0915A
:105820003202E80FF91F858190E083709070892B18
:1058300021F0822F0E94BD2A08958281882319F0C9
:10584000822F60E002C0822F64E60E94D62A08956B
:10585000CF92DF92EF92FF920F931F9380EC6FEF46
:105860000E944A298093300290E003E0880F991F3C
:105870000A95E1F70E9493388093310290933202A7
:10588000DD24CC24CA9425C0ED2CFF2413E0EE0CBB
:10589000FF1C1A95E1F700913102109132020E0DB2
:1058A0001F1D0E946029F80191838083E0913102DD
:1058B000F0913202EE0DFF1D1282E0913102F09163
:1058C0003202EE0DFF1D138214821582C682C7823A
:1058D000D39480913002D816B8F210922F021F9103
:1058E0000F91FF90EF90DF90CF90089587E392E0C3
:1058F0000895E7E3F2E01082118212821382349657
:1059000083E0E733F807B9F70895E82FF0E0EE0FEA
:10591000FF1FEE0FFF1FE60FF11DE95CFD4F4083F7
:10592000089590E0880F991FE0913402F0913502BC
:10593000E80FF91F60830895809136028F5F80938E
:1059400036020895809137038F5F8093370308955F
:10595000FF920F931F93F82E062F122FCA0134E0E7
:10596000969587953A95E1F7682F70E03DC0A72F8F
:10597000B0E0FD01EE0FFF1FEE0FFF1FE95CFD4FD2
:1059800080818E7F8C33D9F481818F15C1F49D0184
:10599000220F331FF901EE0FFF1FE75CFD4F8081DF
:1059A000801769F4E0913402F091350217FF04C0CA
:1059B000E20FF31F608303C0E20FF31F4083AA0FBF
:1059C000BB1FAA0FBB1FA95CBD4F8C918D3359F42F
:1059D000872F90E0880F991FE0913402F0913502F3
:1059E000E80FF91F11827F5F80913302781708F466
:1059F000BECF1F910F91FF900895811181E0611139
:105A00008260089580913402909135020E9440395D
:105A100008952F923F924F925F926F927F928F9252
:105A20009F92AF92BF92CF92DF92EF92FF920F932D
:105A30001F93CF93DF93809136028A3008F4A8C673
:105A400010923602882427E8522E90EA292E95E0FB
:105A5000392E8CE3482E0CE3602E712C92C6C82D93
:105A6000D0E0FE01EE0FFF1FEE0FFF1FE95CFD4FC0
:105A70005081B180503458F08B2D90E0880F991FE1
:105A8000E0913402F0913502E80FF91FB080FE0179
:105A9000EE0FFF1FEE0FFF1FE75CFD4FA08057FFCB
:105AA0000BC08A2D90E0880F991FE0913402F0918D
:105AB0003502E80FF91FA080FE01EE0FFF1FEE0F69
:105AC000FF1FE95CFD4F9380503C58F0892D90E01A
:105AD000880F991FE0913402F0913502E80FF91F09
