:100000000C94F6000C94020B0C9413010C94130145
:100010000C9413010C940C0B0C9413010C9413010D
:100020000C9413010C9413010C9413010C94890B80
:100030000C9413010C94A3150C9413010C9413014C
:100040000C9413010C9413010C9413010C945D0691
:100050000C941301B325FC2538268326D52BD52BEC
:10006000D52BD52BD52BD52BD52BD52BD52BD52B90
:10007000D52BD52BD52BD52BD52BD52BD52BD52B80
:10008000D52BD52BD826D52BD52BD52BD52BF1265B
:10009000D52B0927D52BD52BD52BD52BD52B3227D7
:1000A0004527D52B572765276E2777278027892750
:1000B000D52BD52B9727A427B227CA271F284E2830
:1000C0006128D52BD52BD52BD52BD52BD52BD52BA7
:1000D000D52BD52B9628D52BD52BD52BC028D52B7A
:1000E000D52BD52B3C2A512A692A7F2AD52BD52BF3
:1000F000D52BD52B922AB32AD22AF82AD52BD52B49
:10010000D52BD52B0E2B752BC02BD52BD52BD52B2B
:10011000D52B0927DC27E927F627032812283227C1
:100120004527D52B572765276E27772780278927CF
:10013000D52BD52B9727A427B227CA27D52BD52B6C
:10014000D52BD52BED2802291B293D2958297229A9
:10015000D52BD52BD52BD52BD52BD52BA429E329C6
:10016000D52BD52B3C2A512A692A7F2AD52BD52B72
:10017000D52BD52BD52BD52BD52BD52BD52BD52B7F
:10018000D52BD52BD52BD52BD52BD52BD52BD52B6F
:10019000D52BD52BDC27E927F62703281228D52BCA
:1001A000D52BD52BD52BD52BD52BD52BD52BD52B4F
:1001B000D52BD52B9727A427B227CA27D52BD52BEC
:1001C000D52BD52BED2802291B293D295829722929
:1001D000D52BD52BD52BD52BD52BD52BD52BD52B1F
:1001E000D52BD52B3C2A512A692A7F2A11241FBEE0
:1001F000CFE5D8E0DEBFCDBF10E0A0E6B0E0E0EA9A
:10020000FEE502C005900D92A636B107D9F713E0BE
:10021000A6E6B0E001C01D92AD34B107E1F70E943F
:1002200015010C944E2F0C9400000E94310A0E947C
:100230005D0F81E060E00E9499140E949C0F0E9473
:1002400065160E9449170E94DC190E94D21C0E9468
:10025000EA210E941E25F1CF562F40E0282F30E0E2
:10026000242B352BC90108950197F1F70895E091EA
:100270006700F0916800208181E090E000906600C6
:1002800002C0880F991F0A94E2F7282B2083089553
:10029000E0916700F0916800208181E090E000909B
:1002A000660002C0880F991F0A94E2F780958223A6
:1002B000808308951FB8779BFECF8FB108958FB9C3
:1002C000779BFECF08950F931F93DF93CF930F92E9
:1002D000CDB7DEB788E06FEF0E9432098E010F5F65
:1002E0001F4FC80160E070E040E050E020E030E0E7
:1002F0000E944809898161E00E9404099093680086
:10030000809367008981982F97709093660061E0D1
:100310000E94FA0789E06FEF0E943209C80160E08D
:1003200070E040E050E020E030E00E944809898120
:1003300061E00E94FA078AE06FEF0E943209C8016B
:1003400060E070E040E050E020E030E00E944809CA
:10035000898160E00E94FA078BE06FEF0E9432090A
:10036000C80160E070E040E050E020E030E00E9432
:100370004809898161E00E94FA07E0916700F091E5
:100380006800208181E090E00090660002C0880F44
:10039000991F0A94E2F7282B208381E58DB90F90ED
:1003A000CF91DF911F910F9108950F931F93CF93DA
:1003B000DF93EC010E94480180EA0E945F010E94E5
:1003C0005A01182F0E945A010E943701212F30E054
:1003D000C90184759070892B11F404E00CC0C90127
:1003E00084719070892B11F402E005C012FF02C0E5
:1003F00080E037C000E00E944801802F80640E94A6
:100400005F0188810E945F0189810E945F018A816A
:100410000E945F018B810E945F018C81893010F006
:1004200088E08C838C810E945F0110E007C0FE0190
:10043000E10FF11D85810E945F011F5F8C811817FC
:10044000B0F30E94370100000E944801002311F41C
:1004500081E802C0802F80680E945F010E943701FE
:1004600081E0DF91CF911F910F9108951F93CF935A
:10047000DF93EC010E94480180EB0E945F010E9423
:100480005A01182F0E945A010E94370116FF0FC00F
:1004900080916900882311F017FD09C00E9448016E
:1004A00080E90E945F0181E0809369000BC017FD25
:1004B00002C080E026C00E94480184E90E945F01DA
:1004C000109269000E945A0188830E945A01898310
:1004D0000E945A018A830E945A018B830E945A010A
:1004E0008F708C8310E007C00E945A01FE01E10F5B
:1004F000F11D85831F5F8C811817B0F30E943701AF
:1005000081E0DF91CF911F910895DF92EF92FF92EA
:100510000F931F93182FF62EE42ED22E0E9448011F
:1005200082E00E945F01812F90E0133008F0019675
:10053000880F880F0E945F018F2D0E945F018E2D12
:100540000E945F018D2D0E945F01802F0E945F013C
:100550000E9437011F910F91FF90EF90DF90089557
:10056000DF92EF92FF920F931F93182FF62EE42E37
:10057000D22E0E94480182E00E945F01112311F4F3
:1005800080E201C084E20E945F018F2D0E945F0122
:100590008E2D0E945F018D2D0E945F01802F0E9491
:1005A0005F010E9437011F910F91FF90EF90DF9044
:1005B0000895FF920F931F93182F062FF42E0E9479
:1005C000480185E00E945F01812F0E945F01802F1A
:1005D0000E945F018F2D0E945F010E9437011F91D1
:1005E0000F91FF9008958FE060EE40E00E94D902E5
:1005F00008950F931F93182F062F0E94480182E041
:100600000E945F01812F0E945F01802F0E945F0185
:100610000E9437011F910F9108951F93182F0E9478
:10062000480183E00E945F01812F0E945F010E94C8
:100630005A01182F0E943701812F1F9108950E949F
:10064000480180EC0E945F010E94370108951092DA
:1006500069000E9463010E941F038AE267E00E9412
:10066000F90289E260E90E94F90288E262E00E94F0
:10067000F90280E664E40E94F90280E760E40E94E7
:10068000F9020895E0917400F0917500408181E0D5
:1006900090E09C0100906A0002C0220F331F0A9470
:1006A000E2F7422B40830000E0917400F091750066
:1006B000208100906A0002C0880F991F0A94E2F717
:1006C0008095822380830895EF92FF921F93CF93AA
:1006D000DF93E0917200F091730040812FE030E0F1
:1006E000C9010090770002C0880F991F0A94E2F7B1
:1006F000809584238083E0917000F0917100808167
:100700000090770002C0220F331F0A94E2F7209571
:1007100028232083E0916E00F0916F00208183E018
:1007200090E00090760002C0880F991F0A94E2F7CB
:10073000809582238083E0916E00F0916F0020818C
:1007400081E090E00090760002C0880F991F0A9423
:10075000E2F7282B2083C1E0D0E088E0E82EF12CDE
:10076000E0917400F09175002081CE0100906A0044
:1007700002C0880F991F0A94E2F7282B20830000FB
:10078000E0916C00F0916D001081C701009077003E
:1007900002C0880F991F0A94E2F71823E0917400B1
:1007A000F09175002081CE0100906A0002C0880F90
:1007B000991F0A94E2F78095822380830E94420366
:1007C000112371F6E0917200F091730020818FE0A7
:1007D00090E00090770002C0880F991F0A94E2F71A
:1007E000282B2083DF91CF911F91FF90EF900895E8
:1007F000EF92FF920F931F93E0917000F0917100C0
:1008000090810FE010E098010090770002C0220F65
:10081000331F0A94E2F7209529232083E09170008A
:10082000F09171004081E82EFF249701207F307005
:100830005091770084E090E0851B910902C03595C6
:1008400027958A95E2F7422B40830E944203E0916C
:100850007000F091710080810090770002C0000F5D
:10086000111F0A94E2F7009508230083E0917000BD
:10087000F091710080819FE0E922FF2400907700D1
:1008800002C0EE0CFF1C0A94E2F78E2980830E94BE
:1008900042031F910F91FF90EF9008951F93182F1F
:1008A0008823B1F00E946403E0916E00F0916F0024
:1008B000208183E090E00090760002C0880F991FAD
:1008C0000A94E2F7809582238083812F0E94F803A7
:1008D0001F9108951F93182F803A31F10E946403ED
:1008E000E0916E00F0916F00208183E090E0009035
:1008F000760002C0880F991F0A94E2F78095822340
:100900008083E0916E00F0916F00208182E090E0A2
:100910000090760002C0880F991F0A94E2F7282BF6
:100920002083812F0E94F8031F910895E0917800A1
:10093000F091790030916B00882359F0208181E09B
:1009400090E002C0880F991F3A95E2F7282B208388
:100950000895208181E090E002C0880F991F3A95A8
:10096000E2F780958223808308951F93CF93DF93CE
:10097000EC0111E007C0FE01E10FF11D80810E9432
:100980006A041F5F88818117B0F7DF91CF911F91B3
:100990000895CF92DF92EF92FF920F931F93DF9310
:1009A000CF9300D0CDB7DEB780E360EF0E9432096D
:1009B000082F10E092E0C92ED12CCC0EDD1E7E0156
:1009C0000894E11CF11C5DC0C701B60140E050E095
:1009D00020E030E00E9448098A81882359F088305D
:1009E00029F1883008F448C08A3069F18B3009F069
:1009F00043C036C0898161E00E9404099093710070
:100A000080937000898160E00E94040990936D00DA
:100A100080936C0089810E94EC089093730080930E
:100A20007200898187708093770026C0898161E098
:100A30000E94040990936F0080936E0089818770F3
:100A40008093760019C0898161E00E940409909327
:100A50007500809374008981877080936A000CC050
:100A6000898161E00E940409909379008093780065
:100A70008981877080936B00898161E00E94FA0709
:100A80001F5F101708F4A0CF002309F473C010E013
:100A900080EE9EE20E9434011F5F1A30C9F7E09198
:100AA0006E00F0916F00408123E030E0C9010090BA
:100AB000760002C0880F991F0A94E2F7809584237C
:100AC0008083E0917000F091710040818FE090E0B0
:100AD0000090770002C0880F991F0A94E2F7809572
:100AE00084238083E0917000F091710080810090F8
:100AF000770002C0220F331F0A94E2F7822B808313
:100B00000E94420380E797E10E9434010E94420361
:100B10008AE590E00E9434010E9442038AE590E059
:100B20000E943401E0917000F0917100208181E019
:100B300090E00090770002C0880F991F0A94E2F7B6
:100B40008095822380830E94420389E20E944E04A2
:100B500080E50E944E048CE60E944E048CE70E94C1
:100B60004E048CE00E944E0481E00E944E0486E018
:100B70000E944E040F900F90CF91DF911F910F9123
:100B8000FF90EF90DF90CF90089586B78170089521
:100B900080917F00089506B600FCFDCF80917A0019
:100BA000089580937D000895E0918100F091820086
:100BB000E80FF11D60830895462FDC0120E014C08A
:100BC00080917D00E0918100F0918200E80FF11D9D
:100BD0008D91808380917D00609180008F5F0E9465
:100BE000EF2D90937D002F5F241750F3089581E03F
:100BF00080937C00089506B600FCFDCF882311F099
:100C000080937E0010927F0088EF80937A0085EABF
:100C100086BF0895CF93DF93EC0106B600FCFDCFAD
:100C200060937E00E0918100F09182008881808352
:100C3000E0918100F0918200808180FD13C091E0FD
:100C40000DC0E92FF0E0A0918100B0918200AE0FBD
:100C5000BF1FEC0FFD1F80818C939F5F80917E00F2
:100C6000981778F310927F0088EF80937A0085EAD6
:100C700086BFDF91CF910895E0918100F0918200CD
:100C8000E80FF11D808108959C0106B600FCFDCFA0
:100C900080917F00882371F0D90190E009C0E09134
:100CA0008100F0918200E90FF11D80818D939F5F9B
:100CB0009617A8F380917F0008951F920F920FB6A8
:100CC0000F9211242F933F938F939F93EF93FF9352
:100CD00081B18832D1F0893240F48031A1F088317D
:100CE000A1F0883009F059C00EC08034B9F18134C8
:100CF00020F4883309F051C04EC0803511F1883599
:100D000009F04BC039C010927B0090917B0080911C
:100D10007E00981760F4E0918100F0918200E90F65
:100D2000F11D808183B99F5F90937B0023C081E098
:100D300080937F0080917C00882359F110927C0081
:100D400031C080917B0093B1E0918100F0918200ED
:100D5000E80FF11D90838F5F80937B0020917B00D3
:100D600030E080917E0090E001972817390714F455
:100D700085EC17C085E815C093B180917B00E091A8
:100D80008100F0918200E80FF11D908381E0809353
:100D90007F0084E906C085EA04C081B180937A00AF
:100DA00084E086BFFF91EF919F918F913F912F91AA
:100DB0000F900FBE0F901F90189580918100909119
:100DC00082000E94CF2E08958093800090E00E94C0
:100DD000222E809381009093820010927D001092C9
:100DE0007E0010927B0010927C0010927F0088EFB2
:100DF00080937A008CE080B98FEF83B984E086BF5E
:100E000008950F931F93082FF8948AB3802B8ABB01
:100E10008BB3102F109581238BBB83E995E00E9443
:100E200034018AB381238ABB8BB318231BBB85ECA7
:100E300090E00E94340119B381EC94E00E943401E7
:100E400078941095802F81231F910F9108950F930F
:100E50001F93082FF8948AB3802B8ABB8BB3102F73
:100E6000109581238BBB85E090E00E9434018AB30A
:100E700081238ABB8BB318231BBB8EE090E00E94BA
:100E8000340119B388E990E00E9434017894802FEE
:100E900081231F910F910895FF920F931F93F82EB6
:100EA00010E000E016958F2D0E9427078111106831
:100EB0000F5F0830B9F7812F1F910F91FF900895B0
:100EC0001F93182FF8948AB3812B8ABB8BB310958C
:100ED00081238BBB87EA90E00E9434018AB381238F
:100EE0008ABB8BB318231BBB81E190E00E943401C5
:100EF00078941F9108951F93182FF8948AB3812B2B
:100F00008ABB8BB3109581238BBB85E090E00E9458
:100F100034018AB381238ABB8BB318231BBB83EBB9
:100F200090E00E94340178941F910895FF920F93EE
:100F30001F93082FF62E10E000FF04C08F2D0E9493
:100F40007B0703C08F2D0E9460071F5F183011F0D0
:100F50000695F2CF1F910F91FF900895682F8CECAA
:100F60000E94960708959AB3809598239ABB9BB3E5
:100F700098239BBB83E995E00E94340108958091FA
:100F80008400089580938400089590938600809350
:100F90008500089580938700089590E09C012F714B
:100FA000307085FF09C0F901EE0FFF1FE20FF31F3C
:100FB000EC57FF4F66830895F901EE0FFF1FE20F14
:100FC000F31FEC57FF4F64834583089590E0FC01C5
:100FD000EE0FFF1FE80FF91FEC57FF4F84810895B4
:100FE00090E0FC01EE0FFF1FE80FF91FEC57FF4FD9
:100FF00085810895482F60FD3DC0883068F43AB37C
:10100000282F277081E090E002C0880F991F2A9551
:10101000E2F7809583233BC0803168F437B3282FF3
:10102000277081E090E002C0880F991F2A95E2F7AF
:10103000809583233BC0883168F434B3282F277010
:1010400081E090E002C0880F991F2A95E2F7809511
:1010500083233BC0803208F048C031B3282F27706B
:1010600081E090E002C0880F991F2A95E2F78095F1
:1010700083233AC0883068F48AB3942F977021E0B4
:1010800030E002C0220F331F9A95E2F7822B8ABB11
:101090002CC0803168F487B3942F977021E030E042
:1010A00002C0220F331F9A95E2F7822B87BB1DC027
:1010B000883168F484B3942F977021E030E002C047
:1010C000220F331F9A95E2F7822B84BB0EC0803229
:1010D00060F481B3942F977021E030E002C0220FBA
:1010E000331F9A95E2F7822B81BB61FF39C04830EC
:1010F00060F42BB3477081E090E002C0880F991F25
:101100004A95E2F7282B2BBB0895403160F428B3B1
:10111000477081E090E002C0880F991F4A95E2F77E
:10112000282B28BB0895483160F425B3477081E02F
:1011300090E002C0880F991F4A95E2F7282B25BB43
:101140000895403208F047C022B3477081E090E034
:1011500002C0880F991F4A95E2F7282B22BB0895F9
:10116000483068F42BB3477081E090E002C0880FEC
:10117000991F4A95E2F7809582238BBB08954031F1
:1011800068F428B3477081E090E002C0880F991F8F
:101190004A95E2F78095822388BB0895483168F428
:1011A00025B3477081E090E002C0880F991F4A95EF
:1011B000E2F78095822385BB0895403260F422B324
:1011C000477081E090E002C0880F991F4A95E2F7CE
:1011D0008095822382BB0895883018F42AE330E09A
:1011E00011C0803118F427E330E00CC0883118F4C6
:1011F00024E330E007C0803218F421E330E002C07D
:1012000020E030E0C90108956623A1F4883018F485
:1012100029E330E025C0803118F426E330E020C017
:10122000883118F423E330E01BC08032B8F420E3A7
:1012300030E016C0883018F42BE330E011C0803164
:1012400018F428E330E00CC0883118F425E330E0CE
:1012500007C0803218F422E330E002C020E030E022
:10126000C9010895282F1092E8008093E900609347
:101270008300E8E8F0E090E080818623821709F49B
:101280009F5F339680E0E83EF807B1F7892F089515
:101290000F931F93CF93DF93DC01EB01BA01890118
:1012A000509183004091E9002091E800322F3F5F88
:1012B000822F90E0FC01EE0FFF1FE80FF91FEC57A3
:1012C000FF4F84818523841711F0232FEFCF2093C4
:1012D000E8002C93209781F0209183002095809145
:1012E000E80090E0FC01EE0FFF1FE80FF91FEC573C
:1012F000FF4F8481282328836115710569F080914F
:10130000E80090E0FC01EE0FFF1FE80FF91FEC571B
:10131000FF4F8581FB0180830115110569F08091E4
:10132000E80090E0FC01EE0FFF1FE80FF91FEC57FB
:10133000FF4F8681F80180838091E8008F5F809362
:10134000E800DF91CF911F910F910895982F87FDAD
:101350001EC0A8E8B0E040E083E0989F900111240F
:101360002A0F3B1F892F90E0FC01EE0FFF1FE80FB3
:10137000F91FEA0FFB1F07C080819C9189278623F4
:1013800009F44F5F1396A217B307B1F703C00E9489
:10139000AA21482F842F0895282FE9E8F0E090E053
:1013A00001C09F5F8081821721F033969032C9F788
:1013B00002C0892F0895822F0E949921982FF9CF7A
:1013C00084E890E060E070E044E650E00E94272F5F
:1013D0000E94F00B64E670E047E050E00E94272F87
:1013E0000E948A146BE670E042E050E00E94272FD2
:1013F0000E941C156DE670E04EE050E00E94272F21
:101400000E9428166BE770E041E050E00E94272F11
:101410000E94DF166CE770E048E050E00E94272F42
:101420000E94E61864E870E040E550E00E94272F33
:101430000E94E61B64ED70E048E550E00E94272F13
:101440000E943D206CE271E049E250E00E94272FAB
:101450000E948B2465E571E040E051E00E94272F57
:101460000895F8940E94E00980918700893D09F46D
:1014700052C0E8E8F0E080E01082818312828F5F42
:1014800033968032C9F780E16CE040E10E94CD07DD
:1014900081E16DE041E10E94CD078AE166E04AE129
:1014A0000E94CD0788E062E048E00E94CD0788E115
:1014B00064E048E10E94CD0789E165E049E10E94CE
:1014C000CD078CE068E04CE00E94CD078DE069E03C
:1014D0004DE00E94CD078EE06AE04EE00E94CD070D
:1014E0008FE06BE04FE00E94CD0780918700833B47
:1014F00041F00E94F30B0E948D140E941F150E9460
:101500002B160E94E2160E94E9180E94E91B0E9415
:1015100040200E948E24089584E890E060E070E00E
:1015200044E650E00E94372F0E94F00B64E670E022
:1015300047E050E00E94372F0E948A146BE670E06B
:1015400042E050E00E94372F0E941C156DE670E0CB
:101550004EE050E00E94372F0E9428166BE770E0A3
:1015600041E050E00E94372F0E94DF166CE770E0E8
:1015700048E050E00E94372F0E94E61864E870E0CF
:1015800040E550E00E94372F0E94E61B64ED70E0BA
:1015900048E550E00E94372F0E943D206CE271E048
:1015A00049E250E00E94372F0E948B2465E571E0EC
:1015B00040E051E00E94372F089584E890E063E016
:1015C00070E041E050E00E94372F08950F93809320
:1015D000EB006093EC004093ED002093EE0000934D
:1015E000EF000F9108958091EB0008958091EC0039
:1015F00008958091ED0008958091EE000895809106
:10160000EF0008951F920F920FB60F9211240F90C2
:101610000FBE0F901F9018951F920F920FB60F924A
:1016200011242F933F934F935F936F937F938F93E7
:101630009F93AF93BF93EF93FF9383E884BD809113
:10164000EA008F5F8093EA008F3009F051C010925A
:10165000EA008091EF008F5F8093EF008436D1F530
:101660001092EF008091EE008F5F8093EE000E9459
:10167000831C0E94B7248091EE008C3359F51092A0
:10168000EE008091ED008F5F8093ED000E94B72403
:101690008091ED008C33F1F41092ED008091EC001C
:1016A0008F5F8093EC000E94B7248091EC0088311A
:1016B00089F41092EC008091EB008F5F8093EB0037
:1016C0000E94B7248091EB00873021F41092EB0048
:1016D0000E94B7240E940C0C0E94140C0E94C21499
:1016E0000E9402170E948D190E94DD210E94B124E0
:1016F000FF91EF91BF91AF919F918F917F916F91EA
:101700005F914F913F912F910F900FBE0F901F90BF
:1017100018951F920F920FB60F9211242F933F939B
:101720004F935F936F937F938F939F93AF93BF93E9
:10173000EF93FF938EEF82BF0E944E15FF91EF91C2
:10174000BF91AF919F918F917F916F915F914F91D9
:101750003F912F910F900FBE0F901F901895EF9211
:10176000FF920F931F93DF93CF930F92CDB7DEB706
:1017700086E06FEF0E943209082F10E07E01089486
:10178000E11CF11C0EC0C70160E070E040E050E0D9
:1017900020E030E00E944809898162E00E94FA0757
:1017A0001F5F101780F31092EB001092EC00109264
:1017B000ED001092EE001092EF0084E083BF99B725
:1017C000916099BF85BD89B7806489BF1092EA0096
:1017D0000F90CF91DF911F910F91FF90EF9008959F
:1017E00089E091E008951092090180E090E89093DB
:1017F0000B0180930A018FEF80930C0184E08093AA
:101800000D0110920E0110920F01089580910901AF
:10181000089580910E0108958091FA00882319F0AF
:1018200081508093FA0008958091F200882319F086
:1018300081508093F2000895282F30E0C901807F05
:101840009070803F910519F080E090E0089540E0AD
:101850002F7081E090E002C0880F991F2A95E2F76F
:1018600020910A0130910B0182239323892B09F4E3
:1018700041E081E04827842F0895282F40910801F6
:1018800050910701451701F1842F90E033E0880F54
:10189000991F3A95E1F7E091F500F091F600E80F15
:1018A000F91F2193DB0187E00D9001928150E1F750
:1018B0005F3F11F44093070160910D01842F8F5F0A
:1018C0000E94EF2D9093080108958091F50090916A
:1018D000F6000E94CF2E08951F93CF93DF93182F09
:1018E000EB0187FD06C090E080779070803791050E
:1018F00029F4812FBE010E9461150AC08031910533
:1019000019F0809749F404C0812F0E94611504C02A
:10191000812FBE010E943116DF91CF911F91089552
:10192000BF92CF92DF92EF92FF920F931F93DF93BC
:10193000CF93CDB7DEB727970FB6F894DEBF0FBEB3
:10194000CDBFB82EE22E6801809109016817D1F051
:1019500089836A8398E09B834C831D821E822F8338
:1019600081E08093F000B092F1009093F2006093D8
:10197000F3004093F4008FE7BE016F5F7F4F0E943A
:101980006C0C77C0842F0E94CC09F82E8FEFF816CC
:1019900009F460C0F7FC4FC08F2D0E94E60787FD59
:1019A00003C000E010E008C08F2D60E80E94A60987
:1019B0000E940617082F10E08F2D0E94E607887FEF
:1019C000803299F48F2D68EF0E94A6096E2D0E9437
:1019D00093198C01C114D10441F4EFEFBE1629F024
:1019E00054E0169507955A95E1F78F2D0E94E6076A
:1019F000887F883299F48F2D68EF0E94A6096E2D9A
:101A00000E94891C8C01C114D10441F4FFEFBF1660
:101A100029F044E0169507954A95E1F78F2D0E942D
:101A2000E607807F8031C1F48F2D60EF0E94A60908
:101A30000E947E1F0CC08F2D8F770E945121803C09
:101A400049F48F2D6FEF0E94A6090E94CF21082F25
:101A500010E002C000E010E0C114D10429F48B2D85
:101A6000602F0E94A62405C089E0F60182830483CA
:101A7000158327960FB6F894DEBF0FBECDBFCF916A
:101A8000DF911F910F91FF90EF90DF90CF90BF906B
:101A90000895DF93CF93CDB7DEB727970FB6F894AD
:101AA000DEBF0FBECDBF90910901998390910C01CB
:101AB0009A839FE79B838C836D834E832F838FE76D
:101AC000BE016F5F7F4F0E946C0C27960FB6F89493
:101AD000DEBF0FBECDBFCF91DF910895DF93CF93CF
:101AE000CDB7DEB727970FB6F894DEBF0FBECDBFD8
:101AF0009091090199839A8392E09B838C836D83F3
:101B00004E835F838FE7BE016F5F7F4F0E946C0C37
:101B100027960FB6F894DEBF0FBECDBFCF91DF91F1
:101B20000895BF92CF92DF92EF92FF920F931F938F
:101B3000DF93CF93CDB7DEB727970FB6F894DEBF0C
:101B40000FBECDBF982FB62ED42E7901882319F45D
:101B5000662321F4A2C08F3F09F49FC020910901A0
:101B6000921729F129839A831B82BC82DD82EE823F
:101B7000FF8281E08093F8000093F900ABEFB0E0C2
:101B8000FE01319687E001900D928150E1F790932C
:101B9000FB002093FC001092FD0088E08093FA0087
:101BA0008FE7BE016F5F7F4F0E946C0CC1C08B2D11
:101BB0000E94CC09C82E0E94E607887F803281F4FB
:101BC0008C2D68EF0E94A609982F0330110518F09C
:101BD00081E0F8018283892F6D2DA7010E9464198D
:101BE0008C2D0E94E607887F883281F48C2D68EF67
:101BF0000E94A609982F0330110518F081E0F80122
:101C00008283892F6D2DA7010E945B1C8D2D855627
:101C10008B3140F0FEE8FD1528F085E6E81689E1F5
:101C2000F80638F003301105C0F182E0F801828334
:101C30007FC0FFEFCF1689F1C7FC35C08C2D0E9405
:101C4000E607807F803111F58C2D60EF0E94A60998
:101C5000F82E0330110518F081E0F8018283F0E8D6
:101C6000DF1669F48F2D0E947E1F882319F08F2DB7
:101C700060E002C08F2D64E60E94951F59C084E683
:101C80008D1508F455C08F2D6D2DF6CF8C2D0E942B
:101C9000E607807C803409F44BC08B2D6D2DA701A5
:101CA0000E946E0D45C06FE7F62EFC208F2D0E941E
:101CB0005121803CD1F58C2D6FEF0E94A609982F01
:101CC0000330110518F081E0F8018283F6E8DF1691
:101CD000C1F0FD1538F080E8D81659F0E5E8DE16B9
:101CE000E1F40BC0F7E8DF1681F088E8D816A9F414
:101CF00010C0892F0E941B241BC0892F0E94D9234A
:101D000017C0892F0E94BD2313C0892F0E94D222A1
:101D10000FC0892F0E94F5230BC0E4E6ED1540F0BB
:101D2000892F6D2D0E94EB2203C08F2D0E9451211F
:101D300027960FB6F894DEBF0FBECDBFCF91DF91CF
:101D40001F910F91FF90EF90DF90CF90BF9008957B
:101D5000DF93CF93CDB7DEB727970FB6F894DEBFEA
:101D60000FBECDBF482F8091090189832FEF2A83B1
:101D700028E12B831C824D839E831F82692F50E0B4
:101D800020E00E94BD248FE7BE016F5F7F4F0E945D
:101D90006C0C27960FB6F894DEBF0FBECDBFCF9167
:101DA000DF910895DF93CF93CDB7DEB727970FB6B6
:101DB000F894DEBF0FBECDBF8091090189838FEFFC
:101DC0008A838BE78B831C821D821E821F828FE792
:101DD000BE016F5F7F4F0E946C0C27960FB6F89480
:101DE000DEBF0FBECDBFCF91DF9108951F93DF936C
:101DF000CF93CDB7DEB727970FB6F894DEBF0FBEEF
:101E0000CDBF182F909109018823F9F099838A8317
:101E100080E18B836C834D835E832F83191731F0B0
:101E20008FE7BE016F5F7F4F0E946C0C80910901AC
:101E3000181729F0812F0E941C0C882331F080E0B4
:101E4000BE016F5F7F4F0E943D0C27960FB6F8943E
:101E5000DEBF0FBECDBFCF91DF911F91089583E408
:101E60000E94E40680910D0190E073E0880F991FB5
:101E70007A95E1F70E94222E8093F5009093F60068
:101E80008FEF8093070110920801109206011092C3
:101E9000F8001092FA00EBEFF0E0119281E0E230EE
:101EA000F807D9F71092F0001092F1001092F200AA
:101EB0001092F3001092F4000895F8940E94DD0649
:101EC0008091F5009091F6000E94CF2E0E941A1783
:101ED0000E94D5190E94CB1C0E948E1F0E94E321F4
:101EE0000E94172519BE83E40E94E4060E94AF0BEE
:101EF0000E942F0F0E94E0140E9441150E94871635
:101F00000E9453180E946F1B0E94A91E0E941C1F52
:101F10000E94D81F0E943D240E94F02B78940E94BA
:101F2000D20E089580E00E94CA070E94DD0A0E9436
:101F3000310A0E945D0F0895CF92DF92EF92FF92D7
:101F40000F931F93DF93CF93CDB7DEB72E970FB6C6
:101F5000F894DEBF0FBECDBF809107018F3F09F41B
:101F60009DC490E023E0880F991F2A95E1F7E09047
:101F7000F500F090F600E80EF91E80910E0188231E
:101F800069F0D70112969C9180910901981731F060
:101F9000F70181918068BF010E946C0CF70192816A
:101FA00080910901981731F0892F0E941C0C882319
:101FB00009F464C4D70113968C91282F30E08378FC
:101FC00009F0A1C3DE011196F701319687E0019077
:101FD0000D928150E1F7F70183818C3309F437C109
:101FE0008D33A8F4803109F44BC0813130F488235B
:101FF00021F1883009F016C337C08C3109F462C072
:10200000883309F4D4C0883109F00CC34DC0803640
:1020100009F4B9C2813638F4803409F46DC18C34C6
:1020200009F000C371C1883709F4C6C28C3709F4BE
:10203000D8C2843609F0F6C2AFC2D70117963C91D8
:10204000179720E016968C911697280F311D8091D6
:10205000090114966C91149715964C918E010F5F9F
:102060001F4F0E94910DDEC280E060910901F701CF
:10207000448127818E010F5F1F4F0E94900CD2C2B6
:10208000D70111961C91119714960C9114971596DF
:102090008C91159716966C910E942C01AC01812FA2
:1020A000602FF70127810BC0D70115964C9115972A
:1020B00011968C91119716966C9150E020E00E9439
:1020C000BD24B0C2F7016481262F30E0C9018E7FA4
:1020D0009070803A910521F0883A910509F065C029
:1020E00020FF63C06E7F80E00E94D40581E0D701AD
:1020F00016966C910E94D40582E0F70165810E94DA
:10210000D4050E94F70583E00E94FB050E94C505E7
:102110008823E1F7D70114966C910E94D405F7014A
:1021200087818F5F0E94FB050E94C5058823E1F728
:10213000809109018887D70111968C9189878DE15B
:102140008A8701E088E0C82ED12CCC0EDD1E27C086
:10215000802F0E943C068B87802F8F5F0E943C0659
:102160008C87102F1D5F802F8E5F0E943C068D870D
:102170000C5F812F0E943C068E878091070190E0C2
:1021800013E0880F991F1A95E1F7E091F500F0919F
:10219000F600E80FF91F8081B6010E946C0CF70170
:1021A00087818017A8F68DE13CC28EE13AC2D70143
:1021B00014968C91813081F0813020F0803109F0CB
:1021C00031C21AC0809106018823A1F4F7018581EC
:1021D0008093060189E325C290910601992351F06D
:1021E00089E38B83903119F480E00E94C20710923A
:1021F000060118C28AE315C280910601803119F0E8
:10220000803209F00FC280E0D70115966C910E94D0
:10221000D40581E0F70167810E94D40582E0D701EF
:1022200016966C910E94D40583E00E94D10510920D
:10223000F700F70184818093020185818093030177
:10224000868180930401878180930501EBC1809191
:102250000601803119F0803209F0E4C1D7011496EB
:102260008C91149790910201890F80930201159629
:102270008C91159790910301890F80930301169615
:102280008C91169790910401890F80930401179601
:102290002C9180910501280F209305019091F70062
:1022A000903198F480910601803121F0983068F4E3
:1022B000803259F4C701049664E00E94DC058091E5
:1022C000F7008F5F8093F700ADC18091030190917B
:1022D0000201892B90910401892B822B11F08EE34E
:1022E000A0C180910601803111F483E401C083E232
:1022F0000E94FB058DE395C1F701848165814681CC
:102300000E94CD0781E48DC1D70114968C918F3046
:1023100009F458C08031A0F48830D9F1893040F4F4
:10232000863061F1873080F5843009F098C021C093
:102330008B30A9F18D30E1F1893009F090C02CC0CB
:102340008C3109F45FC08D3150F4883109F44BC0F1
:102350008B3109F44CC0803109F081C03CC080321F
:1023600009F469C0803609F476C08E3109F077C06F
:1023700050C0F70185810E94CA0771C0D701159628
:102380008C9180930C016BC0F701858180930F01C4
:1023900066C00E948C0A63C00E94E00960C0D70139
:1023A00015968C91159716966C910E943B1557C007
:1023B000F701858166810E942C0190930B01809327
:1023C0000A014DC0D70115968C91159716966C9100
:1023D0000E94351544C0F701858166810E942C0159
:1023E0000E9494143CC00E94BF078D8338C0D7015F
:1023F00015968C91159716966C910E942C010E944F
:10240000C5072DC082E08D8385E08E838BE08F83AE
:1024100026C0F7012581220F220F220F8DE19FE2B6
:10242000A2E0B0E004C0B595A795979587952A9549
:10243000D2F78E8314C0D70115961C911597169666
:102440008C91169717966C910E942C01BC01812FDC
:102450000E94F91604C0F701858180930D01D70110
:1024600014968C91807E803409F040C010E0812F5A
:102470000E94F007F7019581891719F01F5F10324C
:10248000B1F7012F0770D70114969C911497892FEB
:10249000807F8034D1F4892F8F70182F169580FD9E
:1024A0000DC016968C91169717966C910E942C0170
:1024B000AC01802F612F0E940E1907C0802F612F61
:1024C000F701468127810E942719D70114968C9124
:1024D0001497803559F416968C91169717966C912F
:1024E0000E942C01BC01802F0E94FD18F7018481FD
:1024F000807E803809F045C010E0812F0E94F007EF
:10250000D70115969C91891719F01F5F1032A9F712
:10251000012F0770F7019481892F807F8038D1F4D3
:10252000892F8F70182F169580FD0AC086816781CC
:102530000E942C01AC01802F612F0E941B1C0AC03D
:10254000802F612FD70116964C91169717962C91D4
:102550000E94331CF7018481803941F486816781B0
:102560000E942C01BC01802F0E94FE1BD7011496F3
:102570008C911497813929F4802F16966C910E94C2
:102580000D1C8DE44EC0F701848165814681278151
:102590000E945B2081E645C0D70117968C918F3F42
:1025A00019F40E948E2406C0F7018481658146815A
:1025B0000E949A2485E635C0D70117966C9117972B
:1025C000862F877066956695669516964C91169738
:1025D00015962C91159714960C910E94E60A89E79E
:1025E00020C0EDEFFFE7E491D70115968C91159788
:1025F0008E17C1F4EEEFFFE7E49116968C911697D3
:102600008E1781F4EFEFFFE7E49117968C911797FF
:102610008E1741F414968C91809309010E948716BD
:102620008DE78B83809109018983F70181818A83FA
:102630008B8190E083709070892BA1F080910701CD
:1026400090E0B3E0880F991FBA95E1F7E091F500AB
:10265000F091F600E80FF91F8081BE016F5F7F4F98
:102660000E946C0CD70113968C9113978C3409F04F
:1026700005C114968C91853049F1863040F4823042
:10268000B9F0833001F1813009F0F8C00EC08C3010
:1026900041F18D3020F48A3009F0F0C01CC08E303A
:1026A00029F1823109F0EAC027C00E945D0FE6C01F
:1026B000F89428E088E190E00FB6F894A89581BDE1
:1026C0000FBE21BDFFCF0E94920FD8C0F7018581B8
:1026D0008093090115C0D70115968C9180930E0146
:1026E000CDC0F70185810E942F15C8C0D70115966E
:1026F0008C910E943215C2C0F70185810E942E166E
:102700000E948716BBC08091F000813059F5D70137
:1027100011969C9111978091F300981719F52C7FD1
:10272000307028303105F1F414969C911497809103
:10273000F4009817B9F41092F0001092F20013967A
:102740008C911397893071F416966C911697629557
:10275000607F15968C9182958F70682B8091F10027
:102760000E94A6248091F8008130A1F58091070194
:1027700090E0A3E0880F991FAA95E1F7E091F5009A
:10278000F091F600E80FF91F83818C7F838380919D
:10279000070190E0F3E0880F991FFA95E1F7A09107
:1027A000F500B091F600A80FB91FEBEFF0E021E0C3
:1027B00011969C9111978081981320E01196319683
:1027C00081E0E230F807A1F7213021F41092F800FF
:1027D0001092FA00D70113968C9113978B3709F05A
:1027E0004DC000910F01013009F048C080910901EE
:1027F000898311968C918A8388E78B830E94FF0AD4
:102800008C830E94FC0A8D830E94F90A8E830E94A9
:10281000F60A182F0E94F30A110F110F110F182B2F
:102820001F830093F800ABEFB0E0FE01319687E024
:1028300001900D928150E1F7F70181818093FB00B7
:10284000809109018093FC0089E78093FD0088E076
:102850008093FA008091070190E0E3E0880F991FD0
:10286000EA95E1F7E091F500F091F600E80FF91F25
:102870008081BE016F5F7F4F0E946C0C80910701C9
:1028800060910D018F5F0E94EF2D90930701809161
:102890000801981719F48FEF809307018091F000D9
:1028A000813071F48091F200882351F41092F0008D
:1028B00081E06091F30048E02091F4000E94490D0E
:1028C0008091F8008130B9F48091FA00882399F45E
:1028D0001092F8008091F900813021F48AE06AE0DA
:1028E0000E94991481E06091FB004091FD002091CD
:1028F000FE000E94490D2E960FB6F894DEBF0FBE63
:10290000CDBFCF91DF911F910F91FF90EF90DF909E
:10291000CF90089583E191E008958FEF9FEF90931A
:10292000140180931301089590931401809313016F
:102930000895482F21E030E0C90102C0880F991F97
:102940006A95E2F7BC01809113019091140168230C
:102950007923672BB1F08AE0489FC001112490933E
:10296000120180931101E0911501F091160180810F
:102970000090100102C0220F331F0A94E2F7822B4D
:10298000808308958091110190911201009791F434
:10299000E0911501F0911601208181E090E0009016
:1029A000100102C0880F991F0A94E2F780958223D4
:1029B00080830895019790931201809311010895E7
:1029C000EF92FF920F931F93DF93CF930F92CDB7A8
:1029D000DEB782E06FEF0E943209082F10E07E011F
:1029E0000894E11CF11C1AC0C70160E070E040E0EF
:1029F00050E020E030E00E944809898161E00E94B7
:102A0000040990931601809315018981982F97707E
:102A10009093100161E00E94FA071F5F101720F3E6
:102A200010921201109211010F90CF91DF911F911E
:102A30000F91FF90EF90089587E191E00895109233
:102A4000170110921801E9E1F1E0119281E0E13201
:102A5000F807D9F7108211821282138208958093A9
:102A600017010895809318010895E7E1F1E0E80F58
:102A7000F11D62830895E7E1F1E0E80FF11D62873F
:102A8000089510922D0188E98AB986E289B986E80D
:102A900080BD10922F0110922E01089580912E0179
:102AA00090912F01009719F410922D01089501972C
:102AB00090932F0180932E0108955D9BFECF8CB9DA
:102AC0000895482F803169F0282F30E0C9018F77B1
:102AD000409711F047FD05C02F7030702F30310541
:102AE00089F590911801933049F4909117018091E4
:102AF00019015D9BFECF89278CB907C08091170112
:102B00005D9BFECF8CB9992381F0FB01AAE1B1E076
:102B100090818C915D9BFECF89278CB9319611965F
:102B200081E0A132B807A1F7089580E090E0FB01B1
:102B3000E80FF91FE0815D9BFECFECB9019687306D
:102B40009105A9F708951F920F920FB60F921124C5
:102B50002F933F934F935F936F937F938F939F93A5
:102B6000AF93BF93CF93DF93EF93FF935F9BFECF22
:102B700020912D01E22FF0E09CB1DF01AB5DBE4F53
:102B80009C93222361F480911801833089F4809111
:102B900019019091250189278093250109C0809111
:102BA0001801882329F0E95EFE4F828189278C93E2
:102BB000822F8F5F80932D01883079F590912501C8
:102BC00080911701981731F580E166E271E00E946B
:102BD0003D0CC1E2D1E098819923B9F02091260102
:102BE000291731F080912701891711F08F3F69F47F
:102BF000809127018F3F21F4291711F0909327012D
:102C000080E166E271E00E946115219681E0C532A3
:102C1000D80709F710922D0108C0813031F485E8FA
:102C200090E090932F0180932E01FF91EF91DF911F
:102C3000CF91BF91AF919F918F917F916F915F9154
:102C40004F913F912F910F900FBE0F901F901895AD
:102C50008DE391E0089510923D01089580933D0128
:102C60000895482FFB01803269F0282F30E0C90118
:102C70008F77809711F047FD05C02F7030702F308F
:102C8000310511F580913D018093300188E08093FA
:102C9000310180818093320181818093330185E00D
:102CA00080933401DF01E5E3F1E012968C911297F5
:102CB0008193119681E0EA33F807B9F780E391E058
:102CC0000E94D5018823D1F308958EE391E00E94FC
:102CD00036028823D9F080913E0180934B01809188
:102CE000400180934C018091410180934D01E3E4C8
:102CF000F1E0AEE4B1E081918D9381E0E834F80732
:102D0000D1F780E26CE471E00E943D0C08950F93CE
:102D10001F93DF93CF930F92CDB7DEB70E94090CBC
:102D2000882311F41FEF01C010E00E94270380E008
:102D30006FEF48E020E0012F0E94B00280913D013A
:102D400089830E94060C082F80E0698148E020E01A
:102D50000E94850281E060913D0148E020E00FEF94
:102D60000E948502107F81E06FEF48E020E0012F94
:102D70000E94B00282E060913D0148E020E000EF57
:102D80000E94850283E060913D0148E020E00E94BE
:102D9000850284E060913D0148E020E00E948502C8
:102DA00085E060913D0148E020E00E9485020E949C
:102DB000F3020F90CF91DF911F910F91089583E55A
:102DC00091E0089510925401109253018AE090E02E
:102DD000909356018093550182E390E090935801BF
:102DE0008093570186E990E090935A0180935901AE
:102DF0000895E82FF0E0EE0FFF1FED5AFE4F7183AC
:102E00006083089581E080935E010895282F30E06B
:102E1000C90153E0880F991F5A95E1F7220F331F1C
:102E2000820F931FE0915C01F0915D01E80FF91FA3
:102E30008081089580915C0190915D010E94CF2E68
:102E400008959AE0899FC0011124E0915C01F091FE
:102E50005D01E80FF91F21812095279522272795ED
:102E60002083E0915C01F0915D01E80FF91F208162
:102E7000237F262B2083E0915C01F0915D01E80F18
:102E8000F91F40818185608550E020E00E94F60EA8
:102E90000895FF920F931F93CF93DF9380915E016C
:102EA000813009F0FAC010E07AE0F72E01E0EEC0C0
:102EB0001F9DE0011124E0915C01F0915D01EC0F98
:102EC000FD1F82819381009719F00197938382837C
:102ED000A0915C01B0915D01AC0FBD1F11962C91CA
:102EE0001197422F50E01496ED91FC911597808137
:102EF00090E016960C90169702C0959587950A94C7
:102F0000E2F78427952780FF8DC027FF39C02F77F0
:102F100011962C93E0915C01F0915D01EC0FFD1F87
:102F20008781482F50E04C7050704C30510591F41F
:102F30008091590190915A0122813381821B930B18
:102F400020915701309158018217930718F0812F73
:102F500068E014C0483051059CF080915701909171
:102F6000580122813381821B930B209155013091AE
:102F700056018217930720F0812F64E00E942117E9
:102F8000E0915C01F0915D01EC0FFD1F878185FFF1
:102F900009C080915501909156019383828381816C
:102FA00080688183A0915C01B0915D01AC0FBD1F71
:102FB00011968C91119790E09C012170307080FDEA
:102FC00006C017968C91179780FD08C022C0222357
:102FD00001F117968C91179781FF1BC01796EC9102
:102FE0001797E695E695F0E0E370F070EE0FFF1F9F
:102FF000ED5AFE4F8081918113969C938E93129788
:10300000E0915C01F0915D01EC0FFD1F8181806812
:103010008183E0915C01F0915D01EC0FFD1F8181E6
:1030200080278183A0915C01B0915D01AC0FBD1F31
:1030300011964C911197242F30E01496ED91FC914C
:103040001597808190E016960C90169702C0959582
:1030500087950A94E2F78227932780FD16C047FFE1
:1030600014C012968D919C911397892B71F44F7710
:1030700011964C93E0915C01F0915D01EC0FFD1F06
:1030800067816C70812F0E9421171F5F80915B0107
:10309000181708F40DCF10925E01DF91CF911F91A8
:1030A0000F91FF900895AF92BF92CF92DF92EF926F
:1030B000FF920F931F93DF93CF930F92CDB7DEB79D
:1030C00010925E0180E860E80E943209982F809398
:1030D0005B018AE0989FC00111240E94222E8093F8
:1030E0005C0190935D01DD24EAE0CE2E5E01089440
:1030F000A11CB11C5AC0DC9C7001112460915C01C0
:1031000070915D016E0D7F1DAB01485F5F4F9B01AC
:10311000275F3F4FC501695F7F4F0E9448090091BB
:103120005C0110915D010E0D1F1D898160E00E9400
:103130000409F80195838483A0915C01B0915D013D
:10314000AE0DBF1D3981232F277016962C9316972D
:103150001496ED91FC911597808190E002C09595B1
:1031600087952A95E2F7817011968C93E0915C0126
:10317000F0915D01EE0DFF1D818180958795882777
:1031800087958083E0915C01F0915D01EE0DFF1D5C
:1031900013821282878184FD03C0832F60E002C006
:1031A000832F62E00E94FA07D39480915B01D816C6
:1031B00008F4A1CF0F90CF91DF911F910F91FF9055
:1031C000EF90DF90CF90BF90AF90089580E691E0B0
:1031D0000895E0E6F1E088E592E091838083138230
:1031E00012821482158217821682108611863A96F0
:1031F00021E0E03BF20789F70895282F30E0F9013C
:1032000093E0EE0FFF1F9A95E1F7220F331FE20FB5
:10321000F31FE05AFE4F718360830895E62FF0E0BC
:10322000EE0FFF1FEE0FFF1F282F30E0C90173E0E4
:10323000880F991F7A95E1F7220F331F820F931F92
:10324000E80FF91FE05AFE4F538342830895EF922F
:10325000FF920F931F9370E08B010F5F1F4FE0E60B
:10326000EE2EE1E0FE2E000F111F000F111FE82FC0
:10327000F0E0DF0133E0AA0FBB1F3A95E1F7EE0F54
:10328000FF1FAE0FBF1F0A0F1B1F0E0D1F1DF801E2
:103290004083660F771F660F771F482F50E0CA01E3
:1032A00013E0880F991F1A95E1F7440F551F840FFB
:1032B000951F680F791FE60EF71EF70125831F91F2
:1032C0000F91FF90EF900895282F862F82958F7091
:1032D0008A3011F5862F90E083709070892BE1F48D
:1032E00066956695E62FF0E0E370F070EE0FFF1F35
:1032F000EE0FFF1F822F90E09C01B3E0220F331FDF
:10330000BA95E1F7880F991F280F391FE20FF31FB5
:10331000E05AFE4F5383428308958091B0018F5F3E
:103320008093B0010895582F462F662319F06FEF50
:103330007FEF12C0282F30E0C90173E0880F991F7A
:103340007A95E1F7820F931FE091B201F091B301FA
:10335000E80FF91F60817181842F82958F708A3008
:1033600011F5842F90E083709070892BE1F44695DD
:103370004695E42FF0E0E370F070EE0FFF1FEE0FC4
:10338000FF1F852F90E09C0153E0220F331F5A95B9
:10339000E1F7880F991F280F391FE20FF31FE05A3A
:1033A000FE4F62817381CB0108958091B2019091AB
:1033B000B3010E94CF2E0895AF92BF92CF92DF92B9
:1033C000EF92FF920F931F93CF93DF938091B00101
:1033D0008A30D0F01092B0015091B10140E020E06D
:1033E00030E010C0E091B201F091B301E20FF31FA1
:1033F00082819381009719F00197938382834F5FB5
:10340000275F3F4F451770F390915F019F3F09F48D
:1034100008C1369906C189E0989FC0011124E09146
:10342000B201F091B301E80FF91F1182108224B1AB
:1034300030E0220F331F220F331F3183208345B129
:10344000942F990F990F80E0282B392B31832083FB
:10345000EE24FF2499E0A92E0E2D80915F018A9D14
:10346000C0011124C091B201D091B301C80FD91F7E
:103470004E81D701AA0FBB1FAA0FBB1F842F90E05C
:10348000FC0113E0EE0FFF1F1A95E1F7880F991F5B
:10349000E80FF91FEA0FFB1FE05AFE4FC280D380EE
:1034A000F7013196EE0FFF1FEE0FFF1F842F90E004
:1034B0009C0153E0220F331F5A95E1F7880F991FA3
:1034C000280F391FE20FF31FE05AFE4FB080842F00
:1034D00090E09C01F3E0220F331FFA95E1F7880F8B
:1034E000991F280F391FA20FB31FA05ABE4F159660
:1034F0001C9112FF2CC0888199818C159D0558F470
:1035000010FD09C011604E2D406488856F8150E028
:1035100020E00E94F60E80915F018A9DC001112477
:10352000E091B201F091B301E80FF91F96012B0D64
:10353000311D808191818217930748F010FF07C0E9
:103540001E7F80856781A70120E00E94F60E13FF91
:1035500038C080915F018A9DC0011124E091B201C1
:10356000F091B301E80FF91F80819181C816D90647
:1035700058F411FD09C01260402F406C80856781AE
:1035800050E020E00E94F60E80915F018A9DC0010C
:103590001124E091B201F091B301E80FF91FCB18AB
:1035A000D10880819181C816D90658F011FF09C051
:1035B0001D7F006880856781402F50E020E00E94D9
:1035C000F60E80915F0190E09C0173E0220F331FA3
:1035D0007A95E1F7280F391FE091B201F091B3011C
:1035E000E20FF31FD701AA0FBB1FAA0FBB1F8681D3
:1035F00090E09C0153E0220F331F5A95E1F7880FAA
:10360000991F280F391FA20FB31FA05ABE4F15963E
:103610001C930894E11CF11C82E0E816F10409F007
:103620001BCF80915F018F3F11F036994DC0482F1D
:103630004F5F2091B101A091B201B091B30111C0CF
:10364000842F90E0FC0133E0EE0FFF1F3A95E1F785
:10365000E80FF91FEA0FFB1F82819381892B21F06C
:103660004F5F421768F32DC029E0429F900111245B
:10367000A20FB31F16968C91169790E0FC0103E001
:10368000EE0FFF1F0A95E1F7880F991FE80FF91F4A
:10369000E05AFE4F8081918113969C938E931297EE
:1036A00087B1887F87B997B1E091B201F091B301FA
:1036B000E20FF31F8681982B97B9369A40935F01EA
:1036C00003C08FEF80935F01DF91CF911F910F9126
:1036D000FF90EF90DF90CF90BF90AF900895AF92A2
:1036E000BF92CF92DF92EF92FF920F931F93DF93DF
:1036F000CF930F92CDB7DEB780E268EF0E94320918
:10370000982F8093B10189E0989FC00111240E94F5
:10371000222E8093B2019093B301DD2459E0C52E8F
:103720005E010894A11CB11C36C0DC9C7001112400
:103730004091B2015091B3014E0D5F1D9A01285F77
:103740003F4FC50160E070E0495F5F4F0E9448094C
:103750000091B2011091B3010E0D1F1D898160E02F
:103760000E940409F80195838483E091B201F091ED
:10377000B301EE0DFF1D8981868311821082E091D5
:10378000B201F091B301EE0DFF1D1382128260E0D1
:103790000E94FA07D3949091B101D91630F2109299
:1037A000B0018FEF80935F0180EC87B9992311F00E
:1037B00087E886B90F90CF91DF911F910F91FF900D
:1037C000EF90DF90CF90BF90AF90089589EB91E09C
:1037D0000895E9EBF1E08CE390E09183808312821D
:1037E0001482138215821682108617821186128621
:1037F0003B9622E0E131F20781F7089590E02BE05B
:1038000030E0829FF001839FF00D929FF00D112414
:10381000E754FE4F71836083089590E02BE030E021
:10382000829FF001839FF00D929FF00D1124E754C9
:10383000FE4F62830895E62FF0E090E0EE0FFF1F49
:10384000EE0FFF1F2BE030E0BC01629FC001639FC1
:10385000900D729F900D1124E80FF91FE754FE4F51
:103860005483438308950F931F93CF93DF9390E086
:1038700070E0660F771F660F771F09EB11E0FB0101
:103880003296ABE0B0E0EC01CA9FC001CB9F900D37
:10389000DA9F900D1124E80FF91FE00FF11F438309
:1038A000680F791F060F171FF8012683DF91CF914C
:1038B0001F910F910895282F862F82958F708A303F
:1038C00009F5862F90E083709070892BD9F4669566
:1038D0006695E62FF0E0E370F07030E0EE0FFF1F2A
:1038E000EE0FFF1F8BE090E0BC01269FC001279FD9
:1038F000900D369F900D1124E80FF91FE754FE4FED
:103900005483438308958091B8018F5F8093B801F9
:103910000895582F462F662319F06FEF7FEF12C0DE
:10392000282F30E0C901E3E0880F991FEA95E1F7FD
:10393000821B930BE091B501F091B601E80FF91FDE
:1039400060817181842F82958F708A3011F5842F68
:1039500090E083709070892BE1F446954695E42FB2
:10396000F0E0E370F070252F30E0EE0FFF1FEE0F58
:10397000FF1F8BE090E0AC01249FC001259F900DBC
:10398000349F900D1124E80FF91FE754FE4F638117
:103990007481CB0108958091B5019091B6010E9488
:1039A000CF2E08952F923F924F925F926F927F9207
:1039B0008F929F92AF92BF92CF92DF92EF92FF923F
:1039C0000F931F93CF93DF938091B801882309F45D
:1039D000ADC11092B80144247BE0272E312CA1C147
:1039E00027E0429E50011124E091B501F091B6010B
:1039F000EA0DFB1D81E090E0048002C0880F991F52
:103A00000A94E2F7D82E82819381009719F00197EA
:103A100093838283E091B501F091B601EA0DFB1D1D
:103A200082819381019709F58D2D0E9401078823DA
:103A3000E1F08D2D0E94AE07E091B501F091B60145
:103A4000EA0DFB1D848190E0829DF001839DF00DC5
:103A5000929DF00D1124E754FE4F828181508230F7
:103A600020F484E46D2D0E949607E091B501F09159
:103A7000B601EA0DFB1D82819381892B09F050C1AB
:103A80008D2D0E940107882309F48AC08D2D0E9484
:103A9000AE07E091B501F091B601EA0DFB1D8481FE
:103AA00090E0829DF001839DF00D929DF00D112418
:103AB000E754FE4F8281813021F0823009F070C0DE
:103AC00022C08EEB6D2D0E9496070091B5011091DA
:103AD000B6010A0D1B1D8D2D0E944C07F801808335
:103AE0001182E090B501F090B601EA0CFB1CF701E1
:103AF000008111818D2D0E944C07982E8824082961
:103B00001929F7014BC08EEB6D2D0E94960700918D
:103B1000B5011091B6010A0D1B1D8D2D0E944C0799
:103B2000F80180831182E090B501F090B601EA0CB3
:103B3000FB1CF701008111818D2D0E944C07782E0E
:103B4000662406291729F701118300838D2D0E9411
:103B50004C078D2D0E944C078D2D0E944C078D2DFA
:103B60000E944C07E091B501F091B601EA0DFB1DF2
:103B700000811181159507958D2D0E944C0754E009
:103B8000000F111F5A95E1F7045F1F4FE091B50137
:103B9000F091B601EA0DFB1D081B1109118300838A
:103BA00000E010E0F02EC091B501D091B601CA0D31
:103BB000DB1D8C8190E0D801AA0FBB1FAA0FBB1F91
:103BC000829DF001839DF00D929DF00D1124AE0FAA
:103BD000BF1FA754BE4F1396CD90DC901497C80119
:103BE000880F991F880F991FE80FF91FE554FE4FA2
:103BF00053801696EC90E2FE29C0888199818C153D
:103C00009D0564F4E0FC0AC0F1E0EF2A402F406417
:103C10008E816D8150E020E00E94F60EE091B501AA
:103C2000F091B601EA0DFB1D9601250D311D808135
:103C300091818217930754F0E0FE08C02EEFE22234
:103C400086816581A80120E00E94F60EE3FE31C066
:103C5000E091B501F091B601EA0DFB1D80819181E3
:103C6000C816D90664F4E1FC0AC032E0E32A4F2DFD
:103C7000406C8681658150E020E00E94F60EE09164
:103C8000B501F091B601EA0DFB1DC518D108808180
:103C90009181C816D9066CF0E1FE0BC08DEFE822C9
:103CA00020E8F22A868165814F2D50E020E00E94B5
:103CB000F60EA091B501B091B601AA0DBB1D1496E8
:103CC0008C91149790E0F801EE0FFF1FEE0FFF1F8D
:103CD0009C01229DC001239D900D329D900D1124C9
:103CE000E80FF91FE754FE4FE6820F5F1F4F0230C7
:103CF000110509F057CF14968C91149790E02BE0A2
:103D000030E0829FF001839FF00D929FF00D11240F
:103D1000E754FE4F8081918113969C938E93129766
:103D200043948091B401481608F45ACEDF91CF91A4
:103D30001F910F91FF90EF90DF90CF90BF90AF90C9
:103D40009F908F907F906F905F904F903F902F90BB
:103D50000895AF92BF92CF92DF92EF92FF920F93AE
:103D60001F93DF93CF930F92CDB7DEB788E268EF52
:103D70000E943209982F8093B40187E0989FC00178
:103D800011240E94222E8093B5019093B6011092C7
:103D9000B701FF24F7E0EF2E5E010894A11CB11CCF
:103DA000E1E0CE2ED12C32C0FE9C80011124409146
:103DB000B5015091B601400F511F9A012A5F3F4F44
:103DC000C50160E070E04B5F5F4F0E944809E091E1
:103DD000B501F091B601E00FF11F29812483118212
:103DE0001082E091B501F091B601E00FF11F13824E
:103DF0001282C60102C0880F991F2A95E2F79C0122
:103E00008091B701822B8093B701F3948091B40124
:103E1000F81650F21092B8018091B7010E94B307D2
:103E20000F90CF91DF911F910F91FF90EF90DF9056
:103E3000CF90BF90AF9008957F928F929F92AF9254
:103E4000BF92CF92DF92EF92FF920F931F93DF9377
:103E5000CF9300D0CDB7DEB780E06EEF0E9432097D
:103E6000782EEE2432E0832E912C8C0E9D1E5E0166
:103E70000894A11CB11C21E0C22ED12C2DC0C5017B
:103E8000B40140E050E020E030E00E944809898120
:103E900061E00E9404098C01898197E0F92EF822E3
:103EA00061E00E94FA078A81813051F4F801208193
:103EB000C60102C0880F991FFA94E2F7282B0AC0A6
:103EC000F8012081C60102C0880F991FFA94E2F719
:103ED000809528232083E394E71488F20F900F90B5
:103EE000CF91DF911F910F91FF90EF90DF90CF90D6
:103EF000BF90AF909F908F907F90089590E09C012D
:103F0000220F331F280F391F220F331FE091120297
:103F1000F0911302E20FF31F808108958091120245
:103F2000909113020E94CF2E0895462F96E0899F0C
:103F3000B0011124E0911202F0911302E60FF71F75
:103F400040834423A1F0E0911202F0911302E60FA6
:103F5000F71FA181B2812C9181E090E0038002C023
:103F6000880F991F0A94E2F7282B2C9314C0E09134
:103F70001202F0911302E60FF71FA181B2812C917A
:103F800081E090E0038002C0880F991F0A94E2F755
:103F9000809582238C93E0911202F0911302E60F38
:103FA000F71F8581648150E020E00E94F60E08959D
:103FB000AF92BF92CF92DF92EF92FF920F931F9337
:103FC000DF93CF930F92CDB7DEB780E160EF0E9411
:103FD0003209982F8093110286E0989FC001112426
:103FE0000E94222E8093120290931302DD2456E049
:103FF000C52E5E010894A11CB11C2FC0DC9C700171
:10400000112440911202509113024E0D5F1D9A012E
:104010002B5F3F4FC50160E070E04C5F5F4F0E9437
:10402000480900911202109113020E0D1F1D898183
:1040300061E00E940409F80192838183E0911202F9
:10404000F0911302EE0DFF1D8981982F97709383D5
:10405000108261E00E94FA07D39480911102D81671
:1040600068F20F90CF91DF911F910F91FF90EF9029
:10407000DF90CF90BF90AF90089586E192E00895D1
:104080001092160210921702109218021092190242
:1040900010922102109222021092230210922B02FF
:1040A00010922C0210922D021092350210923602BC
:1040B000109237020895982F542F722F882321F0E1
:1040C000A7E1B2E0E0E028C040911602242F30E0E2
:1040D000F901EE0FFF1FC901B3E0880F991FBA95D0
:1040E000E1F7E80FF91FEA5EFD4F6183F901EE0F7A
:1040F000FF1FEE0FFF1FE20FF31FEE0FFF1FE85E23
:10410000FD4F508371834F5F409316020895EF5F18
:104110001A96E43009F4C4C08C918917C1F7ACC079
:104120006130B9F0613030F0603811F1613809F078
:10413000B7C02CC0FC0133E0EE0FFF1F3A95E1F74A
:10414000880F991FE80FF91FEA5EFD4F54837583AE
:104150000895FC01B3E0EE0FFF1FBA95E1F7880F59
:10416000991FE80FF91FEA5EFD4F56837783089584
:10417000FC0173E0EE0FFF1F7A95E1F7880F991F9E
:10418000E80FF91FEA5EFD4F50870895FC0143E0F8
:10419000EE0FFF1F4A95E1F7880F991FE80FF91FEF
:1041A000EA5EFD4F51870895623061F1633030F46B
:1041B000662361F0613009F073C016C06430F1F11C
:1041C000643070F1653009F06BC047C0FC0123E03A
:1041D000EE0FFF1F2A95E1F7880F991FE80FF91FCF
:1041E000EA5EFD4F54830895FC01A3E0EE0FFF1F2C
:1041F000AA95E1F7880F991FE80FF91FEA5EFD4FB6
:1042000055830895FC0163E0EE0FFF1F6A95E1F707
:10421000880F991FE80FF91FEA5EFD4F5683089536
:10422000FC0133E0EE0FFF1F3A95E1F7880F991F6D
:10423000E80FF91FEA5EFD4F57830895FC01B3E0D4
:10424000EE0FFF1FBA95E1F7880F991FE80FF91FCE
:10425000EA5EFD4F5087718708950196FC0163E087
:10426000EE0FFF1F6A95E1F7880F991FE80FF91FFE
:10427000EA5EFD4F508308958E2F90E0FC01EE0F13
:10428000FF1FEE0FFF1FE80FF91FEE0FFF1FE85E85
:10429000FD4FE081E03C09F443CFE03E09F484CFD8
:1042A000089590E0FC01EE0FFF1FEE0FFF1FE80FD7
:1042B000F91FEE0FFF1FE85EFD4F80810895282F44
:1042C00010923F028093140260931502E8E1F2E03D
:1042D00090E080818623821709F49F5F3A9682E0FE
:1042E000E034F807B1F7892F089540911502209125
:1042F000140280913F02382F3F5F90E0FC01EE0FE7
:10430000FF1FEE0FFF1FE80FF91FEE0FFF1FE85E04
:10431000FD4F80818423821711F0832FECCF3093DF
:104320003F022AE0329F90011124235F3D4FC901D3
:104330000895282FE7E1F2E090E001C09F5F8081BF
:10434000821729F03A969430C9F78FEF0895892F94
:10435000806808958F77A8E1B2E040E025E0829F71
:1043600090011124220F331F2A0F3B1F90E0FC0104
:10437000EE0FFF1FEE0FFF1FE80FF91FEE0FFF1FDD
:10438000EA0FFB1F07C080819C918927862309F4CF
:104390004F5F1A96A217B307B1F7842F089590E0E4
:1043A00023E0880F991F2A95E1F7E0914202F091EE
:1043B0004302E80FF91F82810895809140028F5FC8
:1043C00080934002089580914202909143020E949E
:1043D000CF2E0895AF92BF92CF92DF92EF92FF92CD
:1043E0000F931F93CF93DF9380914002843108F4A1
:1043F000CEC010924002DD2453E0C52E4CE9A42E1D
:104400004FEFB42EBFC0ED2CFF2433E0EE0CFF1CA9
:104410003A95E1F7E0914202F0914302EE0DFF1D63
:10442000868187FD02C0815086838681882361F45E
:104430000190F081E02D8381648140E020E030E054
:1044400000E010E00E94910DE0914202F0914302E1
:10445000EE0DFF1D878187FD02C081508783878114
:10446000882361F40190F081E02D8581668140E030
:1044700020E030E000E010E00E94910DC091420287
:10448000D0914302CE0DDF1D8C819D81882391F157
:10449000282F21502C839370913069F4E881F981A1
:1044A000678184E6289FC001112470E00E94FB2DE3
:1044B0008B81860F8A83C0914202D0914302CE0D38
:1044C000DF1D8D818370823009F05BC08C8190E0AC
:1044D000E881F98167819C012A9DC0012B9D900D87
:1044E0003A9D900D112470E00E94FB2D8B81860F68
:1044F0008A8347C0892F83708130A9F49C7F9D8374
:10450000E881F981808580FF05C0CE828381648146
:1045100044E603C08381648140E020E030E000E0B5
:1045200010E00E94910DA0914202B0914302AE0DA5
:10453000BF1D15969C911597892F83708230C9F401
:104540009C7F15969C931597ED91FC911197808512
:1045500080FF06C01796CC928581668144E603C031
:104560008581668140E020E030E000E010E00E94BC
:10457000910DE0914202F0914302EE0DFF1D838107
:104580008283D39480914102D81608F43CCFDF9106
:10459000CF911F910F91FF90EF90DF90CF90BF9040
:1045A000AF90089590E063E0880F991F6A95E1F756
:1045B000E0914202F0914302E80FF91F1482428118
:1045C00043830190F081E02D8281608150E020E002
:1045D0000E94F60E0895CF92DF92FF920F931F93E1
:1045E000CF93DF93F62EC82EDD2473E0CC0CDD1CB8
:1045F0007A95E1F7C0914202D0914302CC0DDD1DC6
:104600008D8190E083709070892B09F0A6C02A817B
:10461000621718F0662319F03FC0662399F4E88109
:10462000F981678170E0882777FD8095982F0E9437
:10463000002D2DEC3CEC4CE85FE30E948C2D0E9499
:10464000D22C13C030E0261B3109E881F981878123
:1046500090E0AC01249FC001259F900D349F900DE8
:10466000112464E670E00E94FB2D6C838D818C7FA9
:1046700081608D83E881F981808580FF02C083E0BD
:104680008E83E881F9818381648144E620E030E013
:1046900000E010E00E94910DC0914202D0914302CF
:1046A000CC0DDD1D8A818F1528F054E6F51609F032
:1046B00042C003C094E6F91699F4E881F981678154
:1046C00070E0882777FD8095982F0E94002D2DECB3
:1046D0003CEC4CE85FE30E948C2D0E94D22C14C06D
:1046E0002F2D30E0281B3109E881F981878190E086
:1046F000AC01249FC001259F900D349F900D112483
:1047000064E670E00E94FB2D6C838D818C7F82605B
:104710008D83E881F981808580FF02C083E08F83EB
:10472000E881F9818581668144E620E030E000E09F
:1047300010E00E94910DE0914202F0914302EC0DD5
:10474000FD1DF3820190F081E02D828160814F2D6B
:1047500050E020E00E94F60E08C0E881F98182E076
:10476000608140E020E00E94490DDF91CF911F91D0
:104770000F91FF90DF90CF900895282F90E0E3E015
:10478000880F991FEA95E1F7E0914202F091430208
:10479000E80FF91F858190E083709070892B21F0DC
:1047A000822F0E94D2220895822F64E60E94EB227B
:1047B0000895282F90E0F3E0880F991FFA95E1F70C
:1047C000E0914202F0914302E80FF91F858190E0E9
:1047D00083709070892B21F0822F0E94D22208953D
:1047E000822F60E00E94EB220895CF93DF93982FF1
:1047F000C82FD0E0A3E0CC0FDD1FAA95E1F7E09130
:104800004202F0914302EC0FFD1F858187FF04C037
:10481000892F0E94BD2303C0892F0E94D923E091D4
:104820004202F0914302EC0FFD1F85818058858381
:10483000DF91CF910895282F90E0B3E0880F991F62
:10484000BA95E1F7E0914202F0914302E80FF91FB7
:10485000858190E083709070892B21F0822F0E94D7
:10486000D22208958281882319F0822F60E002C04D
:10487000822F64E60E94EB220895CF92DF92EF929E
:10488000FF920F931F9380EC6FEF0E945F21809344
:10489000410290E003E0880F991F0A95E1F70E941A
:1048A000222E8093420290934302DD24CC24CA94AA
:1048B00025C0ED2CFF2413E0EE0CFF1C1A95E1F748
:1048C00000914202109143020E0D1F1D0E9475219E
:1048D000F80191838083E0914202F0914302EE0D52
:1048E000FF1D1282E0914202F0914302EE0DFF1D86
:1048F000138214821582C682C782D39480914102AA
:10490000D816B8F2109240021F910F91FF90EF90CD
:10491000DF90CF90089588E492E00895E8E4F2E013
:104920001082118212821382349683E0E834F807F1
:10493000B9F70895E82FF0E0EE0FFF1FEE0FFF1F0D
:10494000E60FF11DE85BFD4F4083089590E0880F6E
:10495000991FE0914502F0914602E80FF91F60832C
:104960000895809147028F5F809347020895809158
:1049700048038F5F809348030895FF920F931F931E
:10498000F82E062F122FCA0134E0969587953A9596
:10499000E1F7682F70E03DC0A72FB0E0FD01EE0FFA
:1049A000FF1FEE0FFF1FE85BFD4F80818E7F8C3372
:1049B000D9F481818F15C1F49D01220F331FF901B4
:1049C000EE0FFF1FE65BFD4F8081801769F4E091D9
:1049D0004502F091460217FF04C0E20FF31F608307
:1049E00003C0E20FF31F4083AA0FBB1FAA0FBB1F18
:1049F000A85BBD4F8C918D3359F4872F90E0880FC1
:104A0000991FE0914502F0914602E80FF91F1182CB
:104A10007F5F80914402781708F4BECF1F910F91F9
:104A2000FF900895811181E0611182600895809165
:104A30004502909146020E94CF2E08952F923F92F8
:104A40004F925F926F927F928F929F92AF92BF929E
:104A5000CF92DF92EF92FF920F931F93CF93DF934A
:104A6000809147028A3008F4A8C610924702882431
:104A700027E8522E90EA292E95E0392E8CE3482E15
:104A80000CE3602E712C92C6C82DD0E0FE01EE0F13
:104A9000FF1FEE0FFF1FE85BFD4F5081B1805034C8
:104AA00058F08B2D90E0880F991FE0914502F0910E
:104AB0004602E80FF91FB080FE01EE0FFF1FEE0F58
:104AC000FF1FE65BFD4FA08057FF0BC08A2D90E0D3
:104AD000880F991FE0914502F0914602E80FF91FF7
:104AE000A080FE01EE0FFF1FEE0FFF1FE85BFD4FE2
:104AF0009380503C58F0892D90E0880F991FE091E9
:104B00004502F0914602E80FF91F9080852F887FBB
:104B10008037C9F4882D90E0880F991FE0914502F5
:104B2000F0914602E80FF91F4181442361F02A2DDC
:104B300030E0277030708091480390E0821793072F
:104B400014F041504183852F90E0FC01B097EC3C7C
:104B5000F10508F02AC6E65DFF4FEE0FFF1F059036
:104B6000F491E02D09940E94FC0A182F0E94FF0A7C
:104B700024E6129FF0011124E80FF11D4B2D50E0A7
:104B80008A2D90E08F709070BC0133E0660F771F24
:104B90003A95E1F7880F991F680F791FCA018F7343
:104BA0009070DC0124E630E0A29FC001A39F900D2D
:104BB000B29F900D1124680F791FE617F70708F4CC
:104BC0001CC3292D30E0407C5070440F551F440F0A
:104BD000551F242B352BC90103E0880F991F0A9517
:104BE000E1F7220F331F820F931F860F971F8E1737
:104BF0009F0708F402C3D3C00E94F90A182F0E942D
:104C0000FC0A149DF0011124E80FF11D4B2D50E01A
:104C10002A2D30E0B9016F737070CA018F739070E4
:104C2000DC01A69DC001A79D900DB69D900D11249D
:104C3000680F791FE617F70708F4DFC2207C307091
:104C4000220F331F220F331F407C5070A4E0440F0B
:104C5000551FAA95E1F7242B352B892D90E0282BA1
:104C6000392B260F371F2E173F0708F4C6C297C0EF
:104C70000E94F60AD82E0E94F90AC82ECB2DD0E049
:104C8000EA2CFF2487010F731070CE018F71907092
:104C9000FC01E69DC001E79D900DF69D900D11244D
:104CA000080F191F0E94F30A853020F4B5FC02C0DA
:104CB0000FEF1FEF0E94F30A853021F4C6FD02C0FA
:104CC0000FEF1FEF0E94F30A863011F4B7FE95C272
:104CD000D49C900111242C0D311D2017310708F4AC
:104CE0008CC2892D90E0F0ECEF22FF24EE0CFF1C2B
:104CF000EE0CFF1C8E299F29080F191F021713079E
:104D000008F47BC24CC00E94F30A082F0E94F60AE6
:104D1000E82E0E94F90A10E0029DA001039D500DAB
:104D2000129D500D1124E49C700111244E0D5F1D45
:104D3000480F511D2A2D30E08B2D82958695877066
:104D400090E0829DD001839DB00D929DB00D112405
:104D50008B2D90E08F719070BC01669DC001679DA6
:104D6000900D769D900D1124A80FB91FC9018F7366
:104D70009070A80FB91F4A175B0708F43EC2892D2F
:104D800090E0207C3070220F331F220F331F822BC4
:104D9000932B8A0F9B1F8417950708F42EC2882D2A
:104DA00090E0880F991FE0914502F091460289C07A
:104DB000882D90E0880F991FE0914502F0914602FE
:104DC000E80FF91F8181882311F0815020C0918262
:104DD000882D6B2D4A2D20E000E010E00E94900C01
:104DE000E4C4282D30E0220F331FE0914502F091FA
:104DF0004602E20FF31F91818081981709F4908297
:104E0000E0914502F0914602E20FF31F8081818319
:104E1000CCC4282D30E0220F331FA0914502B09161
:104E20004602A20FB31F8C918B1550F4CC0FDD1FDF
:104E3000CC0FDD1FC85BDD4F8B81882384F40BC052
:104E4000B81668F4CC0FDD1FCC0FDD1FC85BDD4F3B
:104E50008B8186FF04C071E011967C93D8C31196B4
:104E60001C92D5C3882D90E0880F991FE0914502D0
:104E7000F0914602E80FF91F8B2D90E002C0880FD9
:104E8000991FAA94E2F7808390C4882D90E0880F40
:104E9000991FE0914502F0914602E80FF91F8B2D12
:104EA00090E002C095958795AA94E2F7ECCF882D03
:104EB00090E0E0914502F0914602BA1491F5880F16
:104EC000991FE80FF91F8FEFDECF882D90E0E0915A
:104ED0004502F0914602BA1491F723C0882D90E064
:104EE000E0914502F0914602BA14D8F4E8CF882D3B
:104EF00090E0E0914502F0914602AB1490F0DFCFD4
:104F0000882D90E0E0914502F0914602AB1448F400
:104F1000D6CF882D90E0E0914502F0914602BA1478
:104F200070F6880F991FE80FF91F10823EC4882D74
:104F300090E0880F991FE0914502F0914602E80F3A
:104F4000F91FAB0C9A0CECC2882D90E0880F991FCA
:104F5000E0914502F0914602E80FF91FBA18B9181E
:104F6000B08223C4882D90E0880F991FE0914502FC
:104F7000F0914602E80FF91FAB9C90011124892D96
:104F800090E0DC012A9FC0012B9F900D3A9F900D6D
:104F9000112479CF882D90E0880F991FE091450268
:104FA000F0914602E80FF91F8B2D6A2D0E94EF2D1C
:104FB00090E0692D70E082C0882D90E0880F991FE5
:104FC000E0914502F0914602E80FF91FAB209A20CC
:104FD000A7C2882D90E0880F991FE0914502F091BB
:104FE0004602E80FF91FAB289A289AC2882D90E054
:104FF000880F991FE0914502F0914602E80FF91FD2
:10500000AB20A9200CC0882D90E0880F991FE0915B
:105010004502F0914602E80FF91FAB28A928A09499
:10502000A082C3C3882D90E0880F991FE0914502AC
:10503000F0914602E80FF91FAB249A2471C2882D23
:1050400090E0880F991FC0904502D0904602C80E8C
:10505000D91E6B2D70E06A0D711D882777FD809534
:10506000982F0E94002D7B018C01692D70E088270C
:1050700077FD8095982F0E94002D20E030E040E8D9
:105080005DE30E948C2D9B01AC01C801B7010E9419
:105090008C2D0E94D22CF601608387C3882D90E06E
:1050A000880F991FE0914502F0914602E80FF91F21
:1050B0006B2D70E06A0D711D892D90E00E94FB2D13
:1050C000EBCF882D90E0880F991FC0904502D090BB
:1050D0004602C80ED91E6B2D70E0882777FD80959B
:1050E000982F0E94002D7B018C016A2D70E080E0DA
:1050F00090E00E94FE2C9B01AC01C801B7010E9408
:105100006A2C7B018C01692D70E0882777FD8095E2
:10511000982F0E94002D9B01AC01C801B7010E948D
:105120008C2D0E94D22CD6016C933FC3882D90E029
:10513000880F991FE0914502F0914602E80FF91F90
:1051400081814B2D50E0282F30E06081B81678F433
:10515000241B350B35952795862F90E0820F911DE6
:105160008F3F910511F00CF0AECE260F1FC0421BF1
:10517000530B55954795641708F4D7CE641B8CCF15
:10518000B4E8BB1641F0E8E8BE1611F1F8E0BF162E
:1051900009F00BC30DC0882D90E0880F991FE09196
:1051A0004502F0914602E80FF91F20E82083FDC276
:1051B000882D90E0880F991FE0914502F0914602FA
:1051C000E80FF91F8081883809F07DCE5082EDC24A
:1051D000882D90E0880F991FB2C1BB2059F0882D0F
:1051E00090E0880F991FE0914502F0914602E80F88
:1051F000F91F9082AA2009F4D8C2882D90E0880F68
:10520000991FBEC1AA2059F0882D90E0880F991FE0
:10521000E0914502F0914602E80FF91F1082BB2091
:1052200009F4C3C2882D90E0880F991FE0914502D0
:10523000F091460273C1BB2071F0882D90E0880F79
:10524000991FE0914502F0914602E80FF91F808115
:10525000882309F465C1AA2009F4A7C2882D90E02B
:10526000880F991FE0914502F0914602E80FF91F5F
:105270008081882309F499C258CEBB2059F0882D2B
:1052800090E0880F991FE0914502F0914602E80FE7
:10529000F91F9082AA2009F445C0882D90E0880F5C
:1052A000991FE0914502F0914602E80FF91F39C0BD
:1052B000AA2059F0882D90E0880F991FE0914502AF
:1052C000F0914602E80FF91F1082BB2059F1882D9A
:1052D00090E0880F991FE0914502F0914602E80F97
:1052E000F91F0FC0BB2079F0882D90E0880F991F1F
:1052F000E0914502F0914602E80FF91F8081882372
:1053000011F490820FC0AA2069F0882D90E0880FD8
:10531000991FE0914502F0914602E80FF91F808144
:1053200081111082A0914502B09146024B2DB1101F
:1053300041E0A1104260882D90E0880F991FA80FCE
:10534000B91F11964C9331C2282D30E0220F331F24
:10535000E0914502F0914602E20FF31F81818B1527
:10536000E1F044E8B41639F058E8B51669F068E0A1
:10537000B61661F403C074E6708308C0883811F46F
:10538000508204C08FEF01C085E88083E091450220
:10539000F0914602E20FF31FB182FE01EE0FFF1FF4
:1053A000EE0FFF1FE85BFD4F83818A1509F4FDC1F5
:1053B00094E8A916E1F5E0914502F0914602E20F6A
:1053C000F31F108251C0282D30E0220F331FE091CF
:1053D0004502F0914602E20FF31F81818B15C9F05F
:1053E00044E8B41669F058E8B51651F068E0B6160E
:1053F00049F4883811F4508205C08FEF808302C0D1
:1054000075E87083E0914502F0914602E20FF31FC8
:10541000B182FE01EE0FFF1FEE0FFF1FE85BFD4F95
:1054200083818A1509F4C1C194E8A916A9F0A8E8F6
:10543000AA1691F0B8E0AB16B9F4E0914502F091EC
:105440004602883821F4E20FF31F50820DC0E20FAC
:10545000F31F8FEF808308C0E0914502F091460270
:10546000E20FF31F26E82083CC0FDD1FCC0FDD1FDA
:10547000C85BDD4FAB8299C1BA1450F4882D90E01F
:10548000E0914502F0914602B91408F045C02BC0E6
:10549000882D90E0E0914502F0914602A914E0F5D4
:1054A00036C0AB1418F48A2DAB2CB82E4A2D9A14A2
:1054B00008F4492D882D90E0880F991FA09145028E
:1054C000B0914602A80FB91F4B1508F44B2D4C9311
:1054D0006CC1AB1458F4882D90E0E0914502F09136
:1054E00046029B14C8F4880F991F2DC0882D90E0A8
:1054F000E0914502F09146029A1470F408C0882D9C
:1055000090E0E0914502F0914602BB2029F4880F1B
:10551000991FE80FF91F84CD880F991FE80FF91F15
:10552000908243C1882D90E0BB2081F0880F991FA5
:10553000E0914502F0914602E80FF91F9182E09157
:105540004502F0914602E80FF91F0ACD880F991F16
:10555000E0914502F0914602E80FF91F818188230E
:1055600009F023C1E2CC882D90E0BB2071F4880FB4
:10557000991FE0914502F0914602E80FF91F9182D0
:10558000E0914502F0914602CECC880F991FE09140
:105590004502F0914602E80FF91F8181882309F046
:1055A00004C1DECCBB2071F0882D90E0880F991FDC
:1055B000E0914502F0914602E80FF91F81818823AE
:1055C00009F0CECC882D90E0880F991FE09145021C
:1055D000F0914602E80FF91F1082BB2009F0E5C0E8
:1055E000E0914502F0914602E80FF91F9182DDC07B
:1055F000282D30E0220F331FE0914502F091460242
:10560000E20FF31F8181882309F0CFC09182E091DE
:105610004502F0914602E20FF31FA2CC882D90E0E4
:10562000880F991FE0914502F0914602E80FF91F9B
:1056300080818B1509F4B9C0B082CC0FDD1FCC0F6F
:10564000DD1FC85BDD4F8981E82FF0E0EF01CC0F53
:10565000DD1FCC0FDD1FC85BDD4F88818F7B8F3353
:1056600071F5DF01AA0FBB1FE0914502F0914602E0
:10567000EA0FFB1F8181882309F497C0AA0FBB1F83
:10568000A65BBD4F6B816F738C910E942C018C01C6
:105690006B2D70E0882777FD8095982F0E94002D54
:1056A00023E333E343E250E40E946A2C0E94D22CAD
:1056B0009B01AC018A2D692D422F98015CC06B2D96
:1056C00070E0882777FD8095982F0E94002D23E3B6
:1056D00033E343E250E40E946A2C0E94D22C9B01E7
:1056E000AC018A2D692D422F44C0882D90E0880F8F
:1056F000991FE0914502F0914602E80FF91F808161
:105700008B1509F452C0B0823FEFB31609F44DC0B7
:10571000CC0FDD1FCC0FDD1FC85BDD4F8981E82F6B
:10572000F0E0EF01CC0FDD1FCC0FDD1FC85BDD4FBC
:1057300088818F7B8F33D1F4DF01AA0FBB1FE091EB
:105740004502F0914602EA0FFB1F8181882369F12F
:10575000AA0FBB1FA65BBD4F6B816F738C910E941C
:105760002C019C018A2D692D4B2D05C08A2D692D98
:105770004B2D20E030E000E010E00E94910D15C0BC
:10578000882D90E0880F991FE0914502F091460224
:10579000E80FF91F80818B1541F0B0828FEF692DE2
:1057A0004B2D50E020E00E94F60E8394809144023D
:1057B000881608F469C910924803DF91CF911F91B0
:1057C0000F91FF90EF90DF90CF90BF90AF909F90A0
:1057D0008F907F906F905F904F903F902F900895A3
:1057E000CF93DF93E4E4F3E090E48081882321F415
:1057F000915034979923C9F7E92FF0E0EE0FFF1F7E
:10580000EE0FFF1FEC5BFD4F8081882309F490E0D1
:1058100090934402892F90E0880F991F0E94222EB6
:10582000809345029093460290E048C0C92FD0E093
:105830009E01220F331FE0914502F0914602E20FD4
:10584000F31F1082E0914502F0914602E20FF31F30
:105850001182DE01AA0FBB1FAA0FBB1FA85BBD4FA1
:105860008C918E7F8C3389F4E0914502F091460251
:10587000E20FF31F13968C918083E0914502F09123
:105880004602E20FF31F80818183FE01EE0FFF1FAE
:10589000EE0FFF1FE85BFD4F8081803671F4E091D1
:1058A0004502F0914602E20FF31FCC0FDD1FCC0F33
:1058B000DD1FC65BDD4F888181839F5F809144023D
:1058C000981708F4B3CF1092470210924803DF9163
:1058D000CF9108950CD0E6C0DED040F0D5D030F0A6
:1058E00021F45F3F19F0C7C0511110C1CAC0EBD0FD
:1058F00098F39923C9F35523B1F3951B550BBB2797
:10590000AA2762177307840738F09F5F5F4F220F43
:10591000331F441FAA1FA9F333D00E2E3AF0E0E83C
:1059200030D091505040E695001CCAF729D0FE2F88
:1059300027D0660F771F881FBB1F2617370748071A
:10594000AB07B0E809F0BB0B802DBF01FF279358D0
:105950005F4F2AF09E3F510568F08DC0D7C05F3F72
:10596000ECF3983EDCF3869577956795B795F795B8
:105970009F5FC9F7880F911D9695879597F90895B0
:10598000E1E0660F771F881FBB1F6217730784074C
:10599000BA0720F0621B730B840BBA0BEE1F88F75B
:1059A000E095089598D088F09F5790F0B92F9927E7
:1059B000B751A0F0D1F0660F771F881F991F1AF01A
:1059C000BA95C9F712C0B13081F09FD0B1E0089507
:1059D0009CC0672F782F8827B85F39F0B93FCCF388
:1059E000869577956795B395D9F73EF49095809510
:1059F000709561957F4F8F4F9F4F0895E89409C030
:105A000097FB3EF490958095709561957F4F8F4FF1
:105A10009F4F9923A9F0F92F96E9BB279395F69507
:105A2000879577956795B795F111F8CFFAF4BB0F85
:105A300011F460FF1BC06F5F7F4F8F4F9F4F16C0E9
:105A4000882311F096E911C0772321F09EE8872F73
:105A5000762F05C0662371F096E8862F70E060E02F
:105A60002AF09A95660F771F881FDAF7880F9695A8
:105A7000879597F9089597F99F6780E870E060E04F
:105A800008959FEF80EC089500240A9416161706D7
:105A900018060906089500240A941216130614061F
:105AA00005060895092E0394000C11F4882352F082
:105AB000BB0F40F4BF2B11F460FF04C06F5F7F4F3A
:105AC0008F4F9F4F089557FD9058440F551F59F021
:105AD0005F3F71F04795880F97FB991F61F09F3FDB
