:100000000C94F6000C94D90A0C9413010C9413016F
:100010000C9413010C94E30A0C9413010C94130137
:100020000C9413010C9413010C9413010C94600BA9
:100030000C9413010C944E150C9413010C941301A1
:100040000C9413010C9413010C9413010C945B0693
:100050000C9413019025EF254126A2261E2D1E2D5E
:100060001E2D1E2D1E2D1E2D1E2D1E2D1E2D1E2D38
:100070001E2D1E2D1E2D1E2D1E2D1E2D1E2D1E2D28
:100080001E2D1E2D05271E2D1E2D1E2D1E2D1F273C
:100090001E2D37271E2D1E2D1E2D1E2D1E2D6727B2
:1000A0007A271E2D8D27A227B727CC27E127F627F1
:1000B0001E2D1E2D0B281928272840289D28CC28C6
:1000C000E0281E2D1E2D1E2D1E2D1E2D1E2D1E2D1B
:1000D0001E2D1E2D15291E2D1E2D1E2D44291E2DB3
:1000E0001E2D1E2D1E2B482B602B8A2B1E2D1E2DE8
:1000F0001E2D1E2D9E2BC12BE42B0B2C1E2D1E2DD9
:100100001E2D1E2D222C932CE32CF92C1E2D1E2D82
:100110001E2D372755286328712880288F286727A8
:100120007A271E2D8D27A227B727CC27E127F62770
:100130001E2D1E2D0B281928272840281E2D1E2D68
:100140001E2D1E2D7A299629B229D629022A2E2A59
:100150001E2D1E2D1E2D1E2D1E2D1E2D602AC52A64
:100160001E2D1E2D1E2B482B602B8A2B1E2D1E2D67
:100170001E2D1E2D1E2D1E2D1E2D1E2D1E2D1E2D27
:100180001E2D1E2D1E2D1E2D1E2D1E2D1E2D1E2D17
:100190001E2D1E2D55286328712880288F281E2D7E
:1001A0001E2D1E2D1E2D1E2D1E2D1E2D1E2D1E2DF7
:1001B0001E2D1E2D0B281928272840281E2D1E2DE8
:1001C0001E2D1E2D7A299629B229D629022A2E2AD9
:1001D0001E2D1E2D1E2D1E2D1E2D1E2D1E2D1E2DC7
:1001E0001E2D1E2D1E2B482B602B8A2B11241FBE6B
:1001F000CFE5D8E0DEBFCDBF10E0A0E6B0E0E8E09C
:10020000F2E602C005900D92A636B107D9F713E0C9
:10021000A6E6B0E001C01D92A535B107E1F70E9446
:1002200015010C9402310C9400000E94270A0E94D0
:10023000220F81E060E00E9444140E945F0F0E9440
:100240003D160E94D0180E94C61B0E94D5200E9415
:10025000F924F3CF562F40E0282F30E0242B352B04
:10026000C90108950197F1F70895E0916700F091B1
:100270006800208181E090E00090660002C0880F55
:10028000991F0A94E2F7282B20830895E0916700D4
:10029000F0916800208181E090E00090660002C04B
:1002A000880F991F0A94E2F780958223808308952E
:1002B0001FB8779BFECF8FB108958FB9779BFECF84
:1002C00008950F931F93DF93CF930F92CDB7DEB7AF
:1002D00088E06FEF0E9430098E010F5F1F4FC80149
:1002E00060E070E040E050E020E030E00E9446092D
:1002F000898161E00E940209909368008093670001
:100300008981982F97709093660061E00E94F807AA
:1003100089E06FEF0E943009C80160E070E040E0C2
:1003200050E020E030E00E944609898161E00E94AF
:10033000F8078AE06FEF0E943009C80160E070E0C2
:1003400040E050E020E030E00E944609898160E012
:100350000E94F8078BE06FEF0E943009C80160E04F
:1003600070E040E050E020E030E00E9446098981E2
:1003700061E00E94F807E0916700F0916800208139
:1003800081E090E00090660002C0880F991F0A94F7
:10039000E2F7282B208381E58DB90F90CF91DF9173
:1003A0001F910F9108950F931F93CF93DF93EC014B
:1003B0000E94460180EA0E945D010E945801182FA8
:1003C0000E9458010E943501212F30E0C901847537
:1003D0009070892B11F404E00CC0C90184719070F5
:1003E000892B11F402E005C012FF02C080E037C083
:1003F00000E00E944601802F80640E945D01888198
:100400000E945D0189810E945D018A810E945D01D7
:100410008B810E945D018C81893010F088E08C8393
:100420008C810E945D0110E007C0FE01E10FF11D0B
:1004300085810E945D011F5F8C811817B0F30E94B7
:10044000350100000E944601002311F481E802C03A
:10045000802F80680E945D010E94350181E0DF915C
:10046000CF911F910F9108951F93CF93DF93EC01CC
:100470000E94460180EB0E945D010E945801182FE6
:100480000E9458010E94350116FF0FC0809169003B
:10049000882311F017FD09C00E94460180E90E94DF
:1004A0005D0181E0809369000BC017FD02C080E010
:1004B00026C00E94460184E90E945D0110926900F5
:1004C0000E94580188830E94580189830E94580124
:1004D0008A830E9458018B830E9458018F708C83FD
:1004E00010E007C00E945801FE01E10FF11D858355
:1004F0001F5F8C811817B0F30E94350181E0DF91F6
:10050000CF911F910895DF92EF92FF920F931F9367
:10051000182FF62EE42ED22E0E94460182E00E9471
:100520005D01812F90E0133008F00196880F880F4D
:100530000E945D018F2D0E945D018E2D0E945D0144
:100540008D2D0E945D01802F0E945D010E9435016A
:100550001F910F91FF90EF90DF900895DF92EF923F
:10056000FF920F931F93182FF62EE42ED22E0E9487
:10057000460182E00E945D01112311F480E201C076
:1005800084E20E945D018F2D0E945D018E2D0E94EC
:100590005D018D2D0E945D01802F0E945D010E94F2
:1005A00035011F910F91FF90EF90DF900895FF921A
:1005B0000F931F93182F062FF42E0E94460185E0FB
:1005C0000E945D01812F0E945D01802F0E945D01CC
:1005D0008F2D0E945D010E9435011F910F91FF90A8
:1005E00008958FE060EE40E00E94D70208950F93D7
:1005F0001F93182F062F0E94460182E00E945D0182
:10060000812F0E945D01802F0E945D010E943501B3
:100610001F910F9108951F93182F0E94460183E0A8
:100620000E945D01812F0E945D010E945801182FD8
:100630000E943501812F1F9108950E94460180EC90
:100640000E945D010E9435010895109269000E9488
:1006500061010E941D038AE261E30E94F70289E2C0
:1006600061EB0E94F70288E265E00E94F70280E6F3
:1006700064E40E94F70280E760E40E94F7020895B4
:10068000E0917400F0917500408181E090E09C0160
:1006900000906A0002C0220F331F0A94E2F7422B37
:1006A00040830000E0917400F0917500208100907B
:1006B0006A0002C0880F991F0A94E2F7809582238E
:1006C00080830895EF92FF921F93CF93DF93E09181
:1006D0007200F091730040812FE030E0C90100907A
:1006E000770002C0880F991F0A94E2F7809584234F
:1006F0008083E0917000F09171008081009077001C
:1007000002C0220F331F0A94E2F72095282320838A
:10071000E0916E00F0916F00208183E090E0009006
:10072000760002C0880F991F0A94E2F78095822311
:100730008083E0916E00F0916F00208181E090E075
:100740000090760002C0880F991F0A94E2F7282BC8
:100750002083C1E0D0E088E0E82EF12CE091740025
:10076000F09175002081CE0100906A0002C0880FD0
:10077000991F0A94E2F7282B20830000E0916C0077
:10078000F0916D001081C7010090770002C0880FC2
:10079000991F0A94E2F71823E0917400F091750014
:1007A0002081CE0100906A0002C0880F991F0A9430
:1007B000E2F78095822380830E944003112371F623
:1007C000E0917200F091730020818FE090E0009042
:1007D000770002C0880F991F0A94E2F7282B208324
:1007E000DF91CF911F91FF90EF900895EF92FF92CC
:1007F0000F931F93E0917000F091710090810FE0D2
:1008000010E098010090770002C0220F331F0A9475
:10081000E2F7209529232083E0917000F091710088
:100820004081E82EFF249701207F3070509177009F
:1008300084E090E0851B910902C0359527958A9543
:10084000E2F7422B40830E944003E0917000F09158
:10085000710080810090770002C0000F111F0A9480
:10086000E2F7009508230083E0917000F091710099
:1008700080819FE0E922FF240090770002C0EE0C07
:10088000FF1C0A94E2F78E2980830E9440031F9187
:100890000F91FF90EF9008951F93182F8823B1F0C8
:1008A0000E946203E0916E00F0916F00208183E06E
:1008B00090E00090760002C0880F991F0A94E2F73A
:1008C000809582238083812F0E94F6031F910895D3
:1008D0001F93182F803A31F10E946203E0916E005D
:1008E000F0916F00208183E090E00090760002C0DC
:1008F000880F991F0A94E2F7809582238083E09104
:100900006E00F0916F00208182E090E00090760010
:1009100002C0880F991F0A94E2F7282B2083812FA9
:100920000E94F6031F910895E0917800F0917900FC
:1009300030916B00882359F0208181E090E002C063
:10094000880F991F3A95E2F7282B2083089520817C
:1009500081E090E002C0880F991F3A95E2F78095F8
:100960008223808308951F93CF93DF93EC0111E0DE
:1009700007C0FE01E10FF11D80810E9468041F5F26
:1009800088818117B0F7DF91CF911F910895CF92A1
:10099000DF92EF92FF920F931F93DF93CF9300D0DC
:1009A000CDB7DEB780E360EF0E943009082F10E07A
:1009B00092E0C92ED12CCC0EDD1E7E010894E11CE4
:1009C000F11C5DC0C701B60140E050E020E030E01E
:1009D0000E9446098A81882359F0883029F188309D
:1009E00008F448C08A3069F18B3009F043C036C042
:1009F000898161E00E9402099093710080937000E8
:100A0000898160E00E94020990936D0080936C00E0
:100A100089810E94EA089093730080937200898113
:100A200087708093770026C0898161E00E94020967
:100A300090936F0080936E00898187708093760019
:100A400019C0898161E00E9402099093750080932A
:100A500074008981877080936A000CC0898161E08D
:100A60000E940209909379008093780089818770B1
:100A700080936B00898161E00E94F8071F5F101767
:100A800008F4A0CF002309F473C010E080EE9EE2CA
:100A90000E9432011F5F1A30C9F7E0916E00F09199
:100AA0006F00408123E030E0C9010090760002C071
:100AB000880F991F0A94E2F7809584238083E09140
:100AC0007000F091710040818FE090E0009077001D
:100AD00002C0880F991F0A94E2F7809584238083CF
:100AE000E0917000F091710080810090770002C069
:100AF000220F331F0A94E2F7822B80830E94400367
:100B000080E797E10E9432010E9440038AE590E06D
:100B10000E9432010E9440038AE590E00E94320167
:100B2000E0917000F0917100208181E090E00090F0
:100B3000770002C0880F991F0A94E2F780958223FC
:100B400080830E94400389E20E944C0480E50E9459
:100B50004C048CE60E944C048CE70E944C048CE010
:100B60000E944C0481E00E944C0486E00E944C04E8
:100B70000F900F90CF91DF911F910F91FF90EF9009
:100B8000DF90CF90089586B78170089580917F009F
:100B9000089506B600FCFDCF80917A0008958093F9
:100BA0007D000895E0918100F0918200E80FF11D31
:100BB00060830895462FDC0120E014C080917D0001
:100BC000E0918100F0918200E80FF11D8D9180830A
:100BD00080917D00609180008F5F0E94A32F909391
:100BE0007D002F5F241750F3089581E080937C00EF
:100BF000089506B600FCFDCF882311F080937E0097
:100C000010927F0088EF80937A0085EA86BF08956E
:100C1000CF93DF93EC0106B600FCFDCF60937E001E
:100C2000E0918100F091820088818083E0918100D1
:100C3000F0918200808180FD13C091E00DC0E92F0A
:100C4000F0E0A0918100B0918200AE0FBF1FEC0FC9
:100C5000FD1F80818C939F5F80917E00981778F3B1
:100C600010927F0088EF80937A0085EA86BFDF913B
:100C7000CF910895E0918100F0918200E80FF11D7D
:100C8000808108959C0106B600FCFDCF80917F0015
:100C9000882371F0D90190E009C0E0918100F091C2
:100CA0008200E90FF11D80818D939F5F9617A8F355
:100CB00080917F0008951F920F920FB60F9211241A
:100CC0002F933F938F939F93EF93FF9381B188323C
:100CD000D1F0893240F48031A1F08831A1F0883020
:100CE00009F059C00EC08034B9F1813420F4883342
:100CF00009F051C04EC0803511F1883509F04BC064
:100D000039C010927B0090917B0080917E009817F3
:100D100060F4E0918100F0918200E90FF11D808183
:100D200083B99F5F90937B0023C081E080937F0015
:100D300080917C00882359F110927C0031C0809111
:100D40007B0093B1E0918100F0918200E80FF11DEA
:100D500090838F5F80937B0020917B0030E08091B7
:100D60007E0090E001972817390714F485EC17C02E
:100D700085E815C093B180917B00E0918100F091EE
:100D80008200E80FF11D908381E080937F0084E969
:100D900006C085EA04C081B180937A0084E086BFF2
:100DA000FF91EF919F918F913F912F910F900FBEE7
:100DB0000F901F90189580918100909182000E9461
:100DC000833008958093800090E00E94D62F809316
:100DD00081009093820010927D0010927E0010920C
:100DE0007B0010927C0010927F0088EF80937A0045
:100DF0008CE080B98FEF83B984E086BF08950F93AC
:100E00001F93082FF8948AB3802B8ABB8BB3102FC3
:100E1000109581238BBB83E995E00E9432018AB350
:100E200081238ABB8BB318231BBB85EC90E00E9407
:100E3000320119B381EC94E00E943201789410954C
:100E4000802F81231F910F9108950F931F93082FD7
:100E5000F8948AB3802B8ABB8BB3102F1095812313
:100E60008BBB85E090E00E9432018AB381238ABB6C
:100E70008BB318231BBB8EE090E00E94320119B3A4
:100E800088E990E00E9432017894802F81231F919D
:100E90000F910895FF920F931F93F82E10E000E03A
:100EA00016958F2D0E942507811110680F5F08305D
:100EB000B9F7812F1F910F91FF9008951F93182F5D
:100EC000F8948AB3812B8ABB8BB3109581238BBB9B
:100ED00087EA90E00E9432018AB381238ABB8BB3F8
:100EE00018231BBB81E190E00E94320178941F918E
:100EF00008951F93182FF8948AB3812B8ABB8BB364
:100F0000109581238BBB85E090E00E9432018AB36B
:100F100081238ABB8BB318231BBB83EB90E00E9419
:100F2000320178941F910895FF920F931F93082F19
:100F3000F62E10E000FF04C08F2D0E94790703C039
:100F40008F2D0E945E071F5F183011F00695F2CFBB
:100F50001F910F91FF900895682F8CEC0E949407C9
:100F600008959AB3809598239ABB9BB398239BBB13
:100F700083E995E00E9432010895809184000895EC
:100F8000809384000895909386008093850008954F
:100F900080938700089590E09C012F71307085FF49
:100FA00009C0F901EE0FFF1FE20FF31FEC57FF4FCF
:100FB00066830895F901EE0FFF1FE20FF31FEC5750
:100FC000FF4F64834583089590E0FC01EE0FFF1FFF
:100FD000E80FF91FEC57FF4F8481089590E0FC0162
:100FE000EE0FFF1FE80FF91FEC57FF4F85810895A3
:100FF000482F60FD3DC0883068F43AB3282F277031
:1010000081E090E002C0880F991F2A95E2F7809551
:1010100083233BC0803168F437B3282F277081E0E9
:1010200090E002C0880F991F2A95E2F780958323EC
:101030003BC0883168F434B3282F277081E090E0FA
:1010400002C0880F991F2A95E2F7809583233BC041
:10105000803208F048C031B3282F277081E090E03B
:1010600002C0880F991F2A95E2F7809583233AC022
:10107000883068F48AB3942F977021E030E002C082
:10108000220F331F9A95E2F7822B8ABB2CC0803146
:1010900068F487B3942F977021E030E002C0220FEC
:1010A000331F9A95E2F7822B87BB1DC0883168F405
:1010B00084B3942F977021E030E002C0220F331FD9
:1010C0009A95E2F7822B84BB0EC0803260F481B324
:1010D000942F977021E030E002C0220F331F9A95C1
:1010E000E2F7822B81BB61FF39C0483060F42BB33B
:1010F000477081E090E002C0880F991F4A95E2F79F
:10110000282B2BBB0895403160F428B3477081E051
:1011100090E002C0880F991F4A95E2F7282B28BB60
:101120000895483160F425B3477081E090E002C033
:10113000880F991F4A95E2F7282B25BB0895403266
:1011400008F047C022B3477081E090E002C0880FEA
:10115000991F4A95E2F7282B22BB0895483068F47E
:101160002BB3477081E090E002C0880F991F4A9529
:10117000E2F7809582238BBB0895403168F428B351
:10118000477081E090E002C0880F991F4A95E2F70E
:101190008095822388BB0895483168F425B3477051
:1011A00081E090E002C0880F991F4A95E2F7809590
:1011B000822385BB0895403260F422B3477081E0FA
:1011C00090E002C0880F991F4A95E2F7809582232C
:1011D00082BB0895883018F42AE330E011C08031D2
:1011E00018F427E330E00CC0883118F424E330E031
:1011F00007C0803218F421E330E002C020E030E084
:10120000C90108956623A1F4883018F429E330E079
:1012100025C0803118F426E330E020C0883118F46E
:1012200023E330E01BC08032B8F420E330E016C086
:10123000883018F42BE330E011C0803118F428E333
:1012400030E00CC0883118F425E330E007C080326C
:1012500018F422E330E002C020E030E0C901089534
:10126000282F1092E8008093E90060938300E8E85B
:10127000F0E090E080818623821709F49F5F339627
:1012800080E0E83EF807B1F7892F08950F931F9388
:10129000CF93DF93DC01EB01BA0189015091830008
:1012A0004091E9002091E800322F3F5F822F90E0CB
:1012B000FC01EE0FFF1FE80FF91FEC57FF4F848171
:1012C0008523841711F0232FEFCF2093E8002C9370
:1012D000209781F02091830020958091E80090E094
:1012E000FC01EE0FFF1FE80FF91FEC57FF4F848141
:1012F000282328836115710569F08091E80090E04A
:10130000FC01EE0FFF1FE80FF91FEC57FF4F85811F
:10131000FB0180830115110569F08091E80090E0E0
:10132000FC01EE0FFF1FE80FF91FEC57FF4F8681FE
:10133000F80180838091E8008F5F8093E800DF915F
:10134000CF911F910F910895982F87FD1EC0A8E897
:10135000B0E040E083E0989F900111242A0F3B1FEA
:10136000892F90E0FC01EE0FFF1FE80FF91FEA0F35
:10137000FB1F07C080819C918927862309F44F5F5A
:101380001396A217B307B1F703C00E949020482F0D
:10139000842F0895282FE9E8F0E090E001C09F5FD6
:1013A0008081821721F033969032C9F702C0892FCD
:1013B0000895822F0E947F20982FF9CF84E890E033
:1013C00060E070E044E650E00E94DB300E94C70B12
:1013D00064E670E047E050E00E94DB300E94351484
:1013E0006BE670E042E050E00E94DB300E94C714E0
:1013F0006DE670E04EE050E00E94DB300E94D315B5
:101400006BE770E048E050E00E94DB300E94DA17A2
:1014100063E870E040E550E00E94DB300E94DA1A99
:1014200063ED70E048E550E00E94DB300E94311F20
:101430006BE271E041E550E00E94DB300E946624DF
:101440006CE771E040E051E00E94DB300895F894D1
:101450000E94DE0980918700893DE1F1E8E8F0E033
:1014600080E01082818312828F5F33968032C9F7C9
:1014700080E16CE040E10E94CB0781E16DE041E159
:101480000E94CB078AE166E04AE10E94CB0788E030
:1014900062E048E00E94CB0788E164E048E10E94F6
:1014A000CB0789E165E049E10E94CB078091870085
:1014B000833B31F00E94CA0B0E9438140E94CA1468
:1014C0000E94D6150E94DD170E94DD1A0E94341F6B
:1014D0000E946924089584E890E060E070E044E6AA
:1014E00050E00E94EB300E94C70B64E670E047E0DA
:1014F00050E00E94EB300E9435146BE670E042E051
:1015000050E00E94EB300E94C7146DE670E04EE0A0
:1015100050E00E94EB300E94D3156BE770E048E08A
:1015200050E00E94EB300E94DA1763E870E040E57B
:1015300050E00E94EB300E94DA1A63ED70E048E55B
:1015400050E00E94EB300E94311F6BE271E041E5F8
:1015500050E00E94EB300E9466246CE771E040E0AE
:1015600051E00E94EB30089584E890E063E070E081
:1015700041E050E00E94EB3008950F938093EB0020
:101580006093EC004093ED002093EE000093EF0099
:101590000F9108958091EB0008958091EC000895DB
:1015A0008091ED0008958091EE0008958091EF0004
:1015B00008951F920F920FB60F9211240F900FBE35
:1015C0000F901F9018951F920F920FB60F92112433
:1015D0002F933F934F935F936F937F938F939F933B
:1015E000AF93BF93EF93FF9383E884BD8091EA00AC
:1015F0008F5F8093EA008F3009F051C01092EA00AB
:101600008091EF008F5F8093EF008436D1F51092C8
:10161000EF008091EE008F5F8093EE000E94771BB9
:101620000E9492248091EE008C3359F51092EE00C6
:101630008091ED008F5F8093ED000E949224809155
:10164000ED008C33F1F41092ED008091EC008F5F8F
:101650008093EC000E9492248091EC00883189F400
:101660001092EC008091EB008F5F8093EB000E9462
:1016700092248091EB00873021F41092EB000E94BD
:1016800092240E94E30B0E94EB0B0E946D140E94B7
:10169000F6150E9481180E94C8200E948C24FF9198
:1016A000EF91BF91AF919F918F917F916F915F91DA
:1016B0004F913F912F910F900FBE0F901F90189553
:1016C0001F920F920FB60F9211242F933F934F93B7
:1016D0005F936F937F938F939F93AF93BF93EF939A
:1016E000FF938EEF82BF0E94F914FF91EF91BF919B
:1016F000AF919F918F917F916F915F914F913F91AA
:101700002F910F900FBE0F901F901895EF92FF92A0
:101710000F931F93DF93CF930F92CDB7DEB786E081
:101720006FEF0E943009082F10E07E010894E11C41
:10173000F11C0EC0C70160E070E040E050E020E026
:1017400030E00E944609898162E00E94F8071F5F2D
:10175000101780F31092EB001092EC001092ED0045
:101760001092EE001092EF0084E083BF99B7916071
:1017700099BF85BD89B7806489BF1092EA000F9038
:10178000CF91DF911F910F91FF90EF90089589E025
:1017900091E008951092090180E090E890930B0188
:1017A00080930A018FEF80930C0184E080930D01F8
:1017B00010920E0110920F01089580910901089571
:1017C00080910E0108958091FA00882319F08150CC
:1017D0008093FA0008958091F200882319F08150D7
:1017E0008093F2000895282F30E0C901807F907027
:1017F000803F910519F080E090E0089540E02F705F
:1018000081E090E002C0880F991F2A95E2F72091AD
:101810000A0130910B0182239323892B09F441E0C3
:1018200081E04827842F0895282F40910801509186
:101830000701451701F1842F90E033E0880F991FCD
:101840003A95E1F7E091F500F091F600E80FF91F05
:101850002193DB0187E00D9001928150E1F75F3F1A
:1018600011F44093070160910D01842F8F5F0E9456
:10187000A32F9093080108958091F5009091F600B0
:101880000E948330089587FD07C0282F30E020771D
:1018900030702037310519F40E940C15089520315D
:1018A000310511F40E940C150895BF92CF92DF927A
:1018B000EF92FF920F931F93DF93CF93CDB7DEB7D5
:1018C00027970FB6F894DEBF0FBECDBFB82EE22E1D
:1018D0006801809109016817D1F089836A8398E0D3
:1018E0009B834C831D821E822F8381E08093F000B6
:1018F000B092F1009093F2006093F3004093F400F3
:101900008FE7BE016F5F7F4F0E94430C77C0842F2B
:101910000E94CA09F82E8FEFF81609F460C0F7FC90
:101920004FC08F2D0E94E40787FD03C000E010E048
:1019300008C08F2D60E80E94A4090E94FA15082FA4
:1019400010E08F2D0E94E407887F803299F48F2D5C
:1019500068EF0E94A4096E2D0E9487188C01C114A3
:10196000D10441F4EFEFBE1629F054E01695079527
:101970005A95E1F78F2D0E94E407887F883299F409
:101980008F2D68EF0E94A4096E2D0E947D1B8C0193
:10199000C114D10441F4FFEFBF1629F044E01695BD
:1019A00007954A95E1F78F2D0E94E407807F8031EB
:1019B000C1F48F2D60EF0E94A4090E94721E0CC01A
:1019C0008F2D8F770E943720803C49F48F2D6FEF49
:1019D0000E94A4090E94B520082F10E002C000E078
:1019E00010E0C114D10429F48B2D602F0E948124B2
:1019F00005C089E0F60182830483158327960FB61C
:101A0000F894DEBF0FBECDBFCF91DF911F910F9134
:101A1000FF90EF90DF90CF90BF900895DF93CF932A
:101A2000CDB7DEB727970FB6F894DEBF0FBECDBF98
:101A300090910901998390910C019A839FE79B8370
:101A40008C836D834E832F838FE7BE016F5F7F4F43
:101A50000E94430C27960FB6F894DEBF0FBECDBF91
:101A6000CF91DF910895DF93CF93CDB7DEB727975E
:101A70000FB6F894DEBF0FBECDBF909109019983D8
:101A80009A8392E09B838C836D834E835F838FE781
:101A9000BE016F5F7F4F0E94430C27960FB6F894EC
:101AA000DEBF0FBECDBFCF91DF910895BF92CF9221
:101AB000DF92EF92FF920F931F93DF93CF93CDB7F7
:101AC000DEB727970FB6F894DEBF0FBECDBF982FB5
:101AD000B62ED42E7901882319F4662321F4A2C0EE
:101AE0008F3F09F49FC020910901921729F12983A2
:101AF0009A831B82BC82DD82EE82FF8281E080932A
:101B0000F8000093F900ABEFB0E0FE01319687E0FA
:101B100001900D928150E1F79093FB002093FC001F
:101B20001092FD0088E08093FA008FE7BE016F5F9E
:101B30007F4F0E94430CC1C08B2D0E94CA09C82E42
:101B40000E94E407887F803281F48C2D68EF0E9428
:101B5000A409982F0330110518F081E0F801828361
:101B6000892F6D2DA7010E9458188C2D0E94E40723
:101B7000887F883281F48C2D68EF0E94A409982F09
:101B80000330110518F081E0F8018283892F6D2D53
:101B9000A7010E944F1B8D2D85568B3140F0FEE82A
:101BA000FD1528F085E6E81689E1F80638F00330DF
:101BB0001105C0F182E0F80182837FC0FFEFCF16EC
:101BC00089F1C7FC35C08C2D0E94E407807F8031ED
:101BD00011F58C2D60EF0E94A409F82E0330110539
:101BE00018F081E0F8018283F0E8DF1669F48F2DA8
:101BF0000E94721E882319F08F2D60E002C08F2D85
:101C000064E60E94891E59C084E68D1508F455C00B
:101C10008F2D6D2DF6CF8C2D0E94E407807C8034B3
:101C200009F44BC08B2D6D2DA7010E94330D45C0CB
:101C30006FE7F62EFC208F2D0E943720803CD1F5D7
:101C40008C2D6FEF0E94A409982F0330110518F016
:101C500081E0F8018283F6E8DF16C1F0FD1538F067
:101C600080E8D81659F0E5E8DE16E1F40BC0F7E895
:101C7000DF1681F088E8D816A9F410C0892F0E94D9
:101C8000F4231BC0892F0E94AF2317C0892F0E9405
:101C90008D2313C0892F0E94BD210FC0892F0E9460
:101CA000D1230BC0E4E6ED1540F0892F6D2D0E9485
:101CB0007F2203C08F2D0E94372027960FB6F894FD
:101CC000DEBF0FBECDBFCF91DF911F910F91FF906F
:101CD000EF90DF90CF90BF900895DF93CF93CDB773
:101CE000DEB727970FB6F894DEBF0FBECDBF482FE3
:101CF0008091090189832FEF2A8328E12B831C829D
:101D00004D839E831F82692F50E020E00E9498241B
:101D10008FE7BE016F5F7F4F0E94430C27960FB67F
:101D2000F894DEBF0FBECDBFCF91DF910895DF9352
:101D3000CF93CDB7DEB727970FB6F894DEBF0FBEAF
:101D4000CDBF8091090189838FEF8A838BE78B83D5
:101D50001C821D821E821F828FE7BE016F5F7F4F34
:101D60000E94430C27960FB6F894DEBF0FBECDBF7E
:101D7000CF91DF9108951F93DF93CF93CDB7DEB757
:101D800027970FB6F894DEBF0FBECDBF182F9091E6
:101D900009018823F9F099838A8380E18B836C831E
:101DA0004D835E832F83191731F08FE7BE016F5F7C
:101DB0007F4F0E94430C80910901181729F0812F51
:101DC0000E94F30B882331F080E0BE016F5F7F4FEC
:101DD0000E94140C27960FB6F894DEBF0FBECDBF3D
:101DE000CF91DF911F91089583E40E94E2068091D4
:101DF0000D0190E073E0880F991F7A95E1F70E943A
:101E0000D62F8093F5009093F6008FEF8093070113
:101E100010920801109206011092F8001092FA0038
:101E2000EBEFF0E0119281E0E230F807D9F7109281
:101E3000F0001092F1001092F2001092F300109254
:101E4000F4000895F8940E94DB068091F5009091CB
:101E5000F6000E9483300E940E160E94C9180E944C
:101E6000BF1B0E94821E0E94CE200E94F22419BE37
:101E700083E40E94E2060E94860B0E94F40E0E94F8
:101E80008B140E94EC140E9447170E94631A0E9450
:101E90009D1D0E94101E0E94CC1E0E9414240E94B0
:101EA0003A2D78940E94970E089580E00E94C8070A
:101EB0000E94B40A0E94270A0E94220F0895CF921E
:101EC000DF92EF92FF920F931F93DF93CF93CDB7E3
:101ED000DEB72E970FB6F894DEBF0FBECDBF809150
:101EE00007018F3F09F485C490E023E0880F991F14
:101EF0002A95E1F7E090F500F090F600E80EF91E63
:101F000080910E01882369F0D70112969C918091EF
:101F10000901981731F0F70181918068BF010E9493
:101F2000430CF701928180910901981731F0892FB4
:101F30000E94F30B882309F44CC4D70113968C91AB
:101F4000282F30E0837809F092C3DE011196F70163
:101F5000319687E001900D928150E1F7F70183817E
:101F60008C3309F437C18D33A8F4803109F44BC0A8
:101F7000813130F4882321F1883009F014C337C04F
:101F80008C3109F462C0883309F4D4C0883109F077
:101F90000AC34DC0803609F4B9C2813638F48034A2
:101FA00009F46DC18C3409F0FEC271C1883709F49F
:101FB000C6C28C3709F4D8C2843609F0F4C2AFC265
:101FC000D70117963C91179720E016968C9116979B
:101FD000280F311D8091090114966C911497159664
:101FE0004C918E010F5F1F4F0E94560DDCC280E0A6
:101FF00060910901F701448127818E010F5F1F4F16
:102000000E94550CD0C2D70111961C9111971496BD
:102010000C91149715968C91159716966C910E94B9
:102020002A01AC01812F602FF70127810BC0D70156
:1020300015964C91159711968C91119716966C9157
:1020400050E020E00E949824AEC2F7016481262F60
:1020500030E0C9018E7F9070803A910521F0883A76
:10206000910509F065C020FF63C06E7F80E00E948B
:10207000D20581E0D70116966C910E94D20582E0CC
:10208000F70165810E94D2050E94F50583E00E9458
:10209000F9050E94C3058823E1F7D70114966C91D6
:1020A0000E94D205F70187818F5F0E94F9050E9487
:1020B000C3058823E1F7809109018887D70111962C
:1020C0008C9189878DE18A8701E088E0C82ED12C28
:1020D000CC0EDD1E27C0802F0E943A068B87802FF2
:1020E0008F5F0E943A068C87102F1D5F802F8E5FB6
:1020F0000E943A068D870C5F812F0E943A068E87D8
:102100008091070190E013E0880F991F1A95E1F77D
:10211000E091F500F091F600E80FF91F8081B6011B
:102120000E94430CF70187818017A8F68DE13AC21F
:102130008EE138C2D70114968C91813081F08130C4
:1021400020F0803109F02FC21AC080910601882347
:10215000A1F4F70185818093060189E323C2909160
:102160000601992351F089E38B83903119F480E0C3
:102170000E94C0071092060116C28AE313C2809122
:102180000601803119F0803209F00DC280E0D701DC
:1021900015966C910E94D20581E0F70167810E943B
:1021A000D20582E0D70116966C910E94D20583E099
:1021B0000E94CF051092F700F701848180930201FD
:1021C00085818093030186818093040187818093B8
:1021D0000501E9C180910601803119F0803209F0D2
:1021E000E2C1D70114968C91149790910201890F46
:1021F0008093020115968C91159790910301890F98
:102200008093030116968C91169790910401890F83
:102210008093040117962C9180910501280F20933B
:1022200005019091F700903198F48091060180317A
:1022300021F0983068F4803259F4C701049664E0C4
:102240000E94DA058091F7008F5F8093F700ABC1A1
:102250008091030190910201892B90910401892BB7
:10226000822B11F08EE39EC180910601803111F422
:1022700083E401C083E20E94F9058DE393C1F70175
:102280008481658146810E94CB0781E48BC1D7019F
:1022900014968C918F3009F458C08031A0F48830A6
:1022A000D9F1893040F4863061F1873080F584308F
:1022B00009F098C021C08B30A9F18D30E1F189304F
:1022C00009F090C02CC08C3109F45FC08D3150F4FE
:1022D000883109F44BC08B3109F44CC0803109F0CE
:1022E00081C03CC0803209F469C0803609F476C0F0
:1022F0008E3109F077C050C0F70185810E94C80770
:1023000071C0D70115968C9180930C016BC0F701B9
:10231000858180930F0166C00E946B0A63C00E9492
:10232000DE0960C0D70115968C91159716966C91B1
:102330000E94E61457C0F701858166810E942A0138
:1023400090930B0180930A014DC0D70115968C9193
:10235000159716966C910E94E01444C0F701858190
:1023600066810E942A010E943F143CC00E94BD0762
:102370008D8338C0D70115968C91159716966C9160
:102380000E942A010E94C3072DC082E08D8385E050
:102390008E838DE08F8326C0F7012581220F220FC7
:1023A000220F8DE09FE2A2E0B0E004C0B595A795B2
:1023B000979587952A95D2F78E8314C0D7011596E5
:1023C0001C91159716968C91169717966C910E94F2
:1023D0002A01BC01812F0E94ED1504C0F7018581FF
:1023E00080930D01D70114968C91807E803409F082
:1023F00040C010E0812F0E94EE07F70195818917F8
:1024000019F01F5F1032B1F7012F0770D701149632
:102410009C911497892F807F8034D1F4892F8F70FD
:10242000182F169580FD0DC016968C91169717964D
:102430006C910E942A01AC01802F612F0E9402182A
:1024400007C0802F612FF701468127810E941B184A
:10245000D70114968C911497803559F416968C9167
:10246000169717966C910E942A01BC01802F0E943A
:10247000F117F7018481807E803809F045C010E0B3
:10248000812F0E94EE07D70115969C91891719F0AC
:102490001F5F1032A9F7012F0770F7019481892F70
:1024A000807F8038D1F4892F8F70182F169580FD8A
:1024B0000AC0868167810E942A01AC01802F612FAA
:1024C0000E940F1B0AC0802F612FD70116964C91D6
:1024D000169717962C910E94271BF701848180394B
:1024E00041F4868167810E942A01BC01802F0E94ED
:1024F000F21AD70114968C911497813929F4802F00
:1025000016966C910E94011B8DE44CC0F7018481EA
:102510006581468127810E94411F81E643C0D70122
:1025200017968C918F3F19F40E94692406C0F70119
:102530008481658146810E94752485E633C0D70178
:1025400017966C911797862F877066956695669596
:1025500016964C91169715962C91159714960C91EA
:102560000E94BD0A89E71EC0EDEFFFE7E491D701A5
:1025700015968C9115978E17B1F4EEEFFFE7E49165
:1025800016968C9116978E1771F4EFEFFFE7E49192
:1025900017968C9117978E1731F414968C9180931F
:1025A00009018DE78B83809109018983F70181817E
:1025B0008A838B8190E083709070892BA1F0809149
:1025C000070190E0B3E0880F991FBA95E1F7E09119
:1025D000F500F091F600E80FF91F8081BE016F5FF2
:1025E0007F4F0E94430CD70113968C9113978C3424
:1025F00009F0EFC014968C91853019F1863040F4C3
:10260000823089F08330D1F0813009F0E2C008C017
:102610008C3011F18E3029F18A3009F0DAC016C001
:102620000E94220FD6C0F89428E088E190E00FB60F
:10263000F894A89581BD0FBE21BDFFCF0E94550F14
:10264000C8C0F701858180930901C3C0D7011596E1
:102650008C9180930E01BDC0F70185810E94DA1430
:10266000B8C0D70115968C910E94DD14B2C080913C
:10267000F000813011F5F70191818091F3009817F6
:10268000E1F42C7F307028303105B9F494818091C9
:10269000F400981791F41092F0001092F2008381E8
:1026A000893059F466816295607F858182958F704B
:1026B000682B8091F1000E9481248091F800813084
:1026C000A1F58091070190E0A3E0880F991FAA95DA
:1026D000E1F7E091F500F091F600E80FF91F838132
:1026E0008C7F83838091070190E0F3E0880F991F2E
:1026F000FA95E1F7A091F500B091F600A80FB91F87
:10270000EBEFF0E021E011969C91119780819813F6
:1027100020E01196319681E0E230F807A1F72130F0
:1027200021F41092F8001092FA00D70113968C91C0
:1027300013978B3709F04DC000910F01013009F05C
:1027400048C080910901898311968C918A8388E71A
:102750008B830E94D60A8C830E94D30A8D830E94A9
:10276000D00A8E830E94CD0A182F0E94CA0A110F28
:10277000110F110F182B1F830093F800ABEFB0E07F
:10278000FE01319687E001900D928150E1F7F7014B
:1027900081818093FB00809109018093FC0089E78F
:1027A0008093FD0088E08093FA008091070190E01B
:1027B000E3E0880F991FEA95E1F7E091F500F091C9
:1027C000F600E80FF91F8081BE016F5F7F4F0E9406
:1027D000430C8091070160910D018F5F0E94A32F30
:1027E0009093070180910801981719F48FEF809357
:1027F00007018091F000813071F48091F20088230C
:1028000051F41092F00081E06091F30048E02091D3
:10281000F4000E940E0D8091F8008130B9F480918F
:10282000FA00882399F41092F8008091F900813021
:1028300021F48AE06AE00E94441481E06091FB0088
:102840004091FD002091FE000E940E0D2E960FB6C5
:10285000F894DEBF0FBECDBFCF91DF911F910F91D6
:10286000FF90EF90DF90CF90089583E191E008957D
:102870008FEF9FEF9093140180931301089590932D
:102880001401809313010895482F21E030E0C9011D
:1028900002C0880F991F6A95E2F7BC01809113016D
:1028A0009091140168237923672BB1F08AE0489F47
:1028B000C00111249093120180931101E091150140
:1028C000F091160180810090100102C0220F331F89
:1028D0000A94E2F7822B80830895809111019091F0
:1028E0001201009791F4E0911501F09116012081F9
:1028F00081E090E00090100102C0880F991F0A94B7
:10290000E2F78095822380830895019790931201C6
:10291000809311010895EF92FF920F931F93DF931D
:10292000CF930F92CDB7DEB782E06FEF0E943009F0
:10293000082F10E07E010894E11CF11C1AC0C701A9
:1029400060E070E040E050E020E030E00E944609A6
:10295000898161E00E94020990931601809315011C
:102960008981982F97709093100161E00E94F80779
:102970001F5F101720F310921201109211010F9097
:10298000CF91DF911F910F91FF90EF90089587E114
:1029900091E008951092170110921801E9E1F1E019
:1029A000119281E0E132F807D9F710821182128288
:1029B0001382089580931701089580931801089554
:1029C000E7E1F1E0E80FF11D62830895E7E1F1E04E
:1029D000E80FF11D6287089510922D0188E98AB9E8
:1029E00086E289B986E880BD10922F0110922E01EF
:1029F000089580912E0190912F01009719F4109263
:102A00002D010895019790932F0180932E01089531
:102A10005D9BFECF8CB90895482F803169F0282F37
:102A200030E0C9018F77409711F047FD05C02F7046
:102A300030702F30310589F590911801933049F4A9
:102A400090911701809119015D9BFECF89278CB968
:102A500007C0809117015D9BFECF8CB9992381F04F
:102A6000FB01AAE1B1E090818C915D9BFECF8927AB
:102A70008CB93196119681E0A132B807A1F708957B
:102A800080E090E0FB01E80FF91FE0815D9BFECF45
:102A9000ECB9019687309105A9F708951F920F921E
:102AA0000FB60F9211242F933F934F935F936F9321
:102AB0007F938F939F93AF93BF93CF93DF93EF93C6
:102AC000FF935F9BFECF20912D01E22FF0E09CB1A0
:102AD000DF01AB5DBE4F9C93222361F4809118010E
:102AE000833089F480911901909125018927809381
:102AF000250109C080911801882329F0E95EFE4F65
:102B0000828189278C93822F8F5F80932D0188305B
:102B100079F59091250180911701981731F580E1A1
:102B200066E271E00E94140CC1E2D1E09881992321
:102B3000B9F020912601291731F0809127018917DA
:102B400011F08F3F69F4809127018F3F21F42917FD
:102B500011F09093270180E166E271E00E940C156C
:102B6000219681E0C532D80709F710922D0108C0DF
:102B7000813031F485E890E090932F0180932E010D
:102B8000FF91EF91DF91CF91BF91AF919F918F9185
:102B90007F916F915F914F913F912F910F900FBE59
:102BA0000F901F90189580E391E0089510923101E5
:102BB000109230018AE090E09093330180933201CB
:102BC00082E390E0909335018093340186E990E0B0
:102BD00090933701809336010895E82FF0E0EE0FCF
:102BE000FF1FE05DFE4F71836083089581E0809355
:102BF0003B010895282F30E0C90153E0880F991F49
:102C00005A95E1F7220F331F820F931FE09139018C
:102C1000F0913A01E80FF91F808108958091390100
:102C200090913A010E94833008959AE0899FC001F3
:102C30001124E0913901F0913A01E80FF91F218147
:102C400020952795222727952083E0913901F0913F
:102C50003A01E80FF91F2081237F262B2083E09182
:102C60003901F0913A01E80FF91F408181856085B3
:102C700050E020E00E94BB0E0895FF920F931F9337
:102C8000CF93DF9380913B01813009F0FAC010E0CF
:102C90007AE0F72E01E0EEC01F9DE0011124E091E3
:102CA0003901F0913A01EC0FFD1F82819381009769
:102CB00019F0019793838283A0913901B0913A0171
:102CC000AC0FBD1F11962C911197422F50E0149616
:102CD000ED91FC911597808190E016960C901697D7
:102CE00002C0959587950A94E2F78427952780FF7F
:102CF0008DC027FF39C02F7711962C93E0913901B1
:102D0000F0913A01EC0FFD1F8781482F50E04C7085
:102D100050704C30510591F48091360190913701FB
:102D200022813381821B930B209134013091350134
:102D30008217930718F0812F68E014C048305105BE
:102D40009CF0809134019091350122813381821B66
:102D5000930B20913201309133018217930720F0B9
:102D6000812F64E00E941516E0913901F0913A013B
:102D7000EC0FFD1F878185FF09C080913201909182
:102D8000330193838283818180688183A09139019B
:102D9000B0913A01AC0FBD1F11968C91119790E044
:102DA0009C012170307080FD06C017968C9117979A
:102DB00080FD08C022C0222301F117968C9117973D
:102DC00081FF1BC01796EC911797E695E695F0E00A
:102DD000E370F070EE0FFF1FE05DFE4F8081918188
:102DE00013969C938E931297E0913901F0913A01DA
:102DF000EC0FFD1F818180688183E0913901F091A2
:102E00003A01EC0FFD1F818180278183A091390158
:102E1000B0913A01AC0FBD1F11964C911197242F20
:102E200030E01496ED91FC911597808190E0169614
:102E30000C90169702C0959587950A94E2F7822721
:102E4000932780FD16C047FF14C012968D919C9168
:102E50001397892B71F44F7711964C93E0913901B8
:102E6000F0913A01EC0FFD1F67816C70812F0E9479
:102E700015161F5F80913801181708F40DCF1092B6
:102E80003B01DF91CF911F910F91FF900895AF9279
:102E9000BF92CF92DF92EF92FF920F931F93DF9337
:102EA000CF930F92CDB7DEB710923B0180E860E878
:102EB0000E943009982F809338018AE0989FC001C2
:102EC00011240E94D62F8093390190933A01DD247A
:102ED000EAE0CE2E5E010894A11CB11C5AC0DC9C15
:102EE000700111246091390170913A016E0D7F1DBE
:102EF000AB01485F5F4F9B01275F3F4FC501695F93
:102F00007F4F0E9446090091390110913A010E0D40
:102F10001F1D898160E00E940209F8019583848366
:102F2000A0913901B0913A01AE0DBF1D3981232F17
:102F3000277016962C9316971496ED91FC91159781
:102F4000808190E002C0959587952A95E2F781707F
:102F500011968C93E0913901F0913A01EE0DFF1D2D
:102F6000818180958795882787958083E0913901B5
:102F7000F0913A01EE0DFF1D13821282878184FDCC
:102F800003C0832F60E002C0832F62E00E94F80735
:102F9000D39480913801D81608F4A1CF0F90CF9127
:102FA000DF911F910F91FF90EF90DF90CF90BF9036
:102FB000AF9008958DE391E00895EDE3F1E088E5A9
:102FC00092E0918380831382128214821582178289
:102FD0001682108611863A9621E0ED38F20789F7BD
:102FE0000895282F30E0F90193E0EE0FFF1F9A9526
:102FF000E1F7220F331FE20FF31FE35CFE4F7183F3
:1030000060830895E62FF0E0EE0FFF1FEE0FFF1F25
:10301000282F30E0C90173E0880F991F7A95E1F7F6
:10302000220F331F820F931FE80FF91FE35CFE4F3F
:10303000538342830895EF92FF920F931F9370E0A2
:103040008B010F5F1F4FEDE3EE2EE1E0FE2E000F30
:10305000111F000F111FE82FF0E0DF0133E0AA0F6E
:10306000BB1F3A95E1F7EE0FFF1FAE0FBF1F0A0F10
:103070001B1F0E0D1F1DF8014083660F771F660F83
:10308000771F482F50E0CA0113E0880F991F1A9547
:10309000E1F7440F551F840F951F680F791FE60E47
:1030A000F71EF70125831F910F91FF90EF90089570
:1030B000282F862F82958F708A3011F5862F90E009
:1030C00083709070892BE1F466956695E62FF0E0A9
:1030D000E370F070EE0FFF1FEE0FFF1F822F90E0E6
:1030E0009C01B3E0220F331FBA95E1F7880F991FB7
:1030F000280F391FE20FF31FE35CFE4F5383428317
:10310000089580918D018F5F80938D010895582FD0
:10311000462F662319F06FEF7FEF12C0282F30E0A3
:10312000C90173E0880F991F7A95E1F7820F931F09
:10313000E0918F01F0919001E80FF91F608171819A
:10314000842F82958F708A3011F5842F90E08370E0
:103150009070892BE1F446954695E42FF0E0E370FA
:10316000F070EE0FFF1FEE0FFF1F852F90E09C0108
:1031700053E0220F331F5A95E1F7880F991F280F4C
:10318000391FE20FF31FE35CFE4F62817381CB01B5
:10319000089580918F01909190010E94833008954D
:1031A000AF92BF92CF92DF92EF92FF920F931F9355
:1031B000CF93DF9380918D018A30D0F010928D01F2
:1031C00050918E0140E020E030E010C0E0918F018E
:1031D000F0919001E20FF31F82819381009719F023
:1031E0000197938382834F5F275F3F4F451770F3AB
:1031F00090913C019F3F09F408C1369906C189E0CE
:10320000989FC0011124E0918F01F0919001E80F87
:10321000F91F1182108224B130E0220F331F220FD8
:10322000331F3183208345B1942F990F990F80E08C
:10323000282B392B31832083EE24FF2499E0A92EFB
:103240000E2D80913C018A9DC0011124C0918F01F7
:10325000D0919001C80FD91F4E81D701AA0FBB1F73
:10326000AA0FBB1F842F90E0FC0113E0EE0FFF1F9D
:103270001A95E1F7880F991FE80FF91FEA0FFB1F56
:10328000E35CFE4FC280D380F7013196EE0FFF1F43
:10329000EE0FFF1F842F90E09C0153E0220F331F9D
:1032A0005A95E1F7880F991F280F391FE20FF31F76
:1032B000E35CFE4FB080842F90E09C01F3E0220F8E
:1032C000331FFA95E1F7880F991F280F391FA20FB6
:1032D000B31FA35CBE4F15961C9112FF2CC08881B2
:1032E00099818C159D0558F410FD09C011604E2D73
:1032F000406488856F8150E020E00E94BB0E809181
:103300003C018A9DC0011124E0918F01F091900150
:10331000E80FF91F96012B0D311D808191818217D5
:10332000930748F010FF07C01E7F80856781A701C3
:1033300020E00E94BB0E13FF38C080913C018A9DA3
:10334000C0011124E0918F01F0919001E80FF91F65
:1033500080819181C816D90658F411FD09C0126008
:10336000402F406C8085678150E020E00E94BB0EBA
:1033700080913C018A9DC0011124E0918F01F09160
:103380009001E80FF91FCB18D10880819181C816F0
:10339000D90658F011FF09C01D7F0068808567813C
:1033A000402F50E020E00E94BB0E80913C0190E055
:1033B0009C0173E0220F331F7A95E1F7280F391F24
:1033C000E0918F01F0919001E20FF31FD701AA0F56
:1033D000BB1FAA0FBB1F868190E09C0153E0220F08
:1033E000331F5A95E1F7880F991F280F391FA20F35
:1033F000B31FA35CBE4F15961C930894E11CF11CEF
:1034000082E0E816F10409F01BCF80913C018F3F68
:1034100011F036994DC0482F4F5F20918E01A09139
:103420008F01B091900111C0842F90E0FC0133E036
:10343000EE0FFF1F3A95E1F7E80FF91FEA0FFB1FA8
:1034400082819381892B21F04F5F421768F32DC051
:1034500029E0429F90011124A20FB31F16968C9170
:10346000169790E0FC0103E0EE0FFF1F0A95E1F7CD
:10347000880F991FE80FF91FE35CFE4F808191814F
:1034800013969C938E93129787B1887F87B997B1D3
:10349000E0918F01F0919001E20FF31F8681982B4C
:1034A00097B9369A40933C0103C08FEF80933C015B
:1034B000DF91CF911F910F91FF90EF90DF90CF9010
:1034C000BF90AF900895AF92BF92CF92DF92EF92EC
:1034D000FF920F931F93DF93CF930F92CDB7DEB779
:1034E00080E268EF0E943009982F80938E0189E076
:1034F000989FC00111240E94D62F80938F01909332
:103500009001DD2459E0C52E5E010894A11CB11C78
:1035100036C0DC9C7001112440918F0150919001C4
:103520004E0D5F1D9A01285F3F4FC50160E070E0BE
:10353000495F5F4F0E94460900918F0110919001F1
:103540000E0D1F1D898160E00E940209F80195831C
:103550008483E0918F01F0919001EE0DFF1D898130
:10356000868311821082E0918F01F0919001EE0D1F
:10357000FF1D1382128260E00E94F807D39490919D
:103580008E01D91630F210928D018FEF80933C019D
:1035900080EC87B9992311F087E886B90F90CF9115
:1035A000DF911F910F91FF90EF90DF90CF90BF9030
:1035B000AF90089586E991E00895E6E9F1E08CE3A3
:1035C00090E0918380831282148213821582168286
:1035D00010861782118612863B9621E0EE3EF20796
:1035E00081F7089590E02BE030E0829FF001839F07
:1035F000F00D929FF00D1124EA56FE4F7183608307
:10360000089590E02BE030E0829FF001839FF00D61
:10361000929FF00D1124EA56FE4F62830895E62F23
:10362000F0E090E0EE0FFF1FEE0FFF1F2BE030E009
:10363000BC01629FC001639F900D729F900D112489
:10364000E80FF91FEA56FE4F5483438308950F9302
:103650001F93CF93DF9390E070E0660F771F660FA4
:10366000771F06E911E0FB013296ABE0B0E0EC0118
:10367000CA9FC001CB9F900DDA9F900D1124E80FD7
:10368000F91FE00FF11F4383680F791F060F171F03
:10369000F8012683DF91CF911F910F910895282F74
:1036A000862F82958F708A3009F5862F90E083707F
:1036B0009070892BD9F466956695E62FF0E0E3705B
:1036C000F07030E0EE0FFF1FEE0FFF1F8BE090E079
:1036D000BC01269FC001279F900D369F900D11249D
:1036E000E80FF91FEA56FE4F5483438308958091F3
:1036F00095018F5F809395010895582F462F66237B
:1037000019F06FEF7FEF12C0282F30E0C901E3E01E
:10371000880F991FEA95E1F7821B930BE0919201C4
:10372000F0919301E80FF91F60817181842F8295D8
:103730008F708A3011F5842F90E083709070892B00
:10374000E1F446954695E42FF0E0E370F070252F04
:1037500030E0EE0FFF1FEE0FFF1F8BE090E0AC019B
:10376000249FC001259F900D349F900D1124E80FD8
:10377000F91FEA56FE4F63817481CB010895809151
:103780009201909193010E94833008952F923F926D
:103790004F925F926F927F928F929F92AF92BF9261
:1037A000CF92DF92EF92FF920F931F93CF93DF930D
:1037B00080919501882309F4ADC1109295014424AC
:1037C0007BE0272E312CA1C127E0429E500111241D
:1037D000E0919201F0919301EA0DFB1D81E090E0F0
:1037E000048002C0880F991F0A94E2F7D82E8281C4
:1037F0009381009719F0019793838283E09192015E
:10380000F0919301EA0DFB1D82819381019709F5E7
:103810008D2D0E94FF068823E1F08D2D0E94AC07BC
:10382000E0919201F0919301EA0DFB1D848190E0FB
:10383000829DF001839DF00D929DF00D1124EA56BA
:10384000FE4F82818150823020F484E46D2D0E94ED
:103850009407E0919201F0919301EA0DFB1D8281A2
:103860009381892B09F050C18D2D0E94FF0688237A
:1038700009F48AC08D2D0E94AC07E0919201F0916D
:103880009301EA0DFB1D848190E0829DF001839DF0
:10389000F00D929DF00D1124EA56FE4F8281813089
:1038A00021F0823009F070C022C08EEB6D2D0E9495
:1038B000940700919201109193010A0D1B1D8D2D0B
:1038C0000E944A07F80180831182E0909201F090F3
:1038D0009301EA0CFB1CF701008111818D2D0E94E0
:1038E0004A07982E882408291929F7014BC08EEB26
:1038F0006D2D0E94940700919201109193010A0D81
:103900001B1D8D2D0E944A07F80180831182E090D3
:103910009201F0909301EA0CFB1CF70100811181E8
:103920008D2D0E944A07782E662406291729F70153
:10393000118300838D2D0E944A078D2D0E944A0716
:103940008D2D0E944A078D2D0E944A07E091920119
:10395000F0919301EA0DFB1D0081118115950795EA
:103960008D2D0E944A0754E0000F111F5A95E1F770
:10397000045F1F4FE0919201F0919301EA0DFB1D4E
:10398000081B11091183008300E010E0F02EC091A4
:103990009201D0919301CA0DDB1D8C8190E0D8017A
:1039A000AA0FBB1FAA0FBB1F829DF001839DF00DC4
:1039B000929DF00D1124AE0FBF1FAA56BE4F139655
:1039C000CD90DC901497C801880F991F880F991F1C
:1039D000E80FF91FE856FE4F53801696EC90E2FE72
:1039E00029C0888199818C159D0564F4E0FC0AC08A
:1039F000F1E0EF2A402F40648E816D8150E020E09D
:103A00000E94BB0EE0919201F0919301EA0DFB1D23
:103A10009601250D311D808191818217930754F005
:103A2000E0FE08C02EEFE22286816581A80120E039
:103A30000E94BB0EE3FE31C0E0919201F091930130
:103A4000EA0DFB1D80819181C816D90664F4E1FC62
:103A50000AC032E0E32A4F2D406C8681658150E038
:103A600020E00E94BB0EE0919201F0919301EA0DDB
:103A7000FB1DC518D10880819181C816D9066CF04C
:103A8000E1FE0BC08DEFE82220E8F22A86816581F5
:103A90004F2D50E020E00E94BB0EA0919201B0910A
:103AA0009301AA0DBB1D14968C91149790E0F80118
:103AB000EE0FFF1FEE0FFF1F9C01229DC001239DF3
:103AC000900D329D900D1124E80FF91FEA56FE4F1C
:103AD000E6820F5F1F4F0230110509F057CF149691
:103AE0008C91149790E02BE030E0829FF001839F4F
:103AF000F00D929FF00D1124EA56FE4F80819181C6
:103B000013969C938E93129743948091910148163B
:103B100008F45ACEDF91CF911F910F91FF90EF9053
:103B2000DF90CF90BF90AF909F908F907F906F90DD
:103B30005F904F903F902F900895AF92BF92CF9299
:103B4000DF92EF92FF920F931F93DF93CF930F9229
:103B5000CDB7DEB788E268EF0E943009982F8093D6
:103B6000910187E0989FC00111240E94D62F809375
:103B700092019093930110929401FF24F7E0EF2EAD
:103B80005E010894A11CB11CE1E0CE2ED12C32C004
:103B9000FE9C800111244091920150919301400FAD
:103BA000511F9A012A5F3F4FC50160E070E04B5FF3
:103BB0005F4F0E944609E0919201F0919301E00F5E
:103BC000F11F2981248311821082E0919201F091EA
:103BD0009301E00FF11F13821282C60102C0880F09
:103BE000991F2A95E2F79C0180919401822B809382
:103BF0009401F39480919101F81650F2109295017E
:103C0000809194010E94B1070F90CF91DF911F9195
:103C10000F91FF90EF90DF90CF90BF90AF900895FD
:103C20007F928F929F92AF92BF92CF92DF92EF924C
:103C3000FF920F931F93DF93CF9300D0CDB7DEB7E2
:103C400080E06EEF0E943009782EEE2432E0832E61
:103C5000912C8C0E9D1E5E010894A11CB11C21E0CC
:103C6000C22ED12C2DC0C501B40140E050E020E0AF
:103C700030E00E944609898161E00E9402098C01BE
:103C8000898197E0F92EF82261E00E94F8078A8185
:103C9000813051F4F8012081C60102C0880F991FBC
:103CA000FA94E2F7282B0AC0F8012081C60102C06D
:103CB000880F991FFA94E2F7809528232083E394D4
:103CC000E71488F20F900F90CF91DF911F910F9121
:103CD000FF90EF90DF90CF90BF90AF909F908F902C
:103CE0007F90089590E09C01220F331F280F391F09
:103CF000220F331FE091EF01F091F001E20FF31F6B
:103D0000808108958091EF019091F0010E948330AD
:103D10000895462F96E0899FB0011124E091EF01AC
:103D2000F091F001E60FF71F40834423A1F0E091EA
:103D3000EF01F091F001E60FF71FA181B2812C9104
:103D400081E090E0038002C0880F991F0A94E2F797
:103D5000282B2C9314C0E091EF01F091F001E60FB5
:103D6000F71FA181B2812C9181E090E0038002C015
:103D7000880F991F0A94E2F7809582238C93E09133
:103D8000EF01F091F001E60FF71F8581648150E0AB
:103D900020E00E94BB0E0895AF92BF92CF92DF92B7
:103DA000EF92FF920F931F93DF93CF930F92CDB7B4
:103DB000DEB780E160EF0E943009982F8093EE011A
:103DC00086E0989FC00111240E94D62F8093EF01B6
:103DD0009093F001DD2456E0C52E5E010894A11CED
:103DE000B11C2FC0DC9C700111244091EF01509157
:103DF000F0014E0D5F1D9A012B5F3F4FC50160E042
:103E000070E04C5F5F4F0E9446090091EF011091F6
:103E1000F0010E0D1F1D898161E00E940209F80169
:103E200092838183E091EF01F091F001EE0DFF1D8F
:103E30008981982F97709383108261E00E94F80720
:103E4000D3948091EE01D81668F20F90CF91DF9154
:103E50001F910F91FF90EF90DF90CF90BF90AF90A8
:103E6000089583EF91E008951092F301E4EFF1E0FB
:103E70001082118212823A9682E0E434F807C1F788
:103E80000895982F542F722F882321F0A4EFB1E0CA
:103E9000E0E028C04091F301242F30E0F901EE0F5B
:103EA000FF1FC901B3E0880F991FBA95E1F7E80F2A
:103EB000F91FED50FE4F6183F901EE0FFF1FEE0F6A
:103EC000FF1FE20FF31FEE0FFF1FEB50FE4F50835B
:103ED00071834F5F4093F3010895EF5F1A96E830C6
:103EE00009F4C4C08C918917C1F7ACC06130B9F036
:103EF000613030F0603811F1613809F0B7C02CC082
:103F0000FC0133E0EE0FFF1F3A95E1F7880F991F90
:103F1000E80FF91FED50FE4F548375830895FC019F
:103F2000B3E0EE0FFF1FBA95E1F7880F991FE80F76
:103F3000F91FED50FE4F568377830895FC0173E01F
:103F4000EE0FFF1F7A95E1F7880F991FE80FF91F11
:103F5000ED50FE4F50870895FC0143E0EE0FFF1F28
:103F60004A95E1F7880F991FE80FF91FED50FE4FB2
:103F700051870895623061F1633030F4662361F057
:103F8000613009F073C016C06430F1F1643070F133
:103F9000653009F06BC047C0FC0123E0EE0FFF1F46
:103FA0002A95E1F7880F991FE80FF91FED50FE4F92
:103FB00054830895FC01A3E0EE0FFF1FAA95E1F7DB
:103FC000880F991FE80FF91FED50FE4F5583089594
:103FD000FC0163E0EE0FFF1F6A95E1F7880F991F60
:103FE000E80FF91FED50FE4F56830895FC0133E0B2
:103FF000EE0FFF1F3A95E1F7880F991FE80FF91FA1
:10400000ED50FE4F57830895FC01B3E0EE0FFF1F04
:10401000BA95E1F7880F991FE80FF91FED50FE4F91
:104020005087718708950196FC0163E0EE0FFF1F32
:104030006A95E1F7880F991FE80FF91FED50FE4FC1
:10404000508308958E2F90E0FC01EE0FFF1FEE0FBE
:10405000FF1FE80FF91FEE0FFF1FEB50FE4FE0812F
:10406000E03C09F443CFE03E09F484CF089590E0AA
:10407000FC01EE0FFF1FEE0FFF1FE80FF91FEE0F01
:10408000FF1FEB50FE4F80810895282F10924402AD
:104090008093F1016093F201E5EFF1E090E080811F
:1040A0008623821709F49F5F3A9682E0E534F80789
:1040B000B1F7892F08954091F2012091F10180918B
:1040C0004402382F3F5F90E0FC01EE0FFF1FEE0F20
:1040D000FF1FE80FF91FEE0FFF1FEB50FE4F80810F
:1040E0008423821711F0832FECCF309344022AE00F
:1040F000329F9001112426513E4FC9010895282F67
:10410000E4EFF1E090E001C09F5F8081821729F029
:104110003A969830C9F78FEF0895892F80680895EF
:104120008F77A5EFB1E040E025E0829F9001112458
:10413000220F331F2A0F3B1F90E0FC01EE0FFF1FE1
:10414000EE0FFF1FE80FF91FEE0FFF1FEA0FFB1F17
:1041500007C080819C918927862309F44F5F1A96B6
:10416000A217B307B1F7842F089590E02BE030E059
:10417000AC01429FC001439F900D529F900D1124AE
:10418000E0914A02F0914B02E80FF91F82810895F5
:10419000809147028F5F80934702089580914A0281
:1041A00090914B020E9483300895DF92EF92FF922C
:1041B0000F931F93CF93DF9380914702843108F4CC
:1041C000D4C01092470281E080934802FF249BE014
:1041D000D92E83E0E82EC2C0FD9CE0011124E091BD
:1041E0004A02F0914B02EC0FFD1F818587FD02C052
:1041F000815081878185882361F40190F081E02DD1
:104200008381648140E020E030E000E010E00E9423
:10421000560DE0914A02F0914B02EC0FFD1F828592
:1042200087FD02C0815082878285882361F40190D6
:10423000F081E02D8581668140E020E030E000E003
:1042400010E00E94560DA0914A02B0914B02AC0FB3
:10425000BD1F14968D919C911597009731F0019791
:1042600015969C938E93149778C018969C911897E6
:10427000892F8370813069F59C7F18969C931897DD
:10428000ED91FC911197808580FF1AC01996EC92F0
:104290008581668140E020E030E000E010E00E948F
:1042A000560DE0914A02F0914B02EC0FFD1F019078
:1042B000F081E02D8381648144E620E030E007C096
:1042C0008381648140E020E030E000E010E00E9463
:1042D000560DA0914A02B0914B02AC0FBD1F18962B
:1042E0009C911897892F8370823069F59C7F18966E
:1042F0009C931897ED91FC911197808580FF1AC0CF
:104300001A96EC928381648140E020E030E000E086
:1043100010E00E94560DE0914A02F0914B02EC0F22
:10432000FD1F0190F081E02D8581668144E620E04B
:1043300030E007C08581668140E020E030E000E0A9
:1043400010E00E94560DE0914A02F0914B02EC0FF2
:10435000FD1F1782168283818283F3948091490224
:10436000F81608F439CF10924802DF91CF911F91CF
:104370000F91FF90EF90DF9008954F925F926F92B0
:104380007F928F929F92AF92BF92CF92DF92EF92E5
:10439000FF920F931F93CF93DF93982F8091480242
:1043A000813009F4ABC08BE0989F200111248090EC
:1043B0004A0290904B02840C951CF40182819381F7
:1043C000C681D7810481158160807180282F30E0FB
:1043D0008917C0F4C01BD10BF301678184E690E01C
:1043E000AC01C49FC001C59F900DD49F900D1124B6
:1043F00070E00E94AF2F260F371F309346022093A4
:1044000045023BC0B901882777FD8095982F0E940F
:10441000B42E5B016C01C01BD10B84E690E0C89FF9
:10442000B001C99F700DD89F700D112480E090E0FD
:104430000E94B22E7B018C01F301678170E0882716
:1044400077FD8095982F0E94B42E26E636E646E842
:104450005FEB0E94402F9B01AC01C801B7010E9495
:10446000192E9B01AC01C601B5010E94B52D0E9419
:10447000812E70934602609345028091450290918F
:10448000460297FF04C010924602109245028091A6
:104490004502909146028536910534F084E690E01D
:1044A000909346028093450280914502F4018283F5
:1044B000E0914A02F0914B02E40DF51D1582148241
:1044C00017821682428143830190F081E02D828120
:1044D000608150E020E00E94BB0EDF91CF911F91E0
:1044E0000F91FF90EF90DF90CF90BF90AF909F9093
:1044F0008F907F906F905F904F900895FFCFCF92F5
:10450000DF92FF920F931F93CF93DF93982FF62E96
:1045100080914802813009F4F7C08BE0989F6001D8
:104520001124C0914A02D0914B02CC0DDD1D88852B
:1045300090E083709070892B09F0DDC02A816217AA
:1045400018F0662319F061C0662389F4E881F981C7
:10455000678170E0882777FD8095982F0E94B42EA0
:1045600020E030E040EA5FE30E94402F20C030E0CE
:10457000261B3109E881F981878190E0289FB001ED
:10458000299F700D389F700D1124882777FD809525
:10459000982F0E94B42E26E636E646E85FE30E9496
:1045A000402F20E030E048EC52E40E94192E0E9497
:1045B000862E7D836C838C819D819F838E838885ED
:1045C0008C7F81608887E881F981808580FF02C0C7
:1045D00083E08987E881F9818581668140E020E078
:1045E00030E000E010E00E94560DE0914A02F091A8
:1045F0004B02EC0DFD1D0190F081E02D8381648163
:1046000044E620E030E00E94560DC0914A02D0916D
:104610004B02CC0DDD1D8A818F1528F044E6F4167F
:1046200009F057C003C054E6F51699F4E881F98102
:10463000678170E0882777FD8095982F0E94B42EBF
:104640002AE939E949E95FE30E94402F0E94862E5A
:1046500014C02F2D30E0281B3109E881F9818781B2
:1046600090E0AC01249FC001259F900D349F900DD8
:10467000112464E670E00E94C32F7D836C838C81DB
:104680009D819F838E8388858C7F82608887E88167
:10469000F981808580FF02C083E08A87E881F98103
:1046A0008381648140E020E030E000E010E00E947F
:1046B000560DE0914A02F0914B02EC0DFD1D019068
:1046C000F081E02D8581668144E620E030E00E94A3
:1046D000560DE0914A02F0914B02EC0DFD1DF38264
:1046E0000190F081E02D828160814F2D50E020E02B
:1046F0000E94BB0E0AC0E881F98182E0608140E03F
:1047000020E00E940E0D01C0FFCFDF91CF911F91DD
:104710000F91FF90DF90CF900895482F282F30E021
:104720008BE090E0BC01269FC001279F900D369F33
:10473000900D1124E0914A02F0914B02E80FF91F0D
:10474000808590E083709070892B21F0842F0E94E7
:10475000BD210895842F64E60E947F220895482F8A
:10476000282F30E08BE090E0BC01269FC001279FFE
:10477000900D369F900D1124E0914A02F0914B026A
:10478000E80FF91F808590E083709070892B21F0ED
:10479000842F0E94BD210895842F60E00E947F2213
:1047A0000895CF93DF93982F8BE0989FE001112419
:1047B000E0914A02F0914B02EC0FFD1F808587FFCC
:1047C00004C0892F0E948D2303C0892F0E94AF232C
:1047D000E0914A02F0914B02EC0FFD1F808580585A
:1047E0008087DF91CF910895282F8BE0289FC0010B
:1047F0001124E0914A02F0914B02E80FF91F8085E5
:1048000090E083709070892B21F0822F0E94BD214F
:1048100008958281882319F0822F60E002C0822FE0
:1048200064E60E947F220895BF92CF92DF92EF92BA
:10483000FF920F931F9380EC6FEF0E944520982FFB
:10484000809349028BE0989FC00111240E94D62FCB
:1048500080934A0290934B02DD242BE0B22ECC24AD
:10486000CA9424C0DB9C7001112400914A0210916B
:104870004B020E0D1F1D0E945B20F8019183808367
:10488000E0914A02F0914B02EE0DFF1D1282E09181
:104890004A02F0914B02EE0DFF1D13821582148225
:1048A000178216821086C186C286D39480914902EF
:1048B000D816C0F210924702109248021F910F9131
:1048C000FF90EF90DF90CF90BF90089580E592E049
:1048D0000895E0E5F2E0108211821282138234968C
:1048E00083E0E035F807B9F70895E82FF0E0EE0F20
:1048F000FF1FEE0FFF1FE60FF11DE05BFD4F408332
:10490000089590E0880F991FE0914D02F0914E02BA
:10491000E80FF91F6083089580914F028F5F8093A5
:104920004F020895809150038F5F80935003089544
:10493000FF920F931F93F82E062F122FCA0134E017
:10494000969587953A95E1F7682F70E03DC0A72FBF
:10495000B0E0FD01EE0FFF1FEE0FFF1FE05BFD4F0C
:1049600080818E7F8C33D9F481818F15C1F49D01B4
:10497000220F331FF901EE0FFF1FEE5AFD4F80810A
:10498000801769F4E0914D02F0914E0217FF04C0C8
:10499000E20FF31F608303C0E20FF31F4083AA0FEF
:1049A000BB1FAA0FBB1FA05BBD4F8C918D3359F469
:1049B000872F90E0880F991FE0914D02F0914E02F1
:1049C000E80FF91F11827F5F80914C02781708F47D
:1049D000BECF1F910F91FF900895811181E0611169
:1049E0008260089580914D0290914E020E94833022
:1049F00008952F923F924F925F926F927F928F9283
:104A00009F92AF92BF92CF92DF92EF92FF920F935D
:104A10001F93CF93DF9380914F028A3010F40C9450
:104A2000272D10924F02882487E8582E00EA202E66
:104A300005E0302E1CE3412EBCE36B2E712C0C9450
:104A40001F2DC82DD0E0FE01EE0FFF1FEE0FFF1F40
:104A5000E05BFD4F5081B180503458F08B2D90E0D9
:104A6000880F991FE0914D02F0914E02E80FF91F57
:104A7000B080FE01EE0FFF1FEE0FFF1FEE5AFD4F3D
:104A8000A08057FF0BC08A2D90E0880F991FE091FE
:104A90004D02F0914E02E80FF91FA080FE01EE0FCB
:104AA000FF1FEE0FFF1FE05BFD4F9380503C58F05F
:104AB000892D90E0880F991FE0914D02F0914E02F0
:104AC000E80FF91F9080852F887F8037C9F4882DE3
:104AD00090E0880F991FE0914D02F0914E02E80F8F
:104AE000F91F4181442361F02A2D30E02770307096
:104AF0008091500390E08217930714F04150418356
:104B0000852F90E0FC01B097EC3CF10508F096C7CA
:104B1000E65DFF4FEE0FFF1F0590F491E02D099425
:104B20000E94D30A182F0E94D60A24E6129FF00191
:104B30001124E80FF11D4B2D50E08A2D90E08F706D
:104B40009070BC0113E0660F771F1A95E1F7880F8C
:104B5000991F680F791FCA018F739070DC0124E6DA
:104B600030E0A29FC001A39F900DB29F900D112431
:104B7000680F791FE617F70730F1292D30E0407CE8
:104B80005070440F551F440F551F242B352BC9015E
:104B900053E0880F991F5A95E1F7220F331F820FB8
:104BA000931F860F971F8E179F0768F0882D90E040
:104BB000880F991FE0914D02F0914E02E80FF91F06
:104BC0008FEF80833BC7882D90E0880F991FE0917D
:104BD0004D02F0914E02E80FF91F10822FC70E947C
:104BE000D00A182F0E94D30A149DF0011124E80F57
:104BF000F11D4B2D50E02A2D30E0B9016F7370701C
:104C0000CA018F739070DC01A69DC001A79D900D15
:104C1000B69D900D1124680F791FE617F70728F14C
:104C2000207C3070220F331F220F331F407C5070C6
:104C300014E0440F551F1A95E1F7242B352B892DCD
:104C400090E0282B392B260F371F2E173F0768F0CF
:104C5000882D90E0880F991FE0914D02F0914E024F
:104C6000E80FF91F8FEF8083E9C6882D90E0880F49
:104C7000991FE0914D02F0914E02E80FF91F10824A
:104C8000DDC60E94CD0AD82E0E94D00AC82ECB2D98
:104C9000D0E0EA2CFF2487010F731070CE018F71D2
:104CA0009070FC01E69DC001E79D900DF69D900D72
:104CB0001124080F191F0E94CA0A853020F4B5FC80
:104CC00002C00FEF1FEF0E94CA0A853021F4C6FD13
:104CD00002C00FEF1FEF0E94CA0A863011F4B7FE20
:104CE00025C0D49C900111242C0D311D20173107B3
:104CF000E8F0892D90E0F0ECEF22FF24EE0CFF1C91
:104D0000EE0CFF1C8E299F29080F191F021713078D
:104D100068F0882D90E0880F991FE0914D02F09186
:104D20004E02E80FF91F8FEF808388C6882D90E030
:104D3000880F991FE0914D02F0914E02E80FF91F84
:104D400010827CC60E94CA0A082F0E94CD0AE82E53
:104D50000E94D00A10E0029DA001039D500D129DFB
:104D6000500D1124E49C700111244E0D5F1D480F5D
:104D7000511D2A2D30E08B2D82958695877090E00D
:104D8000829DD001839DB00D929DB00D11248B2D7D
:104D900090E08F719070BC01669DC001679D900D81
:104DA000769D900D1124A80FB91FC9018F739070C3
:104DB000A80FB91F4A175B07E0F0892D90E0207C0F
:104DC0003070220F331F220F331F822B932B8A0F39
:104DD0009B1F8417950768F0882D90E0880F991F16
:104DE000E0914D02F0914E02E80FF91F8FEF8083A2
:104DF00025C6882D90E0880F991FE0914D02F09113
:104E00004E02E80FF91F108219C6882D90E0880F16
:104E1000991FE0914D02F0914E02E80FF91F818138
:104E2000882319F08150818309C69182882D6B2DCA
:104E30004A2D20E000E010E00E94550CFFC5282D0F
:104E400030E0220F331FE0914D02F0914E02E20F4D
:104E5000F31F91818081981709F49082E0914D02AF
:104E6000F0914E02E20FF31F80818183E7C5282D68
:104E700030E0220F331FA0914D02B0914E02A20FDD
:104E8000B31F8C918B1550F4CC0FDD1FCC0FDD1FA1
:104E9000C05BDD4F8B81882384F40BC0B81668F4A7
:104EA000CC0FDD1FCC0FDD1FC05BDD4F8B8186FF7C
:104EB00004C071E011967C9302C011961C92E0919F
:104EC0004D02F0914E02E20FF31FB082B7C5882D5C
:104ED00090E0880F991FE0914D02F0914E02E80F8B
:104EE000F91F8B2D90E002C0880F991FAA94E2F75A
:104EF0008083A4C5882D90E0880F991FE0914D0212
:104F0000F0914E02E80FF91F8B2D90E002C09595AD
:104F10008795AA94E2F7808391C5882D90E0E0916F
:104F20004D02F0914E02BA1439F4880F991FE80F20
:104F3000F91F8FEF808382C5880F991FE80FF91F33
:104F400010827CC5882D90E0E0914D02F0914E02D8
:104F5000BA1439F0880F991FE80FF91F8FEF80837B
:104F60006DC5880F991FE80FF91F108267C5882D3E
:104F700090E0E0914D02F0914E02BA1438F4880F9F
:104F8000991FE80FF91F8FEF808358C5880F991F6D
:104F9000E80FF91F108252C5882D90E0E0914D0274
:104FA000F0914E02AB1438F0880F991FE80FF91FEB
:104FB0008FEF808343C5880F991FE80FF91F108278
:104FC0003DC5882D90E0E0914D02F0914E02AB146A
:104FD00038F4880F991FE80FF91F8FEF80832EC5D3
:104FE000880F991FE80FF91F108228C5882D90E0BF
:104FF000E0914D02F0914E02BA1438F0880F991FDB
:10500000E80FF91F8FEF808319C5880F991FE80FEC
:10501000F91F108213C5882D90E0880F991FE09129
:105020004D02F0914E02E80FF91FAB0C9A0C9082E2
:1050300005C5882D90E0880F991FE0914D02F091F1
:105040004E02E80FF91FBA18B918B082F7C4882DBC
:1050500090E0880F991FE0914D02F0914E02E80F09
:10506000F91FAB9C90011124892D90E0DC012A9F4F
:10507000C0012B9F900D3A9F900D11248083DEC4B8
:10508000882D90E0880F991FE0914D02F0914E021B
:10509000E80FF91F8B2D6A2D0E94A32F90E0692D38
:1050A00070E00E94C32F6083C9C4882D90E0880FF0
:1050B000991FE0914D02F0914E02E80FF91FAB20CD
:1050C0009A209082BBC4882D90E0880F991FE091B0
:1050D0004D02F0914E02E80FF91FAB289A289082FA
:1050E000ADC4882D90E0880F991FE0914D02F0919A
:1050F0004E02E80FF91FAB20A920A094A0829EC405
:10510000882D90E0880F991FE0914D02F0914E029A
:10511000E80FF91FAB28A928A094A0828FC4882D7E
:1051200090E0880F991FE0914D02F0914E02E80F38
:10513000F91FAB249A24908281C4882D90E0880FB7
:10514000991FC0904D02D0904E02C80ED91E6B2DF3
:1051500070E06A0D711D882777FD8095982F0E9459
:10516000B42E7B018C01692D70E0882777FD809536
:10517000982F0E94B42E20E030E040E85DE30E94CA
:10518000402F9B01AC01C801B7010E94402F0E9433
:10519000862EF601608352C4882D90E0880F991FF7
:1051A000E0914D02F0914E02E80FF91F6B2D70E077
:1051B0006A0D711D892D90E00E94C32F60833EC44B
:1051C000882D90E0880F991FC0904D02D0904E021C
:1051D000C80ED91E6B2D70E0882777FD8095982F1B
:1051E0000E94B42E7B018C016A2D70E080E090E07B
:1051F0000E94B22E9B01AC01C801B7010E94192E7A
:105200007B018C01692D70E0882777FD8095982FB0
:105210000E94B42E9B01AC01C801B7010E94402F2F
:105220000E94862ED6016C9309C4882D90E0880FC9
:10523000991FE0914D02F0914E02E80FF91F818114
:105240004B2D50E0282F30E06081B81690F4241BDD
:10525000350B35952795862F90E0820F911D8F3F56
:10526000910521F01CF08FEF8083E8C3260F208387
:10527000E5C3421B530B55954795641710F41082F4
:10528000DDC3641B6083DAC3B4E8BB1641F0E8E811
:10529000BE1621F1F8E0BF1609F0D0C30DC0882D6D
:1052A00090E0880F991FE0914D02F0914E02E80FB7
:1052B000F91F20E82083C2C3882D90E0880F991F32
:1052C000E0914D02F0914E02E80FF91F808188387D
:1052D00011F45082B3C38FEF8083B0C3882D90E068
:1052E000880F991FE0914D02F0914E02E80FF91FCF
:1052F000B082A4C3BB2059F0882D90E0880F991F7D
:10530000E0914D02F0914E02E80FF91F9082AA2021
:1053100009F494C3882D90E0880F991FE0914D0205
:10532000F0914E02E80FF91F108288C3AA2059F0AD
:10533000882D90E0880F991FE0914D02F0914E0268
:10534000E80FF91F1082BB2009F478C3882D90E084
:10535000880F991FE0914D02F0914E02E80FF91F5E
:1053600090826CC3BB2079F0882D90E0880F991F44
:10537000E0914D02F0914E02E80FF91F80818823E1
:1053800011F490825BC3AA2009F458C3882D90E0E1
:10539000880F991FE0914D02F0914E02E80FF91F1E
:1053A0008081882309F44AC3108248C3BB2059F086
:1053B000882D90E0880F991FE0914D02F0914E02E8
:1053C000E80FF91F9082AA2059F0882D90E0880FED
:1053D000991FE0914D02F0914E02E80FF91F1082E3
:1053E000A0914D02B0914E024B2DB11041E0A110A1
:1053F0004260882D90E0880F991FA80FB91F119661
:105400004C931CC3AA2059F0882D90E0880F991F57
:10541000E0914D02F0914E02E80FF91F1082BB207F
:1054200059F0882D90E0880F991FE0914D02F0917E
:105430004E02E80FF91F9082A0914D02B0914E02EA
:105440004B2DB11041E0A1104260882D90E0880FF3
:10545000991FA80FB91F11964C93F0C2BB2079F089
:10546000882D90E0880F991FE0914D02F0914E0237
:10547000E80FF91F8081882311F490820FC0AA20C1
:1054800069F0882D90E0880F991FE0914D02F0910E
:105490004E02E80FF91F808181111082A0914D0208
:1054A000B0914E024B2DB11041E0A1104260882D09
:1054B00090E0880F991FA80FB91F11964C93BEC298
:1054C000282D30E0220F331FE0914D02F0914E0263
:1054D000E20FF31F81818B15E1F044E8B41639F037
:1054E00058E8B51669F068E0B61661F403C074E6D2
:1054F000708308C0883811F4508204C08FEF01C057
:1055000085E88083E0914D02F0914E02E20FF31F97
:10551000B182FE01EE0FFF1FEE0FFF1FE05BFD4F9C
:1055200083818A1509F48AC294E8A91639F0A8E89B
:10553000AA16D9F0B8E0AB1601F508C0E0914D020B
:10554000F0914E02E20FF31F108217C0E0914D025E
:10555000F0914E02883821F4E20FF31F50820DC003
:10556000E20FF31F8FEF808308C0E0914D02F091AE
:105570004E02E20FF31F26E82083CC0FDD1FCC0F75
:10558000DD1FC05BDD4FAB8259C2282D30E0220FFA
:10559000331FE0914D02F0914E02E20FF31F818123
:1055A0008B15C9F044E8B41669F058E8B51651F007
:1055B00068E0B61649F4883811F4508205C08FEFC0
:1055C000808302C075E87083E0914D02F0914E0235
:1055D000E20FF31FB182FE01EE0FFF1FEE0FFF1F60
:1055E000E05BFD4F83818A1509F428C294E8A9166F
:1055F000A9F0A8E8AA1691F0B8E0AB16B9F4E091CA
:105600004D02F0914E02883821F4E20FF31F5082D0
:105610000DC0E20FF31F8FEF808308C0E0914D02B1
:10562000F0914E02E20FF31F26E82083CC0FDD1F1E
:10563000CC0FDD1FC05BDD4FAB8200C2BA14A0F4FB
:10564000882D90E0E0914D02F0914E02B91430F4B3
:10565000880F991FE80FF91FB082F0C1880F991FBA
:10566000E80FF91F9082EAC1882D90E0E0914D0289
:10567000F0914E02A91430F4880F991FE80FF91F1A
:10568000A082DCC1880F991FE80FF91F9082D6C154
:10569000AB1418F48A2DAB2CB82E4A2D9A1408F4AA
:1056A000492D882D90E0880F991FA0914D02B0914F
:1056B0004E02A80FB91F4B1508F44B2D4C93BEC1D9
:1056C000AB14A0F4882D90E0E0914D02F0914E02D1
:1056D0009B1430F4880F991FE80FF91FB082AEC1F8
:1056E000880F991FE80FF91F9082A8C1882D90E0BC
:1056F000E0914D02F0914E029A1430F4880F991FF8
:10570000E80FF91FA0829AC1880F991FE80FF91FAF
:10571000908294C1882D90E0E0914D02F0914E026C
:10572000BB2031F4880F991FE80FF91FA08286C1B2
:10573000880F991FE80FF91F908280C1882D90E093
:10574000BB2089F0880F991FE0914D02F0914E0225
:10575000E80FF91F9182E0914D02F0914E02E80F9F
:10576000F91FB0826BC1880F991FE0914D02F09133
:105770004E02E80FF91F8181882309F05FC1108272
:105780005DC1882D90E0BB2089F4880F991FE091BE
:105790004D02F0914E02E80FF91F9182E0914D0207
:1057A000F0914E02E80FF91F108248C1880F991F2F
:1057B000E0914D02F0914E02E80FF91F818188239C
:1057C00009F03CC1B0823AC1BB2079F0882D90E04D
:1057D000880F991FE0914D02F0914E02E80FF91FDA
:1057E0008181882311F0B08229C1882D90E0880F33
:1057F000991FE0914D02F0914E02E80FF91F1082BF
:10580000BB2009F01BC1E0914D02F0914E02E80F60
:10581000F91F918213C1282D30E0220F331FE09130
:105820004D02F0914E02E20FF31F8181882309F0AF
:1058300005C19182E0914D02F0914E02E20FF31FFB
:10584000B082FCC0882D90E0880F991FE0914D0236
:10585000F0914E02E80FF91F80818B1509F4EEC01C
:10586000B082CC0FDD1FCC0FDD1FC05BDD4F898107
:10587000E82FF0E0EF01CC0FDD1FCC0FDD1FC05B88
:10588000DD4F88818F7B8F3391F5DF01AA0FBB1F1E
:10589000E0914D02F0914E02EA0FFB1F81818823B7
:1058A00009F4CCC0AA0FBB1FAE5ABD4F6B816F73FA
:1058B0008C910E942A018C016B2D70E0882777FD66
:1058C0008095982F0E94B42E23E333E343E250E403
:1058D0000E94192E0E94862E9B01AC018A2D692DF3
:1058E000422F980100E010E00E94560DA7C06B2DDA
:1058F00070E0882777FD8095982F0E94B42E23E3CF
:1059000033E343E250E40E94192E0E94862E9B014D
:10591000AC018A2D692D422F20E030E000E010E03C
:105920000E94560D8BC0882D90E0880F991FE09142
:105930004D02F0914E02E80FF91F80818B1509F49A
:105940007DC0B0823FEFB31609F478C0CC0FDD1FE5
:10595000CC0FDD1FC05BDD4F8981E82FF0E0EF0148
:10596000CC0FDD1FCC0FDD1FC05BDD4F88818F7B2F
:105970008F33F9F4DF01AA0FBB1FE0914D02F091C4
:105980004E02EA0FFB1F8181882309F457C0AA0F3A
:10599000BB1FAE5ABD4F6B816F738C910E942A0161
:1059A0009C018A2D692D4B2D00E010E00E94560DC0
:1059B00045C08A2D692D4B2D20E030E000E010E03D
:1059C0000E94560D3BC0882D90E0880F991FE091F2
:1059D0004D02F0914E02E80FF91F80818B1571F195
:1059E000B0828FEF692D4B2D50E020E00E94BB0E5E
:1059F00025C0882D90E0BB2089F0880F991FE09189
:105A00004D02F0914E02E80FF91F80818B15B1F025
:105A1000B0828A2D90E00E946D0E10C0880F991FF1
:105A2000E0914D02F0914E02E80FF91F808188232A
:105A300029F01082892D90E00E946D0E8394809150
:105A40004C02881610F40C94212510925003DF911B
:105A5000CF911F910F91FF90EF90DF90CF90BF906B
:105A6000AF909F908F907F906F905F904F903F90FE
:105A70002F900895CF93DF93ECE4F3E090E48081DE
:105A8000882321F4915034979923C9F7E92FF0E046
:105A9000EE0FFF1FEE0FFF1FE45BFD4F8081882399
:105AA00009F490E090934C02892F90E0880F991FA1
:105AB0000E94D62F80934D0290934E0290E048C0F2
:105AC000C92FD0E09E01220F331FE0914D02F091CB
:105AD0004E02E20FF31F1082E0914D02F0914E0250
