:100000000C944B010C94300B0C9468010C94680117
:100010000C9468010C94540B0C9468010C944E22BF
:100020000C94C3220C9430230C9468010C94D10BD3
:100030000C9468010C9441160C9468010C946801AE
:100040000C9468010C9468010C9468010C94B2063D
:100050000C946801592EB82E0A2F6B2FE735E7351F
:10006000E735E735E735E735E735E735E735E735B0
:10007000E735E735E735E735E735E735E735E735A0
:10008000E735E735CE2FE735E735E735E735E82FB4
:10009000E7350030E735E735E735E735E735303028
:1000A0004330E73556306B3080309530AA30BF3062
:1000B000E735E735D430E230F0300931663195313B
:1000C000A931E735E735E735E735E735E735E73592
:1000D000E735E735DE31E735E735E7350D32E7352A
:1000E000E735E735E733113429345334E735E7355D
:1000F000E735E73567348A34AD34D434E735E7354E
:10010000E735E735EB345C35AC35C235E735E735F7
:10011000E73500301E312C313A3149315831303019
:100120004330E73556306B3080309530AA30BF30E1
:10013000E735E735D430E230F0300931E735E735DF
:10014000E735E73543325F327B329F32CB32F732CD
:10015000E735E735E735E735E735E73529338E33DA
:10016000E735E735E733113429345334E735E735DC
:10017000E735E735E735E735E735E735E735E7359F
:10018000E735E735E735E735E735E735E735E7358F
:10019000E735E7351E312C313A3149315831E735F1
:1001A000E735E735E735E735E735E735E735E7356F
:1001B000E735E735D430E230F0300931E735E7355F
:1001C000E735E73543325F327B329F32CB32F7324D
:1001D000E735E735E735E735E735E735E735E7353F
:1001E000E735E735E733113429345334072C7AA542
:1001F000BA6CC590DA3B9365FC8BBC53F810FD3CA0
:100200005692834DBD879D3AB63DCBC9BF5BBE7349
:10021000DA0FC93F07634236B79BD8A71A39685629
:1002200018AEBAAB558C1D3CB7CC5763BD6DEDFD18
:10023000753EF6177231BF000000803F08000000D5
:10024000BE922449123EABAAAA2ABECDCCCC4C3ECB
:1002500000000080BEABAAAAAA3E00000000BF00BA
:100260000000803F0000000000084178D3BB4387B6
:10027000D1133D190E3CC3BD4282AD2B3E68EC82CA
:1002800076BED98FE1A93E4C80EFFFBE01C4FF7F4F
:100290003F000000000011241FBECFE5D8E0DEBF04
:1002A000CDBF10E0A0E6B0E0E2EDF7E702C00590B8
:1002B0000D92A836B107D9F713E0A8E6B0E001C067
:1002C0001D92A936B107E1F70E946A010C94E73B41
:1002D0000C9400000E947E0A0E94F20F81E060E010
:1002E0000E9437150E9433100E9430170E94C319D4
:1002F0000E94B91C0E9484240E949E290E94C22D43
:10030000F1CF562F40E0282F30E0242B352BC901A8
:1003100008950197F1F70895E0916900F0916A005E
:10032000208181E090E00090680002C0880F991F52
:100330000A94E2F7282B20830895E0916900F09158
:100340006A00208181E090E00090680002C0880F80
:10035000991F0A94E2F780958223808308951FB83D
:10036000779BFECF8FB108958FB9779BFECF08950D
:100370000F931F93DF93CF930F92CDB7DEB788E033
:100380006FEF0E9487098E010F5F1F4FC80160E069
:1003900070E040E050E020E030E00E949D0989815B
:1003A00061E00E94590990936A00809369008981F5
:1003B000982F97709093680061E00E944F0889E041
:1003C0006FEF0E948709C80160E070E040E050E0F4
:1003D00020E030E00E949D09898161E00E944F0881
:1003E0008AE06FEF0E948709C80160E070E040E09A
:1003F00050E020E030E00E949D09898160E00E9489
:100400004F088BE06FEF0E948709C80160E070E041
:1004100040E050E020E030E00E949D09898161E0E9
:100420000E944F08E0916900F0916A00208181E00C
:1004300090E00090680002C0880F991F0A94E2F7CC
:10044000282B208381E58DB90F90CF91DF911F91EB
:100450000F9108950F931F93CF93DF93EC010E94A8
:100460009D0180EA0E94B4010E94AF01182F0E94F2
:10047000AF010E948C01212F30E0C901847590707A
:10048000892B11F404E00CC0C90184719070892B90
:1004900011F402E005C012FF02C080E037C000E0A6
:1004A0000E949D01802F80640E94B40188810E9477
:1004B000B40189810E94B4018A810E94B4018B81B8
:1004C0000E94B4018C81893010F088E08C838C818B
:1004D0000E94B40110E007C0FE01E10FF11D85810B
:1004E0000E94B4011F5F8C811817B0F30E948C0129
:1004F00000000E949D01002311F481E802C0802FBA
:1005000080680E94B4010E948C0181E0DF91CF914C
:100510001F910F9108951F93CF93DF93EC010E94D9
:100520009D0180EB0E94B4010E94AF01182F0E9430
:10053000AF010E948C0116FF0FC080916B008823D1
:1005400011F017FD09C00E949D0180E90E94B401CD
:1005500081E080936B000BC017FD02C080E026C0D5
:100560000E949D0184E90E94B40110926B000E94D8
:10057000AF0188830E94AF0189830E94AF018A8303
:100580000E94AF018B830E94AF018F708C8310E0BB
:1005900007C00E94AF01FE01E10FF11D85831F5FBF
:1005A0008C811817B0F30E948C0181E0DF91CF910C
:1005B0001F910895DF92EF92FF920F931F93182FD0
:1005C000F62EE42ED22E0E949D0182E00E94B401FC
:1005D000812F90E0133008F00196880F880F0E9459
:1005E000B4018F2D0E94B4018E2D0E94B4018D2D77
:1005F0000E94B401802F0E94B4010E948C011F91BF
:100600000F91FF90EF90DF900895DF92EF92FF92AD
:100610000F931F93182FF62EE42ED22E0E949D01C9
:1006200082E00E94B401112311F480E201C084E24F
:100630000E94B4018F2D0E94B4018E2D0E94B4013E
:100640008D2D0E94B401802F0E94B4010E948C0164
:100650001F910F91FF90EF90DF900895FF920F93FD
:100660001F93182F062FF42E0E949D0185E00E94F3
:10067000B401812F0E94B401802F0E94B4018F2DFC
:100680000E94B4010E948C011F910F91FF90089568
:100690008FE060EE40E00E942E0308950F931F93B9
:1006A000182F062F0E949D0182E00E94B401812F25
:1006B0000E94B401802F0E94B4010E948C011F91FE
:1006C0000F9108951F93182F0E949D0183E00E94AF
:1006D000B401812F0E94B4010E94AF01182F0E9423
:1006E0008C01812F1F9108950E949D0180EC0E9432
:1006F000B4010E948C01089510926B000E94B80111
:100700000E9474038AE267E00E944E0389E260E976
:100710000E944E0388E262E00E944E0380E664E499
:100720000E944E0380E760E40E944E030895E0912A
:100730007600F0917700408181E090E09C0100908C
:100740006C0002C0220F331F0A94E2F7422B408351
:100750000000E0917600F0917700208100906C001D
:1007600002C0880F991F0A94E2F780958223808344
:100770000895EF92FF921F93CF93DF93E09174005F
:10078000F091750040812FE030E0C90100907900C0
:1007900002C0880F991F0A94E2F780958423808312
:1007A000E0917200F091730080810090790002C0A6
:1007B000220F331F0A94E2F7209528232083E0912B
:1007C0007000F0917100208183E090E0009078004B
:1007D00002C0880F991F0A94E2F7809582238083D4
:1007E000E0917000F0917100208181E090E0009034
:1007F000780002C0880F991F0A94E2F7282B208303
:10080000C1E0D0E088E0E82EF12CE0917600F09194
:1008100077002081CE0100906C0002C0880F991FE4
:100820000A94E2F7282B20830000E0916E00F091FB
:100830006F001081C7010090790002C0880F991FD6
:100840000A94E2F71823E0917600F0917700208176
:10085000CE0100906C0002C0880F991F0A94E2F745
:100860008095822380830E949703112371F6E09183
:100870007400F091750020818FE090E00090790085
:1008800002C0880F991F0A94E2F7282B2083DF917A
:10089000CF911F91FF90EF900895EF92FF920F93E9
:1008A0001F93E0917200F091730090810FE010E0CF
:1008B00098010090790002C0220F331F0A94E2F7DA
:1008C000209529232083E0917200F09173004081EC
:1008D000E82EFF249701207F30705091790084E04A
:1008E00090E0851B910902C0359527958A95E2F71E
:1008F000422B40830E949703E0917200F0917300B5
:1009000080810090790002C0000F111F0A94E2F765
:10091000009508230083E0917200F09173008081BC
:100920009FE0E922FF240090790002C0EE0CFF1C3A
:100930000A94E2F78E2980830E9497031F910F91FA
:10094000FF90EF9008951F93182F8823B1F00E9415
:10095000B903E0917000F0917100208183E090E094
:100960000090780002C0880F991F0A94E2F78095E2
:1009700082238083812F0E944D041F9108951F932D
:10098000182F803A31F10E94B903E0917000F09184
:100990007100208183E090E00090780002C0880F11
:1009A000991F0A94E2F7809582238083E09170007A
:1009B000F0917100208182E090E00090780002C008
:1009C000880F991F0A94E2F7282B2083812F0E9419
:1009D0004D041F910895E0917A00F0917B003091D1
:1009E0006D00882359F0208181E090E002C0880FDB
:1009F000991F3A95E2F7282B20830895208181E002
:100A000090E002C0880F991F3A95E2F78095822303
:100A1000808308951F93CF93DF93EC0111E007C00B
:100A2000FE01E10FF11D80810E94BF041F5F8881DC
:100A30008117B0F7DF91CF911F910895CF92DF9288
:100A4000EF92FF920F931F93DF93CF9300D0CDB718
:100A5000DEB780E360EF0E948709082F10E092E084
:100A6000C92ED12CCC0EDD1E7E010894E11CF11C98
:100A70005DC0C701B60140E050E020E030E00E94D8
:100A80009D098A81882359F0883029F1883008F43B
:100A900048C08A3069F18B3009F043C036C0898183
:100AA00061E00E94590990937300809372008981DC
:100AB00060E00E94590990936F0080936E008981D5
:100AC0000E9441099093750080937400898187701A
:100AD0008093790026C0898161E00E945909909332
:100AE000710080937000898187708093780019C0AD
:100AF000898161E00E945909909377008093760084
:100B00008981877080936C000CC0898161E00E94AC
:100B1000590990937B0080937A0089818770809334
:100B20006D00898161E00E944F081F5F101708F473
:100B3000A0CF002309F473C010E080EE9EE20E9473
:100B400089011F5F1A30C9F7E0917000F0917100C0
:100B5000408123E030E0C9010090780002C0880F96
:100B6000991F0A94E2F7809584238083E0917200B4
:100B7000F091730040818FE090E00090790002C016
:100B8000880F991F0A94E2F7809584238083E0916F
:100B90007200F091730080810090790002C0220FF2
:100BA000331F0A94E2F7822B80830E94970380E729
:100BB00097E10E9489010E9497038AE590E00E94D4
:100BC00089010E9497038AE590E00E948901E091E3
:100BD0007200F0917300208181E090E00090790034
:100BE00002C0880F991F0A94E2F7809582238083C0
:100BF0000E94970389E20E94A30480E50E94A30457
:100C00008CE60E94A3048CE70E94A3048CE00E945F
:100C1000A30481E00E94A30486E00E94A3040F9035
:100C20000F90CF91DF911F910F91FF90EF90DF9088
:100C3000CF90089586B781700895809181000895BE
:100C400006B600FCFDCF80917C00089580937F0064
:100C50000895E0918300F0918400E80FF11D608316
:100C60000895462FDC0120E014C080917F00E091C0
:100C70008300F0918400E80FF11D8D9180838091B5
:100C80007F00609182008F5F0E94883A90937F007E
:100C90002F5F241750F3089581E080937E0008951C
:100CA00006B600FCFDCF882311F0809380001092DF
:100CB000810088EF80937C0085EA86BF0895CF93FA
:100CC000DF93EC0106B600FCFDCF60938000E0915D
:100CD0008300F091840088818083E0918300F0910B
:100CE0008400808180FD13C091E00DC0E92FF0E009
:100CF000A0918300B0918400AE0FBF1FEC0FFD1FC9
:100D000080818C939F5F80918000981778F3109278
:100D1000810088EF80937C0085EA86BFDF91CF91C8
:100D20000895E0918300F0918400E80FF11D808127
:100D300008959C0106B600FCFDCF809181008823B8
:100D400071F0D90190E009C0E0918300F091840036
:100D5000E90FF11D80818D939F5F9617A8F3809115
:100D6000810008951F920F920FB60F9211242F93B6
:100D70003F938F939F93EF93FF9381B18832D1F08C
:100D8000893240F48031A1F08831A1F0883009F037
:100D900059C00EC08034B9F1813420F4883309F091
:100DA00051C04EC0803511F1883509F04BC039C0B3
:100DB00010927D0090917D0080918000981760F4E2
:100DC000E0918300F0918400E90FF11D808183B9E7
:100DD0009F5F90937D0023C081E08093810080918C
:100DE0007E00882359F110927E0031C080917D00F1
:100DF00093B1E0918300F0918400E80FF11D90839E
:100E00008F5F80937D0020917D0030E08091800095
:100E100090E001972817390714F485EC17C085E88E
:100E200015C093B180917D00E0918300F091840022
:100E3000E80FF11D908381E08093810084E906C072
:100E400085EA04C081B180937C0084E086BFFF9175
:100E5000EF919F918F913F912F910F900FBE0F9027
:100E60001F90189580918300909184000E94683BA8
:100E700008958093820090E00E94BB3A80938300A3
:100E80009093840010927F001092800010927D0059
:100E900010927E001092810088EF80937C008CE09D
:100EA00080B98FEF83B984E086BF08950F931F93B5
:100EB000082FF8948AB3802B8ABB8BB3102F109520
:100EC00081238BBB83E995E00E9489018AB381234A
:100ED0008ABB8BB318231BBB85EC90E00E94890171
:100EE00019B381EC94E00E94890178941095802FC9
:100EF00081231F910F9108950F931F93082FF8944A
:100F00008AB3802B8ABB8BB3102F109581238BBBA8
:100F100085E090E00E9489018AB381238ABB8BB36C
:100F200018231BBB8EE090E00E94890119B388E969
:100F300090E00E9489017894802F81231F910F9166
:100F40000895FF920F931F93F82E10E000E016957E
:100F50008F2D0E947C07811110680F5F0830B9F750
:100F6000812F1F910F91FF9008951F93182FF894D0
:100F70008AB3812B8ABB8BB3109581238BBB87EA05
:100F800090E00E9489018AB381238ABB8BB3182326
:100F90001BBB81E190E00E94890178941F91089524
:100FA0001F93182FF8948AB3812B8ABB8BB31095AB
:100FB00081238BBB85E090E00E9489018AB3812365
:100FC0008ABB8BB318231BBB83EB90E00E94890183
:100FD00078941F910895FF920F931F93082FF62E78
:100FE00010E000FF04C08F2D0E94D00703C08F2D9A
:100FF0000E94B5071F5F183011F00695F2CF1F91C0
:101000000F91FF900895682F8CEC0E94EB070895D4
:101010009AB3809598239ABB9BB398239BBB83E993
:1010200095E00E948901089580918600089580933B
:101030008600089590938800809387000895809398
:101040008900089590E09C012F71307085FF09C0E0
:10105000F901EE0FFF1FE20FF31FEA57FF4F668300
:101060000895F901EE0FFF1FE20FF31FEA57FF4F3C
:1010700064834583089590E0FC01EE0FFF1FE80FA5
:10108000F91FEA57FF4F8481089590E0FC01EE0FAD
:10109000FF1FE80FF91FEA57FF4F85810895482F7A
:1010A00060FD3DC0883068F43AB3282F277081E096
:1010B00090E002C0880F991F2A95E2F7809583235C
:1010C0003BC0803168F437B3282F277081E090E06F
:1010D00002C0880F991F2A95E2F7809583233BC0B1
:1010E000883168F434B3282F277081E090E002C083
:1010F000880F991F2A95E2F7809583233BC08032A1
:1011000008F048C031B3282F277081E090E002C07A
:10111000880F991F2A95E2F7809583233AC088307B
:1011200068F48AB3942F977021E030E002C0220F58
:10113000331F9A95E2F7822B8ABB2CC0803168F46A
:1011400087B3942F977021E030E002C0220F331F45
:101150009A95E2F7822B87BB1DC0883168F484B36F
:10116000942F977021E030E002C0220F331F9A9530
:10117000E2F7822B84BB0EC0803260F481B3942FDF
:10118000977021E030E002C0220F331F9A95E2F7FA
:10119000822B81BB61FF39C0483060F42BB34770AC
:1011A00081E090E002C0880F991F4A95E2F7282B52
:1011B0002BBB0895403160F428B3477081E090E084
:1011C00002C0880F991F4A95E2F7282B28BB089583
:1011D000483160F425B3477081E090E002C0880F89
:1011E000991F4A95E2F7282B25BB0895403208F055
:1011F00047C022B3477081E090E002C0880F991F7A
:101200004A95E2F7282B22BB0895483068F42BB3A7
:10121000477081E090E002C0880F991F4A95E2F77D
:10122000809582238BBB0895403168F428B34770C2
:1012300081E090E002C0880F991F4A95E2F78095FF
:10124000822388BB0895483168F425B3477081E054
:1012500090E002C0880F991F4A95E2F7809582239B
:1012600085BB0895403260F422B3477081E090E07E
:1012700002C0880F991F4A95E2F78095822382BBAE
:101280000895883018F42AE330E011C0803118F452
:1012900027E330E00CC0883118F424E330E007C0C5
:1012A000803218F421E330E002C020E030E0C901D0
:1012B00008956623A1F4883018F429E330E025C0AE
:1012C000803118F426E330E020C0883118F423E39D
:1012D00030E01BC08032B8F420E330E016C0883024
:1012E00018F42BE330E011C0803118F428E330E02B
:1012F0000CC0883118F425E330E007C0803218F4C0
:1013000022E330E002C020E030E0C9010895282F38
:101310001092EA008093EB0060938500EAE8F0E029
:1013200090E080818623821709F49F5F339680E0E6
:10133000EA3EF807B1F7892F08950F931F93CF93D3
:10134000DF93DC01EB01BA018901509185004091E6
:10135000EB002091EA00322F3F5F822F90E0FC01EA
:10136000EE0FFF1FE80FF91FEA57FF4F8481852317
:10137000841711F0232FEFCF2093EA002C932097AE
:1013800081F02091850020958091EA0090E0FC0199
:10139000EE0FFF1FE80FF91FEA57FF4F8481282344
:1013A00028836115710569F08091EA0090E0FC01E5
:1013B000EE0FFF1FE80FF91FEA57FF4F8581FB0172
:1013C00080830115110569F08091EA0090E0FC012D
:1013D000EE0FFF1FE80FF91FEA57FF4F8681F80154
:1013E00080838091EA008F5F8093EA00DF91CF9144
:1013F0001F910F910895982F87FD1EC0AAE8B0E0B5
:1014000040E083E0989F900111242A0F3B1F892F11
:1014100090E0FC01EE0FFF1FE80FF91FEA0FFB1F22
:1014200007C080819C918927862309F44F5F13961A
:10143000A217B307B1F703C00E945929482F842F80
:101440000895282FEBE8F0E090E001C09F5F8081D5
:10145000821721F033969032C9F702C0892F089580
:10146000822F0E944829982FF9CF86E890E060E00B
:1014700070E044E650E00E94C03B0E943E0C64E6EF
:1014800070E047E050E00E94C03B0E9428156BE6E8
:1014900070E042E050E00E94C03B0E94BA156DE649
:1014A00070E04EE050E00E94C03B0E94C6166BE721
:1014B00070E048E050E00E94C03B0E94CD1863E815
:1014C00070E040E550E00E94C03B0E94CD1B63ED00
:1014D00070E048E550E00E94C03B0E94FA276BE2B2
:1014E00071E041E550E00E94C03B0E942F2D6CE767
:1014F00071E040E051E00E94C03B0895F8940E94E2
:10150000350A80918900893DE1F1EAE8F0E080E068
:101510001082818312828F5F33968032C9F780E117
:101520006CE040E10E94220881E16DE041E10E940F
:1015300022088AE166E04AE10E94220888E062E02F
:1015400048E00E94220888E164E048E10E94220805
:1015500089E165E049E10E94220880918900833B8E
:1015600031F00E94410C0E942B150E94BD150E9473
:10157000C9160E94D0180E94D01B0E94FD270E940D
:10158000322D089586E890E060E070E044E650E097
:101590000E94D03B0E943E0C64E670E047E050E0C1
:1015A0000E94D03B0E9428156BE670E042E050E0BC
:1015B0000E94D03B0E94BA156DE670E04EE050E00C
:1015C0000E94D03B0E94C6166BE770E048E050E0F6
:1015D0000E94D03B0E94CD1863E870E040E550E0E7
:1015E0000E94D03B0E94CD1B63ED70E048E550E0C7
:1015F0000E94D03B0E94FA276BE271E041E550E087
:101600000E94D03B0E942F2D6CE771E040E051E03A
:101610000E94D03B089586E890E063E070E041E0EE
:1016200050E00E94D03B08950F938093ED006093AB
:10163000EE004093EF002093F0000093F1000F9133
:1016400008958091ED0008958091EE0008958091B5
:10165000EF0008958091F00008958091F1000895C1
:101660001F920F920FB60F9211242F933F934F9317
:101670005F936F937F938F939F93AF93BF93EF93FA
:10168000FF930E947023FF91EF91BF91AF919F91C3
:101690008F917F916F915F914F913F912F910F901B
:1016A0000FBE0F901F9018951F920F920FB60F92BA
:1016B00011242F933F934F935F936F937F938F9357
:1016C0009F93AF93BF93EF93FF9383E884BD809183
:1016D000EC008F5F8093EC008F3009F051C01092C6
:1016E000EC008091F1008F5F8093F1008436D1F59A
:1016F0001092F1008091F0008F5F8093F0000E94C3
:101700006A1C0E945B2D8091F0008C3359F5109279
:10171000F0008091EF008F5F8093EF000E945B2DBF
:101720008091EF008C33F1F41092EF008091EE0085
:101730008F5F8093EE000E945B2D8091EE008831D8
:1017400089F41092EE008091ED008F5F8093ED00A0
:101750000E945B2D8091ED00873021F41092ED0006
:101760000E945B2D0E945A0C0E94620C0E94601520
:101770000E94E9160E9474190E9491290E94552D19
:10178000FF91EF91BF91AF919F918F917F916F9159
:101790005F914F913F912F910F900FBE0F901F902F
:1017A00018951F920F920FB60F9211242F933F930B
:1017B0004F935F936F937F938F939F93AF93BF9359
:1017C000EF93FF938EEF82BF0E94EC150E94BC2323
:1017D000FF91EF91BF91AF919F918F917F916F9109
:1017E0005F914F913F912F910F900FBE0F901F90DF
:1017F0001895EF92FF920F931F93DF93CF930F9261
:10180000CDB7DEB786E06FEF0E948709082F10E0A2
:101810007E010894E11CF11C0EC0C70160E070E07D
:1018200040E050E020E030E00E949D09898162E0C4
:101830000E944F081F5F101780F31092ED00109266
:10184000EE001092EF001092F0001092F10094E080
:1018500093BF89B7816089BF95BD89B7806489BF0F
:101860001092EC0083E085BF80E48BBF0F90CF9196
:10187000DF911F910F91FF90EF9008958BE091E021
:10188000089510920B0180E090E890930D018093F1
:101890000C018FEF80930E0184E080930F01109272
:1018A000100110921101089580910B01089580910B
:1018B000100108958091FC00882319F081508093D5
:1018C000FC0008958091F400882319F081508093E2
:1018D000F4000895282F30E0C901807F9070803F88
:1018E000910519F080E090E0089540E02F7081E0CC
:1018F00090E002C0880F991F2A95E2F720910C0111
:1019000030910D0182239323892B09F441E081E07A
:101910004827842F0895282F40910A0150910901EA
:10192000451701F1842F90E033E0880F991F3A9515
:10193000E1F7E091F700F091F800E80FF91F21932B
:10194000DB0187E00D9001928150E1F75F3F11F4D8
:101950004093090160910F01842F8F5F0E94883AA4
:1019600090930A0108958091F7009091F8000E94E9
:10197000683B089587FD07C0282F30E0207730703E
:101980002037310519F40E94FF15089520313105E3
:1019900011F40E94FF150895BF92CF92DF92EF924B
:1019A000FF920F931F93DF93CF93CDB7DEB72797A7
:1019B0000FB6F894DEBF0FBECDBFB82EE22E680181
:1019C00080910B016817D1F089836A8398E09B832B
:1019D0004C831D821E822F8381E08093F200B0929F
:1019E000F3009093F4006093F5004093F6008FE7C6
:1019F000BE016F5F7F4F0E94BA0C85C0842F0E948A
:101A0000210AF82E8FEFF81609F46EC0F7FC5DC0BE
:101A10008F2D0E943B0887FD03C000E010E008C046
:101A20008F2D60E80E94FB090E94ED16082F10E040
:101A30008F2D0E943B08887F803299F48F2D68EFAC
:101A40000E94FB096E2D0E947A198C01C114D104E9
:101A500041F4EFEFBE1629F054E0169507955A951C
:101A6000E1F78F2D0E943B08887F883299F48F2DF3
:101A700068EF0E94FB096E2D0E94701C8C01C1143E
:101A8000D10441F4FFEFBF1629F044E01695079505
:101A90004A95E1F78F2D0E943B08807F803141F409
:101AA0008F2D60EF0E94FB090E94651F082F10E038
:101AB0008F2D0E943B08807C8034C1F48F2D60EC18
:101AC0000E94FB090E9422220CC08F2D8F770E945A
:101AD0000029803C49F48F2D6FEF0E94FB090E9482
:101AE0007E29082F10E002C000E010E0C114D104EC
:101AF00029F48B2D602F0E944A2D05C089E0F60144
:101B000082830483158327960FB6F894DEBF0FBE39
:101B1000CDBFCF91DF911F910F91FF90EF90DF909C
:101B2000CF90BF900895DF93CF93CDB7DEB72797BF
:101B30000FB6F894DEBF0FBECDBF90910B01998315
:101B400090910E019A839FE79B838C836D834E83D4
:101B50002F838FE7BE016F5F7F4F0E94BA0C2796DD
:101B60000FB6F894DEBF0FBECDBFCF91DF910895C1
:101B7000DF93CF93CDB7DEB727970FB6F894DEBFCC
:101B80000FBECDBF90910B0199839A8392E09B8306
:101B90008C836D834E835F838FE7BE016F5F7F4FC2
:101BA0000E94BA0C27960FB6F894DEBF0FBECDBFC9
:101BB000CF91DF910895BF92CF92DF92EF92FF9283
:101BC0000F931F93DF93CF93CDB7DEB727970FB651
:101BD000F894DEBF0FBECDBF982FB62EF42E69014C
:101BE000882319F4662321F4EDC08F3F09F4EAC07D
:101BF00020910B01921729F129839A831B82BC82C1
:101C0000FD82CE82DF8281E08093FA000093FB00A8
:101C1000ADEFB0E0FE01319687E001900D9281506A
:101C2000E1F79093FD002093FE001092FF0088E002
:101C30008093FC008FE7BE016F5F7F4F0E94BA0C5C
:101C40000CC18B2D0E94210AE82E0E943B08887F40
:101C5000803281F48E2D68EF0E94FB09982F0330AB
:101C6000110518F081E0F8018283892F6F2DA601FC
:101C70000E944B198E2D0E943B08887F883281F488
:101C80008E2D68EF0E94FB09982F0330110518F084
:101C900081E0F8018283892F6F2DA6010E94421CEA
:101CA0008F2D85568B3140F0FEE8FF1528F085E634
:101CB000C81689E1D80640F00330110508F482C047
:101CC00082E0F8018283C9C0FFEFEF1609F47AC001
:101CD000E7FC7EC08E2D0E943B08807F803111F58D
:101CE0008E2D60EF0E94FB09E82E0330110518F0DD
:101CF00081E0F8018283F0E8FF1669F48E2D0E94DE
:101D0000651F882319F08E2D60E002C08E2D64E6D9
:101D10000E947C1FA2C084E68F1508F49EC08E2D01
:101D20006F2DF6CF8E2D0E943B08807C803409F009
:101D300049C08E2D60EC0E94FB09982F03301105DD
:101D400018F081E0F8018283F5E8FF1609F1FF152C
:101D500050F081E8F816A1F0E2E8FE16A9F0F0E8EC
:101D6000FF1631F509C087E8F816D1F0F816A0F093
:101D7000E8E8FE16E9F418C0892F0E9473266DC0AA
:101D8000892F0E94BC2669C0892F0E94A02665C0A9
:101D9000892F0E94322661C0892F0E941E265DC0B5
:101DA000892F0E94D92359C0892F0E94502655C0DF
:101DB000F4E6FF1508F451C0892F6F2DA6010E948B
:101DC0005C254BC08B2D6F2DA6010E94B80D45C020
:101DD0006FE7D62EDE208D2D0E940029803CD1F5A4
:101DE0008E2D6FEF0E94FB09982F0330110518F01C
:101DF00081E0F8018283F6E8FF16C1F0FF1538F0A4
:101E000080E8F81659F0E5E8FE16E1F40BC0F7E8B3
:101E1000FF1681F088E8F816A9F410C0892F0E94F7
:101E2000BD2C1BC0892F0E94782C17C0892F0E94BF
:101E3000562C13C0892F0E94862A0FC0892F0E941A
:101E40009A2C0BC0E4E6EF1540F0892F6F2D0E940D
:101E5000482B03C08D2D0E94002927960FB6F894B9
:101E6000DEBF0FBECDBFCF91DF911F910F91FF90CD
:101E7000EF90DF90CF90BF900895DF93CF93CDB7D1
:101E8000DEB727970FB6F894DEBF0FBECDBF482F41
:101E900080910B0189832FEF2A8328E12B831C82F9
:101EA0004D839E831F82692F50E020E00E94612DA8
:101EB0008FE7BE016F5F7F4F0E94BA0C27960FB667
:101EC000F894DEBF0FBECDBFCF91DF910895DF93B1
:101ED000CF93CDB7DEB727970FB6F894DEBF0FBE0E
:101EE000CDBF80910B0189838FEF8A838BE78B8332
:101EF0001C821D821E821F828FE7BE016F5F7F4F93
:101F00000E94BA0C27960FB6F894DEBF0FBECDBF65
:101F1000CF91DF9108951F93DF93CF93CDB7DEB7B5
:101F200027970FB6F894DEBF0FBECDBF182F909144
:101F30000B018823F9F099838A8380E18B836C837A
:101F40004D835E832F83191731F08FE7BE016F5FDA
:101F50007F4F0E94BA0C80910B01181729F0812F36
:101F60000E946A0C882331F080E0BE016F5F7F4FD2
:101F70000E948B0C27960FB6F894DEBF0FBECDBF24
:101F8000CF91DF911F91089583E40E9439078091DA
:101F90000F0190E073E0880F991F7A95E1F70E9496
:101FA000BB3A8093F7009093F8008FEF809309017C
:101FB00010920A01109208011092FA001092FC008F
:101FC000EDEFF0E0119281E0E430F807D9F71092DC
:101FD000F2001092F3001092F4001092F5001092AB
:101FE000F6000895F8940E9432078091F7009091CE
:101FF000F8000E94683B0E9401170E94BC190E94D1
:10200000B21C0E94751F0E94C6230E9497290E943D
:10201000BB2D19BE83E40E9439070E94F90B0E9470
:10202000C40F0E947E150E94DF150E943A180E947C
:10203000561B0E94901E0E94031F0E94BF1F0E94F9
:10204000D8260E94DD2C0E94033678940E94670FE8
:10205000089580E00E941F080E940B0B0E947E0AD8
:102060000E94F20F0895CF92DF92EF92FF920F93AA
:102070001F93DF93CF93CDB7DEB72E970FB6F894AB
:10208000DEBF0FBECDBF809109018F3F09F4A4C40C
:1020900090E023E0880F991F2A95E1F7E090F70080
:1020A000F090F800E80EF91E80911001882369F085
:1020B000D70112969C9180910B01981731F0F7018E
:1020C00081918068BF010E94BA0CF70192818091D2
:1020D0000B01981731F0892F0E946A0C882309F4AC
:1020E0006BC4D70113968C91282F30E0837809F0C8
:1020F000B1C3DE011196F701319687E001900D9290
:102100008150E1F7F70183818C3309F437C18D33B6
:10211000A8F4803109F44BC0813130F4882321F1D7
:10212000883009F033C337C08C3109F462C088337A
:1021300009F4D4C0883109F029C34DC0803609F4B0
:10214000D8C2813638F4803409F46DC18C3409F07A
:102150001DC371C1883709F4E5C28C3709F4F7C291
:10216000843609F013C3CEC2D70117963C91179756
:1021700020E016968C911697280F311D80910B0147
:1021800014966C91149715964C918E010F5F1F4F0A
:102190000E94DB0DFBC280E060910B01F7014481DE
:1021A00027818E010F5F1F4F0E94CC0CEFC2D70119
:1021B00011961C91119714960C91149715968C9169
:1021C000159716966C910E948101AC01812F602FAA
:1021D000F70127810BC0D70115964C9115971196E1
:1021E0008C91119716966C9150E020E00E94612D21
:1021F000CDC2F7016481262F30E0C9018E7F907037
:10220000803A910521F0883A910509F065C020FFD8
:1022100063C06E7F80E00E94290681E0D701169698
:102220006C910E94290682E0F70165810E942906CF
:102230000E944C0683E00E9450060E941A068823E2
:10224000E1F7D70114966C910E942906F701878166
:102250008F5F0E9450060E941A068823E1F7809142
:102260000B018887D70111968C9189878DE18A8728
:1022700001E088E0C82ED12CCC0EDD1E27C0802FB7
:102280000E9491068B87802F8F5F0E9491068C871A
:10229000102F1D5F802F8E5F0E9491068D870C5F2F
:1022A000812F0E9491068E878091090190E013E0B2
:1022B000880F991F1A95E1F7E091F700F091F80067
:1022C000E80FF91F8081B6010E94BA0CF7018781DF
:1022D0008017A8F68DE159C28EE157C2D701149636
:1022E0008C91813081F0813020F0803109F04EC234
:1022F0001AC0809108018823A1F4F7018581809399
:10230000080189E342C290910801992351F089E3C1
:102310008B83903119F480E00E9417081092080115
:1023200035C28AE332C280910801803119F08032CF
:1023300009F02CC280E0D70115966C910E94290605
:1023400081E0F70167810E94290682E0D701169695
:102350006C910E94290683E00E9426061092F900E3
:10236000F701848180930401858180930501868132
:102370008093060187818093070108C2809108013C
:10238000803119F0803209F001C2D70114968C9186
:10239000149790910401890F8093040115968C91F4
:1023A000159790910501890F8093050116968C91E0
:1023B000169790910601890F8093060117962C912C
:1023C00080910701280F209307019091F900903127
:1023D00098F480910801803121F0983068F48032BF
:1023E00059F4C701049664E00E9431068091F90017
:1023F0008F5F8093F900CAC180910501909104011B
:10240000892B90910601892B822B11F08EE3BDC19F
:1024100080910801803111F483E401C083E20E94BD
:1024200050068DE3B2C1F7018481658146810E9427
:10243000220881E4AAC1D70114968C91803109F455
:1024400070C08131E8F4883009F449C0893040F423
:102450008630D1F18730F0F5843009F0B6C02FC056
:102460008B3009F442C08C3020F4893009F0ADC0C3
:1024700039C08D3009F442C08F3009F0A6C048C081
:102480008E3109F46CC08F3150F48B3109F455C092
:102490008C3109F45DC0883109F097C04AC084329C
:1024A00009F47FC0853220F4803209F08EC069C003
:1024B000853209F47BC0803609F087C082C0F701FD
:1024C00085810E941F0881C0D70115968C91809349
:1024D0000E017BC0F70185818093110176C00E94B7
:1024E000C20A73C00E94350A70C0D70115968C913C
:1024F000159716966C910E94D91567C0F7018581D2
:1025000066810E94810190930D0180930C015DC052
:10251000D70115968C91159716966C910E94D3153C
:1025200054C0F701858166810E9481010E943215A5
:102530004CC00E9414088D8348C0D70115968C9119
:10254000159716966C910E9481010E941A083DC051
:1025500082E08D8385E08E838DE08F8336C0F70126
:102560002581220F220F220F8DE09FE3A2E0B0E031
:1025700004C0B595A795979587952A95D2F78E8330
:1025800024C0D70115961C91159716968C91169715
:1025900017966C910E948101BC01812F0E94E01668
:1025A00014C0F70185810E9424200FC0D701159621
:1025B0008C91159716966C910E9481010E9427209C
:1025C00004C0F701858180930F01D70114968C9187
:1025D000807E803409F040C010E0812F0E944508C1
:1025E000F7019581891719F01F5F1032B1F7012F9C
:1025F0000770D70114969C911497892F807F80349F
:10260000D1F4892F8F70182F169580FD0DC0169666
:102610008C91169717966C910E948101AC01802FC6
:10262000612F0E94F51807C0802F612FF7014681A6
:1026300027810E940E19D70114968C91149780352A
:1026400059F416968C91169717966C910E948101F9
:10265000BC01802F0E94E418F7018481807E8038BD
:1026600009F045C010E0812F0E944508D70115965A
:102670009C91891719F01F5F1032A9F7012F07707D
:10268000F7019481892F807F8038D1F4892F8F7052
:10269000182F169580FD0AC0868167810E948101EE
:1026A000AC01802F612F0E94021C0AC0802F612F75
:1026B000D70116964C91169717962C910E941A1CCA
:1026C000F7018481803941F4868167810E9481010C
:1026D000BC01802F0E94E51BD70114968C911497A2
:1026E000813929F4802F16966C910E94F41B8DE499
:1026F0004CC0F70184816581468127810E940A28A8
:1027000081E643C0D70117968C918F3F19F40E9440
:10271000322D06C0F7018481658146810E943E2DDD
:1027200085E633C0D70117966C911797862F87706F
:1027300066956695669516964C91169715962C910A
:10274000159714960C910E94140B89E71EC0EDEFAB
:10275000FFE7E491D70115968C9115978E17B1F488
:10276000EEEFFFE7E49116968C9116978E1771F4B1
:10277000EFEFFFE7E49117968C9117978E1731F4DE
:1027800014968C9180930B018DE78B8380910B01C4
:102790008983F70181818A838B8190E083709070B7
:1027A000892BA1F08091090190E0B3E0880F991F77
:1027B000BA95E1F7E091F700F091F800E80FF91F02
:1027C0008081BE016F5F7F4F0E94BA0CD7011396C4
:1027D0008C9113978C3409F0EFC014968C9185304E
:1027E00019F1863040F4823089F08330D1F08130A5
:1027F00009F0E2C008C08C3011F18E3029F18A3026
:1028000009F0DAC016C00E94F20FD6C0F89428E092
:1028100088E190E00FB6F894A89581BD0FBE21BD68
:10282000FFCF0E942910C8C0F701858180930B015A
:10283000C3C0D70115968C9180931001BDC0F701DC
:1028400085810E94CD15B8C0D70115968C910E9444
:10285000D015B2C08091F200813011F5F70191815D
:102860008091F5009817E1F42C7F30702830310505
:10287000B9F494818091F600981791F41092F200C7
:102880001092F4008381893059F466816295607FEB
:10289000858182958F70682B8091F3000E944A2D6C
:1028A0008091FA008130A1F58091090190E0A3E0C8
:1028B000880F991FAA95E1F7E091F700F091F800D1
:1028C000E80FF91F83818C7F83838091090190E059
:1028D000F3E0880F991FFA95E1F7A091F700B09106
:1028E000F800A80FB91FEDEFF0E021E011969C91E0
:1028F00011978081981320E01196319681E0E430A1
:10290000F807A1F7213021F41092FA001092FC0090
:10291000D70113968C9113978B3709F04DC0009116
:102920001101013009F048C080910B018983119693
:102930008C918A8388E78B830E942D0B8C830E9465
:102940002A0B8D830E94270B8E830E94240B182F45
:102950000E94210B110F110F110F182B1F830093D1
:10296000FA00ADEFB0E0FE01319687E001900D92E4
:102970008150E1F7F70181818093FD0080910B0187
:102980008093FE0089E78093FF0088E08093FC003D
:102990008091090190E0E3E0880F991FEA95E1F743
:1029A000E091F700F091F800E80FF91F8081BE0177
:1029B0006F5F7F4F0E94BA0C8091090160910F01F7
:1029C0008F5F0E94883A9093090180910A019817BD
:1029D00019F48FEF809309018091F200813071F436
:1029E0008091F400882351F41092F20081E060910C
:1029F000F50048E02091F6000E94930D8091FA00C6
:102A00008130B9F48091FC00882399F41092FA0087
:102A10008091FB00813021F48AE06AE00E94371542
:102A200081E06091FD004091FF00209100010E9433
:102A3000930D2E960FB6F894DEBF0FBECDBFCF918B
:102A4000DF911F910F91FF90EF90DF90CF9008954D
:102A500085E191E008958FEF9FEF909316018093A9
:102A60001501089590931601809315010895482F3C
:102A700021E030E0C90102C0880F991F6A95E2F792
:102A8000BC01809115019091160168237923672B71
:102A9000B1F08AE0489FC001112490931401809303
:102AA0001301E0911701F09118018081009012014B
:102AB00002C0220F331F0A94E2F7822B808308950D
:102AC0008091130190911401009791F4E091170106
:102AD000F0911801208181E090E00090120102C085
:102AE000880F991F0A94E2F78095822380830895C6
:102AF000019790931401809313010895EF92FF9230
:102B00000F931F93DF93CF930F92CDB7DEB782E081
:102B10006FEF0E948709082F10E07E010894E11CE6
:102B2000F11C1AC0C70160E070E040E050E020E016
:102B300030E00E949D09898161E00E9459099093CB
:102B40001801809317018981982F97709093120133
:102B500061E00E944F081F5F101720F310921401CC
:102B6000109213010F90CF91DF911F910F91FF9061
:102B7000EF90089589E191E0089510921901109263
:102B80001A01EBE1F1E0119281E0E332F807D9F7A5
:102B90001082118212821382089580931901089580
:102BA00080931A010895E9E1F1E0E80FF11D6283D5
:102BB0000895E9E1F1E0E80FF11D628708951092B0
:102BC0002F0188E98AB986E289B986E880BD10922A
:102BD00031011092300108958091300190913101BE
:102BE000009719F410922F010895019790933101E5
:102BF0008093300108955D9BFECF8CB90895482FD6
:102C0000803169F0282F30E0C9018F77409711F0AB
:102C100047FD05C02F7030702F30310589F5909138
:102C20001A01933049F49091190180911B015D9B29
:102C3000FECF89278CB907C0809119015D9BFECF1B
:102C40008CB9992381F0FB01ACE1B1E090818C91CA
:102C50005D9BFECF89278CB93196119681E0A33216
:102C6000B807A1F7089580E090E0FB01E80FF91F95
:102C7000E0815D9BFECFECB9019687309105A9F705
:102C800008951F920F920FB60F9211242F933F9326
:102C90004F935F936F937F938F939F93AF93BF9364
:102CA000CF93DF93EF93FF935F9BFECF20912F0194
:102CB000E22FF0E09CB1DF01A95DBE4F9C9322237F
:102CC00061F480911A01833089F480911B01909105
:102CD000270189278093270109C080911A01882341
:102CE00029F0E75EFE4F828189278C93822F8F5FC8
:102CF00080932F01883079F59091270180911901F7
:102D0000981731F580E168E271E00E948B0CC3E214
:102D1000D1E098819923B9F020912801291731F049
:102D200080912901891711F08F3F69F48091290161
:102D30008F3F21F4291711F09093290180E168E277
:102D400071E00E94FF15219681E0C732D80709F78C
:102D500010922F0108C0813031F485E890E0909303
:102D6000310180933001FF91EF91DF91CF91BF91BD
:102D7000AF919F918F917F916F915F914F913F9113
:102D80002F910F900FBE0F901F90189582E391E046
:102D9000089510923301109232018AE090E09093EE
:102DA00035018093340182E390E090933701809362
:102DB000360186E990E090933901809338010895B7
:102DC000E82FF0E0EE0FFF1FEE5CFE4F7183608393
:102DD000089581E080933D010895282F30E0C901D6
:102DE00053E0880F991F5A95E1F7220F331F820F86
:102DF000931FE0913B01F0913C01E80FF91F8081A6
:102E0000089580913B0190913C010E94683B089598
:102E10009AE0899FC0011124E0913B01F0913C01AF
:102E2000E80FF91F218120952795222727952083D8
:102E3000E0913B01F0913C01E80FF91F2081237FD5
:102E4000262B2083E0913B01F0913C01E80FF91F14
:102E500040818185608550E020E00E948B0F0895BD
:102E6000FF920F931F93CF93DF9380913D018130A9
:102E700009F0FAC010E07AE0F72E01E0EEC01F9DE5
:102E8000E0011124E0913B01F0913C01EC0FFD1FAA
:102E900082819381009719F0019793838283A09197
:102EA0003B01B0913C01AC0FBD1F11962C911197C5
:102EB000422F50E01496ED91FC911597808190E09F
:102EC00016960C90169702C0959587950A94E2F78E
:102ED0008427952780FF8DC027FF39C02F77119653
:102EE0002C93E0913B01F0913C01EC0FFD1F878199
:102EF000482F50E04C7050704C30510591F4809147
:102F000038019091390122813381821B930B2091EA
:102F10003601309137018217930718F0812F68E04E
:102F200014C0483051059CF08091360190913701D2
:102F300022813381821B930B209134013091350122
:102F40008217930720F0812F64E00E940817E09118
:102F50003B01F0913C01EC0FFD1F878185FF09C00B
:102F600080913401909135019383828381818068BF
:102F70008183A0913B01B0913C01AC0FBD1F119624
:102F80008C91119790E09C012170307080FD06C0FB
:102F900017968C91179780FD08C022C0222301F15B
:102FA00017968C91179781FF1BC01796EC91179776
:102FB000E695E695F0E0E370F070EE0FFF1FEE5C33
:102FC000FE4F8081918113969C938E931297E0918E
:102FD0003B01F0913C01EC0FFD1F818180688183F2
:102FE000E0913B01F0913C01EC0FFD1F81818027B6
:102FF0008183A0913B01B0913C01AC0FBD1F1196A4
:103000004C911197242F30E01496ED91FC91159777
:10301000808190E016960C90169702C09595879542
:103020000A94E2F78227932780FD16C047FF14C059
:1030300012968D919C911397892B71F44F7711966D
:103040004C93E0913B01F0913C01EC0FFD1F678137
:103050006C70812F0E9408171F5F80913A0118172A
:1030600008F40DCF10923D01DF91CF911F910F9188
:10307000FF900895AF92BF92CF92DF92EF92FF92AE
:103080000F931F93DF93CF930F92CDB7DEB71092BC
:103090003D0180E860E80E948709982F80933A01FB
:1030A0008AE0989FC00111240E94BB3A80933B01A3
:1030B00090933C01DD24EAE0CE2E5E010894A11C31
:1030C000B11C5AC0DC9C7001112460913B017091CD
:1030D0003C016E0D7F1DAB01485F5F4F9B01275F79
:1030E0003F4FC501695F7F4F0E949D0900913B01E1
:1030F00010913C010E0D1F1D898160E00E9459094D
:10310000F80195838483A0913B01B0913C01AE0D01
:10311000BF1D3981232F277016962C93169714966E
:10312000ED91FC911597808190E002C0959587956F
:103130002A95E2F7817011968C93E0913B01F09112
:103140003C01EE0DFF1D818180958795882787952D
:103150008083E0913B01F0913C01EE0DFF1D138255
:103160001282878184FD03C0832F60E002C0832F19
:1031700062E00E944F08D39480913A01D81608F477
:10318000A1CF0F90CF91DF911F910F91FF90EF9002
:10319000DF90CF90BF90AF9008958FE391E00895B6
:1031A000EFE3F1E088E592E091838083138212825D
:1031B0001482158217821682108611863A9621E0B3
:1031C000EF38F20789F70895282F30E0F90193E0EE
:1031D000EE0FFF1F9A95E1F7220F331FE20FF31F47
:1031E000E15CFE4F718360830895E62FF0E0EE0FFF
:1031F000FF1FEE0FFF1F282F30E0C90173E0880F7B
:10320000991F7A95E1F7220F331F820F931FE80F62
:10321000F91FE15CFE4F538342830895EF92FF92C2
:103220000F931F9370E08B010F5F1F4FEFE3EE2EA4
:10323000E1E0FE2E000F111F000F111FE82FF0E03C
:10324000DF0133E0AA0FBB1F3A95E1F7EE0FFF1F36
:10325000AE0FBF1F0A0F1B1F0E0D1F1DF80140836D
:10326000660F771F660F771F482F50E0CA0113E0E3
:10327000880F991F1A95E1F7440F551F840F951F6A
:10328000680F791FE60EF71EF70125831F910F9136
:10329000FF90EF900895282F862F82958F708A30A7
:1032A00011F5862F90E083709070892BE1F466957C
:1032B0006695E62FF0E0E370F070EE0FFF1FEE0F63
:1032C000FF1F822F90E09C01B3E0220F331FBA95BD
:1032D000E1F7880F991F280F391FE20FF31FE15CF8
:1032E000FE4F53834283089580918F018F5F8093B7
:1032F0008F010895582F462F662319F06FEF7FEF47
:1033000012C0282F30E0C90173E0880F991F7A9509
:10331000E1F7820F931FE0919101F0919201E80F84
:10332000F91F60817181842F82958F708A3011F529
:10333000842F90E083709070892BE1F44695469538
:10334000E42FF0E0E370F070EE0FFF1FEE0FFF1FB1
:10335000852F90E09C0153E0220F331F5A95E1F72F
:10336000880F991F280F391FE20FF31FE15CFE4FF2
:1033700062817381CB0108958091910190919201B6
:103380000E94683B0895AF92BF92CF92DF92EF9276
:10339000FF920F931F93CF93DF9380918F018A3019
:1033A000D0F010928F015091900140E020E030E089
:1033B00010C0E0919101F0919201E20FF31F828120
:1033C0009381009719F00197938382834F5F275F62
:1033D0003F4F451770F390913E019F3F09F408C19C
:1033E000369906C189E0989FC0011124E0919101AE
:1033F000F0919201E80FF91F1182108224B130E0A0
:10340000220F331F220F331F3183208345B1942FA6
:10341000990F990F80E0282B392B31832083EE24DC
:10342000FF2499E0A92E0E2D80913E018A9DC001B6
:103430001124C0919101D0919201C80FD91F4E81E2
:10344000D701AA0FBB1FAA0FBB1F842F90E0FC015E
:1034500013E0EE0FFF1F1A95E1F7880F991FE80F91
:10346000F91FEA0FFB1FE15CFE4FC280D380F7011A
:103470003196EE0FFF1FEE0FFF1F842F90E09C018F
:1034800053E0220F331F5A95E1F7880F991F280F39
:10349000391FE20FF31FE15CFE4FB080842F90E0F4
:1034A0009C01F3E0220F331FFA95E1F7880F991F73
:1034B000280F391FA20FB31FA15CBE4F15961C9198
:1034C00012FF2CC0888199818C159D0558F410FD40
:1034D00009C011604E2D406488856F8150E020E066
:1034E0000E948B0F80913E018A9DC0011124E091C2
:1034F0009101F0919201E80FF91F96012B0D311DFA
:10350000808191818217930748F010FF07C01E7FCA
:1035100080856781A70120E00E948B0F13FF38C0D0
:1035200080913E018A9DC0011124E0919101F091AA
:103530009201E80FF91F80819181C816D90658F4CD
:1035400011FD09C01260402F406C8085678150E0FA
:1035500020E00E948B0F80913E018A9DC0011124C2
:10356000E0919101F0919201E80FF91FCB18D10879
:1035700080819181C816D90658F011FF09C01D7FBE
:10358000006880856781402F50E020E00E948B0F0B
:1035900080913E0190E09C0173E0220F331F7A95E9
:1035A000E1F7280F391FE0919101F0919201E20FAC
:1035B000F31FD701AA0FBB1FAA0FBB1F868190E084
:1035C0009C0153E0220F331F5A95E1F7880F991F92
:1035D000280F391FA20FB31FA15CBE4F15961C9375
:1035E0000894E11CF11C82E0E816F10409F01BCFFD
:1035F00080913E018F3F11F036994DC0482F4F5FAB
:1036000020919001A0919101B091920111C0842F5D
:1036100090E0FC0133E0EE0FFF1F3A95E1F7E80F71
:10362000F91FEA0FFB1F82819381892B21F04F5FE5
:10363000421768F32DC029E0429F90011124A20F88
:10364000B31F16968C91169790E0FC0103E0EE0FE5
:10365000FF1F0A95E1F7880F991FE80FF91FE15C3A
:10366000FE4F8081918113969C938E93129787B120
:10367000887F87B997B1E0919101F0919201E20FB3
:10368000F31F8681982B97B9369A40933E0103C069
:103690008FEF80933E01DF91CF911F910F91FF90AB
:1036A000EF90DF90CF90BF90AF900895AF92BF9210
:1036B000CF92DF92EF92FF920F931F93DF93CF93FE
:1036C0000F92CDB7DEB780E268EF0E948709982F8E
:1036D0008093900189E0989FC00111240E94BB3A19
:1036E0008093910190939201DD2459E0C52E5E01F3
:1036F0000894A11CB11C36C0DC9C700111244091BF
:103700009101509192014E0D5F1D9A01285F3F4F2C
:10371000C50160E070E0495F5F4F0E949D09009124
:103720009101109192010E0D1F1D898160E00E9490
:103730005909F80195838483E0919101F0919201F8
:10374000EE0DFF1D8981868311821082E091910127
:10375000F0919201EE0DFF1D1382128260E00E9433
:103760004F08D39490919001D91630F210928F01A6
:103770008FEF80933E0180EC87B9992311F087E8A1
:1037800086B90F90CF91DF911F910F91FF90EF902D
:10379000DF90CF90BF90AF90089588E991E00895B1
:1037A000E8E9F1E08CE390E0918380831282148257
:1037B00013821582168210861782118612863B9616
:1037C00021E0E03FF20781F7089590E02BE030E040
:1037D000829FF001839FF00D929FF00D1124E85617
:1037E000FE4F71836083089590E02BE030E0829F6C
:1037F000F001839FF00D929FF00D1124E856FE4FCB
:1038000062830895E62FF0E090E0EE0FFF1FEE0FC9
:10381000FF1F2BE030E0BC01629FC001639F900D51
:10382000729F900D1124E80FF91FE856FE4F548344
:10383000438308950F931F93CF93DF9390E070E03D
:10384000660F771F660F771F08E911E0FB013296BC
:10385000ABE0B0E0EC01CA9FC001CB9F900DDA9FB6
:10386000900D1124E80FF91FE00FF11F4383680F3B
:10387000791F060F171FF8012683DF91CF911F9143
:103880000F910895282F862F82958F708A3009F521
:10389000862F90E083709070892BD9F46695669599
:1038A000E62FF0E0E370F07030E0EE0FFF1FEE0F58
:1038B000FF1F8BE090E0BC01269FC001279F900D69
:1038C000369F900D1124E80FF91FE856FE4F5483E0
:1038D00043830895809197018F5F809397010895A6
:1038E000582F462F662319F06FEF7FEF12C0282F55
:1038F00030E0C901E3E0880F991FEA95E1F7821BE8
:10390000930BE0919401F0919501E80FF91F60810C
:103910007181842F82958F708A3011F5842F90E009
:1039200083709070892BE1F446954695E42FF0E082
:10393000E370F070252F30E0EE0FFF1FEE0FFF1F3A
:103940008BE090E0AC01249FC001259F900D349F37
:10395000900D1124E80FF91FE856FE4F6381748122
:10396000CB01089580919401909195010E94683B4C
:1039700008952F923F924F925F926F927F928F9213
:103980009F92AF92BF92CF92DF92EF92FF920F93EE
:103990001F93CF93DF9380919701882309F4ADC1E2
:1039A0001092970144247BE0272E312CA1C127E0FF
:1039B000429E50011124E0919401F0919501EA0D8D
:1039C000FB1D81E090E0048002C0880F991F0A94DB
:1039D000E2F7D82E82819381009719F001979383A3
:1039E0008283E0919401F0919501EA0DFB1D8281A3
:1039F0009381019709F58D2D0E9456078823E1F0E8
:103A00008D2D0E940308E0919401F0919501EA0D3B
:103A1000FB1D848190E0829DF001839DF00D929DBD
:103A2000F00D1124E856FE4F82818150823020F43F
:103A300084E46D2D0E94EB07E0919401F0919501D3
:103A4000EA0DFB1D82819381892B09F050C18D2DD8
:103A50000E945607882309F48AC08D2D0E9403080E
:103A6000E0919401F0919501EA0DFB1D848190E0B5
:103A7000829DF001839DF00D929DF00D1124E8567A
:103A8000FE4F8281813021F0823009F070C022C067
:103A90008EEB6D2D0E94EB07009194011091950122
:103AA0000A0D1B1D8D2D0E94A107F8018083118234
:103AB000E0909401F0909501EA0CFB1CF701008165
:103AC00011818D2D0E94A107982E8824082919297B
:103AD000F7014BC08EEB6D2D0E94EB070091940116
:103AE000109195010A0D1B1D8D2D0E94A107F80153
:103AF00080831182E0909401F0909501EA0CFB1C08
:103B0000F701008111818D2D0E94A107782E662476
:103B100006291729F701118300838D2D0E94A10723
:103B20008D2D0E94A1078D2D0E94A1078D2D0E9431
:103B3000A107E0919401F0919501EA0DFB1D008130
:103B40001181159507958D2D0E94A10754E0000F56
:103B5000111F5A95E1F7045F1F4FE0919401F09116
:103B60009501EA0DFB1D081B11091183008300E07C
:103B700010E0F02EC0919401D0919501CA0DDB1D8B
:103B80008C8190E0D801AA0FBB1FAA0FBB1F829D9A
:103B9000F001839DF00D929DF00D1124AE0FBF1F1B
:103BA000A856BE4F1396CD90DC901497C801880F8D
:103BB000991F880F991FE80FF91FE656FE4F538093
:103BC0001696EC90E2FE29C0888199818C159D059E
:103BD00064F4E0FC0AC0F1E0EF2A402F40648E81DB
:103BE0006D8150E020E00E948B0FE0919401F091F4
:103BF0009501EA0DFB1D9601250D311D80819181F6
:103C00008217930754F0E0FE08C02EEFE22286816F
:103C10006581A80120E00E948B0FE3FE31C0E09196
:103C20009401F0919501EA0DFB1D80819181C816E8
:103C3000D90664F4E1FC0AC032E0E32A4F2D406C5F
:103C40008681658150E020E00E948B0FE091940115
:103C5000F0919501EA0DFB1DC518D1088081918175
:103C6000C816D9066CF0E1FE0BC08DEFE82220E803
:103C7000F22A868165814F2D50E020E00E948B0F53
:103C8000A0919401B0919501AA0DBB1D14968C9141
:103C9000149790E0F801EE0FFF1FEE0FFF1F9C013D
:103CA000229DC001239D900D329D900D1124E80F9F
:103CB000F91FE856FE4FE6820F5F1F4F02301105D5
:103CC00009F057CF14968C91149790E02BE030E0D8
:103CD000829FF001839FF00D929FF00D1124E85612
:103CE000FE4F8081918113969C938E9312974394FB
:103CF00080919301481608F45ACEDF91CF911F911D
:103D00000F91FF90EF90DF90CF90BF90AF909F907A
:103D10008F907F906F905F904F903F902F9008957D
:103D2000AF92BF92CF92DF92EF92FF920F931F93C9
:103D3000DF93CF930F92CDB7DEB788E268EF0E9492
:103D40008709982F8093930187E0989FC0011124E1
:103D50000E94BB3A80939401909395011092960132
:103D6000FF24F7E0EF2E5E010894A11CB11CE1E0F6
:103D7000CE2ED12C32C0FE9C8001112440919401A2
:103D800050919501400F511F9A012A5F3F4FC50185
:103D900060E070E04B5F5F4F0E949D09E0919401ED
:103DA000F0919501E00FF11F298124831182108287
:103DB000E0919401F0919501E00FF11F13821282BE
:103DC000C60102C0880F991F2A95E2F79C018091D5
:103DD0009601822B80939601F39480919301F816BB
:103DE00050F210929701809196010E9408080F905E
:103DF000CF91DF911F910F91FF90EF90DF90CF90C7
:103E0000BF90AF9008957F928F929F92AF92BF9292
:103E1000CF92DF92EF92FF920F931F93DF93CF9396
:103E200000D0CDB7DEB780E06EEF0E948709782E14
:103E3000EE2432E0832E912C8C0E9D1E5E010894A0
:103E4000A11CB11C21E0C22ED12C2DC0C501B40192
:103E500040E050E020E030E00E949D09898161E06F
:103E60000E9459098C01898197E0F92EF82261E0BE
:103E70000E944F088A81813051F4F8012081C601E7
:103E800002C0880F991FFA94E2F7282B0AC0F801A4
:103E90002081C60102C0880F991FFA94E2F780952D
:103EA00028232083E394E71488F20F900F90CF919A
:103EB000DF911F910F91FF90EF90DF90CF90BF9017
:103EC000AF909F908F907F90089590E09C01220F7B
:103ED000331F280F391F220F331FE091F101F0919A
:103EE000F201E20FF31F808108958091F10190911A
:103EF000F2010E94683B0895462F96E0899FB00129
:103F00001124E091F101F091F201E60FF71F4083D7
:103F10004423A1F0E091F101F091F201E60FF71FC7
:103F2000A181B2812C9181E090E0038002C0880FD2
:103F3000991F0A94E2F7282B2C9314C0E091F10109
:103F4000F091F201E60FF71FA181B2812C9181E07F
:103F500090E0038002C0880F991F0A94E2F78095D1
:103F600082238C93E091F101F091F201E60FF71FAB
:103F70008581648150E020E00E948B0F0895AF920C
:103F8000BF92CF92DF92EF92FF920F931F93DF9336
:103F9000CF930F92CDB7DEB780E160EF0E94870923
:103FA000982F8093F00186E0989FC00111240E9411
:103FB000BB3A8093F1019093F201DD2456E0C52EC7
:103FC0005E010894A11CB11C2FC0DC9C700111245F
:103FD0004091F1015091F2014E0D5F1D9A012B5F4E
:103FE0003F4FC50160E070E04C5F5F4F0E949D094C
:103FF0000091F1011091F2010E0D1F1D898161E008
:104000000E945909F80192838183E091F101F091B6
:10401000F201EE0DFF1D8981982F97709383108216
:1040200061E00E944F08D3948091F001D81668F2A5
:104030000F90CF91DF911F910F91FF90EF90DF9044
:10404000CF90BF90AF9008958093F801089590931A
:10405000FA018093F9010895CF92DF92EF92FF92D7
:104060000F931F93CF93DF938C01C42E81E0809335
:10407000FC017B01601771070CF47801C801845DB5
:104080009E4F1816190614F408591A43C701845D87
:104090009E4F1816190624F488E695ECE80EF91ED2
:1040A0008091F301882309F059C050E046E024C014
:1040B000E0910402549FC00111242091020230912A
:1040C0000302280F391FEE2319F463E070E002C0E9
:1040D00060E070E08E2F90E0FC01EE0FFF1FE80F14
:1040E000F91FD901A60FB71FE20FF31F83E001905C
:1040F0000D928150E1F75F5F8091F5015817C0F292
:1041000050E046E024C0E0910402549FC001112415
:104110002091000230910102280F391FEE2319F47B
:1041200063E070E002C060E070E08E2F90E0FC0180
:10413000EE0FFF1FE80FF91FD901A60FB71FE20FFF
:10414000F31F83E001900D928150E1F75F5F809152
:10415000F5015817C0F281E08093F301A0910202AB
:10416000B091030260E070E080910402882311F4B2
:1041700061E070E050E09B01220F331F260F371FD4
:1041800001C05F5F852F90E0FC01EE0FFF1FE80F7D
:10419000F91FEE0FFF1FEA0FFB1FE20FF31F8281D3
:1041A000C81679F740E09B01220F331F260F371FF7
:1041B00001C04F5F842F90E0FC01EE0FFF1FE80F5E
:1041C000F91FEE0FFF1FEA0FFB1FE20FF31F8081A5
:1041D0009181801791076CF3541718F036E0D32EB5
:1041E0005AC0415031C0C0910202D0910302E52F64
:1041F000F0E060E070E080910402882311F461E057
:1042000070E0DF01AA0FBB1FAE0FBF1FAA0FBB1FBD
:10421000AC0FBD1F9B01220F331F260F371FCF018D
:104220000196FC01EE0FFF1FE80FF91FEE0FFF1FB5
:10423000EC0FFD1FA20FB31FE20FF31F83E00190ED
:104240000D928150E1F75F5F541768F226C0E0914C
:104250000202F09103025D9D9001112460E070E084
:1042600080910402882311F461E070E02E0F3F1F5B
:10427000CB01880F991F860F971FD901A80FB91F6F
:1042800026503040F901E80FF91F83E001900D92AC
:104290008150E1F751504517D0F286E0489FC001A8
:1042A0001124E0910202F0910302E80FF91F60E08F
:1042B00070E080910402882311F461E070E0CB018A
:1042C000880F991F860F971FE80FF91F118300832E
:1042D000C282A0910002B091010250E09C0101C095
:1042E0005F5F852F90E0FC01EE0FFF1FE80FF91FC5
:1042F000EE0FFF1FEA0FFB1FE20FF31F8281C816AC
:1043000079F740E09B01220F331F260F371F01C0B2
:104310004F5F842F90E0FC01EE0FFF1FE80FF91FA5
:10432000EE0FFF1FEA0FFB1FE20FF31F8081918149
:104330008E159F056CF3541710F016E05AC04150CB
:1043400031C0C0910002D0910102E52FF0E060E0A1
:1043500070E080910402882311F461E070E0DF01D5
:10436000AA0FBB1FAE0FBF1FAA0FBB1FAC0FBD1FF5
:104370009B01220F331F260F371FCF010196FC012F
:10438000EE0FFF1FE80FF91FEE0FFF1FEC0FFD1FD1
:10439000A20FB31FE20FF31F83E001900D92815033
:1043A000E1F75F5F541768F226C0E0910002F091D8
:1043B0000102519F9001112460E070E0809104029D
:1043C000882311F461E070E02E0F3F1FCB01880FAE
:1043D000991F860F971FD901A80FB91F265030408B
:1043E000F901E80FF91F83E001900D928150E1F788
:1043F00051504517D0F286E0489FC00111246091CA
:10440000000270910102680F791F20E030E0809176
:104410000402882311F421E030E0F901EE0FFF1FC0
:10442000E20FF31FE60FF71FF182E082C2821092C3
:10443000FC01DF91CF911F910F91FF90EF90DF90E2
:10444000CF90089590E09C0144E0220F331F4A95DD
:10445000E1F7280F391FE091F601F091F701E20F23
:10446000F31F6081718180E090E00E949C3720E022
:1044700030E048EC52E40E94AA3820E030E04FE7F8
:1044800053E40E94033720E030E040E05FE30E9405
:104490008C360E947037DC01CB0108951F920F9279
:1044A0000FB60F9211241F932F933F934F935F9357
:1044B0006F937F938F939F93AF93BF93CF93DF932C
:1044C000EF93FF9316E071E1C1E0D0E023C0828159
:1044D000879FC0011124A091F601B091F701A80FA8
:1044E000B91F8D919C911197892B79F01B96ED91B5
:1044F000FC911C972081CE011D960C9002C0880F64
:10450000991F0A94E2F7282B20838091FB018F5F8B
:104510008093FB014AB55BB56091FB01619FC001CF
:104520001124E0910202F0910302E80FF91F20919B
:10453000040230E0C901880F991F820F931FE80F12
:10454000F91F20813181C901CC974817590728F0FC
:104550008091F501681708F4BACF3BBD2ABDFF91E1
:10456000EF91DF91CF91BF91AF919F918F917F910B
:104570006F915F914F913F912F911F910F900FBEBF
:104580000F901F9018951F920F920FB60F92112443
:104590001F932F933F934F935F936F937F938F93CB
:1045A0009F93AF93BF93CF93DF93EF93FF9316E067
:1045B00071E1C1E0D0E01CC08281879FC00111245D
:1045C000E091F601F091F701E80FF91FA385B4859A
:1045D0002C91CE01058402C0880F991F0A94E2F73E
:1045E000809582238C938091F4018F5F8093F401F6
:1045F00048B559B56091F401619FC0011124E09163
:104600000002F0910102E80FF91F2091040230E04E
:10461000C901880F991F820F931FE80FF91F20818E
:104620003181C901CC974817590720F08091F501D5
:10463000681710F239BD28BDFF91EF91DF91CF913E
:10464000BF91AF919F918F917F916F915F914F91AA
:104650003F912F911F910F900FBE0F901F901895B3
:104660001F920F920FB60F9211242F933F934F93E7
:104670005F936F938F939F93AF93BF93EF93FF934A
:1046800030E061E141E050E017C0369FC0011124E5
:10469000E091F601F091F701E80FF91FA385B485C9
:1046A0002C91CA01058402C0880F991F0A94E2F771
:1046B000809582238C933F5F8091F501381728F312
:1046C000FF91EF91BF91AF919F918F916F915F910A
:1046D0004F913F912F910F900FBE0F901F90189503
:1046E0002091FD013091FE01C9010A96459720F005
:1046F000295239400CF43FC086E19FEF9093FE01B0
:104700008093FD018CE394EC9DBD8CBD1092FB0168
:104710001092F4018091F301813061F48091FC01E9
:10472000882341F490E080910402882309F491E009
:10473000909304028091040290E0E0910202F091D3
:1047400003029C01220F331F280F391FE20FF31FB2
:10475000808191819BBD8ABDE0910002F0910102B0
:10476000E20FF31F8081918199BD88BD81E0809324
:10477000FF011092F30108958091FD019091FE01D7
:1047800001969093FE018093FD0108958091F601BA
:104790009091F7010E94683B809102029091030280
:1047A0000E94683B80910002909101020E94683B48
:1047B00008950F931F9321E1829F9001112400918E
:1047C000F6011091F701020F131FF80120813181CA
:1047D000338322830E942222482FF8018089678533
:1047E00050E020E00E948B0F1F910F91089520E070
:1047F00030E040E753E40E94AA3820E030E04FE781
:1048000053E40E94033720E030E04FE753E40E9476
:10481000033723E333E343E35FE30E940D399B0156
:10482000AC01CA01B9010E948C3620E030E040E8BA
:104830005FE30E948B360E947D362BED3FE049E41A
:1048400050E40E94033726E636E646E65FE30E9420
:104850000D399B01AC01CA01B90120E030E64AE6FE
:1048600056E40E94AA380E94F0360E946B379B01E2
:10487000AC01309521953F4FC901089520E030E00B
:1048800040E753E40E94AA3820E030E04FE753E4C9
:104890000E94033720E030E04FE753E40E940337E3
:1048A00023E333E343E35FE30E940D399B01AC0153
:1048B000CA01B9010E948C3620E030E040E85FE395
:1048C0000E948B360E947D362BED3FE049E450E498
:1048D0000E94033726E636E646E65FE30E940D397E
:1048E0009B01AC01CA01B90120E030E64AE656E47A
:1048F0000E94AA380E94F0360E946B379B01AC01DF
:1049000028593A43C90108950F931F93CF93DF931A
:104910008091FF01813009F0CAC010E001E1C0C000
:10492000109FE0011124E091F601F091F701EC0FE6
:10493000FD1F87819085009709F0AEC020813181ED
:10494000428153812417350708F04CC08185928538
:10495000820F931F8417950718F49183808302C0F8
:1049600051834083E091F601F091F701EC0FFD1FB8
:10497000868583FF0CC06081718180E090E00E9499
:104980009C370E94F723BC0188E695EC19C0608132
:10499000718181FD0DC080E090E00E949C370E94F3
:1049A0003E246091F9017091FA01680F791F08C0E7
:1049B00080E090E00E949C370E943E2460E070E01E
:1049C000412F0E942C20E091F601F091F701EC0FAD
:1049D000FD1F808191818F3F910509F054C086852C
:1049E000806850C04217530708F04DC0618572853A
:1049F000CB01840F951F8217930728F4261B370BD2
:104A00003183208302C051834083E091F601F0910D
:104A1000F701EC0FFD1F868583FF0CC0608171815B
:104A200080E090E00E949C370E94F723BC0188E65A
:104A300095EC19C06081718181FD0DC080E090E02E
:104A40000E949C370E943E246091F9017091FA0106
:104A5000680F791F08C080E090E00E949C370E9498
:104A60003E2460E070E0412F0E942C20E091F6018E
:104A7000F091F701EC0FFD1F80819181892B19F4D2
:104A800086858F778687E091F601F091F701EC0F2C
:104A9000FD1F8581968101C00197908787831F5FE5
:104AA0008091F501181708F43BCF1092FF01DF91B8
:104AB000CF911F910F910895CF92DF92EF92FF92C5
:104AC0000F931F93CF93DF93D82EC62EEA01662350
:104AD000B1F40E942222482F882389F02D2D30E046
:104AE000C90174E0880F991F7A95E1F7820F931F2F
:104AF000E091F601F091F701E80FF91F448381E19D
:104B0000D89E70011124E091F601F091F701EE0DAD
:104B1000FF1D868580FF06C0C330D10518F403E071
:104B200010E006C082FD02C08E0102C000E010E06D
:104B300082FF05C0CC2019F0CFEFD0E009C08FEF85
:104B4000C89EC001112464E670E00E94A83AEB01FF
:104B50000115110581F5D183C083E091F601F09133
:104B6000F701EE0DFF1D8685282F83FF0BC0BE01C8
:104B700080E090E00E949C370E94F723BC0188E609
:104B800095EC16C0BE0180E090E021FD0BC00E94B4
:104B90009C370E943E246091F9017091FA01680FE0
:104BA000791F06C00E949C370E943E2460E070E09E
:104BB0004D2D0E942C20E091F601F091F701EE0DB1
:104BC000FF1DD383C28360817181C617D70728F484
:104BD000CB018C1B9D0BEC0102C0C61BD70BC8017F
:104BE000880F991F980153E0220F331F5A95E1F760
:104BF000820F931FBE010E94943A65837683678378
:104C00007087CE01B8010E94943ACB016AE070E04F
:104C10000E94943A6F5F7F4F7287618780896785B2
:104C20004C2D50E020E00E948B0FDF91CF911F911F
:104C30000F91FF90EF90DF90CF9008951F93182F62
:104C40000E9422229091F801899FC001112464E6FC
:104C500070E00E94943AAB01812F60E00E945C25D5
:104C60001F9108951F93182F0E94222224E630E0FE
:104C7000281B31098091F80190E0AC01249FC0010C
:104C8000259F900D349F900D112464E670E00E94E2
:104C9000943AAB01812F64E60E945C251F91089530
:104CA000CF93DF93982F81E1989FE0011124E09149
:104CB000F601F091F701EC0FFD1F868587FF04C018
:104CC000892F0E941E2603C0892F0E943226E09160
:104CD000F601F091F701EC0FFD1F8685805886875D
:104CE000DF91CF9108951F93182F0E942222482F01
:104CF000212F30E0E091F601F091F701882371F067
:104D0000C901B4E0880F991FBA95E1F7820F931F8C
:104D1000E80FF91F4483812F60E00CC0C901A4E0B3
:104D2000880F991FAA95E1F7820F931FE80FF91FCB
:104D3000812F648140E050E00E945C251F9108951E
:104D40001F93CF93DF93182F0E942222C82FD0E009
:104D5000209769F022978FEFCF3FD80711F4C0E07A
:104D6000D0E0812F6C2F40E050E00E945C258C2F1A
:104D7000DF91CF911F9108951F93CF93DF93182F49
:104D80000E942222C82FD0E0C436D10561F02296BD
:104D9000C536D10514F0C4E6D0E0812F6C2F40E079
:104DA00050E00E945C258C2FDF91CF911F910895D8
:104DB0007F928F929F92AF92BF92CF92DF92EF92AB
:104DC000FF920F931F93DF93CF930F92CDB7DEB770
:104DD0001092FF0180E460EC0E948709982F809375
:104DE000F50181E1989FC00111240E94BB3A809394
:104DF000F6019093F701DD24F1E17F2E4E01089436
:104E0000811C911CE4E6CE2E71E0A72EB12C40C08F
:104E1000D79C700111246091F6017091F7016E0D1D
:104E20007F1DAB01415F5F4F9B01205F3F4FC4017E
:104E3000625F7F4F0E949D090091F6011091F7017A
:104E40000E0D1F1D898161E00E945909F8019487A8
:104E50008387E091F601F091F701EE0DFF1D898146
:104E6000982F9770958711821082E091F601F0914A
:104E7000F701EE0DFF1D13821282C4821682158285
:104E800010861782B286A18661E00E944F08D394F3
:104E90002091F501D21608F4BBCF8CE38093F80182
:104EA0008CE390E09093FA018093F90130E02F5F5A
:104EB0003F4FC901880F991F820F931F880F991FB9
:104EC0000E94BB3A80930202909303022091F50165
:104ED00030E02F5F3F4FC901880F991F820F931F4A
:104EE000880F991F0E94BB3AAC01909301028093F6
:104EF0000002009102021091030260E076E022C0FD
:104F0000679F90011124F801E20FF31F11821082B4
:104F10006283DF01139683E001900D928150E1F7E7
:104F2000F901E40FF51F8091F9019091FA01918345
:104F300080836283DF01139683E001900D9281509C
:104F4000E1F76F5F8091F5016817D0F290E0FC0106
:104F5000EE0FFF1FE80FF91FEE0FFF1FE00FF11F0D
:104F60008FEF9FE7918380839091F50186E0989F72
:104F700090011124C801820F931FDC011396FC01DC
:104F800083E001900D928150E1F7F901E40FF51FE4
:104F90008FEF9FE7918380838091F50126E0829FC8
:104FA000C0011124840F951FDC011396FC0183E0DE
:104FB00001900D928150E1F7109204021092F301DA
:104FC00082E08EBD89B7806189BF89B7886089BF5B
:104FD00089B7846089BF0F90CF91DF911F910F91A6
:104FE000FF90EF90DF90CF90BF90AF909F908F9009
:104FF0007F90089587E092E0089510920702E8E01C
:10500000F2E01082118212823A9682E0E835F807C7
:10501000C1F70895982F542F722F882321F0A8E00C
:10502000B2E0E0E028C040910702242F30E0F9010F
:10503000EE0FFF1FC901B3E0880F991FBA95E1F782
:10504000E80FF91FE95FFD4F6183F901EE0FFF1FC4
:10505000EE0FFF1FE20FF31FEE0FFF1FE75FFD4F85
:10506000508371834F5F409307020895EF5F1A9654
:10507000E83009F4C4C08C918917C1F7ACC0613025
:10508000B9F0613030F0603811F1613809F0B7C023
:105090002CC0FC0133E0EE0FFF1F3A95E1F7880FBB
:1050A000991FE80FF91FE95FFD4F54837583089539
:1050B000FC01B3E0EE0FFF1FBA95E1F7880F991FCF
:1050C000E80FF91FE95FFD4F568377830895FC01D0
:1050D00073E0EE0FFF1F7A95E1F7880F991FE80F35
:1050E000F91FE95FFD4F50870895FC0143E0EE0F83
:1050F000FF1F4A95E1F7880F991FE80FF91FE95F35
:10510000FD4F51870895623061F1633030F46623BA
:1051100061F0613009F073C016C06430F1F16430A1
:1051200070F1653009F06BC047C0FC0123E0EE0F61
:10513000FF1F2A95E1F7880F991FE80FF91FE95F14
:10514000FD4F54830895FC01A3E0EE0FFF1FAA95C5
:10515000E1F7880F991FE80FF91FE95FFD4F5583AD
:105160000895FC0163E0EE0FFF1F6A95E1F7880FD9
:10517000991FE80FF91FE95FFD4F56830895FC0161
:1051800033E0EE0FFF1F3A95E1F7880F991FE80F04
:10519000F91FE95FFD4F57830895FC01B3E0EE0F5F
:1051A000FF1FBA95E1F7880F991FE80FF91FE95F14
:1051B000FD4F5087718708950196FC0163E0EE0F63
:1051C000FF1F6A95E1F7880F991FE80FF91FE95F44
:1051D000FD4F508308958E2F90E0FC01EE0FFF1FCE
:1051E000EE0FFF1FE80FF91FEE0FFF1FE75FFD4FE8
:1051F000E081E03C09F443CFE03E09F484CF089518
:1052000090E0FC01EE0FFF1FEE0FFF1FE80FF91FEC
:10521000EE0FFF1FE75FFD4F80810895282F10924A
:1052200058028093050260930602E9E0F2E090E004
:1052300080818623821709F49F5F3A9682E0E935E0
:10524000F807B1F7892F08954091060220910502D1
:1052500080915802382F3F5F90E0FC01EE0FFF1F56
:10526000EE0FFF1FE80FF91FEE0FFF1FE75FFD4F67
:1052700080818423821711F0832FECCF3093580262
:105280002AE0329F9001112422503E4FC901089517
:10529000282FE8E0F2E090E001C09F5F8081821754
:1052A00029F03A969830C9F78FEF0895892F8068D2
:1052B00008958F77A9E0B2E040E025E0829F900159
:1052C0001124220F331F2A0F3B1F90E0FC01EE0F29
:1052D000FF1FEE0FFF1FE80FF91FEE0FFF1FEA0F72
:1052E000FB1F07C080819C918927862309F44F5FAB
:1052F0001A96A217B307B1F7842F089590E02BE018
:1053000030E0AC01429FC001439F900D529F900D31
:105310001124E0915E02F0915F02E80FF91F828193
:10532000089580915B028F5F80935B020895809166
:105330005E0290915F020E94683B0895DF92EF92B7
:10534000FF920F931F93CF93DF9380915B02843181
:1053500008F4D4C010925B0281E080935C02FF24C9
:105360009BE0D92E83E0E82EC2C0FD9CE001112411
:10537000E0915E02F0915F02EC0FFD1F818587FDD9
:1053800002C0815081878185882361F40190F0817A
:10539000E02D8381648140E020E030E000E010E017
:1053A0000E94DB0DE0915E02F0915F02EC0FFD1FA9
:1053B000828587FD02C0815082878285882361F4BF
:1053C0000190F081E02D8581668140E020E030E0B1
:1053D00000E010E00E94DB0DA0915E02B0915F0240
:1053E000AC0FBD1F14968D919C911597009731F0CD
:1053F000019715969C938E93149778C018969C915C
:105400001897892F8370813069F59C7F18969C933B
:105410001897ED91FC911197808580FF1AC019961D
:10542000EC928581668140E020E030E000E010E011
:105430000E94DB0DE0915E02F0915F02EC0FFD1F18
:105440000190F081E02D8381648144E620E030E02A
:1054500007C08381648140E020E030E000E010E09C
:105460000E94DB0DA0915E02B0915F02AC0FBD1FE8
:1054700018969C911897892F8370823069F59C7FCC
:1054800018969C931897ED91FC911197808580FF59
:105490001AC01A96EC928381648140E020E030E0EB
:1054A00000E010E00E94DB0DE0915E02F0915F02EF
:1054B000EC0FFD1F0190F081E02D8581668144E6AF
:1054C00020E030E007C08581668140E020E030E0E8
:1054D00000E010E00E94DB0DE0915E02F0915F02BF
:1054E000EC0FFD1F1782168283818283F3948091D3
:1054F0005D02F81608F439CF10925C02DF91CF916B
:105500001F910F91FF90EF90DF9008954F925F925F
:105510006F927F928F929F92AF92BF92CF92DF92C3
:10552000EF92FF920F931F93CF93DF93982F809169
:105530005C02813009F4ABC08BE0989F20011124FC
:1055400080905E0290905F02840C951CF401828131
:105550009381C681D7810481158160807180282F55
:1055600030E08917C0F4C01BD10BF301678184E6DA
:1055700090E0AC01C49FC001C59F900DD49F900DD9
:10558000112470E00E94943A260F371F30935A027C
:10559000209359023BC0B901882777FD8095982F49
:1055A0000E949E375B016C01C01BD10B84E690E02A
:1055B000C89FB001C99F700DD89F700D112480E065
:1055C00090E00E949C377B018C01F301678170E0C1
:1055D000882777FD8095982F0E949E3726E636E62D
:1055E00046E85FEB0E94AA389B01AC01C801B701F5
:1055F0000E9403379B01AC01C601B5010E948C36A5
:105600000E946B3770935A0260935902809159023D
:1056100090915A0297FF04C010925A0210925902B8
:105620008091590290915A028536910534F084E6B2
:1056300090E090935A028093590280915902F401AC
:105640008283E0915E02F0915F02E40DF51D158208
:10565000148217821682428143830190F081E02DEB
:105660008281608150E020E00E948B0FDF91CF911A
:105670001F910F91FF90EF90DF90CF90BF90AF9070
:105680009F908F907F906F905F904F900895FFCF85
:10569000CF92DF92FF920F931F93CF93DF93982FB8
:1056A000F62E80915C02813009F4F7C08BE0989F60
:1056B00060011124C0915E02D0915F02CC0DDD1D0E
:1056C000888590E083709070892B09F0DDC02A8175
:1056D000621718F0662319F061C0662389F4E88127
:1056E000F981678170E0882777FD8095982F0E9467
:1056F0009E3720E030E040EA5FE30E94AA3820C0F5
:1057000030E0261B3109E881F981878190E0289FEC
:10571000B001299F700D389F700D1124882777FDE7
:105720008095982F0E949E3726E636E646E85FE38E
:105730000E94AA3820E030E048EC52E40E9403378F
:105740000E9470377D836C838C819D819F838E83C3
:1057500088858C7F81608887E881F981808580FFDA
:1057600002C083E08987E881F9818581668140E014
:1057700020E030E000E010E00E94DB0DE0915E02EE
:10578000F0915F02EC0DFD1D0190F081E02D838111
:10579000648144E620E030E00E94DB0DC0915E02AF
:1057A000D0915F02CC0DDD1D8A818F1528F044E673
:1057B000F41609F057C003C054E6F51699F4E881D1
:1057C000F981678170E0882777FD8095982F0E9486
:1057D0009E372AE939E949E95FE30E94AA380E9425
:1057E000703714C02F2D30E0281B3109E881F98172
:1057F000878190E0AC01249FC001259F900D349FCC
:10580000900D112464E670E00E94A83A7D836C83B9
:105810008C819D819F838E8388858C7F8260888721
:10582000E881F981808580FF02C083E08A87E88172
:10583000F9818381648140E020E030E000E010E005
:105840000E94DB0DE0915E02F0915F02EC0DFD1D08
:105850000190F081E02D8581668144E620E030E012
:105860000E94DB0DE0915E02F0915F02EC0DFD1DE8
:10587000F3820190F081E02D828160814F2D50E014
:1058800020E00E948B0F0AC0E881F98182E06081EC
:1058900040E020E00E94930D01C0FFCFDF91CF9147
:1058A0001F910F91FF90DF90CF900895482F282FE0
:1058B00030E08BE090E0BC01269FC001279F900D57
:1058C000369F900D1124E0915E02F0915F02E80F87
:1058D000F91F808590E083709070892B21F0842FD0
:1058E0000E94862A0895842F64E60E94482B08951A
:1058F000482F282F30E08BE090E0BC01269FC001AC
:10590000279F900D369F900D1124E0915E02F0913B
:105910005F02E80FF91F808590E083709070892BFB
:1059200021F0842F0E94862A0895842F60E00E942F
:10593000482B0895CF93DF93982F8BE0989FE00139
:105940001124E0915E02F0915F02EC0FFD1F808553
:1059500087FF04C0892F0E94562C03C0892F0E9404
:10596000782CE0915E02F0915F02EC0FFD1F8085C4
:1059700080588087DF91CF910895282F8BE0289F52
:10598000C0011124E0915E02F0915F02E80FF91F5F
:10599000808590E083709070892B21F0822F0E9487
:1059A000862A08958281882319F0822F60E002C040
:1059B000822F64E60E94482B0895BF92CF92DF9217
:1059C000EF92FF920F931F9380EC6FEF0E940E29CE
:1059D000982F80935D028BE0989FC00111240E9454
:1059E000BB3A80935E0290935F02DD242BE0B22EDF
:1059F000CC24CA9424C0DB9C7001112400915E0267
:105A000010915F020E0D1F1D0E942429F801918341
:105A10008083E0915E02F0915F02EE0DFF1D128225
:105A2000E0915E02F0915F02EE0DFF1D1382158280
:105A30001482178216821086C186C286D394809102
:105A40005D02D816C0F210925B0210925C021F91A8
:105A50000F91FF90EF90DF90CF90BF90089584E674
:105A600092E00895E4E6F2E010821182128213823D
:105A7000349683E0E436F807B9F70895E82FF0E0AC
:105A8000EE0FFF1FEE0FFF1FE60FF11DEC59FD4F4C
:105A90004083089590E0880F991FE0916102F09192
:105AA0006202E80FF91F60830895809163028F5F9F
:105AB000809363020895809164038F5F80936403F1
:105AC0000895FF920F931F93F82E062F122FCA01ED
:105AD00034E0969587953A95E1F7682F70E03DC0E0
