:100000000C94F6000C94040B0C9413010C94130143
:100010000C9413010C940E0B0C9413010C9413010B
:100020000C9413010C9413010C9413010C948D0B7C
:100030000C9413010C94E8150C9413010C94130107
:100040000C9413010C9413010C9413010C945F068F
:100050000C941301442BA32BF52B562CD232D23205
:10006000D232D232D232D232D232D232D232D23270
:10007000D232D232D232D232D232D232D232D23260
:10008000D232D232B92CD232D232D232D232D32C74
:10009000D232EB2CD232D232D232D232D2321B2DE9
:1000A0002E2DD232412D562D6B2D802D952DAA2D22
:1000B000D232D232BF2DCD2DDB2DF42D512E802EFC
:1000C000942ED232D232D232D232D232D232D23252
:1000D000D232D232C92ED232D232D232F82ED232EB
:1000E000D232D232D230FC3014313E31D232D2321E
:1000F000D232D232523175319831BF31D232D2320E
:10010000D232D232D63147329732AD32D232D232B7
:10011000D232EB2C092E172E252E342E432E1B2DDA
:100120002E2DD232412D562D6B2D802D952DAA2DA1
:10013000D232D232BF2DCD2DDB2DF42DD232D232A0
:10014000D232D2322E2F4A2F662F8A2FB62FE22F8D
:10015000D232D232D232D232D232D232143079309A
:10016000D232D232D230FC3014313E31D232D2329D
:10017000D232D232D232D232D232D232D232D2325F
:10018000D232D232D232D232D232D232D232D2324F
:10019000D232D232092E172E252E342E432ED232B1
:1001A000D232D232D232D232D232D232D232D2322F
:1001B000D232D232BF2DCD2DDB2DF42DD232D23220
:1001C000D232D2322E2F4A2F662F8A2FB62FE22F0D
:1001D000D232D232D232D232D232D232D232D232FF
:1001E000D232D232D230FC3014313E3111241FBE13
:1001F000CFE5D8E0DEBFCDBF10E0A0E6B0E0E0E79D
:10020000FDE602C005900D92A636B107D9F713E0BE
:10021000A6E6B0E001C01D92A038B107E1F70E9448
:1002200015010C94B6360C9400000E94330A0E940B
:10023000740F81E060E00E94DE140E94B50F0E94FE
:10024000AA160E948E170E94211A0E94171D0E9452
:1002500034220E94B0270E94AD2AEFCF562F40E0F3
:10026000282F30E0242B352BC90108950197F1F791
:100270000895E0916700F0916800208181E090E0AE
:100280000090660002C0880F991F0A94E2F7282B9D
:1002900020830895E0916700F0916800208181E05B
:1002A00090E00090660002C0880F991F0A94E2F760
:1002B00080958223808308951FB8779BFECF8FB1EE
:1002C00008958FB9779BFECF08950F931F93DF9307
:1002D000CF930F92CDB7DEB788E06FEF0E9434095D
:1002E0008E010F5F1F4FC80160E070E040E050E0FA
:1002F00020E030E00E944A09898161E00E940609FD
:1003000090936800809367008981982F97709093ED
:10031000660061E00E94FC0789E06FEF0E943409EB
:10032000C80160E070E040E050E020E030E00E9472
:100330004A09898161E00E94FC078AE06FEF0E9410
:100340003409C80160E070E040E050E020E030E0B7
:100350000E944A09898160E00E94FC078BE06FEFF0
:100360000E943409C80160E070E040E050E020E005
:1003700030E00E944A09898161E00E94FC07E09117
:100380006700F0916800208181E090E000906600B5
:1003900002C0880F991F0A94E2F7282B208381E579
:1003A0008DB90F90CF91DF911F910F9108950F9309
:1003B0001F93CF93DF93EC010E944A0180EA0E94D1
:1003C00061010E945C01182F0E945C010E943901AA
:1003D000212F30E0C90184759070892B11F404E05D
:1003E0000CC0C90184719070892B11F402E005C022
:1003F00012FF02C080E037C000E00E944A01802F57
:1004000080640E94610188810E94610189810E944B
:1004100061018A810E9461018B810E9461018C814E
:10042000893010F088E08C838C810E94610110E09B
:1004300007C0FE01E10FF11D85810E9461011F5F70
:100440008C811817B0F30E94390100000E944A0104
:10045000002311F481E802C0802F80680E946101AE
:100460000E94390181E0DF91CF911F910F91089592
:100470001F93CF93DF93EC010E944A0180EB0E940F
:1004800061010E945C01182F0E945C010E943901E9
:1004900016FF0FC080916900882311F017FD09C075
:1004A0000E944A0180E90E94610181E08093690015
:1004B0000BC017FD02C080E026C00E944A0184E9FB
:1004C0000E946101109269000E945C0188830E9471
:1004D0005C0189830E945C018A830E945C018B839A
:1004E0000E945C018F708C8310E007C00E945C0149
:1004F000FE01E10FF11D85831F5F8C811817B0F39A
:100500000E94390181E0DF91CF911F910895DF9220
:10051000EF92FF920F931F93182FF62EE42ED22EF8
:100520000E944A0182E00E946101812F90E0133015
:1005300008F00196880F880F0E9461018F2D0E949C
:1005400061018E2D0E9461018D2D0E946101802F1D
:100550000E9461010E9439011F910F91FF90EF905D
:10056000DF900895DF92EF92FF920F931F93182F61
:10057000F62EE42ED22E0E944A0182E00E946101F2
:10058000112311F480E201C084E20E9461018F2DE9
:100590000E9461018E2D0E9461018D2D0E946101DA
:1005A000802F0E9461010E9439011F910F91FF90DD
:1005B000EF90DF900895FF920F931F93182F062F4F
:1005C000F42E0E944A0185E00E946101812F0E9461
:1005D0006101802F0E9461018F2D0E9461010E94A4
:1005E00039011F910F91FF9008958FE060EE40E078
:1005F0000E94DB0208950F931F93182F062F0E946D
:100600004A0182E00E946101812F0E946101802FD6
:100610000E9461010E9439011F910F9108951F935B
:10062000182F0E944A0183E00E946101812F0E94DD
:1006300061010E945C01182F0E943901812F1F91D6
:1006400008950E944A0180EC0E9461010E943901D4
:100650000895109269000E9465010E9421038AE2B8
:1006600061E30E94FB0289E261EB0E94FB0288E2E7
:1006700065E00E94FB0280E664E40E94FB0280E7E2
:1006800060E40E94FB020895E0917400F09175000F
:10069000408181E090E09C0100906A0002C0220F3E
:1006A000331F0A94E2F7422B40830000E09174006C
:1006B000F0917500208100906A0002C0880F991F98
:1006C0000A94E2F78095822380830895EF92FF9247
:1006D0001F93CF93DF93E0917200F09173004081FC
:1006E0002FE030E0C9010090770002C0880F991F09
:1006F0000A94E2F7809584238083E0917000F09162
:10070000710080810090770002C0220F331F0A948D
:10071000E2F7209528232083E0916E00F0916F008E
:10072000208183E090E00090760002C0880F991F3E
:100730000A94E2F7809582238083E0916E00F09125
:100740006F00208181E090E00090760002C0880F69
:10075000991F0A94E2F7282B2083C1E0D0E088E0BB
:10076000E82EF12CE0917400F09175002081CE010B
:1007700000906A0002C0880F991F0A94E2F7282BA4
:1007800020830000E0916C00F0916D001081C701A2
:100790000090770002C0880F991F0A94E2F718238F
:1007A000E0917400F09175002081CE0100906A0004
:1007B00002C0880F991F0A94E2F7809582238083F4
:1007C0000E944403112371F6E0917200F0917300CE
:1007D00020818FE090E00090770002C0880F991F81
:1007E0000A94E2F7282B2083DF91CF911F91FF908D
:1007F000EF900895EF92FF920F931F93E091700096
:10080000F091710090810FE010E098010090770066
:1008100002C0220F331F0A94E2F720952923208378
:10082000E0917000F09171004081E82EFF24970163
:10083000207F30705091770084E090E0851B910913
:1008400002C0359527958A95E2F7422B40830E9496
:100850004403E0917000F091710080810090770076
:1008600002C0000F111F0A94E2F7009508230083CD
:10087000E0917000F091710080819FE0E922FF24F7
:100880000090770002C0EE0CFF1C0A94E2F78E295C
:1008900080830E9444031F910F91FF90EF90089571
:1008A0001F93182F8823B1F00E946603E0916E0019
:1008B000F0916F00208183E090E00090760002C00C
:1008C000880F991F0A94E2F7809582238083812FF5
:1008D0000E94FA031F9108951F93182F803A31F157
:1008E0000E946603E0916E00F0916F00208183E02A
:1008F00090E00090760002C0880F991F0A94E2F7FA
:10090000809582238083E0916E00F0916F002081BA
:1009100082E090E00090760002C0880F991F0A9450
:10092000E2F7282B2083812F0E94FA031F9108955C
:10093000E0917800F091790030916B00882359F0B4
:10094000208181E090E002C0880F991F3A95E2F77C
:10095000282B20830895208181E090E002C0880F39
:10096000991F3A95E2F780958223808308951F931B
:10097000CF93DF93EC0111E007C0FE01E10FF11D01
:1009800080810E946C041F5F88818117B0F7DF911E
:10099000CF911F910895CF92DF92EF92FF920F9324
:1009A0001F93DF93CF9300D0CDB7DEB780E360EF26
:1009B0000E943409082F10E092E0C92ED12CCC0EF1
:1009C000DD1E7E010894E11CF11C5DC0C701B6016B
:1009D00040E050E020E030E00E944A098A8188230C
:1009E00059F0883029F1883008F448C08A3069F11C
:1009F0008B3009F043C036C0898161E00E9406094E
:100A00009093710080937000898160E00E940609D4
:100A100090936D0080936C0089810E94EE08909302
:100A2000730080937200898187708093770026C05D
:100A3000898161E00E94060990936F0080936E00A7
:100A4000898187708093760019C0898161E00E9456
:100A50000609909375008093740089818770809354
:100A60006A000CC0898161E00E94060990937900B8
:100A7000809378008981877080936B00898161E021
:100A80000E94FC071F5F101708F4A0CF002309F491
:100A900073C010E080EE9EE20E9436011F5F1A30A4
:100AA000C9F7E0916E00F0916F00408123E030E0E3
:100AB000C9010090760002C0880F991F0A94E2F7DE
:100AC000809584238083E0917000F09171004081D3
:100AD0008FE090E00090770002C0880F991F0A9481
:100AE000E2F7809584238083E0917000F09171009B
:100AF00080810090770002C0220F331F0A94E2F732
:100B0000822B80830E94440380E797E10E94360194
:100B10000E9444038AE590E00E9436010E9444034B
:100B20008AE590E00E943601E0917000F09171003A
:100B3000208181E090E00090770002C0880F991F2B
:100B40000A94E2F78095822380830E94440389E21D
:100B50000E94500480E50E9450048CE60E945004DC
:100B60008CE70E9450048CE00E94500481E00E94B7
:100B7000500486E00E9450040F900F90CF91DF91B7
:100B80001F910F91FF90EF90DF90CF90089586B75F
:100B90008170089580917F00089506B600FCFDCF16
:100BA00080917A00089580937D000895E0918100FE
:100BB000F0918200E80FF11D60830895462FDC015B
:100BC00020E014C080917D00E0918100F0918200CE
:100BD000E80FF11D8D91808380917D0060918000F0
:100BE0008F5F0E94573590937D002F5F241750F33D
:100BF000089581E080937C00089506B600FCFDCF47
:100C0000882311F080937E0010927F0088EF8093FC
:100C10007A0085EA86BF0895CF93DF93EC0106B68C
:100C200000FCFDCF60937E00E0918100F091820096
:100C300088818083E0918100F0918200808180FD35
:100C400013C091E00DC0E92FF0E0A0918100B091B8
:100C50008200AE0FBF1FEC0FFD1F80818C939F5F42
:100C600080917E00981778F310927F0088EF809330
:100C70007A0085EA86BFDF91CF910895E0918100E7
:100C8000F0918200E80FF11D808108959C0106B665
:100C900000FCFDCF80917F00882371F0D90190E0A6
:100CA00009C0E0918100F0918200E90FF11D80817F
:100CB0008D939F5F9617A8F380917F0008951F92F0
:100CC0000F920FB60F9211242F933F938F939F9300
:100CD000EF93FF9381B18832D1F0893240F48031B3
:100CE000A1F08831A1F0883009F059C00EC08034DD
:100CF000B9F1813420F4883309F051C04EC08035F9
:100D000011F1883509F04BC039C010927B009091E9
:100D10007B0080917E00981760F4E0918100F09153
:100D20008200E90FF11D808183B99F5F90937B0062
:100D300023C081E080937F0080917C00882359F15B
:100D400010927C0031C080917B0093B1E0918100D2
:100D5000F0918200E80FF11D90838F5F80937B00FC
:100D600020917B0030E080917E0090E00197281771
:100D7000390714F485EC17C085E815C093B180914C
:100D80007B00E0918100F0918200E80FF11D9083DB
:100D900081E080937F0084E906C085EA04C081B1C8
:100DA00080937A0084E086BFFF91EF919F918F91AD
:100DB0003F912F910F900FBE0F901F90189580912B
:100DC0008100909182000E943736089580938000C0
:100DD00090E00E948A358093810090938200109267
:100DE0007D0010927E0010927B0010927C00109289
:100DF0007F0088EF80937A008CE080B98FEF83B911
:100E000084E086BF08950F931F93082FF8948AB348
:100E1000802B8ABB8BB3102F109581238BBB83E96A
:100E200095E00E9436018AB381238ABB8BB31823D5
:100E30001BBB85EC90E00E94360119B381EC94E075
:100E40000E94360178941095802F81231F910F9175
:100E500008950F931F93082FF8948AB3802B8ABBB1
:100E60008BB3102F109581238BBB85E090E00E94FF
:100E700036018AB381238ABB8BB318231BBB8EE058
:100E800090E00E94360119B388E990E00E94360193
:100E90007894802F81231F910F910895FF920F93D3
:100EA0001F93F82E10E000E016958F2D0E94290761
:100EB000811110680F5F0830B9F7812F1F910F91D2
:100EC000FF9008951F93182FF8948AB3812B8ABB43
:100ED0008BB3109581238BBB87EA90E00E9436018B
:100EE0008AB381238ABB8BB318231BBB81E190E0BB
:100EF0000E94360178941F9108951F93182FF8943B
:100F00008AB3812B8ABB8BB3109581238BBB85E081
:100F100090E00E9436018AB381238ABB8BB31823E9
:100F20001BBB83EB90E00E94360178941F910895DB
:100F3000FF920F931F93082FF62E10E000FF04C0BE
:100F40008F2D0E947D0703C08F2D0E9462071F5FB7
:100F5000183011F00695F2CF1F910F91FF90089570
:100F6000682F8CEC0E94980708959AB38095982377
:100F70009ABB9BB398239BBB83E995E00E94360103
:100F8000089580918400089580938400089590933B
:100F9000860080938500089580938700089590E0EF
:100FA0009C012F71307085FF09C0F901EE0FFF1F02
:100FB000E20FF31FEC57FF4F66830895F901EE0F20
:100FC000FF1FE20FF31FEC57FF4F64834583089523
:100FD00090E0FC01EE0FFF1FE80FF91FEC57FF4FE9
:100FE0008481089590E0FC01EE0FFF1FE80FF91FC8
:100FF000EC57FF4F85810895482F60FD3DC0883034
:1010000068F43AB3282F277081E090E002C0880F7F
:10101000991F2A95E2F7809583233BC0803168F4BD
:1010200037B3282F277081E090E002C0880F991F06
:101030002A95E2F7809583233BC0883168F434B366
:10104000282F277081E090E002C0880F991F2A9511
:10105000E2F7809583233BC0803208F048C031B36B
:10106000282F277081E090E002C0880F991F2A95F1
:10107000E2F7809583233AC0883068F48AB3942FCE
:10108000977021E030E002C0220F331F9A95E2F7FB
:10109000822B8ABB2CC0803168F487B3942F977061
:1010A00021E030E002C0220F331F9A95E2F7822B35
:1010B00087BB1DC0883168F484B3942F977021E0FA
:1010C00030E002C0220F331F9A95E2F7822B84BBD7
:1010D0000EC0803260F481B3942F977021E030E02D
:1010E00002C0220F331F9A95E2F7822B81BB61FF6A
:1010F00039C0483060F42BB3477081E090E002C003
:10110000880F991F4A95E2F7282B2BBB0895403191
:1011100060F428B3477081E090E002C0880F991F07
:101120004A95E2F7282B28BB0895483160F425B38F
:10113000477081E090E002C0880F991F4A95E2F75E
:10114000282B25BB0895403208F047C022B34770D2
:1011500081E090E002C0880F991F4A95E2F7282BA2
:1011600022BB0895483068F42BB3477081E090E0CB
:1011700002C0880F991F4A95E2F7809582238BBBA6
:101180000895403168F428B3477081E090E002C0D0
:10119000880F991F4A95E2F78095822388BB0895AE
:1011A000483168F425B3477081E090E002C0880FB1
:1011B000991F4A95E2F78095822385BB08954032B6
:1011C00060F422B3477081E090E002C0880F991F5D
:1011D0004A95E2F78095822382BB0895883018F4FF
:1011E0002AE330E011C0803118F427E330E00CC06E
:1011F000883118F424E330E007C0803218F421E38A
:1012000030E002C020E030E0C90108956623A1F477
:10121000883018F429E330E025C0803118F426E343
:1012200030E020C0883118F423E330E01BC0803266
:10123000B8F420E330E016C0883018F42BE330E037
:1012400011C0803118F428E330E00CC0883118F464
:1012500025E330E007C0803218F422E330E002C01A
:1012600020E030E0C9010895282F1092E800809313
:10127000E90060938300E8E8F0E090E08081862355
:10128000821709F49F5F339680E0E83EF807B1F7D4
:10129000892F08950F931F93CF93DF93DC01EB0108
:1012A000BA018901509183004091E9002091E80042
:1012B000322F3F5F822F90E0FC01EE0FFF1FE80FFF
:1012C000F91FEC57FF4F84818523841711F0232FDA
:1012D000EFCF2093E8002C93209781F0209183009A
:1012E00020958091E80090E0FC01EE0FFF1FE80FD1
:1012F000F91FEC57FF4F848128232883611571055E
:1013000069F08091E80090E0FC01EE0FFF1FE80F0C
:10131000F91FEC57FF4F8581FB01808301151105F3
:1013200069F08091E80090E0FC01EE0FFF1FE80FEC
:10133000F91FEC57FF4F8681F80180838091E80008
:101340008F5F8093E800DF91CF911F910F910895F7
:10135000982F87FD1EC0A8E8B0E040E083E0989F8A
:10136000900111242A0F3B1F892F90E0FC01EE0F02
:10137000FF1FE80FF91FEA0FFB1F07C080819C9138
:101380008927862309F44F5F1396A217B307B1F795
:1013900003C00E94EF21482F842F0895282FE9E8E9
:1013A000F0E090E001C09F5F8081821721F03396CA
:1013B0009032C9F702C0892F0895822F0E94DE2142
:1013C000982FF9CF84E890E060E070E044E650E0C8
:1013D0000E948F360E94F40B64E670E047E050E014
:1013E0000E948F360E94CF146BE670E042E050E01E
:1013F0000E948F360E9461156DE670E04EE050E06D
:101400000E948F360E946D166BE770E041E050E05D
:101410000E948F360E9424176CE770E048E050E08D
:101420000E948F360E942B1964E870E040E550E07E
:101430000E948F360E942B1C64ED70E048E550E05E
:101440000E948F360E9482206CE271E049E250E0F7
:101450000E948F360E941A2A65E571E040E051E053
:101460000E948F360895F8940E94E20980918700C7
:10147000893D09F452C0E8E8F0E080E01082818301
:1014800012828F5F33968032C9F780E16CE040E1D1
:101490000E94CF0781E16DE041E10E94CF078AE120
:1014A00066E04AE10E94CF0788E062E048E00E94DF
:1014B000CF0788E164E048E10E94CF0789E165E059
:1014C00049E10E94CF078CE068E04CE00E94CF0722
:1014D0008DE069E04DE00E94CF078EE06AE04EE0CB
:1014E0000E94CF078FE06BE04FE00E94CF07809112
:1014F0008700833B41F00E94F70B0E94D2140E94A8
:1015000064150E9470160E9427170E942E190E94CF
:101510002E1C0E9485200E941D2A089584E890E0D8
:1015200060E070E044E650E00E949F360E94F40BB9
:1015300064E670E047E050E00E949F360E94CF14BE
:101540006BE670E042E050E00E949F360E94611519
:101550006DE670E04EE050E00E949F360E946D16EE
:101560006BE770E041E050E00E949F360E94241734
:101570006CE770E048E050E00E949F360E942B1913
:1015800064E870E040E550E00E949F360E942B1C0A
:1015900064ED70E048E550E00E949F360E94822092
:1015A0006CE271E049E250E00E949F360E941A2AE4
:1015B00065E571E040E051E00E949F36089584E8BF
:1015C00090E063E070E041E050E00E949F360895B3
:1015D0000F938093EB006093EC004093ED00209319
:1015E000EE000093EF000F9108958091EB000895B5
:1015F0008091EC0008958091ED0008958091EE00B7
:1016000008958091EF0008951F920F920FB60F92E8
:1016100011240F900FBE0F901F9018951F920F92DC
:101620000FB60F9211242F933F934F935F936F93B5
:101630007F938F939F93AF93BF93EF93FF9383E831
:1016400084BD8091EA008F5F8093EA008F3009F0BB
:1016500053C01092EA008091EF008F5F8093EF00FB
:101660008436E1F51092EF008091EE008F5F809359
:10167000EE000E94C81C0E94E7250E94462A809125
:10168000EE008C3359F51092EE008091ED008F5FE3
:101690008093ED000E94462A8091ED008C33F1F496
:1016A0001092ED008091EC008F5F8093EC000E941F
:1016B000462A8091EC00883189F41092EC008091E8
:1016C000EB008F5F8093EB000E94462A8091EB0035
:1016D000873021F41092EB000E94462A0E94100CE1
:1016E0000E94180C0E9407150E9447170E94D219E9
:1016F0000E9427220E94402AFF91EF91BF91AF9153
:101700009F918F917F916F915F914F913F912F9119
:101710000F900FBE0F901F9018951F920F920FB64B
:101720000F9211242F933F934F935F936F937F9367
:101730008F939F93AF93BF93EF93FF938EEF82BFEF
:101740000E949315FF91EF91BF91AF919F918F915F
:101750007F916F915F914F913F912F910F900FBEAD
:101760000F901F901895EF92FF920F931F93DF93A6
:10177000CF930F92CDB7DEB786E06FEF0E943409AA
:10178000082F10E07E010894E11CF11C0EC0C70177
:1017900060E070E040E050E020E030E00E944A0964
:1017A000898162E00E94FC071F5F101780F310928E
:1017B000EB001092EC001092ED001092EE001092EF
:1017C000EF0084E083BF99B7916099BF85BD89B769
:1017D000806489BF1092EA000F90CF91DF911F9132
:1017E0000F91FF90EF90089589E091E00895109295
:1017F000090180E090E890930B0180930A018FEF3C
:1018000080930C0184E080930D0110920E011092E0
:101810000F01089580910901089580910E010895A6
:101820008091FA00882319F081508093FA0008957E
:101830008091F200882319F081508093F20008957E
:10184000282F30E0C901807F9070803F910519F00A
:1018500080E090E0089540E02F7081E090E002C0C9
:10186000880F991F2A95E2F720910A0130910B0108
:1018700082239323892B09F441E081E04827842FB8
:101880000895282F4091080150910701451701F153
:10189000842F90E033E0880F991F3A95E1F7E091AB
:1018A000F500F091F600E80FF91F2193DB0187E0C6
:1018B0000D9001928150E1F75F3F11F440930701D1
:1018C00060910D01842F8F5F0E945735909308011E
:1018D00008958091F5009091F6000E9437360895A2
:1018E0001F93CF93DF93182FEB0187FD06C090E085
:1018F000807790708037910529F4812FBE010E9476
:10190000A6150AC08031910519F0809749F404C0EA
:10191000812F0E94A61504C0812FBE010E94761659
:10192000DF91CF911F910895BF92CF92DF92EF92F6
:10193000FF920F931F93DF93CF93CDB7DEB7279717
:101940000FB6F894DEBF0FBECDBFE82EB22E6801F1
:10195000809109016817D1F089836A8398E09B839D
:101960004C831D821E822F8381E08093F000E092E1
:10197000F1009093F2006093F3004093F4008FE73E
:10198000BE016F5F7F4F0E94700C7EC0842F0E944B
:10199000CE09F82E8FEFF81609F460C0F7FC4FC09F
:1019A0008F2D0E94E80787FD03C000E010E008C00B
:1019B0008F2D60E80E94A8090E944B17082F10E0A5
:1019C0008F2D0E94E807887F803299F48F2D68EF71
:1019D0000E94A8096B2D0E94D8198C01C114D10452
:1019E00041F4EFEFEE1629F054E0169507955A955D
:1019F000E1F78F2D0E94E807887F883299F48F2DB8
:101A000068EF0E94A8096B2D0E94CE1C8C01C114A6
:101A1000D10441F4FFEFEF1629F044E01695079545
:101A20004A95E1F78F2D0E94E807807F8031C1F44D
:101A30008F2D60EF0E94A8090E94C31F0CC08F2D3C
:101A40008F770E949621803C49F48F2D6FEF0E9482
:101A5000A8090E941422082F10E002C000E010E044
:101A6000C114D10461F48FEFE81621F48B2DB80175
:101A70000E94C5258E2D602F0E94352A05C089E061
:101A8000F60182830483158327960FB6F894DEBF90
:101A90000FBECDBFCF91DF911F910F91FF90EF90BF
:101AA000DF90CF90BF900895DF93CF93CDB7DEB78F
:101AB00027970FB6F894DEBF0FBECDBF90910901F6
:101AC000998390910C019A839FE79B838C836D830C
:101AD0004E832F838FE7BE016F5F7F4F0E94700C94
:101AE00027960FB6F894DEBF0FBECDBFCF91DF9122
:101AF0000895DF93CF93CDB7DEB727970FB6F8944D
:101B0000DEBF0FBECDBF9091090199839A8392E009
:101B10009B838C836D834E835F838FE7BE016F5FF2
:101B20007F4F0E94700C27960FB6F894DEBF0FBE51
:101B3000CDBFCF91DF910895BF92CF92DF92EF9208
:101B4000FF920F931F93DF93CF93CDB7DEB7279705
:101B50000FB6F894DEBF0FBECDBF982FB62EF42E71
:101B60006901882319F4662321F4A2C08F3F09F488
:101B70009FC020910901921729F129839A831B8222
:101B8000BC82FD82CE82DF8281E08093F8000093E8
:101B9000F900ABEFB0E0FE01319687E001900D92C5
:101BA0008150E1F79093FB002093FC001092FD0020
:101BB00088E08093FA008FE7BE016F5F7F4F0E943D
:101BC000700CCDC08B2D0E94CE09E82E0E94E80734
:101BD000887F803281F48E2D68EF0E94A809982FAB
:101BE0000330110518F081E0F8018283892F6F2DF1
:101BF000A6010E94A9198E2D0E94E807887F8832CD
:101C000081F48E2D68EF0E94A809982F03301105EA
:101C100018F081E0F8018283892F6F2DA6010E94C0
:101C2000A01C8F2D85568B3140F0FEE8FF1528F063
:101C300085E6C81689E1D80638F003301105C0F1F1
:101C400082E0F80182838BC0FFEFEF1689F1E7FC99
:101C500035C08E2D0E94E807807F803111F58E2DD2
:101C600060EF0E94A809E82E0330110518F081E00A
:101C7000F8018283F0E8FF1669F48E2D0E94C31FDD
:101C8000882319F08E2D60E002C08E2D64E60E943C
:101C9000DA1F65C084E68F1508F461C08E2D6F2DA4
:101CA000F6CF8E2D0E94E807807C803409F457C05F
:101CB0008B2D6F2DA6010E94790D51C06FE7B62EB6
:101CC000BE208B2D0E949621803CD1F58E2D6FEF8A
:101CD0000E94A809982F0330110518F081E0F8013F
:101CE0008283F6E8FF16C1F0FF1538F080E8F81699
:101CF00059F0E5E8FE16E1F40BC0F7E8FF1681F0B5
:101D000088E8F816A9F410C0892F0E94532527C02F
:101D1000892F0E940E2523C0892F0E94EC241FC00A
:101D2000892F0E941C231BC0892F0E94302517C0B9
:101D3000E4E6EF15A0F0892F6F2D0E94DE230FC07F
:101D40008B2D0E949621803F51F40330110518F02D
:101D500081E0F80182838F2D6C2D0E943626279614
:101D60000FB6F894DEBF0FBECDBFCF91DF911F91AC
:101D70000F91FF90EF90DF90CF90BF900895DF9389
:101D8000CF93CDB7DEB727970FB6F894DEBF0FBE5F
:101D9000CDBF482F8091090189832FEF2A8328E145
:101DA0002B831C824D839E831F82692F50E020E08D
:101DB0000E944C2A8FE7BE016F5F7F4F0E94700C1C
:101DC00027960FB6F894DEBF0FBECDBFCF91DF913F
:101DD0000895DF93CF93CDB7DEB727970FB6F8946A
:101DE000DEBF0FBECDBF8091090189838FEF8A834B
:101DF0008BE78B831C821D821E821F828FE7BE01B0
:101E00006F5F7F4F0E94700C27960FB6F894DEBF6D
:101E10000FBECDBFCF91DF9108951F93DF93CF9376
:101E2000CDB7DEB727970FB6F894DEBF0FBECDBF94
:101E3000182F909109018823F9F099838A8380E112
:101E40008B836C834D835E832F83191731F08FE76B
:101E5000BE016F5F7F4F0E94700C809109011817BF
:101E600029F0812F0E94200C882331F080E0BE01F0
:101E70006F5F7F4F0E94410C27960FB6F894DEBF2C
:101E80000FBECDBFCF91DF911F91089583E40E94D3
:101E9000E60680910D0190E073E0880F991F7A9516
:101EA000E1F70E948A358093F5009093F6008FEF5A
:101EB0008093070110920801109206011092F80019
:101EC0001092FA00EBEFF0E0119281E0E230F807B7
:101ED000D9F71092F0001092F1001092F2001092D7
:101EE000F3001092F4000895F8940E94DF068091A8
:101EF000F5009091F6000E9437360E945F170E940D
:101F00001A1A0E94101D0E94D31F0E942D220E94A7
:101F1000A62A19BE83E40E94E6060E94B30B0E9423
:101F2000460F0E9425150E9486150E94CC160E941D
:101F300098180E94B41B0E94EE1E0E94611F0E940E
:101F40001D200E9473250E94EE3278940E94C029C1
:101F50000E94E90E089580E00E94CC070E94DF0AEB
:101F60000E94330A0E94740F0895CF92DF92EF927D
:101F7000FF920F931F93DF93CF93CDB7DEB72E97CA
:101F80000FB6F894DEBF0FBECDBF809107018F3F23
:101F900009F4C9C490E023E0880F991F2A95E1F75E
:101FA000E090F500F090F600E80EF91E80910E0129
:101FB000882369F0D70112969C91809109019817A6
:101FC00031F0F70181918068BF010E94700CF70128
:101FD000928180910901981731F0892F0E94200C7D
:101FE000882309F490C4D70113968C91282F30E0F0
:101FF000837809F0A1C3DE011196F701319687E0DD
:1020000001900D928150E1F7F70183818C3309F43F
:1020100037C18D33A8F4803109F44BC0813130F4DD
:10202000882321F1883009F016C337C08C3109F4B8
:1020300062C0883309F4D4C0883109F00CC34DC0A4
:10204000803609F4B9C2813638F4803409F46DC1A0
:102050008C3409F000C371C1883709F4C6C28C37CB
:1020600009F4D8C2843609F0F6C2AFC2D701179678
:102070003C91179720E016968C911697280F311DEA
:102080008091090114966C91149715964C918E01CC
:102090000F5F1F4F0E949C0DDEC280E0609109011E
:1020A000F701448127818E010F5F1F4F0E94940C1E
:1020B000D2C2D70111961C91119714960C911497C6
:1020C00015968C91159716966C910E942E01AC0175
:1020D000812F602FF70127810BC0D70115964C91F6
:1020E000159711968C91119716966C9150E020E0FF
:1020F0000E944C2AB0C2F7016481262F30E0C9014A
:102100008E7F9070803A910521F0883A910509F010
:1021100065C020FF63C06E7F80E00E94D60581E02D
:10212000D70116966C910E94D60582E0F701658171
:102130000E94D6050E94F90583E00E94FD050E94D9
:10214000C7058823E1F7D70114966C910E94D60544
:10215000F70187818F5F0E94FD050E94C7058823D4
:10216000E1F7809109018887D70111968C918987C1
:102170008DE18A8701E088E0C82ED12CCC0EDD1ECF
:1021800027C0802F0E943E068B87802F8F5F0E9482
:102190003E068C87102F1D5F802F8E5F0E943E06AB
:1021A0008D870C5F812F0E943E068E8780910701EC
:1021B00090E013E0880F991F1A95E1F7E091F50080
:1021C000F091F600E80FF91F8081B6010E94700CB3
:1021D000F70187818017A8F68DE13CC28EE13AC2F3
:1021E000D70114968C91813081F0813020F08031BC
:1021F00009F031C21AC0809106018823A1F4F701C9
:1022000085818093060189E325C290910601992377
:1022100051F089E38B83903119F480E00E94C40768
:102220001092060118C28AE315C28091060180311E
:1022300019F0803209F00FC280E0D70115966C9139
:102240000E94D60581E0F70167810E94D60582E0F1
:10225000D70116966C910E94D60583E00E94D305A3
:102260001092F700F70184818093020185818093A9
:102270000301868180930401878180930501EBC16E
:1022800080910601803119F0803209F0E4C1D70154
:1022900014968C91149790910201890F80930201FA
:1022A00015968C91159790910301890F80930301E6
:1022B00016968C91169790910401890F80930401D2
:1022C00017962C9180910501280F2093050190917C
:1022D000F700903198F480910601803121F0983018
:1022E00068F4803259F4C701049664E00E94DE0568
:1022F0008091F7008F5F8093F700ADC1809103015B
:1023000090910201892B90910401892B822B11F06D
:102310008EE3A0C180910601803111F483E401C0F5
:1023200083E20E94FD058DE395C1F70184816581FB
:1023300046810E94CF0781E48DC1D70114968C910C
:102340008F3009F458C08031A0F48830D9F1893039
:1023500040F4863061F1873080F5843009F098C010
:1023600021C08B30A9F18D30E1F1893009F090C0A6
:102370002CC08C3109F45FC08D3150F4883109F4E0
:102380004BC08B3109F44CC0803109F081C03CC096
:10239000803209F469C0803609F476C08E3109F0C4
:1023A00077C050C0F70185810E94CC0771C0D7016A
:1023B00015968C9180930C016BC0F70185818093F9
:1023C0000F0166C00E948E0A63C00E94E20960C0CD
:1023D000D70115968C91159716966C910E948015D1
:1023E00057C0F701858166810E942E0190930B01F1
:1023F00080930A014DC0D70115968C9115971696BA
:102400006C910E947A1544C0F701858166810E9413
:102410002E010E94D9143CC00E94C1078D8338C090
:10242000D70115968C91159716966C910E942E01E6
:102430000E94C7072DC082E08D8385E08E838DE0EA
:102440008F8326C0F7012581220F220F220F8DE1F5
:102450009FE2A3E0B0E004C0B595A7959795879556
:102460002A95D2F78E8314C0D70115961C91159723
:1024700016968C91169717966C910E942E01BC01AE
:10248000812F0E943E1704C0F701858180930D01C2
:10249000D70114968C91807E803409F040C010E002
:1024A000812F0E94F207F7019581891719F01F5FAC
:1024B0001032B1F7012F0770D70114969C91149731
:1024C000892F807F8034D1F4892F8F70182F169533
:1024D00080FD0DC016968C91169717966C910E94F0
:1024E0002E01AC01802F612F0E94531907C0802F4D
:1024F000612FF701468127810E946C19D70114963C
:102500008C911497803559F416968C9116971796DE
:102510006C910E942E01BC01802F0E944219F7018C
:102520008481807E803809F045C010E0812F0E94B0
:10253000F207D70115969C91891719F01F5F103289
:10254000A9F7012F0770F7019481892F807F8038C8
:10255000D1F4892F8F70182F169580FD0AC08681BF
:1025600067810E942E01AC01802F612F0E94601CA8
:102570000AC0802F612FD70116964C911697179697
:102580002C910E94781CF7018481803941F4868166
:1025900067810E942E01BC01802F0E94431CD7013D
:1025A00014968C911497813929F4802F16966C918A
:1025B0000E94521C8DE44EC0F701848165814681E2
:1025C00027810E94A02081E645C0D70117968C91F3
:1025D0008F3F19F40E941D2A06C0F701848165818E
:1025E00046810E94292A85E635C0D70117966C914D
:1025F0001797862F877066956695669516964C9107
:10260000169715962C91159714960C910E94E80A2E
:1026100089E720C0EDEFFFE7E491D70115968C9193
:1026200015978E17C1F4EEEFFFE7E49116968C91A3
:1026300016978E1781F4EFEFFFE7E49117968C91D0
:1026400017978E1741F414968C91809309010E947C
:10265000CC168DE78B83809109018983F7018181F5
:102660008A838B8190E083709070892BA1F0809198
:10267000070190E0B3E0880F991FBA95E1F7E09168
:10268000F500F091F600E80FF91F8081BE016F5F41
:102690007F4F0E94700CD70113968C9113978C3446
:1026A00009F031C114968C91853049F1863040F49F
:1026B0008230B9F0833001F1813009F024C10EC0BD
:1026C0008C3041F18D3020F48A3009F01CC11CC0DF
:1026D0008E3029F1823109F016C127C00E94740F93
:1026E00012C1F89428E088E190E00FB6F894A8951C
:1026F00081BD0FBE21BDFFCF0E94AB0F04C1F7010A
:1027000085818093090115C0D70115968C9180931E
:102710000E01F9C0F70185810E947415F4C0D7013C
:1027200015968C910E947715EEC0F70185810E9465
:1027300073160E94CC16E7C08091F0008130D9F565
:10274000D70111969C9111978091F300981799F5F4
:102750002C7F30702830310571F514969C911497B8
:102760008091F400981739F51092F0001092F20061
:1027700013968C9113978930F1F48091F1008F3F7B
:1027800071F417961C91179715968C9115971696BC
:102790006C910E942E01BC01812F0E94C525F7017A
:1027A00066816295607F858182958F70682B8091AC
:1027B000F1000E94352A8091F800813009F04FC065
:1027C0008091070190E0A3E0880F991FAA95E1F797
:1027D000E091F500F091F600E80FF91F3381832FA7
:1027E0008C7F83838091070190E0F3E0880F991F2D
:1027F000FA95E1F7A091F500B091F600A80FB91F86
:10280000EBEFF0E021E011969C91119780819813F5
:1028100020E01196319681E0E230F807A1F72130EF
:10282000F1F41092F8001092FA008091F9008130D2
:10283000B1F4313081F469E00E94DE14109101019D
:102840008091FF00609100010E942E01BC01812F48
:102850000E94C52504C08AE06AE00E94DE14D70108
:1028600013968C9113978B3709F04DC000910F018F
:10287000013009F048C080910901898311968C913B
:102880008A8388E78B830E94010B8C830E94FE0A57
:102890008D830E94FB0A8E830E94F80A182F0E94E3
:1028A000F50A110F110F110F182B1F830093F80059
:1028B000ABEFB0E0FE01319687E001900D928150C0
:1028C000E1F7F70181818093FB00809109018093FA
:1028D000FC0089E78093FD0088E08093FA008091F6
:1028E000070190E0E3E0880F991FEA95E1F7E09196
:1028F000F500F091F600E80FF91F8081BE016F5FCF
:102900007F4F0E94700C8091070160910D018F5FD5
:102910000E9457359093070180910801981719F488
:102920008FEF809307018091F000813071F48091E6
:10293000F200882351F41092F00081E06091F300DE
:1029400048E02091F4000E94540D8091F8008130FD
:10295000B9F48091FA00882399F41092F8008091DC
:10296000F900813021F48AE06AE00E94DE1481E0FF
:102970006091FB004091FD002091FE000E94540DEB
:102980002E960FB6F894DEBF0FBECDBFCF91DF916C
:102990001F910F91FF90EF90DF90CF90089583E10A
:1029A00091E008958FEF9FEF9093140180931301AE
:1029B000089590931401809313010895482F21E006
:1029C00030E0C90102C0880F991F6A95E2F7BC0187
:1029D000809113019091140168237923672BB1F042
:1029E0008AE0489FC0011124909312018093110145
:1029F000E0911501F091160180810090100102C054
:102A0000220F331F0A94E2F7822B8083089580916E
:102A1000110190911201009791F4E0911501F0914C
:102A20001601208181E090E00090100102C0880F23
:102A3000991F0A94E2F78095822380830895019775
:102A400090931201809311010895EF92FF920F93DA
:102A50001F93DF93CF930F92CDB7DEB782E06FEF76
:102A60000E943409082F10E07E010894E11CF11C3B
:102A70001AC0C70160E070E040E050E020E030E0C4
:102A80000E944A09898161E00E940609909316011B
:102A9000809315018981982F97709093100161E0C0
:102AA0000E94FC071F5F101720F310921201109272
:102AB00011010F90CF91DF911F910F91FF90EF9037
:102AC000089587E191E0089510921701109218017E
:102AD000E9E1F1E0119281E0E132F807D9F71082E3
:102AE00011821282138208958093170108958093B2
:102AF00018010895E7E1F1E0E80FF11D6283089500
:102B0000E7E1F1E0E80FF11D6287089510922D01D1
:102B100088E98AB986E289B986E880BD10922F01DA
:102B200010922E01089580912E0190912F0100970F
:102B300019F410922D010895019790932F0180931D
:102B40002E0108955D9BFECF8CB90895482F8031EA
:102B500069F0282F30E0C9018F77409711F047FDC9
:102B600005C02F7030702F30310589F59091180114
:102B7000933049F490911701809119015D9BFECF2C
:102B800089278CB907C0809117015D9BFECF8CB956
:102B9000992381F0FB01AAE1B1E090818C915D9BCA
:102BA000FECF89278CB93196119681E0A132B80702
:102BB000A1F7089580E090E0FB01E80FF91FE081A4
:102BC0005D9BFECFECB9019687309105A9F708957A
:102BD0001F920F920FB60F9211242F933F934F9392
:102BE0005F936F937F938F939F93AF93BF93CF9395
:102BF000DF93EF93FF935F9BFECF20912D01E22F98
:102C0000F0E09CB1DF01AB5DBE4F9C93222361F4E9
:102C100080911801833089F48091190190912501E8
:102C200089278093250109C080911801882329F004
:102C3000E95EFE4F828189278C93822F8F5F80937C
:102C40002D01883079F59091250180911701981711
:102C500031F580E166E271E00E94410CC1E2D1E011
:102C600098819923B9F020912601291731F080919C
:102C70002701891711F08F3F69F4809127018F3F59
:102C800021F4291711F09093270180E166E271E0A9
:102C90000E94A615219681E0C532D80709F7109247
:102CA0002D0108C0813031F485E890E090932F0128
:102CB00080932E01FF91EF91DF91CF91BF91AF9162
:102CC0009F918F917F916F915F914F913F912F9144
:102CD0000F900FBE0F901F9018958DE391E008950F
:102CE00010923D01089580933D010895482FFB0106
:102CF000803269F0282F30E0C9018F77809711F07A
:102D000047FD05C02F7030702F30310511F58091CF
:102D10003D018093300188E0809331018081809370
:102D2000320181818093330185E080933401DF019A
:102D3000E5E3F1E012968C9112978193119681E070
:102D4000EA33F807B9F780E391E00E94D7018823BE
:102D5000D1F308958EE391E00E9438028823D9F0E0
:102D600080913E0180934B018091400180934C0102
:102D70008091410180934D01E3E4F1E0AEE4B1E0E4
:102D800081918D9381E0E834F807D1F780E26CE41B
:102D900071E00E94410C08950F931F93DF93CF932E
:102DA0000F92CDB7DEB70E940D0C882311F41FEFF0
:102DB00001C010E00E94290380E06FEF48E020E0AE
:102DC000012F0E94B20280913D0189830E940A0C6A
:102DD000082F80E0698148E020E00E94870281E0BE
:102DE00060913D0148E020E00FEF0E948702107FD4
:102DF00081E06FEF48E020E0012F0E94B20282E004
:102E000060913D0148E020E000EF0E94870283E0EE
:102E100060913D0148E020E00E94870284E06091DB
:102E20003D0148E020E00E94870285E060913D017D
:102E300048E020E00E9487020E94F5020F90CF91A7
:102E4000DF911F910F91089583E591E0089510920D
:102E50005401109253018AE090E0909356018093C0
:102E6000550182E390E0909358018093570186E9E1
:102E700090E090935A01809359010895E82FF0E073
:102E8000EE0FFF1FED5AFE4F71836083089581E0BE
:102E900080935E010895282F30E0C90153E0880F28
:102EA000991F5A95E1F7220F331F820F931FE0916C
:102EB0005C01F0915D01E80FF91F80810895809118
:102EC0005C0190915D010E94373608959AE0899FD8
:102ED000C0011124E0915C01F0915D01E80FF91F40
:102EE000218120952795222727952083E0915C0159
:102EF000F0915D01E80FF91F2081237F262B2083AD
:102F0000E0915C01F0915D01E80FF91F408181853E
:102F1000608550E020E00E940D0F0895FF920F930E
:102F20001F93CF93DF9380915E01813009F0FAC047
:102F300010E07AE0F72E01E0EEC01F9DE0011124C1
:102F4000E0915C01F0915D01EC0FFD1F82819381A6
:102F5000009719F0019793838283A0915C01B0914F
:102F60005D01AC0FBD1F11962C911197422F50E0BF
:102F70001496ED91FC911597808190E016960C9037
:102F8000169702C0959587950A94E2F784279527AE
:102F900080FF8DC027FF39C02F7711962C93E091C9
:102FA0005C01F0915D01EC0FFD1F8781482F50E01F
:102FB0004C7050704C30510591F4809159019091B2
:102FC0005A0122813381821B930B2091570130914A
:102FD00058018217930718F0812F68E014C0483019
:102FE00051059CF0809157019091580122813381C5
:102FF000821B930B20915501309156018217930744
:1030000020F0812F64E00E946617E0915C01F0914E
:103010005D01EC0FFD1F878185FF09C0809155017F
:103020009091560193838283818180688183A091EE
:103030005C01B0915D01AC0FBD1F11968C91119791
:1030400090E09C012170307080FD06C017968C9135
:10305000179780FD08C022C0222301F117968C919A
:10306000179781FF1BC01796EC911797E695E69589
:10307000F0E0E370F070EE0FFF1FED5AFE4F80811D
:10308000918113969C938E931297E0915C01F0913D
:103090005D01EC0FFD1F818180688183E0915C01FF
:1030A000F0915D01EC0FFD1F818180278183A0914C
:1030B0005C01B0915D01AC0FBD1F11964C91119751
:1030C000242F30E01496ED91FC911597808190E0CB
:1030D00016960C90169702C0959587950A94E2F77C
:1030E0008227932780FD16C047FF14C012968D914A
:1030F0009C911397892B71F44F7711964C93E09123
:103100005C01F0915D01EC0FFD1F67816C70812FF8
:103110000E9466171F5F80915B01181708F40DCF9E
:1031200010925E01DF91CF911F910F91FF90089552
:10313000AF92BF92CF92DF92EF92FF920F931F93C5
:10314000DF93CF930F92CDB7DEB710925E0180E888
:1031500060E80E943409982F80935B018AE0989F71
:10316000C00111240E948A3580935C0190935D0117
:10317000DD24EAE0CE2E5E010894A11CB11C5AC0E9
:10318000DC9C7001112460915C0170915D016E0DF9
:103190007F1DAB01485F5F4F9B01275F3F4FC5011C
:1031A000695F7F4F0E944A0900915C0110915D01A7
:1031B0000E0D1F1D898160E00E940609F8019583AC
:1031C0008483A0915C01B0915D01AE0DBF1D39817A
:1031D000232F277016962C9316971496ED91FC9139
:1031E0001597808190E002C0959587952A95E2F722
:1031F000817011968C93E0915C01F0915D01EE0D70
:10320000FF1D818180958795882787958083E09130
:103210005C01F0915D01EE0DFF1D1382128287812A
:1032200084FD03C0832F60E002C0832F62E00E9410
:10323000FC07D39480915B01D81608F4A1CF0F90BE
:10324000CF91DF911F910F91FF90EF90DF90CF9082
:10325000BF90AF90089580E691E00895E0E6F1E038
:1032600088E592E091838083138212821482158212
:1032700017821682108611863A9621E0E03BF2070B
:1032800089F70895282F30E0F90193E0EE0FFF1F32
:103290009A95E1F7220F331FE20FF31FE05AFE4F1A
:1032A000718360830895E62FF0E0EE0FFF1FEE0FAD
:1032B000FF1F282F30E0C90173E0880F991F7A950E
:1032C000E1F7220F331F820F931FE80FF91FE05A17
:1032D000FE4F538342830895EF92FF920F931F9303
:1032E00070E08B010F5F1F4FE0E6EE2EE1E0FE2E57
:1032F000000F111F000F111FE82FF0E0DF0133E076
:10330000AA0FBB1F3A95E1F7EE0FFF1FAE0FBF1FCD
:103310000A0F1B1F0E0D1F1DF8014083660F771F3C
:10332000660F771F482F50E0CA0113E0880F991FDE
:103330001A95E1F7440F551F840F951F680F791FE9
:10334000E60EF71EF70125831F910F91FF90EF9076
:103350000895282F862F82958F708A3011F5862F39
:1033600090E083709070892BE1F466956695E62F66
:10337000F0E0E370F070EE0FFF1FEE0FFF1F822FE3
:1033800090E09C01B3E0220F331FBA95E1F7880F5C
:10339000991F280F391FE20FF31FE05AFE4F538386
:1033A000428308958091B0018F5F8093B0010895AA
:1033B000582F462F662319F06FEF7FEF12C0282F8A
:1033C00030E0C90173E0880F991F7A95E1F7820F09
:1033D000931FE091B201F091B301E80FF91F6081F2
:1033E0007181842F82958F708A3011F5842F90E03F
:1033F00083709070892BE1F446954695E42FF0E0B8
:10340000E370F070EE0FFF1FEE0FFF1F852F90E0AF
:103410009C0153E0220F331F5A95E1F7880F991F43
:10342000280F391FE20FF31FE05AFE4F62817381AC
:10343000CB0108958091B2019091B3010E9437367B
:103440000895AF92BF92CF92DF92EF92FF920F93C7
:103450001F93CF93DF938091B0018A30D0F0109208
:10346000B0015091B10140E020E030E010C0E091A7
:10347000B201F091B301E20FF31F828193810097B3
:1034800019F00197938382834F5F275F3F4F451762
:1034900070F390915F019F3F09F408C1369906C10E
:1034A00089E0989FC0011124E091B201F091B3012D
:1034B000E80FF91F1182108224B130E0220F331F70
:1034C000220F331F3183208345B1942F990F990F19
:1034D00080E0282B392B31832083EE24FF2499E0D0
:1034E000A92E0E2D80915F018A9DC0011124C091EB
:1034F000B201D091B301C80FD91F4E81D701AA0FD5
:10350000BB1FAA0FBB1F842F90E0FC0113E0EE0F3E
:10351000FF1F1A95E1F7880F991FE80FF91FEA0FAF
:10352000FB1FE05AFE4FC280D380F7013196EE0FA9
:10353000FF1FEE0FFF1F842F90E09C0153E0220F2E
:10354000331F5A95E1F7880F991F280F391FE20F93
:10355000F31FE05AFE4FB080842F90E09C01F3E00F
:10356000220F331FFA95E1F7880F991F280F391F93
:10357000A20FB31FA05ABE4F15961C9112FF2CC06C
:10358000888199818C159D0558F410FD09C0116042
:103590004E2D406488856F8150E020E00E940D0F21
:1035A00080915F018A9DC0011124E091B201F091E8
:1035B000B301E80FF91F96012B0D311D8081918118
:1035C0008217930748F010FF07C01E7F8085678130
:1035D000A70120E00E940D0F13FF38C080915F010A
:1035E0008A9DC0011124E091B201F091B301E80F6E
:1035F000F91F80819181C816D90658F411FD09C0C0
:103600001260402F406C8085678150E020E00E946E
:103610000D0F80915F018A9DC0011124E091B201DC
:10362000F091B301E80FF91FCB18D1088081918187
:10363000C816D90658F011FF09C01D7F00688085A3
:103640006781402F50E020E00E940D0F80915F01C4
:1036500090E09C0173E0220F331F7A95E1F7280F69
:10366000391FE091B201F091B301E20FF31FD701CE
:10367000AA0FBB1FAA0FBB1F868190E09C0153E0DD
:10368000220F331F5A95E1F7880F991F280F391F12
:10369000A20FB31FA05ABE4F15961C930894E11CAD
:1036A000F11C82E0E816F10409F01BCF80915F0164
:1036B0008F3F11F036994DC0482F4F5F2091B101D7
:1036C000A091B201B091B30111C0842F90E0FC0130
:1036D00033E0EE0FFF1F3A95E1F7E80FF91FEA0F0D
:1036E000FB1F82819381892B21F04F5F421768F382
:1036F0002DC029E0429F90011124A20FB31F1696FE
:103700008C91169790E0FC0103E0EE0FFF1F0A95E5
:10371000E1F7880F991FE80FF91FE05AFE4F8081EB
:10372000918113969C938E93129787B1887F87B966
:1037300097B1E091B201F091B301E20FF31F8681DE
:10374000982B97B9369A40935F0103C08FEF80930F
:103750005F01DF91CF911F910F91FF90EF90DF906C
:10376000CF90BF90AF900895AF92BF92CF92DF926B
:10377000EF92FF920F931F93DF93CF930F92CDB7EA
:10378000DEB780E268EF0E943409982F8093B10180
:1037900089E0989FC00111240E948A358093B2016C
:1037A0009093B301DD2459E0C52E5E010894A11C5D
:1037B000B11C36C0DC9C700111244091B2015091C3
:1037C000B3014E0D5F1D9A01285F3F4FC50160E0B8
:1037D00070E0495F5F4F0E944A090091B201109169
:1037E000B3010E0D1F1D898160E00E940609F801DA
:1037F00095838483E091B201F091B301EE0DFF1D3A
:103800008981868311821082E091B201F091B30127
:10381000EE0DFF1D1382128260E00E94FC07D3941C
:103820009091B101D91630F21092B0018FEF8093D0
:103830005F0180EC87B9992311F087E886B90F9072
:10384000CF91DF911F910F91FF90EF90DF90CF907C
:10385000BF90AF90089589EB91E00895E9EBF1E016
:103860008CE390E09183808312821482138215820C
:10387000168210861782118612863B9622E0E1316D
:10388000F20781F7089590E02BE030E0829FF0018D
:10389000839FF00D929FF00D1124E754FE4F71832A
:1038A0006083089590E02BE030E0829FF001839FD9
:1038B000F00D929FF00D1124E754FE4F628308959E
:1038C000E62FF0E090E0EE0FFF1FEE0FFF1F2BE062
:1038D00030E0BC01629FC001639F900D729F900D0C
:1038E0001124E80FF91FE754FE4F548343830895D2
:1038F0000F931F93CF93DF9390E070E0660F771FD5
:10390000660F771F09EB11E0FB013296ABE0B0E0E8
:10391000EC01CA9FC001CB9F900DDA9F900D11243E
:10392000E80FF91FE00FF11F4383680F791F060F9F
:10393000171FF8012683DF91CF911F910F910895F2
:10394000282F862F82958F708A3009F5862F90E078
:1039500083709070892BD9F466956695E62FF0E018
:10396000E370F07030E0EE0FFF1FEE0FFF1F8BE0F3
:1039700090E0BC01269FC001279F900D369F900DBF
:103980001124E80FF91FE754FE4F54834383089531
:103990008091B8018F5F8093B8010895582F462F0A
:1039A000662319F06FEF7FEF12C0282F30E0C901B6
:1039B000E3E0880F991FEA95E1F7821B930BE091F2
:1039C000B501F091B601E80FF91F60817181842F74
:1039D00082958F708A3011F5842F90E083709070FB
:1039E000892BE1F446954695E42FF0E0E370F07002
:1039F000252F30E0EE0FFF1FEE0FFF1F8BE090E052
:103A0000AC01249FC001259F900D349F900D11247F
:103A1000E80FF91FE754FE4F63817481CB010895CD
:103A20008091B5019091B6010E94373608952F928A
:103A30003F924F925F926F927F928F929F92AF923E
:103A4000BF92CF92DF92EF92FF920F931F93CF938B
:103A5000DF938091B801882309F4ADC11092B801B9
:103A600044247BE0272E312CA1C127E0429E500147
:103A70001124E091B501F091B601EA0DFB1D81E042
:103A800090E0048002C0880F991F0A94E2F7D82EB4
:103A900082819381009719F0019793838283E0914B
:103AA000B501F091B601EA0DFB1D8281938101976A
:103AB00009F58D2D0E9403078823E1F08D2D0E94CA
:103AC000B007E091B501F091B601EA0DFB1D8481CC
:103AD00090E0829DF001839DF00D929DF00D1124E8
:103AE000E754FE4F82818150823020F484E46D2DB2
:103AF0000E949807E091B501F091B601EA0DFB1D17
:103B000082819381892B09F050C18D2D0E9403077A
:103B1000882309F48AC08D2D0E94B007E091B50179
:103B2000F091B601EA0DFB1D848190E0829DF001C9
:103B3000839DF00D929DF00D1124E754FE4F82817C
:103B4000813021F0823009F070C022C08EEB6D2DE3
:103B50000E9498070091B5011091B6010A0D1B1D36
:103B60008D2D0E944E07F80180831182E090B501EF
:103B7000F090B601EA0CFB1CF701008111818D2D3C
:103B80000E944E07982E882408291929F7014BC056
:103B90008EEB6D2D0E9498070091B5011091B60132
:103BA0000A0D1B1D8D2D0E944E07F8018083118286
:103BB000E090B501F090B601EA0CFB1CF701008122
:103BC00011818D2D0E944E07782E66240629172913
:103BD000F701118300838D2D0E944E078D2D0E94C9
:103BE0004E078D2D0E944E078D2D0E944E07E091AD
:103BF000B501F091B601EA0DFB1D0081118115950B
:103C000007958D2D0E944E0754E0000F111F5A9505
:103C1000E1F7045F1F4FE091B501F091B601EA0DA5
:103C2000FB1D081B11091183008300E010E0F02E3A
:103C3000C091B501D091B601CA0DDB1D8C8190E019
:103C4000D801AA0FBB1FAA0FBB1F829DF001839D45
:103C5000F00D929DF00D1124AE0FBF1FA754BE4F63
:103C60001396CD90DC901497C801880F991F880F88
:103C7000991FE80FF91FE554FE4F53801696EC90FC
:103C8000E2FE29C0888199818C159D0564F4E0FCD1
:103C90000AC0F1E0EF2A402F40648E816D8150E030
:103CA00020E00E940D0FE091B501F091B601EA0D00
:103CB000FB1D9601250D311D80819181821793078F
:103CC00054F0E0FE08C02EEFE22286816581A80153
:103CD00020E00E940D0FE3FE31C0E091B501F091AC
:103CE000B601EA0DFB1D80819181C816D90664F4E6
:103CF000E1FC0AC032E0E32A4F2D406C86816581E9
:103D000050E020E00E940D0FE091B501F091B60166
:103D1000EA0DFB1DC518D10880819181C816D9060E
:103D20006CF0E1FE0BC08DEFE82220E8F22A8681DC
:103D300065814F2D50E020E00E940D0FA091B5014C
:103D4000B091B601AA0DBB1D14968C91149790E00A
:103D5000F801EE0FFF1FEE0FFF1F9C01229DC00117
:103D6000239D900D329D900D1124E80FF91FE7540B
:103D7000FE4FE6820F5F1F4F0230110509F057CF4B
:103D800014968C91149790E02BE030E0829FF00124
:103D9000839FF00D929FF00D1124E754FE4F808118
:103DA000918113969C938E93129743948091B401C2
:103DB000481608F45ACEDF91CF911F910F91FF90D2
:103DC000EF90DF90CF90BF90AF909F908F907F90BB
:103DD0006F905F904F903F902F900895AF92BF9259
:103DE000CF92DF92EF92FF920F931F93DF93CF93C7
:103DF0000F92CDB7DEB788E268EF0E943409982FA2
:103E00008093B40187E0989FC00111240E948A35F5
:103E10008093B5019093B6011092B701FF24F7E0AB
:103E2000EF2E5E010894A11CB11CE1E0CE2ED12C36
:103E300032C0FE9C800111244091B5015091B60121
:103E4000400F511F9A012A5F3F4FC50160E070E0AB
:103E50004B5F5F4F0E944A09E091B501F091B601B6
:103E6000E00FF11F2981248311821082E091B501B6
:103E7000F091B601E00FF11F13821282C60102C059
:103E8000880F991F2A95E2F79C018091B701822B38
:103E90008093B701F3948091B401F81650F2109218
:103EA000B8018091B7010E94B5070F90CF91DF91C3
:103EB0001F910F91FF90EF90DF90CF90BF90AF9048
:103EC00008957F928F929F92AF92BF92CF92DF928E
:103ED000EF92FF920F931F93DF93CF9300D0CDB754
:103EE000DEB780E06EEF0E943409782EEE2432E0D7
:103EF000832E912C8C0E9D1E5E010894A11CB11C7A
:103F000021E0C22ED12C2DC0C501B40140E050E00B
:103F100020E030E00E944A09898161E00E940609A0
:103F20008C01898197E0F92EF82261E00E94FC075C
:103F30008A81813051F4F8012081C60102C0880FC6
:103F4000991FFA94E2F7282B0AC0F8012081C601D4
:103F500002C0880F991FFA94E2F7809528232083E6
:103F6000E394E71488F20F900F90CF91DF911F91A7
:103F70000F91FF90EF90DF90CF90BF90AF909F9008
:103F80008F907F90089590E09C01220F331F280F9F
:103F9000391F220F331FE0911202F0911302E20F3A
:103FA000F31F8081089580911202909113020E9464
:103FB00037360895462F96E0899FB0011124E0918D
:103FC0001202F0911302E60FF71F40834423A1F081
:103FD000E0911202F0911302E60FF71FA181B28166
:103FE0002C9181E090E0038002C0880F991F0A9411
:103FF000E2F7282B2C9314C0E0911202F0911302E7
:10400000E60FF71FA181B2812C9181E090E003803F
:1040100002C0880F991F0A94E2F7809582238C933F
:10402000E0911202F0911302E60FF71F858164817F
:1040300050E020E00E940D0F0895AF92BF92CF9202
:10404000DF92EF92FF920F931F93DF93CF930F9224
:10405000CDB7DEB780E160EF0E943409982F8093DE
:10406000110286E0989FC00111240E948A35809336
:10407000120290931302DD2456E0C52E5E010894CF
:10408000A11CB11C2FC0DC9C7001112440911202B4
:10409000509113024E0D5F1D9A012B5F3F4FC501DA
:1040A00060E070E04C5F5F4F0E944A09009112028D
:1040B000109113020E0D1F1D898161E00E940609F7
:1040C000F80192838183E0911202F0911302EE0DC8
:1040D000FF1D8981982F97709383108261E00E9461
:1040E000FC07D39480911102D81668F20F90CF91FB
:1040F000DF911F910F91FF90EF90DF90CF90BF90D5
:10410000AF90089586E192E0089510921602109201
:1041100017021092180210921902109221021092A6
:1041200022021092230210922B0210922C02109263
:104130002D02109235021092360210923702089525
:10414000982F542F722F882321F0A7E1B2E0E0E0EE
:1041500028C040911602242F30E0F901EE0FFF1F16
:10416000C901B3E0880F991FBA95E1F7E80FF91F6D
:10417000EA5EFD4F6183F901EE0FFF1FEE0FFF1F97
:10418000E20FF31FEE0FFF1FE85EFD4F50837183B8
:104190004F5F409316020895EF5F1A96E43009F4DA
:1041A000C4C08C918917C1F7ACC06130B9F06130DF
:1041B00030F0603811F1613809F0B7C02CC0FC0153
:1041C00033E0EE0FFF1F3A95E1F7880F991FE80FD4
:1041D000F91FEA5EFD4F548375830895FC01B3E037
:1041E000EE0FFF1FBA95E1F7880F991FE80FF91F2F
:1041F000EA5EFD4F568377830895FC0173E0EE0F6E
:10420000FF1F7A95E1F7880F991FE80FF91FEA5E03
:10421000FD4F50870895FC0143E0EE0FFF1F4A95C4
:10422000E1F7880F991FE80FF91FEA5EFD4F5187EC
:104230000895623061F1633030F4662361F06130DB
:1042400009F073C016C06430F1F1643070F165306C
:1042500009F06BC047C0FC0123E0EE0FFF1F2A9559
:10426000E1F7880F991FE80FF91FEA5EFD4F5483AD
:104270000895FC01A3E0EE0FFF1FAA95E1F7880F58
:10428000991FE80FF91FEA5EFD4F55830895FC0161
:1042900063E0EE0FFF1F6A95E1F7880F991FE80FA3
:1042A000F91FEA5EFD4F56830895FC0133E0EE0FDF
:1042B000FF1F3A95E1F7880F991FE80FF91FEA5E93
:1042C000FD4F57830895FC01B3E0EE0FFF1FBA9531
:1042D000E1F7880F991FE80FF91FEA5EFD4F50873D
:1042E000718708950196FC0163E0EE0FFF1F6A9548
:1042F000E1F7880F991FE80FF91FEA5EFD4F508321
:1043000008958E2F90E0FC01EE0FFF1FEE0FFF1FB0
:10431000E80FF91FEE0FFF1FE85EFD4FE081E03C64
:1043200009F443CFE03E09F484CF089590E0FC0106
:10433000EE0FFF1FEE0FFF1FE80FF91FEE0FFF1F1D
:10434000E85EFD4F80810895282F10923F028093F0
:10435000140260931502E8E1F2E090E08081862388
:10436000821709F49F5F3A9682E0E034F807B1F7CC
:10437000892F0895409115022091140280913F02E7
:10438000382F3F5F90E0FC01EE0FFF1FEE0FFF1F85
:10439000E80FF91FEE0FFF1FE85EFD4F80818423B9
:1043A000821711F0832FECCF30933F022AE0329F27
:1043B00090011124235F3D4FC9010895282FE7E1A3
:1043C000F2E090E001C09F5F8081821729F03A9669
:1043D0009430C9F78FEF0895892F806808958F77FB
:1043E000A8E1B2E040E025E0829F90011124220F75
:1043F000331F2A0F3B1F90E0FC01EE0FFF1FEE0F53
:10440000FF1FE80FF91FEE0FFF1FEA0FFB1F07C08A
:1044100080819C918927862309F44F5F1A96A21701
:10442000B307B1F7842F089590E02BE030E0AC01A2
:10443000429FC001439F900D529F900D1124E09127
:104440004502F0914602E80FF91F8281089580919C
:1044500042028F5F809342020895809145029091BD
:1044600046020E9437360895DF92EF92FF920F9333
:104470001F93CF93DF9380914202843108F4D4C01C
:104480001092420281E080934302FF249BE0D92EE8
:1044900083E0E82EC2C0FD9CE0011124E0914502BA
:1044A000F0914602EC0FFD1F818587FD02C081500F
:1044B00081878185882361F40190F081E02D8381DB
:1044C000648140E020E030E000E010E00E949C0DBC
:1044D000E0914502F0914602EC0FFD1F828587FDB9
:1044E00002C0815082878285882361F40190F08127
:1044F000E02D8581668140E020E030E000E010E0C2
:104500000E949C0DA0914502B0914602AC0FBD1FC8
:1045100014968D919C911597009731F001971596FF
:104520009C938E93149778C018969C911897892F16
:104530008370813069F59C7F18969C931897ED9154
:10454000FC911197808580FF1AC01996EC928581A5
:10455000668140E020E030E000E010E00E949C0D29
:10456000E0914502F0914602EC0FFD1F0190F081B1
:10457000E02D8381648144E620E030E007C0838140
:10458000648140E020E030E000E010E00E949C0DFB
:10459000A0914502B0914602AC0FBD1F18969C91A8
:1045A0001897892F8370823069F59C7F18969C93A9
:1045B0001897ED91FC911197808580FF1AC01A968B
:1045C000EC928381648140E020E030E000E010E084
:1045D0000E949C0DE0914502F0914602EC0FFD1FF8
:1045E0000190F081E02D8581668144E620E030E095
:1045F00007C08581668140E020E030E000E010E007
:104600000E949C0DE0914502F0914602EC0FFD1FC7
:104610001782168283818283F39480914402F81674
:1046200008F439CF10924302DF91CF911F910F917F
:10463000FF90EF90DF9008954F925F926F927F927C
:104640008F929F92AF92BF92CF92DF92EF92FF92A2
:104650000F931F93CF93DF93982F80914302813064
:1046600009F4ABC08BE0989F200111248090450293
:1046700090904602840C951CF40182819381C6813E
:10468000D7810481158160807180282F30E08917DF
:10469000C0F4C01BD10BF301678184E690E0AC014C
:1046A000C49FC001C59F900DD49F900D112470E050
:1046B0000E946335260F371F30934102209340023A
:1046C0003BC0B901882777FD8095982F0E946834F8
:1046D0005B016C01C01BD10B84E690E0C89FB00168
:1046E000C99F700DD89F700D112480E090E00E944A
:1046F00066347B018C01F301678170E0882777FDC8
:104700008095982F0E94683426E636E646E85FEBEF
:104710000E94F4349B01AC01C801B7010E94CD3363
:104720009B01AC01C601B5010E9469330E9435347A
:104730007093410260934002809140029091410247
:1047400097FF04C0109241021092400280914002F3
:10475000909141028536910534F084E690E0909383
:1047600041028093400280914002F4018283E091F3
:104770004502F0914602E40DF51D15821482178260
:104780001682428143830190F081E02D8281608115
:1047900050E020E00E940D0FDF91CF911F910F910B
:1047A000FF90EF90DF90CF90BF90AF909F908F9051
:1047B0007F906F905F904F900895FFCFCF92DF92E0
:1047C000FF920F931F93CF93DF93982FF62E809134
:1047D0004302813009F4F7C08BE0989F60011124F7
:1047E000C0914502D0914602CC0DDD1D888590E038
:1047F00083709070892B09F0DDC02A81621718F050
:10480000662319F061C0662389F4E881F981678124
:1048100070E0882777FD8095982F0E94683420E00B
:1048200030E040EA5FE30E94F43420C030E0261B11
:104830003109E881F981878190E0289FB001299FA3
:10484000700D389F700D1124882777FD8095982F63
:104850000E94683426E636E646E85FE30E94F434B8
:1048600020E030E048EC52E40E94CD330E943A341C
:104870007D836C838C819D819F838E8388858C7FD3
:1048800081608887E881F981808580FF02C083E0AC
:104890008987E881F9818581668140E020E030E008
:1048A00000E010E00E949C0DE0914502F09146026C
:1048B000EC0DFD1D0190F081E02D8381648144E6C3
:1048C00020E030E00E949C0DC0914502D09146024C
:1048D000CC0DDD1D8A818F1528F044E6F41609F011
:1048E00057C003C054E6F51699F4E881F981678151
:1048F00070E0882777FD8095982F0E9468342AE918
:1049000039E949E95FE30E94F4340E943A3414C063
:104910002F2D30E0281B3109E881F981878190E053
:10492000AC01249FC001259F900D349F900D112450
:1049300064E670E00E9477357D836C838C819D8175
:104940009F838E8388858C7F82608887E881F98148
:10495000808580FF02C083E08A87E881F9818381B6
:10496000648140E020E030E000E010E00E949C0D17
:10497000E0914502F0914602EC0DFD1D0190F081A1
:10498000E02D8581668144E620E030E00E949C0DA8
:10499000E0914502F0914602EC0DFD1DF38201907D
:1049A000F081E02D828160814F2D50E020E00E9457
:1049B0000D0F0AC0E881F98182E0608140E020E0CB
:1049C0000E94540D01C0FFCFDF91CF911F910F9135
:1049D000FF90DF90CF900895482F282F30E08BE094
:1049E00090E0BC01269FC001279F900D369F900D3F
:1049F0001124E0914502F0914602E80FF91F8085ED
:104A000090E083709070892B21F0842F0E941C23EA
:104A10000895842F64E60E94DE230895482F282FEE
:104A200030E08BE090E0BC01269FC001279F900DF5
:104A3000369F900D1124E0914502F0914602E80F57
:104A4000F91F808590E083709070892B21F0842F6E
:104A50000E941C230895842F60E00E94DE230895A5
:104A6000CF93DF93982F8BE0989FE0011124E09182
:104A70004502F0914602EC0FFD1F808587FF04C0C0
:104A8000892F0E94EC2403C0892F0E940E25E091FB
:104A90004502F0914602EC0FFD1F8085805880870B
:104AA000DF91CF910895282F8BE0289FC00111241A
:104AB000E0914502F0914602E80FF91F808590E0F1
:104AC00083709070892B21F0822F0E941C230895FF
:104AD0008281882319F0822F60E002C0822F64E671
:104AE0000E94DE230895BF92CF92DF92EF92FF9251
:104AF0000F931F9380EC6FEF0E94A421982F809357
:104B000044028BE0989FC00111240E948A35809353
:104B1000450290934602DD242BE0B22ECC24CA94A9
:104B200024C0DB9C700111240091450210914602C3
:104B30000E0D1F1D0E94BA21F80191838083E09120
:104B40004502F0914602EE0DFF1D1282E0914502F2
:104B5000F0914602EE0DFF1D13821582148217821A
:104B600016821086C186C286D39480914402D816DC
:104B7000C0F210924202109243021F910F91FF90D7
:104B8000EF90DF90CF90BF90089590916E0290319A
:104B900019F09032C1F406C0E0914902F0914A0246
:104BA000628311C0882339F4E0914902F0914A02EE
:104BB0006283738308C0803A31F4E0914902F09136
:104BC0004A02648375838EE880934B020895809136
:104BD0004802882319F081508093480280916E0228
:104BE000803249F4E0914902F0914A02808588239D
:104BF00011F0815080870895CF93DF938091470211
:104C00008F5F80934702A82FB0E0ED01CC0FDD1F2E
:104C1000CC0FDD1FC45BDD4F809175029091760251
:104C20009983888380916E02813071F4E09149020A
:104C3000F0914A02AA0FBB1FAA0FBB1FA25BBD4F78
:104C400083818C9384818B83DF91CF910895E09150
:104C50004902F0914A028481882339F48281838356
:104C6000853608F0138280E1848308950F931F93A3
:104C7000182F062F80914B028958823020F481E052
:104C80006BE00E94DE1481E068E00E94DE14109365
:104C90004B02802F6AE00E9457358F5F8093740229
:104CA0001F910F91089580E069EA0E94D60582E085
:104CB0000E94FD050E94C7058823E1F781E00E945C
:104CC0003E0608951F93CF93DF93EC010E94532675
:104CD000888380E069EA0E94D60588818F5F0E9400
:104CE000FD050E94C7058823E1F711E008C0812F68
:104CF0000E943E06FE01E10FF11D80831F5F888147
:104D00008117A8F7DF91CF911F9108951F9380E03D
:104D100069EA0E94D60583E00E94FD050E94C7054E
:104D20008823E1F782E00E943E06182F81E00E946E
:104D30003E06682F812F0E942E011F910895EF9249
:104D4000FF920F931F938C0180937502109376024C
:104D500080E068EA0E94D60581E0612F0E94D605B6
:104D600082E0602F0E94D6050E94F90583E00E9430
:104D7000FD050E94C7058823E1F70E945326809312
:104D80006E02803109F447C0803209F46EC0813070
:104D900009F0B2C085E090E00E948A358C019093C2
:104DA0004A02809349020E945326F80180830091B1
:104DB000490210914A02F801908181E1989FC00157
:104DC00011240E948A35F80181839283EE2431E117
:104DD000F32E17C0EF9C8001112481819281800FF6
:104DE000911F0E946226E0914902F0914A0281815E
:104DF0009281080F191F0E948626F801908B8787E1
:104E0000E394E0914902F0914A028081E81610F3A0
:104E10001382148271C086E190E00E948A358C0171
:104E200090934A02809349020E945326F80180839E
:104E30000091490210914A020E945326F801818391
:104E4000E0914902F0914A028FEF828360814181B3
:104E500020E000E010E00E94940CE0914902F09103
:104E60004A021482CF01059645C08AE190E00E9473
:104E70008A358C0190934A02809349020E945326FE
:104E8000F80180830091490210914A020E94532642
:104E9000F8018183E0914902F0914A022FEFE22E5E
:104EA0002FE7F22EF382E2828FEF6081418120E0D2
:104EB00000E010E00E94940CE0914902F0914A0257
:104EC000F582E4828FEF6081418120EA0E94940C98
:104ED0000091490210914A02F80116820E9453265D
:104EE000F8018783E0914902F0914A028781808727
:104EF000CF0109960E9462261F910F91FF90EF90BB
:104F00000895E0914702F0E0EE0FFF1FEE0FFF1F44
:104F1000E45BFD4F808191810E949F2680916E020B
:104F20008130C1F42091490230914A02E091470258
:104F3000F0E0EE0FFF1FEE0FFF1FDF01A25BBD4F82
:104F40008C91D90113968C931397E45BFD4F838169
:104F500014968C9380914702815080934702089564
:104F60000F931F9380914B028F3F09F4BCC1809136
:104F700073028093480284E690E00E949804809136
:104F80006E02803109F481C0803209F408C1813099
:104F900009F0A5C180914B028A38B1F08B3829F114
:104FA000893809F09CC1E0914902F0914A0283815D
:104FB000882311F08150838394818381891708F0BD
:104FC0008EC1915094838BC1E0914902F0914A02C5
:104FD0004381242F30E0808190E001972817390722
:104FE0000CF07DC14F5F43837AC1E0914902F0919B
:104FF0004A02838190E09C0144E0220F331F4A95CE
:10500000E1F7280F391F0180F281E02DE20FF31F35
:105010000785108920914702E22FF0E0EE0FFF1F75
:10502000EE0FFF1FE45BFD4F808191818017910798
:1050300021F0263028F50E94FC25E0914902F091EC
:105040004A02818192810E94373680914902909173
:105050004A020E943736E0914702F0E0EE0FFF1F50
:10506000EE0FFF1FE45BFD4F808191818017910758
:1050700021F0C8010E949F2632C10E9481272FC1C2
:105080008AE06AE00E94DE142AC180914B028A38CD
:1050900019F18B3820F4893809F021C106C08B380A
:1050A000C9F18C3809F01BC170C0E0914902F09140
:1050B0004A0282818F3F09F412C10E942726E091A3
:1050C0004902F0914A02838190917402981710F47A
:1050D000891B1EC0138203C1E0914902F0914A026C
:1050E00082818F3F09F4FBC00E942726E09149028C
:1050F000F0914A02338120917402832F90E0820F55
:10510000911D843691051CF4230F2383E8C084E6A7
:105110008383E5C0E0914902F0914A0284818823AB
:1051200029F4CF010E9437360E948127E09149027D
:10513000F0914A028481803109F0D1C010810E942F
:105140000A0C181751F481E069E00E94DE14E09126
:105150004902F0914A02838105C0E0914902F09131
:105160004A028FEF8283E0914902F0914A028081E6
:105170006181438120E030E001E010E00E949C0D5D
:10518000E0914902F0914A0208C0E0914902F09191
:105190004A028481803109F0A2C01482A0C08091AB
:1051A0004B028A3889F18B3820F4893809F097C08E
:1051B00007C08B3809F448C08C3809F090C077C01C
:1051C000E0914902F0914A02448155812FE74F3F17
:1051D000520709F484C080E1868380917402282FED
:1051E00030E0A3E0220F331FAA95E1F7C9018F53E6
:1051F0009140481759072CF0421B530B55834483A9
:105200006EC080EC9EEF1DC0E0914902F0914A0211
:10521000248135818FE72F3F380709F460C080E192
:1052200086838091740290E073E0880F991F7A95CD
:10523000E1F7820F931F23E0803C920714F080EC8B
:1052400093E0958384834BC0E0914902F0914A0238
:105250008681882329F4CF010E9437360E94812756
:10526000E0914902F0914A0286818031C1F52481A2
:1052700035818081618140EA01E010E00E949C0D4F
:10528000E0914902F0914A0210810E940A0C18171D
:1052900049F0E0914902F0914A028FEF9FE7958330
:1052A000848318C081E069E00E94DE1413C0E0919D
:1052B0004902F0914A028681803189F48FEF9FE79D
:1052C000958384838FEF6081418120EA00E010E0C4
:1052D0000E94940CE0914902F0914A0216828FEFED
:1052E00080934B0231C080914802882369F580E0A9
:1052F00090E00E9498042091710230917202809196
:1053000075029091760228173907F1F00E94FC256A
:1053100080916E02803161F0803251F0813071F401
:10532000E0914902F0914A02818192810E943736D0
:105330008091490290914A020E9437368091710211
:10534000909172020E949F2680916E028032A9F491
:10535000E0914902F0914A028085882371F48FEF31
:105360006081418120E000E010E00E94940CE09117
:105370004902F0914A02878180871F910F91089519
:1053800080EF6FEF0E94A421882309F44FC00E9490
:10539000BA2190936D0280936C0280E068EA0E94CB
:1053A000D60581E060E00E94D60582E060E00E94C0
:1053B000D6050E94F90583E00E94FD050E94C705FD
:1053C0008823E1F70E9486269093700280936F02F3
:1053D0000E94862690937202809371020E94532647
:1053E000809373028093480280916F0290917002C3
:1053F00090934D0280934C02E0914702F0E0EE0F53
:10540000FF1FEE0FFF1FDF01A25BBD4F1C92E45B8D
:10541000FD4F1382109247020E949F26E09149029D
:10542000F0914A02138214828EE801C08FEF8093BC
:105430004B0208958BE792E00895EBE7F2E01082CB
:10544000118212821382349683E0EB37F807B9F7A2
:105450000895E82FF0E0EE0FFF1FEE0FFF1FE60F9D
:10546000F11DE558FD4F4083089590E0880F991F86
:10547000E0917802F0917902E80FF91F60830895B6
:1054800080917A028F5F80937A02089580917B03E6
:105490008F5F80937B030895FF920F931F93F82EE5
:1054A000062F122FCA0134E0969587953A95E1F7B9
:1054B000682F70E03DC0A72FB0E0FD01EE0FFF1F89
:1054C000EE0FFF1FE558FD4F80818E7F8C33D9F49E
:1054D00081818F15C1F49D01220F331FF901EE0F59
:1054E000FF1FE358FD4F8081801769F4E091780237
:1054F000F091790217FF04C0E20FF31F608303C02D
:10550000E20FF31F4083AA0FBB1FAA0FBB1FA558B2
:10551000BD4F8C918D3359F4872F90E0880F991FE0
:10552000E0917802F0917902E80FF91F11827F5F14
:1055300080917702781708F4BECF1F910F91FF90EA
:105540000895811181E0611182600895809178024F
:10555000909179020E94373608952F923F924F9290
:105560005F926F927F928F929F92AF92BF92CF92F3
:10557000DF92EF92FF920F931F93CF93DF9380916F
:105580007A028A3010F40C94DB3210927A0288246A
:1055900087E8582E00EA202E05E0302E1CE3412E2D
:1055A000BCE36B2E712C0C94D332C82DD0E0FE01DD
:1055B000EE0FFF1FEE0FFF1FE558FD4F5081B1802A
:1055C000503458F08B2D90E0880F991FE0917802AD
:1055D000F0917902E80FF91FB080FE01EE0FFF1F76
:1055E000EE0FFF1FE358FD4FA08057FF0BC08A2D21
:1055F00090E0880F991FE0917802F0917902E80F0E
:10560000F91FA080FE01EE0FFF1FEE0FFF1FE558F0
:10561000FD4F9380503C58F0892D90E0880F991FE2
:10562000E0917802F0917902E80FF91F9080852FC0
:10563000887F8037C9F4882D90E0880F991FE0910A
:105640007802F0917902E80FF91F4181442361F05B
:105650002A2D30E02770307080917B0390E0821714
:10566000930714F041504183852F90E0FC01B097DF
:10567000EC3CF10508F096C7E65DFF4FEE0FFF1F0B
:105680000590F491E02D09940E94FE0A182F0E94C3
:10569000010B24E6129FF0011124E80FF11D4B2DA0
:1056A00050E08A2D90E08F709070BC0113E0660F7F
:1056B000771F1A95E1F7880F991F680F791FCA01A4
:1056C0008F739070DC0124E630E0A29FC001A39F9D
:1056D000900DB29F900D1124680F791FE617F70700
:1056E00030F1292D30E0407C5070440F551F440F9D
:1056F000551F242B352BC90153E0880F991F5A954C
:10570000E1F7220F331F820F931F860F971F8E170B
:105710009F0768F0882D90E0880F991FE09178022C
:10572000F0917902E80FF91F8FEF80833BC7882D36
:1057300090E0880F991FE0917802F0917902E80FCC
:10574000F91F10822FC70E94FB0A182F0E94FE0A21
:10575000149DF0011124E80FF11D4B2D50E02A2D6E
:1057600030E0B9016F737070CA018F739070DC0103
:10577000A69DC001A79D900DB69D900D1124680FA8
:10578000791FE617F70728F1207C3070220F331FAE
:10579000220F331F407C507014E0440F551F1A95A0
:1057A000E1F7242B352B892D90E0282B392B260F60
:1057B000371F2E173F0768F0882D90E0880F991F3C
:1057C000E0917802F0917902E80FF91F8FEF808362
:1057D000E9C6882D90E0880F991FE0917802F0913A
:1057E0007902E80FF91F1082DDC60E94F80AD82E50
:1057F0000E94FB0AC82ECB2DD0E0EA2CFF248701A3
:105800000F731070CE018F719070FC01E69DC00186
:10581000E79D900DF69D900D1124080F191F0E9411
:10582000F50A853020F4B5FC02C00FEF1FEF0E948F
:10583000F50A853021F4C6FD02C00FEF1FEF0E946C
:10584000F50A863011F4B7FE25C0D49C90011124CE
:105850002C0D311D20173107E8F0892D90E0F0EC78
:10586000EF22FF24EE0CFF1CEE0CFF1C8E299F295B
:10587000080F191F0217130768F0882D90E0880F92
:10588000991FE0917802F0917902E80FF91F8FEFEC
:10589000808388C6882D90E0880F991FE091780258
:1058A000F0917902E80FF91F10827CC60E94F50A78
:1058B000082F0E94F80AE82E0E94FB0A10E0029DC1
:1058C000A001039D500D129D500D1124E49C700108
:1058D00011244E0D5F1D480F511D2A2D30E08B2DD8
:1058E00082958695877090E0829DD001839DB00D52
:1058F000929DB00D11248B2D90E08F719070BC01A2
:10590000669DC001679D900D769D900D1124A80F96
:10591000B91FC9018F739070A80FB91F4A175B0791
:10592000E0F0892D90E0207C3070220F331F220F91
:10593000331F822B932B8A0F9B1F8417950768F0C8
:10594000882D90E0880F991FE0917802F0917902FC
:10595000E80FF91F8FEF808325C6882D90E0880F10
:10596000991FE0917802F0917902E80FF91F1082F7
:1059700019C6882D90E0880F991FE0917802F09168
:105980007902E80FF91F8181882319F08150818302
:1059900009C69182882D6B2D4A2D20E000E010E091
:1059A0000E94940CFFC5282D30E0220F331FE09198
:1059B0007802F0917902E20FF31F918180819817AC
:1059C00009F49082E0917802F0917902E20FF31FDE
:1059D00080818183E7C5282D30E0220F331FA091FD
:1059E0007802B0917902A20FB31F8C918B1550F4FD
:1059F000CC0FDD1FCC0FDD1FC558DD4F8B818823F9
:105A000084F40BC0B81668F4CC0FDD1FCC0FDD1F7B
:105A1000C558DD4F8B8186FF04C071E011967C93E1
:105A200002C011961C92E0917802F0917902E20F87
:105A3000F31FB082B7C5882D90E0880F991FE091C1
:105A40007802F0917902E80FF91F8B2D90E002C0E7
:105A5000880F991FAA94E2F78083A4C5882D90E04F
:105A6000880F991FE0917802F0917902E80FF91FF1
:105A70008B2D90E002C095958795AA94E2F78083DC
:105A800091C5882D90E0E0917802F0917902BA14E6
:105A900039F4880F991FE80FF91F8FEF808382C5B3
:105AA000880F991FE80FF91F10827CC5882D90E0A0
:105AB000E0917802F0917902BA1439F0880F991FB9
:105AC000E80FF91F8FEF80836DC5880F991FE80FCE
:105AD000F91F108267C5882D90E0E0917802F0915F
