:100000000C94F6000C94F60A0C9413010C94130152
:100010000C9413010C94000B0C9413010C94130119
:100020000C9413010C9413010C9413010C94E80A22
:100030000C9413010C9413010C9413010C941301F0
:100040000C9413010C9413010C9413010C945F068F
:100050000C941301C829272A792ADA2A56315631F5
:100060005631563156315631563156315631563158
:100070005631563156315631563156315631563148
:10008000563156313D2B5631563156315631572B5C
:1000900056316F2B563156315631563156319F2BD2
:1000A000B22B5631C52BDA2BEF2B042C192C2E2C0E
:1000B00056315631432C512C5F2C782CD52C042DE5
:1000C000182D56315631563156315631563156313A
:1000D000563156314D2D5631563156317C2D5631D3
:1000E00056315631562F802F982FC22F5631563108
:1000F00056315631D62FF92F1C30433056315631F8
:10010000563156315A30CB301B31313156315631A0
:1001100056316F2B8D2C9B2CA92CB82CC72C9F2BC8
:10012000B22B5631C52BDA2BEF2B042C192C2E2C8D
:1001300056315631432C512C5F2C782C5631563188
:1001400056315631B22DCE2DEA2D0E2E3A2E662E78
:10015000563156315631563156315631982EFD2E84
:1001600056315631562F802F982FC22F5631563187
:100170005631563156315631563156315631563147
:100180005631563156315631563156315631563137
:10019000563156318D2C9B2CA92CB82CC72C56319E
:1001A0005631563156315631563156315631563117
:1001B00056315631432C512C5F2C782C5631563108
:1001C00056315631B22DCE2DEA2D0E2E3A2E662EF8
:1001D00056315631563156315631563156315631E7
:1001E00056315631562F802F982FC22F11241FBE03
:1001F000CFE5D8E0DEBFCDBF10E0A0E6B0E0E8E795
:10020000FAE602C005900D92A636B107D9F713E0C1
:10021000A6E6B0E001C01D92A736B107E1F70E9443
:1002200015010C943A350C9400000E942B0A0E9490
:100230002E0F81E060E00E946E140E946D0F0E94FC
:100240002E150E9412160E94A5180E949B1B0E9448
:10025000B8200E9434260E943129EFCF562F40E06B
:10026000282F30E0242B352BC90108950197F1F791
:100270000895E0916700F0916800208181E090E0AE
:100280000090660002C0880F991F0A94E2F7282B9D
:1002900020830895E0916700F0916800208181E05B
:1002A00090E00090660002C0880F991F0A94E2F760
:1002B00080958223808308951FB8779BFECF8FB1EE
:1002C00008958FB9779BFECF08950F931F93DF9307
:1002D000CF930F92CDB7DEB788E06FEF0E9434095D
:1002E0008E010F5F1F4FC80160E070E040E050E0FA
:1002F00020E030E00E944A09898161E00E940609FD
:1003000090936800809367008981982F97709093ED
:10031000660061E00E94FC0789E06FEF0E943409EB
:10032000C80160E070E040E050E020E030E00E9472
:100330004A09898161E00E94FC078AE06FEF0E9410
:100340003409C80160E070E040E050E020E030E0B7
:100350000E944A09898160E00E94FC078BE06FEFF0
:100360000E943409C80160E070E040E050E020E005
:1003700030E00E944A09898161E00E94FC07E09117
:100380006700F0916800208181E090E000906600B5
:1003900002C0880F991F0A94E2F7282B208381E579
:1003A0008DB90F90CF91DF911F910F9108950F9309
:1003B0001F93CF93DF93EC010E944A0180EA0E94D1
:1003C00061010E945C01182F0E945C010E943901AA
:1003D000212F30E0C90184759070892B11F404E05D
:1003E0000CC0C90184719070892B11F402E005C022
:1003F00012FF02C080E037C000E00E944A01802F57
:1004000080640E94610188810E94610189810E944B
:1004100061018A810E9461018B810E9461018C814E
:10042000893010F088E08C838C810E94610110E09B
:1004300007C0FE01E10FF11D85810E9461011F5F70
:100440008C811817B0F30E94390100000E944A0104
:10045000002311F481E802C0802F80680E946101AE
:100460000E94390181E0DF91CF911F910F91089592
:100470001F93CF93DF93EC010E944A0180EB0E940F
:1004800061010E945C01182F0E945C010E943901E9
:1004900016FF0FC080916900882311F017FD09C075
:1004A0000E944A0180E90E94610181E08093690015
:1004B0000BC017FD02C080E026C00E944A0184E9FB
:1004C0000E946101109269000E945C0188830E9471
:1004D0005C0189830E945C018A830E945C018B839A
:1004E0000E945C018F708C8310E007C00E945C0149
:1004F000FE01E10FF11D85831F5F8C811817B0F39A
:100500000E94390181E0DF91CF911F910895DF9220
:10051000EF92FF920F931F93182FF62EE42ED22EF8
:100520000E944A0182E00E946101812F90E0133015
:1005300008F00196880F880F0E9461018F2D0E949C
:1005400061018E2D0E9461018D2D0E946101802F1D
:100550000E9461010E9439011F910F91FF90EF905D
:10056000DF900895DF92EF92FF920F931F93182F61
:10057000F62EE42ED22E0E944A0182E00E946101F2
:10058000112311F480E201C084E20E9461018F2DE9
:100590000E9461018E2D0E9461018D2D0E946101DA
:1005A000802F0E9461010E9439011F910F91FF90DD
:1005B000EF90DF900895FF920F931F93182F062F4F
:1005C000F42E0E944A0185E00E946101812F0E9461
:1005D0006101802F0E9461018F2D0E9461010E94A4
:1005E00039011F910F91FF9008958FE060EE40E078
:1005F0000E94DB0208950F931F93182F062F0E946D
:100600004A0182E00E946101812F0E946101802FD6
:100610000E9461010E9439011F910F9108951F935B
:10062000182F0E944A0183E00E946101812F0E94DD
:1006300061010E945C01182F0E943901812F1F91D6
:1006400008950E944A0180EC0E9461010E943901D4
:100650000895109269000E9465010E9421038AE2B8
:1006600061E30E94FB0289E261EB0E94FB0288E2E7
:1006700065E00E94FB0280E664E40E94FB0280E7E2
:1006800060E40E94FB020895E0917400F09175000F
:10069000408181E090E09C0100906A0002C0220F3E
:1006A000331F0A94E2F7422B40830000E09174006C
:1006B000F0917500208100906A0002C0880F991F98
:1006C0000A94E2F78095822380830895EF92FF9247
:1006D0001F93CF93DF93E0917200F09173004081FC
:1006E0002FE030E0C9010090770002C0880F991F09
:1006F0000A94E2F7809584238083E0917000F09162
:10070000710080810090770002C0220F331F0A948D
:10071000E2F7209528232083E0916E00F0916F008E
:10072000208183E090E00090760002C0880F991F3E
:100730000A94E2F7809582238083E0916E00F09125
:100740006F00208181E090E00090760002C0880F69
:10075000991F0A94E2F7282B2083C1E0D0E088E0BB
:10076000E82EF12CE0917400F09175002081CE010B
:1007700000906A0002C0880F991F0A94E2F7282BA4
:1007800020830000E0916C00F0916D001081C701A2
:100790000090770002C0880F991F0A94E2F718238F
:1007A000E0917400F09175002081CE0100906A0004
:1007B00002C0880F991F0A94E2F7809582238083F4
:1007C0000E944403112371F6E0917200F0917300CE
:1007D00020818FE090E00090770002C0880F991F81
:1007E0000A94E2F7282B2083DF91CF911F91FF908D
:1007F000EF900895EF92FF920F931F93E091700096
:10080000F091710090810FE010E098010090770066
:1008100002C0220F331F0A94E2F720952923208378
:10082000E0917000F09171004081E82EFF24970163
:10083000207F30705091770084E090E0851B910913
:1008400002C0359527958A95E2F7422B40830E9496
:100850004403E0917000F091710080810090770076
:1008600002C0000F111F0A94E2F7009508230083CD
:10087000E0917000F091710080819FE0E922FF24F7
:100880000090770002C0EE0CFF1C0A94E2F78E295C
:1008900080830E9444031F910F91FF90EF90089571
:1008A0001F93182F8823B1F00E946603E0916E0019
:1008B000F0916F00208183E090E00090760002C00C
:1008C000880F991F0A94E2F7809582238083812FF5
:1008D0000E94FA031F9108951F93182F803A31F157
:1008E0000E946603E0916E00F0916F00208183E02A
:1008F00090E00090760002C0880F991F0A94E2F7FA
:10090000809582238083E0916E00F0916F002081BA
:1009100082E090E00090760002C0880F991F0A9450
:10092000E2F7282B2083812F0E94FA031F9108955C
:10093000E0917800F091790030916B00882359F0B4
:10094000208181E090E002C0880F991F3A95E2F77C
:10095000282B20830895208181E090E002C0880F39
:10096000991F3A95E2F780958223808308951F931B
:10097000CF93DF93EC0111E007C0FE01E10FF11D01
:1009800080810E946C041F5F88818117B0F7DF911E
:10099000CF911F910895CF92DF92EF92FF920F9324
:1009A0001F93DF93CF9300D0CDB7DEB780E360EF26
:1009B0000E943409082F10E092E0C92ED12CCC0EF1
:1009C000DD1E7E010894E11CF11C5DC0C701B6016B
:1009D00040E050E020E030E00E944A098A8188230C
:1009E00059F0883029F1883008F448C08A3069F11C
:1009F0008B3009F043C036C0898161E00E9406094E
:100A00009093710080937000898160E00E940609D4
:100A100090936D0080936C0089810E94EE08909302
:100A2000730080937200898187708093770026C05D
:100A3000898161E00E94060990936F0080936E00A7
:100A4000898187708093760019C0898161E00E9456
:100A50000609909375008093740089818770809354
:100A60006A000CC0898161E00E94060990937900B8
:100A7000809378008981877080936B00898161E021
:100A80000E94FC071F5F101708F4A0CF002309F491
:100A900073C010E080EE9EE20E9436011F5F1A30A4
:100AA000C9F7E0916E00F0916F00408123E030E0E3
:100AB000C9010090760002C0880F991F0A94E2F7DE
:100AC000809584238083E0917000F09171004081D3
:100AD0008FE090E00090770002C0880F991F0A9481
:100AE000E2F7809584238083E0917000F09171009B
:100AF00080810090770002C0220F331F0A94E2F732
:100B0000822B80830E94440380E797E10E94360194
:100B10000E9444038AE590E00E9436010E9444034B
:100B20008AE590E00E943601E0917000F09171003A
:100B3000208181E090E00090770002C0880F991F2B
:100B40000A94E2F78095822380830E94440389E21D
:100B50000E94500480E50E9450048CE60E945004DC
:100B60008CE70E9450048CE00E94500481E00E94B7
:100B7000500486E00E9450040F900F90CF91DF91B7
:100B80001F910F91FF90EF90DF90CF90089586B75F
:100B90008170089580917F00089506B600FCFDCF16
:100BA00080917A00089580937D000895E0918100FE
:100BB000F0918200E80FF11D60830895462FDC015B
:100BC00020E014C080917D00E0918100F0918200CE
:100BD000E80FF11D8D91808380917D0060918000F0
:100BE0008F5F0E94DB3390937D002F5F241750F3BB
:100BF000089581E080937C00089506B600FCFDCF47
:100C0000882311F080937E0010927F0088EF8093FC
:100C10007A0085EA86BF0895CF93DF93EC0106B68C
:100C200000FCFDCF60937E00E0918100F091820096
:100C300088818083E0918100F0918200808180FD35
:100C400013C091E00DC0E92FF0E0A0918100B091B8
:100C50008200AE0FBF1FEC0FFD1F80818C939F5F42
:100C600080917E00981778F310927F0088EF809330
:100C70007A0085EA86BFDF91CF910895E0918100E7
:100C8000F0918200E80FF11D808108959C0106B665
:100C900000FCFDCF80917F00882371F0D90190E0A6
:100CA00009C0E0918100F0918200E90FF11D80817F
:100CB0008D939F5F9617A8F380917F0008951F92F0
:100CC0000F920FB60F9211242F933F938F939F9300
:100CD000EF93FF9381B18832D1F0893240F48031B3
:100CE000A1F08831A1F0883009F059C00EC08034DD
:100CF000B9F1813420F4883309F051C04EC08035F9
:100D000011F1883509F04BC039C010927B009091E9
:100D10007B0080917E00981760F4E0918100F09153
:100D20008200E90FF11D808183B99F5F90937B0062
:100D300023C081E080937F0080917C00882359F15B
:100D400010927C0031C080917B0093B1E0918100D2
:100D5000F0918200E80FF11D90838F5F80937B00FC
:100D600020917B0030E080917E0090E00197281771
:100D7000390714F485EC17C085E815C093B180914C
:100D80007B00E0918100F0918200E80FF11D9083DB
:100D900081E080937F0084E906C085EA04C081B1C8
:100DA00080937A0084E086BFFF91EF919F918F91AD
:100DB0003F912F910F900FBE0F901F90189580912B
:100DC0008100909182000E94BB340895809380003E
:100DD00090E00E940E3480938100909382001092E4
:100DE0007D0010927E0010927B0010927C00109289
:100DF0007F0088EF80937A008CE080B98FEF83B911
:100E000084E086BF08950F931F93082FF8948AB348
:100E1000802B8ABB8BB3102F109581238BBB83E96A
:100E200095E00E9436018AB381238ABB8BB31823D5
:100E30001BBB85EC90E00E94360119B381EC94E075
:100E40000E94360178941095802F81231F910F9175
:100E500008950F931F93082FF8948AB3802B8ABBB1
:100E60008BB3102F109581238BBB85E090E00E94FF
:100E700036018AB381238ABB8BB318231BBB8EE058
:100E800090E00E94360119B388E990E00E94360193
:100E90007894802F81231F910F910895FF920F93D3
:100EA0001F93F82E10E000E016958F2D0E94290761
:100EB000811110680F5F0830B9F7812F1F910F91D2
:100EC000FF9008951F93182FF8948AB3812B8ABB43
:100ED0008BB3109581238BBB87EA90E00E9436018B
:100EE0008AB381238ABB8BB318231BBB81E190E0BB
:100EF0000E94360178941F9108951F93182FF8943B
:100F00008AB3812B8ABB8BB3109581238BBB85E081
:100F100090E00E9436018AB381238ABB8BB31823E9
:100F20001BBB83EB90E00E94360178941F910895DB
:100F3000FF920F931F93082FF62E10E000FF04C0BE
:100F40008F2D0E947D0703C08F2D0E9462071F5FB7
:100F5000183011F00695F2CF1F910F91FF90089570
:100F6000682F8CEC0E94980708959AB38095982377
:100F70009ABB9BB398239BBB83E995E00E94360103
:100F8000089580918400089580938400089590933B
:100F9000860080938500089580938700089590E0EF
:100FA0009C012F71307085FF09C0F901EE0FFF1F02
:100FB000E20FF31FEC57FF4F66830895F901EE0F20
:100FC000FF1FE20FF31FEC57FF4F64834583089523
:100FD00090E0FC01EE0FFF1FE80FF91FEC57FF4FE9
:100FE0008481089590E0FC01EE0FFF1FE80FF91FC8
:100FF000EC57FF4F85810895482F60FD3DC0883034
:1010000068F43AB3282F277081E090E002C0880F7F
:10101000991F2A95E2F7809583233BC0803168F4BD
:1010200037B3282F277081E090E002C0880F991F06
:101030002A95E2F7809583233BC0883168F434B366
:10104000282F277081E090E002C0880F991F2A9511
:10105000E2F7809583233BC0803208F048C031B36B
:10106000282F277081E090E002C0880F991F2A95F1
:10107000E2F7809583233AC0883068F48AB3942FCE
:10108000977021E030E002C0220F331F9A95E2F7FB
:10109000822B8ABB2CC0803168F487B3942F977061
:1010A00021E030E002C0220F331F9A95E2F7822B35
:1010B00087BB1DC0883168F484B3942F977021E0FA
:1010C00030E002C0220F331F9A95E2F7822B84BBD7
:1010D0000EC0803260F481B3942F977021E030E02D
:1010E00002C0220F331F9A95E2F7822B81BB61FF6A
:1010F00039C0483060F42BB3477081E090E002C003
:10110000880F991F4A95E2F7282B2BBB0895403191
:1011100060F428B3477081E090E002C0880F991F07
:101120004A95E2F7282B28BB0895483160F425B38F
:10113000477081E090E002C0880F991F4A95E2F75E
:10114000282B25BB0895403208F047C022B34770D2
:1011500081E090E002C0880F991F4A95E2F7282BA2
:1011600022BB0895483068F42BB3477081E090E0CB
:1011700002C0880F991F4A95E2F7809582238BBBA6
:101180000895403168F428B3477081E090E002C0D0
:10119000880F991F4A95E2F78095822388BB0895AE
:1011A000483168F425B3477081E090E002C0880FB1
:1011B000991F4A95E2F78095822385BB08954032B6
:1011C00060F422B3477081E090E002C0880F991F5D
:1011D0004A95E2F78095822382BB0895883018F4FF
:1011E0002AE330E011C0803118F427E330E00CC06E
:1011F000883118F424E330E007C0803218F421E38A
:1012000030E002C020E030E0C90108956623A1F477
:10121000883018F429E330E025C0803118F426E343
:1012200030E020C0883118F423E330E01BC0803266
:10123000B8F420E330E016C0883018F42BE330E037
:1012400011C0803118F428E330E00CC0883118F464
:1012500025E330E007C0803218F422E330E002C01A
:1012600020E030E0C9010895282F1092E800809313
:10127000E90060938300E8E8F0E090E08081862355
:10128000821709F49F5F339680E0E83EF807B1F7D4
:10129000892F08950F931F93CF93DF93DC01EB0108
:1012A000BA018901509183004091E9002091E80042
:1012B000322F3F5F822F90E0FC01EE0FFF1FE80FFF
:1012C000F91FEC57FF4F84818523841711F0232FDA
:1012D000EFCF2093E8002C93209781F0209183009A
:1012E00020958091E80090E0FC01EE0FFF1FE80FD1
:1012F000F91FEC57FF4F848128232883611571055E
:1013000069F08091E80090E0FC01EE0FFF1FE80F0C
:10131000F91FEC57FF4F8581FB01808301151105F3
:1013200069F08091E80090E0FC01EE0FFF1FE80FEC
:10133000F91FEC57FF4F8681F80180838091E80008
:101340008F5F8093E800DF91CF911F910F910895F7
:10135000982F87FD1EC0A8E8B0E040E083E0989F8A
:10136000900111242A0F3B1F892F90E0FC01EE0F02
:10137000FF1FE80FF91FEA0FFB1F07C080819C9138
:101380008927862309F44F5F1396A217B307B1F795
:1013900003C00E947320482F842F0895282FE9E866
:1013A000F0E090E001C09F5F8081821721F03396CA
:1013B0009032C9F702C0892F0895822F0E946220BF
:1013C000982FF9CF84E890E060E070E044E650E0C8
:1013D0000E9413350E94C00B64E670E047E050E0C5
:1013E0000E9413350E945F146BE670E042E050E00B
:1013F0000E9413350E94F1146DE670E041E050E068
:101400000E9413350E94A8156EE670E048E050E097
:101410000E9413350E94AF1766E770E040E550E088
:101420000E9413350E94AF1A66EC70E048E550E068
:101430000E9413350E94061F6EE171E049E250E000
:101440000E9413350E949E2867E471E040E051E05D
:101450000E9413350895F8940E94E2098091870054
:10146000893D09F446C0E8E8F0E080E0108281831D
:1014700012828F5F33968032C9F780E16CE040E1E1
:101480000E94CF0781E16DE041E10E94CF078AE130
:1014900066E04AE10E94CF0788E062E048E00E94EF
:1014A000CF078CE068E04CE00E94CF078DE069E058
:1014B0004DE00E94CF078EE06AE04EE00E94CF0729
:1014C0008FE06BE04FE00E94CF0780918700833B65
:1014D00031F00E94C30B0E9462140E94F4140E9417
:1014E000AB150E94B2170E94B21A0E94091F0E94F7
:1014F000A128089584E890E060E070E044E650E0C0
:101500000E9423350E94C00B64E670E047E050E083
:101510000E9423350E945F146BE670E042E050E0C9
:101520000E9423350E94F1146DE670E041E050E026
:101530000E9423350E94A8156EE670E048E050E056
:101540000E9423350E94AF1766E770E040E550E047
:101550000E9423350E94AF1A66EC70E048E550E027
:101560000E9423350E94061F6EE171E049E250E0BF
:101570000E9423350E949E2867E471E040E051E01C
:101580000E942335089584E890E063E070E041E034
:1015900050E00E94233508950F938093EB006093F1
:1015A000EC004093ED002093EE000093EF000F91CC
:1015B00008958091EB0008958091EC00089580914A
:1015C000ED0008958091EE0008958091EF00089558
:1015D0001F920F920FB60F9211248F938EEF82BF3E
:1015E0008F910F900FBE0F901F9018951F920F9222
:1015F0000FB60F9211240F900FBE0F901F901895E9
:101600001F920F920FB60F9211242F933F934F9377
:101610005F936F937F938F939F93AF93BF93EF935A
:10162000FF9383E884BD8091EA008F5F8093EA0096
:101630008F3009F053C01092EA008091EF008F5F65
:101640008093EF008436E1F51092EF008091EE0078
:101650008F5F8093EE000E944C1B0E946B240E94BF
:10166000CA288091EE008C3359F51092EE008091DB
:10167000ED008F5F8093ED000E94CA288091ED00FD
:101680008C33F1F41092ED008091EC008F5F809329
:10169000EC000E94CA288091EC00883189F41092F5
:1016A000EC008091EB008F5F8093EB000E94CA28D2
:1016B0008091EB00873021F41092EB000E94CA2841
:1016C0000E94DC0B0E94E40B0E9497140E94CB1531
:1016D0000E9456180E94AB200E94C428FF91EF91EF
:1016E000BF91AF919F918F917F916F915F914F913A
:1016F0003F912F910F900FBE0F901F901895EF9272
:10170000FF920F931F93DF93CF930F92CDB7DEB766
:1017100086E06FEF0E943409082F10E07E010894E4
:10172000E11CF11C0EC0C70160E070E040E050E039
:1017300020E030E00E944A09898162E00E94FC07B3
:101740001F5F101780F31092EB001092EC001092C4
:10175000ED001092EE001092EF0084E083BF99B785
:10176000916099BF85BD89B7806489BF1092EA00F6
:101770000F90CF91DF911F910F91FF90EF900895FF
:1017800089E091E008951092090180E090E890933B
:101790000B0180930A018FEF80930C0184E080930A
:1017A0000D0110920E0110920F0108958091090110
:1017B000089580910E0108958091FA00882319F010
:1017C00081508093FA0008958091F200882319F0E7
:1017D00081508093F2000895282F30E0C901807F66
:1017E0009070803F910519F080E090E0089540E00E
:1017F0002F7081E090E002C0880F991F2A95E2F7D0
:1018000020910A0130910B0182239323892B09F443
:1018100041E081E04827842F0895282F4091080156
:1018200050910701451701F1842F90E033E0880FB4
:10183000991F3A95E1F7E091F500F091F600E80F75
:10184000F91F2193DB0187E00D9001928150E1F7B0
:101850005F3F11F44093070160910D01842F8F5F6A
:101860000E94DB339093080108958091F5009091D8
:10187000F6000E94BB34089587FD07C0282F30E092
:10188000207730702037310519F40E94FA1408953A
:101890002032310511F40E94FA140895BF92CF92BC
:1018A000DF92EF92FF920F931F93DF93CF93CDB709
:1018B000DEB727970FB6F894DEBF0FBECDBFE82E78
:1018C000B22E6801809109016817D1F089836A837B
:1018D00098E09B834C831D821E822F8381E080933E
:1018E000F000E092F1009093F2006093F3004093D7
:1018F000F4008FE7BE016F5F7F4F0E943C0C7EC0FB
:10190000842F0E94CE09F82E8FEFF81609F460C0DC
:10191000F7FC4FC08F2D0E94E80787FD03C000E051
:1019200010E008C08F2D60E80E94A8090E94CF1522
:10193000082F10E08F2D0E94E807887F803299F4ED
:101940008F2D68EF0E94A8096B2D0E945C188C01F6
:10195000C114D10441F4EFEFEE1629F054E01695CE
:1019600007955A95E1F78F2D0E94E807887F883206
:1019700099F48F2D68EF0E94A8096B2D0E94521BCD
:101980008C01C114D10441F4FFEFEF1629F044E0BB
:10199000169507954A95E1F78F2D0E94E807807FFD
:1019A0008031C1F48F2D60EF0E94A8090E94471E6C
:1019B0000CC08F2D8F770E941A20803C49F48F2D08
:1019C0006FEF0E94A8090E949820082F10E002C023
:1019D00000E010E0C114D10461F48FEFE81621F4A7
:1019E0008B2DB8010E9449248E2D602F0E94B928AA
:1019F00005C089E0F60182830483158327960FB61C
:101A0000F894DEBF0FBECDBFCF91DF911F910F9134
:101A1000FF90EF90DF90CF90BF900895DF93CF932A
:101A2000CDB7DEB727970FB6F894DEBF0FBECDBF98
:101A300090910901998390910C019A839FE79B8370
:101A40008C836D834E832F838FE7BE016F5F7F4F43
:101A50000E943C0C27960FB6F894DEBF0FBECDBF98
:101A6000CF91DF910895DF93CF93CDB7DEB727975E
:101A70000FB6F894DEBF0FBECDBF909109019983D8
:101A80009A8392E09B838C836D834E835F838FE781
:101A9000BE016F5F7F4F0E943C0C27960FB6F894F3
:101AA000DEBF0FBECDBFCF91DF910895BF92CF9221
:101AB000DF92EF92FF920F931F93DF93CF93CDB7F7
:101AC000DEB727970FB6F894DEBF0FBECDBF982FB5
:101AD000B62EF42E6901882319F4662321F4A2C0DE
:101AE0008F3F09F49FC020910901921729F12983A2
:101AF0009A831B82BC82FD82CE82DF8281E080934A
:101B0000F8000093F900ABEFB0E0FE01319687E0FA
:101B100001900D928150E1F79093FB002093FC001F
:101B20001092FD0088E08093FA008FE7BE016F5F9E
:101B30007F4F0E943C0CCDC08B2D0E94CE09E82E19
:101B40000E94E807887F803281F48E2D68EF0E9422
:101B5000A809982F0330110518F081E0F80182835D
:101B6000892F6F2DA6010E942D188E2D0E94E80747
:101B7000887F883281F48E2D68EF0E94A809982F03
:101B80000330110518F081E0F8018283892F6F2D51
:101B9000A6010E94241B8F2D85568B3140F0FEE854
:101BA000FF1528F085E6C81689E1D80638F003301D
:101BB0001105C0F182E0F80182838BC0FFEFEF16C0
:101BC00089F1E7FC35C08E2D0E94E807807F8031C7
:101BD00011F58E2D60EF0E94A809E82E0330110543
:101BE00018F081E0F8018283F0E8FF1669F48E2D89
:101BF0000E94471E882319F08E2D60E002C08E2DB2
:101C000064E60E945E1E65C084E68F1508F461C01C
:101C10008E2D6F2DF6CF8E2D0E94E807807C8034AC
:101C200009F457C08B2D6F2DA6010E94330D51C0B2
:101C30006FE7B62EBE208B2D0E941A20803CD1F576
:101C40008E2D6FEF0E94A809982F0330110518F010
:101C500081E0F8018283F6E8FF16C1F0FF1538F045
:101C600080E8F81659F0E5E8FE16E1F40BC0F7E855
:101C7000FF1681F088E8F816A9F410C0892F0E9499
:101C8000D72327C0892F0E94922323C0892F0E9427
:101C900070231FC0892F0E94A0211BC0892F0E9482
:101CA000B42317C0E4E6EF15A0F0892F6F2D0E9432
:101CB00062220FC08B2D0E941A20803F51F4033006
:101CC000110518F081E0F80182838F2D6C2D0E94A0
:101CD000BA2427960FB6F894DEBF0FBECDBFCF91C2
:101CE000DF911F910F91FF90EF90DF90CF90BF9009
:101CF0000895DF93CF93CDB7DEB727970FB6F8944B
:101D0000DEBF0FBECDBF482F8091090189832FEF21
:101D10002A8328E12B831C824D839E831F82692F97
:101D200050E020E00E94D0288FE7BE016F5F7F4F18
:101D30000E943C0C27960FB6F894DEBF0FBECDBFB5
:101D4000CF91DF910895DF93CF93CDB7DEB727977B
:101D50000FB6F894DEBF0FBECDBF80910901898315
:101D60008FEF8A838BE78B831C821D821E821F82EA
:101D70008FE7BE016F5F7F4F0E943C0C27960FB626
:101D8000F894DEBF0FBECDBFCF91DF9108951F93B2
:101D9000DF93CF93CDB7DEB727970FB6F894DEBFAA
:101DA0000FBECDBF182F909109018823F9F09983B8
:101DB0008A8380E18B836C834D835E832F83191725
:101DC00031F08FE7BE016F5F7F4F0E943C0C809126
:101DD0000901181729F0812F0E94EC0B882331F09C
:101DE00080E0BE016F5F7F4F0E940D0C27960FB6FB
:101DF000F894DEBF0FBECDBFCF91DF911F91089544
:101E000083E40E94E60680910D0190E073E0880F64
:101E1000991F7A95E1F70E940E348093F500909314
:101E2000F6008FEF809307011092080110920601CF
:101E30001092F8001092FA00EBEFF0E0119281E0BE
:101E4000E230F807D9F71092F0001092F1001092EA
:101E5000F2001092F3001092F4000895F8940E949A
:101E6000DF068091F5009091F6000E94BB340E943D
:101E7000E3150E949E180E94941B0E94571E0E9408
:101E8000B1200E942A2919BE83E40E94E6060E941E
:101E90007F0B0E94000F0E94B5140E9450150E94F3
:101EA0001C170E94381A0E94721D0E94E51D0E9494
:101EB000A11E0E94F7230E94723178940E94442848
:101EC0000E94A30E089580E00E94CC070E94C30ADE
:101ED0000E942B0A0E942E0F0895CF92DF92EF925C
:101EE000FF920F931F93DF93CF93CDB7DEB72E975B
:101EF0000FB6F894DEBF0FBECDBF809107018F3FB4
:101F000009F4A1C490E023E0880F991F2A95E1F716
:101F1000E090F500F090F600E80EF91E80910E01B9
:101F2000882369F0D70112969C9180910901981736
:101F300031F0F70181918068BF010E943C0CF701EC
:101F4000928180910901981731F0892F0E94EC0B42
:101F5000882309F468C4D70113968C91282F30E0A8
:101F6000837809F079C3DE011196F701319687E095
:101F700001900D928150E1F7F70183818C3309F4D0
:101F800037C18D33A8F4803109F44BC0813130F46E
:101F9000882321F1883009F001C337C08C3109F45E
:101FA00062C0883309F4D4C0883109F0F7C24DC04B
:101FB000803609F4A4C2813638F4803409F46DC146
:101FC0008C3409F0EBC271C1883709F4B1C28C3787
:101FD00009F4C3C2843609F0E1C29AC2D701179648
:101FE0003C91179720E016968C911697280F311D7B
:101FF0008091090114966C91149715964C918E015D
:102000000F5F1F4F0E94560DC9C280E06091090109
:10201000F701448127818E010F5F1F4F0E944E0CF4
:10202000BDC2D70111961C91119714960C9114976B
:1020300015968C91159716966C910E942E01AC0105
:10204000812F602FF70127810BC0D70115964C9186
:10205000159711968C91119716966C9150E020E08F
:102060000E94D0289BC2F7016481262F30E0C9016D
:102070008E7F9070803A910521F0883A910509F0A1
:1020800065C020FF63C06E7F80E00E94D60581E0BE
:10209000D70116966C910E94D60582E0F701658102
:1020A0000E94D6050E94F90583E00E94FD050E946A
:1020B000C7058823E1F7D70114966C910E94D605D5
:1020C000F70187818F5F0E94FD050E94C705882365
:1020D000E1F7809109018887D70111968C91898752
:1020E0008DE18A8701E088E0C82ED12CCC0EDD1E60
:1020F00027C0802F0E943E068B87802F8F5F0E9413
:102100003E068C87102F1D5F802F8E5F0E943E063B
:102110008D870C5F812F0E943E068E87809107017C
:1021200090E013E0880F991F1A95E1F7E091F50010
:10213000F091F600E80FF91F8081B6010E943C0C77
:10214000F70187818017A8F68DE127C28EE125C2AD
:10215000D70114968C91813081F0813020F080314C
:1021600009F01CC21AC0809106018823A1F4F7016E
:1021700085818093060189E310C29091060199231D
:1021800051F089E38B83903119F480E00E94C407F9
:102190001092060103C28AE300C2809106018031D9
:1021A00019F0803209F0FAC180E0D70115966C91E0
:1021B0000E94D60581E0F70167810E94D60582E082
:1021C000D70116966C910E94D60583E00E94D30534
:1021D0001092F700F701848180930201858180933A
:1021E0000301868180930401878180930501D6C114
:1021F00080910601803119F0803209F0CFC1D701FA
:1022000014968C91149790910201890F809302018A
:1022100015968C91159790910301890F8093030176
:1022200016968C91169790910401890F8093040162
:1022300017962C9180910501280F2093050190910C
:10224000F700903198F480910601803121F09830A8
:1022500068F4803259F4C701049664E00E94DE05F8
:102260008091F7008F5F8093F70098C18091030100
:1022700090910201892B90910401892B822B11F0FE
:102280008EE38BC180910601803111F483E401C09B
:1022900083E20E94FD058DE380C1F70184816581A1
:1022A00046810E94CF0781E478C1D70114968C91B2
:1022B000803109F44CC0813190F4873081F188304D
:1022C00030F4843009F1863009F085C022C08930AD
:1022D00071F1893048F18D3009F07DC02BC08C310F
:1022E00009F44CC08D3130F48831C9F18B3109F0DB
:1022F00072C039C0803209F45AC0803609F467C010
:102300008E3109F068C041C0F70185810E94CC0779
:1023100062C0D70115968C9180930C015CC0F701C7
:10232000858180930F0157C00E947A0A54C00E9491
:10233000E20951C0D70115968C91159716966C91AC
:102340000E942E0190930B0180930A0144C0F70173
:10235000858166810E942E010E9469143CC00E9402
:10236000C1078D8338C0D70115968C9115971696A5
:102370006C910E942E010E94C7072DC082E08D83C0
:1023800085E08E838DE08F8326C0F7012581220FA3
:10239000220F220F85E19FE2A3E0B0E004C0B595D3
:1023A000A795979587952A95D2F78E8314C0D70164
:1023B00015961C91159716968C91169717966C91F9
:1023C0000E942E01BC01812F0E94C21504C0F7019A
:1023D000858180930D01D70114968C91807E803485
:1023E00009F040C010E0812F0E94F207F7019581AB
:1023F000891719F01F5F1032B1F7012F0770D7014D
:1024000014969C911497892F807F8034D1F4892F62
:102410008F70182F169580FD0DC016968C9116970B
:1024200017966C910E942E01AC01802F612F0E94A3
:10243000D71707C0802F612FF701468127810E949F
:10244000F017D70114968C911497803559F416968D
:102450008C91169717966C910E942E01BC01802FCB
:102460000E94C617F7018481807E803809F045C03C
:1024700010E0812F0E94F207D70115969C918917D1
:1024800019F01F5F1032A9F7012F0770F70194812F
:10249000892F807F8038D1F4892F8F70182F16955F
:1024A00080FD0AC0868167810E942E01AC01802FC9
:1024B000612F0E94E41A0AC0802F612FD70116965F
:1024C0004C91169717962C910E94FC1AF701848163
:1024D000803941F4868167810E942E01BC01802FE2
:1024E0000E94C71AD70114968C911497813929F448
:1024F000802F16966C910E94D61A8DE44EC0F7017B
:1025000084816581468127810E94241F81E645C020
:10251000D70117968C918F3F19F40E94A12806C00D
:10252000F7018481658146810E94AD2885E635C02A
:10253000D70117966C911797862F877066956695C9
:10254000669516964C91169715962C91159714969C
:102550000C910E94CC0A89E720C0EDEFFFE7E491DF
:10256000D70115968C9115978E17C1F4EEEFFFE702
:10257000E49116968C9116978E1781F4EFEFFFE792
:10258000E49117968C9117978E1741F414968C91BD
:10259000809309010E9450158DE78B83809109017A
:1025A0008983F70181818A838B8190E083709070A9
:1025B000892BA1F08091070190E0B3E0880F991F6B
:1025C000BA95E1F7E091F500F091F600E80FF91FF8
:1025D0008081BE016F5F7F4F0E943C0CD701139634
:1025E0008C9113978C3409F01EC114968C91833012
:1025F000F1F0843030F4813061F0823009F013C1A1
:102600000BC08A30E1F0823101F1853009F00BC155
:1026100011C00E942E0F07C1F89428E088E190E0D5
:102620000FB6F894A89581BD0FBE21BDFFCF0E94C3
:10263000630FF9C0F7018581809309010AC0D701B2
:1026400015968C9180930E01EEC0F70185810E9452
:10265000F7140E945015E7C08091F0008130D9F541
:10266000D70111969C9111978091F300981799F5D5
:102670002C7F30702830310571F514969C91149799
:102680008091F400981739F51092F0001092F20042
:1026900013968C9113978930F1F48091F1008F3F5C
:1026A00071F417961C91179715968C91159716969D
:1026B0006C910E942E01BC01812F0E944924F701D8
:1026C00066816295607F858182958F70682B80918D
:1026D000F1000E94B9288091F800813009F04FC0C4
:1026E0008091070190E0A3E0880F991FAA95E1F778
:1026F000E091F500F091F600E80FF91F3381832F88
:102700008C7F83838091070190E0F3E0880F991F0D
:10271000FA95E1F7A091F500B091F600A80FB91F66
:10272000EBEFF0E021E011969C91119780819813D6
:1027300020E01196319681E0E230F807A1F72130D0
:10274000F1F41092F8001092FA008091F9008130B3
:10275000B1F4313081F469E00E946E1410910101EE
:102760008091FF00609100010E942E01BC01812F29
:102770000E94492404C08AE06AE00E946E14D701D6
:1027800013968C9113978B3709F04DC000910F0170
:10279000013009F048C080910901898311968C911C
:1027A0008A8388E78B830E94E50A8C830E94E20A71
:1027B0008D830E94DF0A8E830E94DC0A182F0E94FC
:1027C000D90A110F110F110F182B1F830093F80056
:1027D000ABEFB0E0FE01319687E001900D928150A1
:1027E000E1F7F70181818093FB00809109018093DB
:1027F000FC0089E78093FD0088E08093FA008091D7
:10280000070190E0E3E0880F991FEA95E1F7E09176
:10281000F500F091F600E80FF91F8081BE016F5FAF
:102820007F4F0E943C0C8091070160910D018F5FEA
:102830000E94DB339093070180910801981719F4E7
:102840008FEF809307018091F000813071F48091C7
:10285000F200882351F41092F00081E06091F300BF
:1028600048E02091F4000E940E0D8091F800813024
:10287000B9F48091FA00882399F41092F8008091BD
:10288000F900813021F48AE06AE00E946E1481E050
:102890006091FB004091FD002091FE000E940E0D12
:1028A0002E960FB6F894DEBF0FBECDBFCF91DF914D
:1028B0001F910F91FF90EF90DF90CF90089583E1EB
:1028C00091E008958FEF9FEF90931401809313018F
:1028D000089590931401809313010895482F21E0E7
:1028E00030E0C90102C0880F991F6A95E2F7BC0168
:1028F000809113019091140168237923672BB1F023
:102900008AE0489FC0011124909312018093110125
:10291000E0911501F091160180810090100102C034
:10292000220F331F0A94E2F7822B8083089580914F
:10293000110190911201009791F4E0911501F0912D
:102940001601208181E090E00090100102C0880F04
:10295000991F0A94E2F78095822380830895019756
:1029600090931201809311010895EF92FF920F93BB
:102970001F93DF93CF930F92CDB7DEB782E06FEF57
:102980000E943409082F10E07E010894E11CF11C1C
:102990001AC0C70160E070E040E050E020E030E0A5
:1029A0000E944A09898161E00E94060990931601FC
:1029B000809315018981982F97709093100161E0A1
:1029C0000E94FC071F5F101720F310921201109253
:1029D00011010F90CF91DF911F910F91FF90EF9018
:1029E000089584E291E0089510922401089580935F
:1029F00024010895482FFB01803269F0282F30E030
:102A0000C9018F77809711F047FD05C02F70307096
:102A10002F30310511F5809124018093170188E052
:102A200080931801808180931901818180931A011C
:102A300085E080931B01DF01ECE1F1E012968C91BF
:102A400012978193119681E0E132F807B9F787E197
:102A500091E00E94D7018823D1F3089585E291E0A7
:102A60000E9438028823D9F0809125018093320199
:102A70008091270180933301809128018093340154
:102A8000EAE2F1E0A5E3B1E081918D9381E0EF32DC
:102A9000F807D1F780E263E371E00E940D0C08951E
:102AA0000F931F93DF93CF930F92CDB7DEB70E94A2
:102AB000D90B882311F41FEF01C010E00E942903F5
:102AC00080E06FEF48E020E0012F0E94B202809189
:102AD000240189830E94D60B082F80E0698148E099
:102AE00020E00E94870281E06091240148E020E01C
:102AF0000FEF0E948702107F81E06FEF48E020E037
:102B0000012F0E94B20282E06091240148E020E09F
:102B100000EF0E94870283E06091240148E020E0FA
:102B20000E94870284E06091240148E020E00E9436
:102B3000870285E06091240148E020E00E9487023E
:102B40000E94F5020F90CF91DF911F910F91089590
:102B50008AE391E0089510923B0110923A018AE0D5
:102B600090E090933D0180933C0182E390E090934C
:102B70003F0180933E0186E990E09093410180936C
:102B800040010895E82FF0E0EE0FFF1FE65CFE4FD6
:102B900071836083089581E0809345010895282F13
:102BA00030E0C90153E0880F991F5A95E1F7220FD1
:102BB000331F820F931FE0914301F0914401E80F0E
:102BC000F91F8081089580914301909144010E94F2
:102BD000BB3408959AE0899FC0011124E09143011C
:102BE000F0914401E80FF91F2181209527952227B4
:102BF00027952083E0914301F0914401E80FF91FEC
:102C00002081237F262B2083E0914301F091440112
:102C1000E80FF91F40818185608550E020E00E9427
:102C2000C70E0895FF920F931F93CF93DF93809168
:102C30004501813009F0FAC010E07AE0F72E01E09A
:102C4000EEC01F9DE0011124E0914301F091440189
:102C5000EC0FFD1F82819381009719F001979383F8
:102C60008283A0914301B0914401AC0FBD1F119626
:102C70002C911197422F50E01496ED91FC911597ED
:102C8000808190E016960C90169702C095958795D6
:102C90000A94E2F78427952780FF8DC027FF39C06B
:102CA0002F7711962C93E0914301F0914401EC0FA2
:102CB000FD1F8781482F50E04C7050704C305105FB
:102CC00091F4809140019091410122813381821BD6
:102CD000930B20913E0130913F018217930718F02A
:102CE000812F68E014C0483051059CF080913E016E
:102CF00090913F0122813381821B930B20913C01F3
:102D000030913D018217930720F0812F64E00E94EB
:102D1000EA15E0914301F0914401EC0FFD1F87811A
:102D200085FF09C080913C0190913D01938382838E
:102D3000818180688183A0914301B0914401AC0FEF
:102D4000BD1F11968C91119790E09C0121703070FD
:102D500080FD06C017968C91179780FD08C022C091
:102D6000222301F117968C91179781FF1BC01796AC
:102D7000EC911797E695E695F0E0E370F070EE0FB2
:102D8000FF1FE65CFE4F8081918113969C938E938A
:102D90001297E0914301F0914401EC0FFD1F8181F6
:102DA00080688183E0914301F0914401EC0FFD1FA5
:102DB000818180278183A0914301B0914401AC0FB0
:102DC000BD1F11964C911197242F30E01496ED9170
:102DD000FC911597808190E016960C90169702C092
:102DE000959587950A94E2F78227932780FD16C070
:102DF00047FF14C012968D919C911397892B71F403
:102E00004F7711964C93E0914301F0914401EC0F00
:102E1000FD1F67816C70812F0E94EA151F5F8091F2
:102E20004201181708F40DCF10924501DF91CF91A0
:102E30001F910F91FF900895AF92BF92CF92DF92B2
:102E4000EF92FF920F931F93DF93CF930F92CDB723
:102E5000DEB71092450180E860E80E943409982F9F
:102E6000809342018AE0989FC00111240E940E3491
:102E70008093430190934401DD24EAE0CE2E5E016D
:102E80000894A11CB11C5AC0DC9C700111246091F3
:102E90004301709144016E0D7F1DAB01485F5F4F90
:102EA0009B01275F3F4FC501695F7F4F0E944A0921
:102EB00000914301109144010E0D1F1D898160E0B6
:102EC0000E940609F80195838483A0914301B09183
:102ED0004401AE0DBF1D3981232F277016962C9308
:102EE00016971496ED91FC911597808190E002C0A1
:102EF000959587952A95E2F7817011968C93E091CC
:102F00004301F0914401EE0DFF1D8181809587956D
:102F1000882787958083E0914301F0914401EE0D6D
:102F2000FF1D13821282878184FD03C0832F60E01E
:102F300002C0832F62E00E94FC07D394809142017B
:102F4000D81608F4A1CF0F90CF91DF911F910F9168
:102F5000FF90EF90DF90CF90BF90AF90089587E4FF
:102F600091E00895E7E4F1E088E592E091838083C1
:102F7000138212821482158217821682108611869D
:102F80003A9621E0E739F20789F70895282F30E0D3
:102F9000F90193E0EE0FFF1F9A95E1F7220F331F1F
:102FA000E20FF31FE95BFE4F718360830895E62F04
:102FB000F0E0EE0FFF1FEE0FFF1F282F30E0C901DA
:102FC00073E0880F991F7A95E1F7220F331F820F64
:102FD000931FE80FF91FE95BFE4F53834283089567
:102FE000EF92FF920F931F9370E08B010F5F1F4FC3
:102FF000E7E4EE2EE1E0FE2E000F111F000F111F7F
:10300000E82FF0E0DF0133E0AA0FBB1F3A95E1F7AC
:10301000EE0FFF1FAE0FBF1F0A0F1B1F0E0D1F1D50
:10302000F8014083660F771F660F771F482F50E027
:10303000CA0113E0880F991F1A95E1F7440F551F35
:10304000840F951F680F791FE60EF71EF701258381
:103050001F910F91FF90EF900895282F862F829552
:103060008F708A3011F5862F90E083709070892BD5
:10307000E1F466956695E62FF0E0E370F070EE0FF0
:10308000FF1FEE0FFF1F822F90E09C01B3E0220F85
:10309000331FBA95E1F7880F991F280F391FE20FE8
:1030A000F31FE95BFE4F538342830895809197019C
:1030B0008F5F809397010895582F462F662319F04C
:1030C0006FEF7FEF12C0282F30E0C90173E0880F47
:1030D000991F7A95E1F7820F931FE0919901F09182
:1030E0009A01E80FF91F60817181842F82958F709A
:1030F0008A3011F5842F90E083709070892BE1F471
:1031000046954695E42FF0E0E370F070EE0FFF1F58
:10311000EE0FFF1F852F90E09C0153E0220F331F1D
:103120005A95E1F7880F991F280F391FE20FF31FF7
:10313000E95BFE4F62817381CB0108958091990113
:1031400090919A010E94BB340895AF92BF92CF92A2
:10315000DF92EF92FF920F931F93CF93DF938091B3
:1031600097018A30D0F0109297015091980140E079
:1031700020E030E010C0E0919901F0919A01E20F57
:10318000F31F82819381009719F0019793838283C3
:103190004F5F275F3F4F451770F3909146019F3F68
:1031A00009F408C1369906C189E0989FC00111242D
:1031B000E0919901F0919A01E80FF91F11821082B4
:1031C00024B130E0220F331F220F331F31832083BD
:1031D00045B1942F990F990F80E0282B392B31831B
:1031E0002083EE24FF2499E0A92E0E2D8091460124
:1031F0008A9DC0011124C0919901D0919A01C80FF4
:10320000D91F4E81D701AA0FBB1FAA0FBB1F842F46
:1032100090E0FC0113E0EE0FFF1F1A95E1F7880F15
:10322000991FE80FF91FEA0FFB1FE95BFE4FC280F1
:10323000D380F7013196EE0FFF1FEE0FFF1F842F93
:1032400090E09C0153E0220F331F5A95E1F7880F5D
:10325000991F280F391FE20FF31FE95BFE4FB08063
:10326000842F90E09C01F3E0220F331FFA95E1F7E1
:10327000880F991F280F391FA20FB31FA95BBE4FDC
:1032800015961C9112FF2CC0888199818C159D0583
:1032900058F410FD09C011604E2D406488856F817F
:1032A00050E020E00E94C70E809146018A9DC00137
:1032B0001124E0919901F0919A01E80FF91F96010C
:1032C0002B0D311D808191818217930748F010FFEB
:1032D00007C01E7F80856781A70120E00E94C70E7E
:1032E00013FF38C0809146018A9DC0011124E091EE
:1032F0009901F0919A01E80FF91F80819181C81618
:10330000D90658F411FD09C01260402F406C808529
:10331000678150E020E00E94C70E809146018A9D9F
:10332000C0011124E0919901F0919A01E80FF91F71
:10333000CB18D10880819181C816D90658F011FFA9
:1033400009C01D7F006880856781402F50E020E024
:103350000E94C70E8091460190E09C0173E0220F0D
:10336000331F7A95E1F7280F391FE0919901F09109
:103370009A01E20FF31FD701AA0FBB1FAA0FBB1FB1
:10338000868190E09C0153E0220F331F5A95E1F7AC
:10339000880F991F280F391FA20FB31FA95BBE4FBB
:1033A00015961C930894E11CF11C82E0E816F104C8
:1033B00009F01BCF809146018F3F11F036994DC027
:1033C000482F4F5F20919801A0919901B0919A01E7
:1033D00011C0842F90E0FC0133E0EE0FFF1F3A95FF
:1033E000E1F7E80FF91FEA0FFB1F82819381892B18
:1033F00021F04F5F421768F32DC029E0429F9001F2
:103400001124A20FB31F16968C91169790E0FC0121
:1034100003E0EE0FFF1F0A95E1F7880F991FE80FF1
:10342000F91FE95BFE4F8081918113969C938E93E7
:10343000129787B1887F87B997B1E0919901F09190
:103440009A01E20FF31F8681982B97B9369A409321
:10345000460103C08FEF80934601DF91CF911F910A
:103460000F91FF90EF90DF90CF90BF90AF900895B5
:10347000AF92BF92CF92DF92EF92FF920F931F9382
:10348000DF93CF930F92CDB7DEB780E268EF0E9453
:103490003409982F8093980189E0989FC0011124E6
:1034A0000E940E348093990190939A01DD2459E093
:1034B000C52E5E010894A11CB11C36C0DC9C7001B5
:1034C00011244091990150919A014E0D5F1D9A016E
:1034D000285F3F4FC50160E070E0495F5F4F0E9489
:1034E0004A090091990110919A010E0D1F1D8981C1
:1034F00060E00E940609F80195838483E0919901B8
:10350000F0919A01EE0DFF1D898186831182108250
:10351000E0919901F0919A01EE0DFF1D1382128244
:1035200060E00E94FC07D39490919801D91630F284
:10353000109297018FEF8093460180EC87B9992311
:1035400011F087E886B90F90CF91DF911F910F910D
:10355000FF90EF90DF90CF90BF90AF90089580EAFA
:1035600091E00895E0EAF1E08CE390E091838083BC
:103570001282148213821582168210861782118697
:1035800012863B9621E0E83FF20781F7089590E02C
:103590002BE030E0829FF001839FF00D929FF00DB1
:1035A0001124E056FE4F71836083089590E02BE074
:1035B00030E0829FF001839FF00D929FF00D112467
:1035C000E056FE4F62830895E62FF0E090E0EE0FA4
:1035D000FF1FEE0FFF1F2BE030E0BC01629FC00118
:1035E000639F900D729F900D1124E80FF91FE05614
:1035F000FE4F5483438308950F931F93CF93DF931C
:1036000090E070E0660F771F660F771F00EA11E009
:10361000FB013296ABE0B0E0EC01CA9FC001CB9F4A
:10362000900DDA9F900D1124E80FF91FE00FF11FA4
:103630004383680F791F060F171FF8012683DF9158
:10364000CF911F910F910895282F862F82958F700B
:103650008A3009F5862F90E083709070892BD9F419
:1036600066956695E62FF0E0E370F07030E0EE0FBF
:10367000FF1FEE0FFF1F8BE090E0BC01269FC001F3
:10368000279F900D369F900D1124E80FF91FE056EB
:10369000FE4F54834383089580919F018F5F8093F1
:1036A0009F010895582F462F662319F06FEF7FEF83
:1036B00012C0282F30E0C901E3E0880F991FEA9576
:1036C000E1F7821B930BE0919C01F0919D01E80FC3
:1036D000F91F60817181842F82958F708A3011F576
:1036E000842F90E083709070892BE1F44695469585
:1036F000E42FF0E0E370F070252F30E0EE0FFF1FB5
:10370000EE0FFF1F8BE090E0AC01249FC001259FCE
:10371000900D349F900D1124E80FF91FE056FE4FD5
:1037200063817481CB01089580919C0190919D01EA
:103730000E94BB3408952F923F924F925F926F92F6
:103740007F928F929F92AF92BF92CF92DF92EF9231
:10375000FF920F931F93CF93DF9380919F01882354
:1037600009F4ADC110929F0144247BE0272E312C37
:10377000A1C127E0429E50011124E0919C01F091EB
:103780009D01EA0DFB1D81E090E0048002C0880FDE
:10379000991F0A94E2F7D82E82819381009719F03D
:1037A000019793838283E0919C01F0919D01EA0D42
:1037B000FB1D82819381019709F58D2D0E940307DE
:1037C0008823E1F08D2D0E94B007E0919C01F091DB
:1037D0009D01EA0DFB1D848190E0829DF001839D97
:1037E000F00D929DF00D1124E056FE4F8281815024
:1037F000823020F484E46D2D0E949807E0919C01B2
:10380000F0919D01EA0DFB1D82819381892B09F0C6
:1038100050C18D2D0E940307882309F48AC08D2D85
:103820000E94B007E0919C01F0919D01EA0DFB1D03
:10383000848190E0829DF001839DF00D929DF00DBA
:103840001124E056FE4F8281813021F0823009F050
:1038500070C022C08EEB6D2D0E94980700919C01D4
:1038600010919D010A0D1B1D8D2D0E944E07F80120
:1038700080831182E0909C01F0909D01EA0CFB1C7A
:10388000F701008111818D2D0E944E07982E88240A
:1038900008291929F7014BC08EEB6D2D0E9498075E
:1038A00000919C0110919D010A0D1B1D8D2D0E9400
:1038B0004E07F80180831182E0909C01F0909D01F9
:1038C000EA0CFB1CF701008111818D2D0E944E072F
:1038D000782E662406291729F701118300838D2D80
:1038E0000E944E078D2D0E944E078D2D0E944E077F
:1038F0008D2D0E944E07E0919C01F0919D01EA0DF3
:10390000FB1D00811181159507958D2D0E944E0795
:1039100054E0000F111F5A95E1F7045F1F4FE0912B
:103920009C01F0919D01EA0DFB1D081B11091183FB
:10393000008300E010E0F02EC0919C01D0919D0129
:10394000CA0DDB1D8C8190E0D801AA0FBB1FAA0F06
:10395000BB1F829DF001839DF00D929DF00D1124FF
:10396000AE0FBF1FA056BE4F1396CD90DC9014979C
:10397000C801880F991F880F991FE80FF91FEE558E
:10398000FE4F53801696EC90E2FE29C08881998103
:103990008C159D0564F4E0FC0AC0F1E0EF2A402F8D
:1039A00040648E816D8150E020E00E94C70EE0915E
:1039B0009C01F0919D01EA0DFB1D9601250D311D25
:1039C000808191818217930754F0E0FE08C02EEFAA
:1039D000E22286816581A80120E00E94C70EE3FEF5
:1039E00031C0E0919C01F0919D01EA0DFB1D8081A9
:1039F0009181C816D90664F4E1FC0AC032E0E32ADA
:103A00004F2D406C8681658150E020E00E94C70EFA
:103A1000E0919C01F0919D01EA0DFB1DC518D108B4
:103A200080819181C816D9066CF0E1FE0BC08DEF44
:103A3000E82220E8F22A868165814F2D50E020E0BF
:103A40000E94C70EA0919C01B0919D01AA0DBB1DC3
:103A500014968C91149790E0F801EE0FFF1FEE0F73
:103A6000FF1F9C01229DC001239D900D329D900D52
:103A70001124E80FF91FE056FE4FE6820F5F1F4F3B
:103A80000230110509F057CF14968C91149790E0ED
:103A90002BE030E0829FF001839FF00D929FF00DAC
:103AA0001124E056FE4F8081918113969C938E9352
:103AB0001297439480919B01481608F45ACEDF91E7
:103AC000CF911F910F91FF90EF90DF90CF90BF901B
:103AD000AF909F908F907F906F905F904F903F90AE
:103AE0002F900895AF92BF92CF92DF92EF92FF9204
:103AF0000F931F93DF93CF930F92CDB7DEB788E27A
:103B000068EF0E943409982F80939B0187E0989F6B
:103B1000C00111240E940E3480939C0190939D015A
:103B200010929E01FF24F7E0EF2E5E010894A11C85
:103B3000B11CE1E0CE2ED12C32C0FE9C80011124BC
:103B400040919C0150919D01400F511F9A012A5FA5
:103B50003F4FC50160E070E04B5F5F4F0E944A0934
:103B6000E0919C01F0919D01E00FF11F29812483D8
:103B700011821082E0919C01F0919D01E00FF11FF4
:103B800013821282C60102C0880F991F2A95E2F79C
:103B90009C0180919E01822B80939E01F3948091E1
:103BA0009B01F81650F210929F0180919E010E9495
:103BB000B5070F90CF91DF911F910F91FF90EF907C
:103BC000DF90CF90BF90AF9008957F928F929F9299
:103BD000AF92BF92CF92DF92EF92FF920F931F931B
:103BE000DF93CF9300D0CDB7DEB780E06EEF0E94B9
:103BF0003409782EEE2432E0832E912C8C0E9D1EFB
:103C00005E010894A11CB11C21E0C22ED12C2DC054
:103C1000C501B40140E050E020E030E00E944A09D4
:103C2000898161E00E9406098C01898197E0F92E63
:103C3000F82261E00E94FC078A81813051F4F8018A
:103C40002081C60102C0880F991FFA94E2F7282B41
:103C50000AC0F8012081C60102C0880F991FFA949A
:103C6000E2F7809528232083E394E71488F20F90ED
:103C70000F90CF91DF911F910F91FF90EF90DF9008
:103C8000CF90BF90AF909F908F907F90089590E0DD
:103C90009C01220F331F280F391F220F331FE09181
:103CA000F901F091FA01E20FF31F808108958091EC
:103CB000F9019091FA010E94BB340895462F96E0D5
:103CC000899FB0011124E091F901F091FA01E60F0A
:103CD000F71F40834423A1F0E091F901F091FA012C
:103CE000E60FF71FA181B2812C9181E090E0038063
:103CF00002C0880F991F0A94E2F7282B2C9314C056
:103D0000E091F901F091FA01E60FF71FA181B2816C
:103D10002C9181E090E0038002C0880F991F0A94E3
:103D2000E2F7809582238C93E091F901F091FA01FA
:103D3000E60FF71F8581648150E020E00E94C70EE6
:103D40000895AF92BF92CF92DF92EF92FF920F93BE
:103D50001F93DF93CF930F92CDB7DEB780E160EF73
:103D60000E943409982F8093F80186E0989FC00143
:103D700011240E940E348093F9019093FA01DD24FE
:103D800056E0C52E5E010894A11CB11C2FC0DC9C1E
:103D9000700111244091F9015091FA014E0D5F1DFF
:103DA0009A012B5F3F4FC50160E070E04C5F5F4FB1
:103DB0000E944A090091F9011091FA010E0D1F1D90
:103DC000898161E00E940609F80192838183E09174
:103DD000F901F091FA01EE0DFF1D8981982F97707E
:103DE0009383108261E00E94FC07D3948091F801D4
:103DF000D81668F20F90CF91DF911F910F91FF902D
:103E0000EF90DF90CF90BF90AF9008958DEF91E04D
:103E100008951092FD011092FE011092FF01109280
:103E20000002109208021092090210920A021092E7
:103E30001202109213021092140210921C0210929D
:103E40001D0210921E020895982F542F722F88235E
:103E500021F0AEEFB1E0E0E028C04091FD01242F59
:103E600030E0F901EE0FFF1FC901B3E0880F991F81
:103E7000BA95E1F7E80FF91FE350FE4F6183F901AE
:103E8000EE0FFF1FEE0FFF1FE20FF31FEE0FFF1FDE
:103E9000E150FE4F508371834F5F4093FD010895C1
:103EA000EF5F1A96E43009F4C4C08C918917C1F70A
:103EB000ACC06130B9F0613030F0603811F1613878
:103EC00009F0B7C02CC0FC0133E0EE0FFF1F3A959C
:103ED000E1F7880F991FE80FF91FE350FE4F548355
:103EE00075830895FC01B3E0EE0FFF1FBA95E1F76B
:103EF000880F991FE80FF91FE350FE4F5683778311
:103F00000895FC0173E0EE0FFF1F7A95E1F7880F2B
:103F1000991FE80FF91FE350FE4F50870895FC01E9
:103F200043E0EE0FFF1F4A95E1F7880F991FE80F56
:103F3000F91FE350FE4F51870895623061F16330FD
:103F400030F4662361F0613009F073C016C064304C
:103F5000F1F1643070F1653009F06BC047C0FC01CD
:103F600023E0EE0FFF1F2A95E1F7880F991FE80F56
:103F7000F91FE350FE4F54830895FC01A3E0EE0FB8
:103F8000FF1FAA95E1F7880F991FE80FF91FE3506B
:103F9000FE4F55830895FC0163E0EE0FFF1F6A9505
:103FA000E1F7880F991FE80FF91FE350FE4F568382
:103FB0000895FC0133E0EE0FFF1F3A95E1F7880FFB
:103FC000991FE80FF91FE350FE4F57830895FC0136
:103FD000B3E0EE0FFF1FBA95E1F7880F991FE80FC6
:103FE000F91FE350FE4F5087718708950196FC0139
:103FF00063E0EE0FFF1F6A95E1F7880F991FE80F46
:10400000F91FE350FE4F508308958E2F90E0FC017E
:10401000EE0FFF1FEE0FFF1FE80FF91FEE0FFF1F40
:10402000E150FE4FE081E03C09F443CFE03E09F46B
:1040300084CF089590E0FC01EE0FFF1FEE0FFF1FED
:10404000E80FF91FEE0FFF1FE150FE4F808108952A
:10405000282F109226028093FB016093FC01EFEF62
:10406000F1E090E080818623821709F49F5F3A9601
:1040700082E0E732F807B1F7892F08954091FC01FB
:104080002091FB0180912602382F3F5F90E0FC01D8
:10409000EE0FFF1FEE0FFF1FE80FF91FEE0FFF1FC0
:1040A000E150FE4F80818423821711F0832FECCFE3
:1040B000309326022AE0329F900111242C503E4F6B
:1040C000C9010895282FEEEFF1E090E001C09F5F55
:1040D0008081821729F03A969430C9F78FEF0895BE
:1040E000892F806808958F77AFEFB1E040E025E039
:1040F000829F90011124220F331F2A0F3B1F90E053
:10410000FC01EE0FFF1FEE0FFF1FE80FF91FEE0F70
:10411000FF1FEA0FFB1F07C080819C918927862320
:1041200009F44F5F1A96A217B307B1F7842F0895C9
:1041300090E02BE030E0AC01429FC001439F900D26
:10414000529F900D1124E0912C02F0912D02E80F66
:10415000F91F82810895809129028F5F809329023F
:10416000089580912C0290912D020E94BB340895F5
:10417000DF92EF92FF920F931F93CF93DF93809183
:104180002902843108F4D4C01092290281E080937E
:104190002A02FF249BE0D92E83E0E82EC2C0FD9CBA
:1041A000E0011124E0912C02F0912D02EC0FFD1F93
:1041B000818587FD02C0815081878185882361F4D4
:1041C0000190F081E02D8381648140E020E030E0C7
:1041D00000E010E00E94560DE0912C02F0912D02BB
:1041E000EC0FFD1F828587FD02C08150828782858A
:1041F000882361F40190F081E02D8581668140E0A3
:1042000020E030E000E010E00E94560DA0912C026A
:10421000B0912D02AC0FBD1F14968D919C911597F6
:10422000009731F0019715969C938E93149778C060
:1042300018969C911897892F8370813069F59C7F1F
:1042400018969C931897ED91FC911197808580FFAB
:104250001AC01996EC928581668140E020E030E03A
:1042600000E010E00E94560DE0912C02F0912D022A
:10427000EC0FFD1F0190F081E02D8381648144E605
:1042800020E030E007C08381648140E020E030E03E
:1042900000E010E00E94560DA0912C02B0912D027A
:1042A000AC0FBD1F18969C911897892F8370823090
:1042B00069F59C7F18969C931897ED91FC91119746
:1042C000808580FF1AC01A96EC928381648140E059
:1042D00020E030E000E010E00E94560DE0912C025A
:1042E000F0912D02EC0FFD1F0190F081E02D8581F2
:1042F000668144E620E030E007C08581668140E0C9
:1043000020E030E000E010E00E94560DE0912C0229
:10431000F0912D02EC0FFD1F17821682838182839C
:10432000F39480912B02F81608F439CF10922A02E8
:10433000DF91CF911F910F91FF90EF90DF90089543
:104340004F925F926F927F928F929F92AF92BF92A5
:10435000CF92DF92EF92FF920F931F93CF93DF9351
:10436000982F80912A02813009F4ABC08BE0989F8E
:104370002001112480902C0290902D02840C951C19
:10438000F40182819381C681D78104811581608087
:104390007180282F30E08917C0F4C01BD10BF301C6
:1043A000678184E690E0AC01C49FC001C59F900D79
:1043B000D49F900D112470E00E94E733260F371F21
:1043C00030932802209327023BC0B901882777FD4C
:1043D0008095982F0E94EC325B016C01C01BD10BC1
:1043E00084E690E0C89FB001C99F700DD89F700D02
:1043F000112480E090E00E94EA327B018C01F301FD
:10440000678170E0882777FD8095982F0E94EC32B5
:1044100026E636E646E85FEB0E9478339B01AC0166
:10442000C801B7010E9451329B01AC01C601B50120
:104430000E94ED310E94B9327093280260932702E6
:10444000809127029091280297FF04C010922802C1
:1044500010922702809127029091280285369105BB
:1044600034F084E690E090932802809327028091B4
:104470002702F4018283E0912C02F0912D02E40DD9
:10448000F51D1582148217821682428143830190A2
:10449000F081E02D8281608150E020E00E94C70E13
:1044A000DF91CF911F910F91FF90EF90DF90CF9010
:1044B000BF90AF909F908F907F906F905F904F9044
:1044C0000895FFCFCF92DF92FF920F931F93CF9368
:1044D000DF93982FF62E80912A02813009F4F7C0DD
:1044E0008BE0989F60011124C0912C02D0912D0285
:1044F000CC0DDD1D888590E083709070892B09F0CC
:10450000DDC02A81621718F0662319F061C06623A6
:1045100089F4E881F981678170E0882777FD8095CB
:10452000982F0E94EC3220E030E040EA5FE30E94E6
:10453000783320C030E0261B3109E881F98187817A
:1045400090E0289FB001299F700D389F700D1124B5
:10455000882777FD8095982F0E94EC3226E636E674
:1045600046E85FE30E94783320E030E048EC52E414
:104570000E9451320E94BE327D836C838C819D816A
:104580009F838E8388858C7F81608887E881F9810D
:10459000808580FF02C083E08987E881F981858179
:1045A000668140E020E030E000E010E00E94560D1F
:1045B000E0912C02F0912D02EC0DFD1D0190F08197
:1045C000E02D8381648144E620E030E00E94560DB6
:1045D000C0912C02D0912D02CC0DDD1D8A818F154A
:1045E00028F044E6F41609F057C003C054E6F51667
:1045F00099F4E881F981678170E0882777FD8095DB
:10460000982F0E94EC322AE939E949E95FE30E94D8
:1046100078330E94BE3214C02F2D30E0281B3109A0
:10462000E881F981878190E0AC01249FC001259F3A
:10463000900D349F900D112464E670E00E94FB33CE
:104640007D836C838C819D819F838E8388858C7F05
:1046500082608887E881F981808580FF02C083E0DD
:104660008A87E881F9818381648140E020E030E03D
:1046700000E010E00E94560DE0912C02F0912D0216
:10468000EC0DFD1D0190F081E02D8581668144E6F1
:1046900020E030E00E94560DE0912C02F0912D02B6
:1046A000EC0DFD1DF3820190F081E02D828160818F
:1046B0004F2D50E020E00E94C70E0AC0E881F9812A
:1046C00082E0608140E020E00E940E0D01C0FFCF3B
:1046D000DF91CF911F910F91FF90DF90CF900895C0
:1046E000482F282F30E08BE090E0BC01269FC001CE
:1046F000279F900D369F900D1124E0912C02F09190
:104700002D02E80FF91F808590E083709070892B4F
:1047100021F0842F0E94A0210895842F64E60E9436
:1047200062220895482F282F30E08BE090E0BC01F2
:10473000269FC001279F900D369F900D1124E09178
:104740002C02F0912D02E80FF91F808590E0837014
:104750009070892B21F0842F0E94A0210895842F2E
:1047600060E00E9462220895CF93DF93982F8BE040
:10477000989FE0011124E0912C02F0912D02EC0FA2
:10478000FD1F808587FF04C0892F0E94702303C00E
:10479000892F0E949223E0912C02F0912D02EC0FC0
:1047A000FD1F808580588087DF91CF910895282F45
:1047B0008BE0289FC0011124E0912C02F0912D0282
:1047C000E80FF91F808590E083709070892B21F0AD
:1047D000822F0E94A02108958281882319F0822FC0
:1047E00060E002C0822F64E60E9462220895BF92B8
:1047F000CF92DF92EF92FF920F931F9380EC6FEFB7
:104800000E942820982F80932B028BE0989FC00154
:1048100011240E940E3480932C0290932D02DD24EB
:104820002BE0B22ECC24CA9424C0DB9C700111244E
:1048300000912C0210912D020E0D1F1D0E943E2092
:10484000F80191838083E0912C02F0912D02EE0D0E
:10485000FF1D1282E0912C02F0912D02EE0DFF1D42
:10486000138215821482178216821086C186C28630
:10487000D39480912B02D816C0F210922902109284
:104880002A021F910F91FF90EF90DF90CF90BF9081
:10489000089590915502903119F09032C1F406C0FC
:1048A000E0913002F0913102628311C0882339F423
:1048B000E0913002F09131026283738308C0803A44
:1048C00031F4E0913002F0913102648375838EE817
:1048D00080933202089580912F02882319F081502D
:1048E00080932F0280915502803249F4E09130028A
:1048F000F09131028085882311F0815080870895DE
:10490000CF93DF9380912E028F5F80932E02A82F8A
:10491000B0E0ED01CC0FDD1FCC0FDD1FCD5CDD4F16
:1049200080915C0290915D02998388838091550209
:10493000813071F4E0913002F0913102AA0FBB1F77
:10494000AA0FBB1FAB5CBD4F83818C9384818B838B
:10495000DF91CF910895E0913002F091310284818E
:10496000882339F482818383853608F0138280E1BD
:10497000848308950F931F93182F062F809132027E
:104980008958823020F481E06BE00E946E1481E04F
:1049900068E00E946E1410933202802F6AE00E9439
:1049A000DB338F5F80935B021F910F91089580E04E
:1049B00069EA0E94D60582E00E94FD050E94C705B3
:1049C0008823E1F781E00E943E0608951F93CF936C
:1049D000DF93EC010E94D724888380E069EA0E947B
:1049E000D60588818F5F0E94FD050E94C705882338
:1049F000E1F711E008C0812F0E943E06FE01E10FA1
:104A0000F11D80831F5F88818117A8F7DF91CF9107
:104A10001F9108951F9380E069EA0E94D60583E004
:104A20000E94FD050E94C7058823E1F782E00E94ED
:104A30003E06182F81E00E943E06682F812F0E94BB
:104A40002E011F910895EF92FF920F931F938C01F7
:104A500080935C0210935D0280E068EA0E94D605B4
:104A600081E0612F0E94D60582E0602F0E94D6056A
:104A70000E94F90583E00E94FD050E94C705882376
:104A8000E1F70E94D72480935502803109F447C092
:104A9000803209F46EC0813009F0B2C085E090E048
:104AA0000E940E348C0190933102809330020E9458
:104AB000D724F80180830091300210913102F8016F
:104AC000908181E1989FC00111240E940E34F80169
:104AD00081839283EE2431E1F32E17C0EF9C800195
:104AE000112481819281800F911F0E94E624E09120
:104AF0003002F091310281819281080F191F0E94CA
:104B00000A25F801908B8787E394E0913002F091B9
:104B100031028081E81610F31382148271C086E19D
:104B200090E00E940E348C01909331028093300209
:104B30000E94D724F8018083009130021091310245
:104B40000E94D724F8018183E0913002F091310274
:104B50008FEF82836081418120E000E010E00E94BD
:104B60004E0CE0913002F09131021482CF01059693
:104B700045C08AE190E00E940E348C01909331028E
:104B8000809330020E94D724F80180830091300284
:104B9000109131020E94D724F8018183E091300204
:104BA000F09131022FEFE22E2FE7F22EF382E28214
:104BB0008FEF6081418120E000E010E00E944E0C08
:104BC000E0913002F0913102F582E4828FEF608152
:104BD000418120EA0E944E0C009130021091310276
:104BE000F80116820E94D724F8018783E0913002F1
:104BF000F091310287818087CF0109960E94E624D7
:104C00001F910F91FF90EF900895E0912E02F0E038
:104C1000EE0FFF1FEE0FFF1FED5CFD4F80819181B6
:104C20000E942325809155028130C1F420913002E9
:104C300030913102E0912E02F0E0EE0FFF1FEE0FF7
:104C4000FF1FDF01AB5CBD4F8C91D90113968C9394
:104C50001397ED5CFD4F838114968C9380912E0207
:104C6000815080932E0208950F931F9380913202FA
:104C70008F3F09F4BCC180915A0280932F0284E6D1
:104C800090E00E94980480915502803109F481C01F
:104C9000803209F408C1813009F0A5C18091320247
:104CA0008A38B1F08B3829F1893809F09CC1E0913C
:104CB0003002F09131028381882311F08150838387
:104CC00094818381891708F08EC1915094838BC1A0
:104CD000E0913002F09131024381242F30E0808155
:104CE00090E00197281739070CF07DC14F5F43838F
:104CF0007AC1E0913002F0913102838190E09C0111
:104D000044E0220F331F4A95E1F7280F391F018035
:104D1000F281E02DE20FF31F0785108920912E020A
:104D2000E22FF0E0EE0FFF1FEE0FFF1FED5CFD4FD7
:104D3000808191818017910721F0263028F50E940B
:104D40008024E0913002F0913102818192810E94B1
:104D5000BB3480913002909131020E94BB34E091CB
:104D60002E02F0E0EE0FFF1FEE0FFF1FED5CFD4F78
:104D7000808191818017910721F0C8010E9423252D
:104D800032C10E9405262FC18AE06AE00E946E149B
:104D90002AC1809132028A3819F18B3820F489387F
:104DA00009F021C106C08B38C9F18C3809F01BC14C
:104DB00070C0E0913002F091310282818F3F09F49E
:104DC00012C10E94AB24E0913002F0913102838144
:104DD00090915B02981710F4891B1EC0138203C1C7
:104DE000E0913002F091310282818F3F09F4FBC0E3
:104DF0000E94AB24E0913002F09131023381209186
:104E00005B02832F90E0820F911D843691051CF484
:104E1000230F2383E8C084E68383E5C0E09130025A
:104E2000F09131028481882329F4CF010E94BB34A0
:104E30000E940526E0913002F09131028481803198
:104E400009F0D1C010810E94D60B181751F481E0EF
:104E500069E00E946E14E0913002F091310283818A
:104E600005C0E0913002F09131028FEF8283E09132
:104E70003002F091310280816181438120E030E095
:104E800001E010E00E94560DE0913002F0913102F5
:104E900008C0E0913002F09131028481803109F044
:104EA000A2C01482A0C0809132028A3889F18B3866
:104EB00020F4893809F097C007C08B3809F448C03E
:104EC0008C3809F090C077C0E0913002F091310247
:104ED000448155812FE74F3F520709F484C080E198
:104EE000868380915B02282F30E0A3E0220F331FDE
:104EF000AA95E1F7C9018F539140481759072CF043
:104F0000421B530B558344836EC080EC9EEF1DC043
:104F1000E0913002F0913102248135818FE72F3FFB
:104F2000380709F460C080E1868380915B0290E0DD
:104F300073E0880F991F7A95E1F7820F931F23E0A2
:104F4000803C920714F080EC93E0958384834BC0FF
:104F5000E0913002F09131028681882329F4CF015B
:104F60000E94BB340E940526E0913002F09131028C
:104F700086818031C1F5248135818081618140EA5B
:104F800001E010E00E94560DE0913002F0913102F4
:104F900010810E94D60B181749F0E0913002F09171
:104FA00031028FEF9FE79583848318C081E069E029
:104FB0000E946E1413C0E0913002F091310286819C
:104FC000803189F48FEF9FE7958384838FEF608131
:104FD000418120EA00E010E00E944E0CE091300296
:104FE000F091310216828FEF8093320231C08091AE
:104FF0002F02882369F580E090E00E9498042091B8
:1050000058023091590280915C0290915D022817FC
:105010003907F1F00E94802480915502803161F0BF
:10502000803251F0813071F4E0913002F091310220
:10503000818192810E94BB34809130029091310233
:105040000E94BB3480915802909159020E942325FE
:10505000809155028032A9F4E0913002F091310242
:105060008085882371F48FEF6081418120E000E02A
:1050700010E00E944E0CE0913002F09131028781E5
:1050800080871F910F91089580EF6FEF0E94282075
:10509000882309F44FC00E943E20909354028093CD
:1050A000530280E068EA0E94D60581E060E00E9439
:1050B000D60582E060E00E94D6050E94F90583E0F3
:1050C0000E94FD050E94C7058823E1F70E940A257A
:1050D00090935702809356020E940A25909359029A
:1050E000809358020E94D72480935A0280932F0203
:1050F000809156029091570290933402809333022C
:10510000E0912E02F0E0EE0FFF1FEE0FFF1FDF0118
:10511000AB5CBD4F1C92ED5CFD4F138210922E02D2
:105120000E942325E0913002F09131021382148213
:105130008EE801C08FEF80933202089582E692E0FC
:105140000895E2E6F2E01082118212821382349610
:1051500083E0E236F807B9F70895E82FF0E0EE0FA4
:10516000FF1FEE0FFF1FE60FF11DEE59FD4F4083AD
:10517000089590E0880F991FE0915F02F09160021E
:10518000E80FF91F60830895809161028F5F80931B
:1051900061020895809162038F5F80936203089596
:1051A000FF920F931F93F82E062F122FCA0134E09F
:1051B000969587953A95E1F7682F70E03DC0A72F47
:1051C000B0E0FD01EE0FFF1FEE0FFF1FEE59FD4F88
:1051D00080818E7F8C33D9F481818F15C1F49D013C
:1051E000220F331FF901EE0FFF1FEC59FD4F808195
:1051F000801769F4E0915F02F091600217FF04C02C
:10520000E20FF31F608303C0E20FF31F4083AA0F76
:10521000BB1FAA0FBB1FAE59BD4F8C918D3359F4E4
:10522000872F90E0880F991FE0915F02F091600254
:10523000E80FF91F11827F5F80915E02781708F4F2
:10524000BECF1F910F91FF900895811181E06111F0
:105250008260089580915F02909160020E94BB3449
:1052600008952F923F924F925F926F927F928F920A
:105270009F92AF92BF92CF92DF92EF92FF920F93E5
:105280001F93CF93DF93809161028A3010F40C94C6
:105290005F3110926102882487E8582E00EA202EA0
:1052A00005E0302E1CE3412EBCE36B2E712C0C94D8
:1052B0005731C82DD0E0FE01EE0FFF1FEE0FFF1F8C
:1052C000EE59FD4F5081B180503458F08B2D90E055
:1052D000880F991FE0915F02F0916002E80FF91FBB
:1052E000B080FE01EE0FFF1FEE0FFF1FEC59FD4FC8
:1052F000A08057FF0BC08A2D90E0880F991FE09186
:105300005F02F0916002E80FF91FA080FE01EE0F2E
:10531000FF1FEE0FFF1FEE59FD4F9380503C58F0DA
:10532000892D90E0880F991FE0915F02F091600253
:10533000E80FF91F9080852F887F8037C9F4882D6A
:1053400090E0880F991FE0915F02F0916002E80FF2
:10535000F91F4181442361F02A2D30E0277030701D
:105360008091620390E08217930714F041504183CB
:10537000852F90E0FC01B097EC3CF10508F096C752
:10538000E65DFF4FEE0FFF1F0590F491E02D0994AD
:105390000E94E20A182F0E94E50A24E6129FF001FB
:1053A0001124E80FF11D4B2D50E08A2D90E08F70F5
:1053B0009070BC0113E0660F771F1A95E1F7880F14
:1053C000991F680F791FCA018F739070DC0124E662
:1053D00030E0A29FC001A39F900DB29F900D1124B9
:1053E000680F791FE617F70730F1292D30E0407C70
:1053F0005070440F551F440F551F242B352BC901E6
:1054000053E0880F991F5A95E1F7220F331F820F3F
:10541000931F860F971F8E179F0768F0882D90E0C7
:10542000880F991FE0915F02F0916002E80FF91F69
:105430008FEF80833BC7882D90E0880F991FE09104
:105440005F02F0916002E80FF91F10822FC70E94DF
:10545000DF0A182F0E94E20A149DF0011124E80FC0
:10546000F11D4B2D50E02A2D30E0B9016F737070A3
:10547000CA018F739070DC01A69DC001A79D900D9D
:10548000B69D900D1124680F791FE617F70728F1D4
:10549000207C3070220F331F220F331F407C50704E
:1054A00014E0440F551F1A95E1F7242B352B892D55
:1054B00090E0282B392B260F371F2E173F0768F057
:1054C000882D90E0880F991FE0915F02F0916002B3
:1054D000E80FF91F8FEF8083E9C6882D90E0880FD1
:1054E000991FE0915F02F0916002E80FF91F1082AE
:1054F000DDC60E94DC0AD82E0E94DF0AC82ECB2D02
:10550000D0E0EA2CFF2487010F731070CE018F7159
:105510009070FC01E69DC001E79D900DF69D900DF9
:105520001124080F191F0E94D90A853020F4B5FCF8
:1055300002C00FEF1FEF0E94D90A853021F4C6FD8B
:1055400002C00FEF1FEF0E94D90A863011F4B7FE98
:1055500025C0D49C900111242C0D311D201731073A
:10556000E8F0892D90E0F0ECEF22FF24EE0CFF1C18
:10557000EE0CFF1C8E299F29080F191F0217130715
:1055800068F0882D90E0880F991FE0915F02F091FC
:105590006002E80FF91F8FEF808388C6882D90E0A6
:1055A000880F991FE0915F02F0916002E80FF91FE8
:1055B00010827CC60E94D90A082F0E94DC0AE82EBD
:1055C0000E94DF0A10E0029DA001039D500D129D74
:1055D000500D1124E49C700111244E0D5F1D480FE5
:1055E000511D2A2D30E08B2D82958695877090E095
:1055F000829DD001839DB00D929DB00D11248B2D05
:1056000090E08F719070BC01669DC001679D900D08
:10561000769D900D1124A80FB91FC9018F7390704A
:10562000A80FB91F4A175B07E0F0892D90E0207C96
:105630003070220F331F220F331F822B932B8A0FC0
:105640009B1F8417950768F0882D90E0880F991F9D
:10565000E0915F02F0916002E80FF91F8FEF808305
:1056600025C6882D90E0880F991FE0915F02F09188
:105670006002E80FF91F108219C6882D90E0880F8C
:10568000991FE0915F02F0916002E80FF91F81819C
:10569000882319F08150818309C69182882D6B2D52
:1056A0004A2D20E000E010E00E944E0CFFC5282D9E
:1056B00030E0220F331FE0915F02F0916002E20FB1
:1056C000F31F91818081981709F49082E0915F0225
:1056D000F0916002E20FF31F80818183E7C5282DDE
:1056E00030E0220F331FA0915F02B0916002A20F41
:1056F000B31F8C918B1550F4CC0FDD1FCC0FDD1F29
:10570000CE59DD4F8B81882384F40BC0B81668F422
:10571000CC0FDD1FCC0FDD1FCE59DD4F8B8186FFF7
:1057200004C071E011967C9302C011961C92E09126
:105730005F02F0916002E20FF31FB082B7C5882DBF
:1057400090E0880F991FE0915F02F0916002E80FEE
:10575000F91F8B2D90E002C0880F991FAA94E2F7E1
:105760008083A4C5882D90E0880F991FE0915F0287
:10577000F0916002E80FF91F8B2D90E002C0959523
:105780008795AA94E2F7808391C5882D90E0E091F7
:105790005F02F0916002BA1439F4880F991FE80F84
:1057A000F91F8FEF808382C5880F991FE80FF91FBB
:1057B00010827CC5882D90E0E0915F02F09160023C
:1057C000BA1439F0880F991FE80FF91F8FEF808303
:1057D0006DC5880F991FE80FF91F108267C5882DC6
:1057E00090E0E0915F02F0916002BA1438F4880F03
:1057F000991FE80FF91F8FEF808358C5880F991FF5
:10580000E80FF91F108252C5882D90E0E0915F02E9
:10581000F0916002AB1438F0880F991FE80FF91F60
:105820008FEF808343C5880F991FE80FF91F1082FF
:105830003DC5882D90E0E0915F02F0916002AB14CD
:1058400038F4880F991FE80FF91F8FEF80832EC55A
:10585000880F991FE80FF91F108228C5882D90E046
:10586000E0915F02F0916002BA1438F0880F991F3E
:10587000E80FF91F8FEF808319C5880F991FE80F74
:10588000F91F108213C5882D90E0880F991FE091B1
:105890005F02F0916002E80FF91FAB0C9A0C908246
:1058A00005C5882D90E0880F991FE0915F02F09167
:1058B0006002E80FF91FBA18B918B082F7C4882D32
:1058C00090E0880F991FE0915F02F0916002E80F6D
:1058D000F91FAB9C90011124892D90E0DC012A9FD7
:1058E000C0012B9F900D3A9F900D11248083DEC440
:1058F000882D90E0880F991FE0915F02F09160027F
:10590000E80FF91F8B2D6A2D0E94DB3390E0692D83
:1059100070E00E94FB336083C9C4882D90E0880F3B
:10592000991FE0915F02F0916002E80FF91FAB2030
:105930009A209082BBC4882D90E0880F991FE09137
:105940005F02F0916002E80FF91FAB289A2890825D
:10595000ADC4882D90E0880F991FE0915F02F0910F
:105960006002E80FF91FAB20A920A094A0829EC47A
:10597000882D90E0880F991FE0915F02F0916002FE
:10598000E80FF91FAB28A928A094A0828FC4882D06
:1059900090E0880F991FE0915F02F0916002E80F9C
:1059A000F91FAB249A24908281C4882D90E0880F3F
:1059B000991FC0905F02D0906002C80ED91E6B2D57
:1059C00070E06A0D711D882777FD8095982F0E94E1
:1059D000EC327B018C01692D70E0882777FD809582
:1059E000982F0E94EC3220E030E040E85DE30E9416
:1059F00078339B01AC01C801B7010E9478330E9443
:105A0000BE32F601608352C4882D90E0880F991F42
:105A1000E0915F02F0916002E80FF91F6B2D70E0DA
:105A20006A0D711D892D90E00E94FB3360833EC496
:105A3000882D90E0880F991FC0905F02D09060027F
:105A4000C80ED91E6B2D70E0882777FD8095982FA2
:105A50000E94EC327B018C016A2D70E080E090E0C6
:105A60000E94EA329B01AC01C801B7010E94513289
:105A70007B018C01692D70E0882777FD8095982F38
:105A80000E94EC329B01AC01C801B7010E9478333F
:105A90000E94BE32D6016C9309C4882D90E0880F15
:105AA000991FE0915F02F0916002E80FF91F818178
:105AB0004B2D50E0282F30E06081B81690F4241B65
:105AC000350B35952795862F90E0820F911D8F3FDE
:105AD000910521F01CF08FEF8083E8C3260F20830F
